{
  "address": "0xFA6a8E91b44749677B7B6434Ad7Dec59CDcE140D",
  "abi": [
    {
      "inputs": [
        {
          "internalType": "address",
          "name": "descartesAddress",
          "type": "address"
        }
      ],
      "stateMutability": "nonpayable",
      "type": "constructor"
    },
    {
      "anonymous": false,
      "inputs": [
        {
          "indexed": false,
          "internalType": "uint256",
          "name": "adId",
          "type": "uint256"
        },
        {
          "indexed": false,
          "internalType": "uint256",
          "name": "purchaseId",
          "type": "uint256"
        },
        {
          "indexed": false,
          "internalType": "bytes",
          "name": "encryptedDataKey",
          "type": "bytes"
        }
      ],
      "name": "PurchaseAccepted",
      "type": "event"
    },
    {
      "anonymous": false,
      "inputs": [
        {
          "indexed": false,
          "internalType": "uint256",
          "name": "adId",
          "type": "uint256"
        },
        {
          "indexed": false,
          "internalType": "uint256",
          "name": "purchaseId",
          "type": "uint256"
        },
        {
          "indexed": false,
          "internalType": "uint256",
          "name": "descartesIndex",
          "type": "uint256"
        }
      ],
      "name": "PurchaseChallenged",
      "type": "event"
    },
    {
      "anonymous": false,
      "inputs": [
        {
          "indexed": false,
          "internalType": "uint256",
          "name": "adId",
          "type": "uint256"
        },
        {
          "indexed": false,
          "internalType": "uint256",
          "name": "purchaseId",
          "type": "uint256"
        },
        {
          "indexed": false,
          "internalType": "bool",
          "name": "isSuccess",
          "type": "bool"
        }
      ],
      "name": "PurchaseFinalized",
      "type": "event"
    },
    {
      "anonymous": false,
      "inputs": [
        {
          "indexed": false,
          "internalType": "uint256",
          "name": "adId",
          "type": "uint256"
        },
        {
          "indexed": false,
          "internalType": "uint256",
          "name": "purchaseId",
          "type": "uint256"
        },
        {
          "indexed": false,
          "internalType": "address",
          "name": "buyer",
          "type": "address"
        },
        {
          "indexed": false,
          "internalType": "bytes",
          "name": "buyerKey",
          "type": "bytes"
        }
      ],
      "name": "PurchaseRequested",
      "type": "event"
    },
    {
      "inputs": [
        {
          "internalType": "uint256",
          "name": "_purchaseId",
          "type": "uint256"
        },
        {
          "internalType": "bytes",
          "name": "_encryptedDataKey",
          "type": "bytes"
        }
      ],
      "name": "acceptPurchase",
      "outputs": [],
      "stateMutability": "payable",
      "type": "function"
    },
    {
      "inputs": [
        {
          "internalType": "uint256",
          "name": "_notificationId",
          "type": "uint256"
        }
      ],
      "name": "archiveNotification",
      "outputs": [],
      "stateMutability": "nonpayable",
      "type": "function"
    },
    {
      "inputs": [
        {
          "internalType": "uint256",
          "name": "_purchaseId",
          "type": "uint256"
        },
        {
          "internalType": "bytes",
          "name": "_privateKey",
          "type": "bytes"
        }
      ],
      "name": "challengePurchase",
      "outputs": [
        {
          "internalType": "uint256",
          "name": "descartesIndex",
          "type": "uint256"
        }
      ],
      "stateMutability": "nonpayable",
      "type": "function"
    },
    {
      "inputs": [
        {
          "internalType": "uint256",
          "name": "_purchaseId",
          "type": "uint256"
        },
        {
          "internalType": "bool",
          "name": "isSuccess",
          "type": "bool"
        }
      ],
      "name": "finalizePurchase",
      "outputs": [],
      "stateMutability": "nonpayable",
      "type": "function"
    },
    {
      "inputs": [
        {
          "internalType": "uint256",
          "name": "_adId",
          "type": "uint256"
        }
      ],
      "name": "getAd",
      "outputs": [
        {
          "components": [
            {
              "internalType": "address payable",
              "name": "seller",
              "type": "address"
            },
            {
              "internalType": "uint256",
              "name": "price",
              "type": "uint256"
            },
            {
              "internalType": "bytes32",
              "name": "dataHash",
              "type": "bytes32"
            },
            {
              "internalType": "bytes32",
              "name": "encryptedDataHash",
              "type": "bytes32"
            },
            {
              "internalType": "bytes",
              "name": "ipfsPath",
              "type": "bytes"
            },
            {
              "internalType": "bytes32",
              "name": "testTemplateHash",
              "type": "bytes32"
            }
          ],
          "internalType": "struct ContentMarketplace.Advertisement",
          "name": "",
          "type": "tuple"
        }
      ],
      "stateMutability": "view",
      "type": "function"
    },
    {
      "inputs": [
        {
          "internalType": "uint256[]",
          "name": "_adIds",
          "type": "uint256[]"
        }
      ],
      "name": "getAds",
      "outputs": [
        {
          "components": [
            {
              "internalType": "address payable",
              "name": "seller",
              "type": "address"
            },
            {
              "internalType": "uint256",
              "name": "price",
              "type": "uint256"
            },
            {
              "internalType": "bytes32",
              "name": "dataHash",
              "type": "bytes32"
            },
            {
              "internalType": "bytes32",
              "name": "encryptedDataHash",
              "type": "bytes32"
            },
            {
              "internalType": "bytes",
              "name": "ipfsPath",
              "type": "bytes"
            },
            {
              "internalType": "bytes32",
              "name": "testTemplateHash",
              "type": "bytes32"
            }
          ],
          "internalType": "struct ContentMarketplace.Advertisement[]",
          "name": "",
          "type": "tuple[]"
        }
      ],
      "stateMutability": "view",
      "type": "function"
    },
    {
      "inputs": [
        {
          "internalType": "uint256[]",
          "name": "_notificationIds",
          "type": "uint256[]"
        }
      ],
      "name": "getNotifications",
      "outputs": [
        {
          "components": [
            {
              "internalType": "uint256",
              "name": "purchaseId",
              "type": "uint256"
            },
            {
              "internalType": "string",
              "name": "message",
              "type": "string"
            },
            {
              "internalType": "enum ContentMarketplace.NotificationType",
              "name": "nType",
              "type": "uint8"
            },
            {
              "internalType": "bool",
              "name": "archive",
              "type": "bool"
            },
            {
              "internalType": "uint256",
              "name": "date",
              "type": "uint256"
            },
            {
              "internalType": "address",
              "name": "sender",
              "type": "address"
            },
            {
              "internalType": "address",
              "name": "receiver",
              "type": "address"
            }
          ],
          "internalType": "struct ContentMarketplace.Notification[]",
          "name": "",
          "type": "tuple[]"
        }
      ],
      "stateMutability": "view",
      "type": "function"
    },
    {
      "inputs": [
        {
          "internalType": "uint256",
          "name": "_purchaseId",
          "type": "uint256"
        }
      ],
      "name": "getPurchase",
      "outputs": [
        {
          "components": [
            {
              "internalType": "uint256",
              "name": "adId",
              "type": "uint256"
            },
            {
              "internalType": "address payable",
              "name": "buyer",
              "type": "address"
            },
            {
              "internalType": "bytes",
              "name": "buyerKey",
              "type": "bytes"
            },
            {
              "internalType": "bytes",
              "name": "encryptedDataKey",
              "type": "bytes"
            },
            {
              "internalType": "uint256",
              "name": "descartesIndex",
              "type": "uint256"
            },
            {
              "internalType": "uint256",
              "name": "date",
              "type": "uint256"
            }
          ],
          "internalType": "struct ContentMarketplace.Purchase",
          "name": "",
          "type": "tuple"
        }
      ],
      "stateMutability": "view",
      "type": "function"
    },
    {
      "inputs": [
        {
          "internalType": "uint256[]",
          "name": "_purchaseIds",
          "type": "uint256[]"
        }
      ],
      "name": "getPurchases",
      "outputs": [
        {
          "components": [
            {
              "internalType": "uint256",
              "name": "adId",
              "type": "uint256"
            },
            {
              "internalType": "address payable",
              "name": "buyer",
              "type": "address"
            },
            {
              "internalType": "bytes",
              "name": "buyerKey",
              "type": "bytes"
            },
            {
              "internalType": "bytes",
              "name": "encryptedDataKey",
              "type": "bytes"
            },
            {
              "internalType": "uint256",
              "name": "descartesIndex",
              "type": "uint256"
            },
            {
              "internalType": "uint256",
              "name": "date",
              "type": "uint256"
            }
          ],
          "internalType": "struct ContentMarketplace.Purchase[]",
          "name": "",
          "type": "tuple[]"
        }
      ],
      "stateMutability": "view",
      "type": "function"
    },
    {
      "inputs": [
        {
          "internalType": "address",
          "name": "_seller",
          "type": "address"
        }
      ],
      "name": "listAdsPerSeller",
      "outputs": [
        {
          "internalType": "uint256[]",
          "name": "",
          "type": "uint256[]"
        }
      ],
      "stateMutability": "view",
      "type": "function"
    },
    {
      "inputs": [
        {
          "internalType": "address",
          "name": "_user",
          "type": "address"
        }
      ],
      "name": "listNotificationsPerUser",
      "outputs": [
        {
          "internalType": "uint256[]",
          "name": "",
          "type": "uint256[]"
        }
      ],
      "stateMutability": "view",
      "type": "function"
    },
    {
      "inputs": [
        {
          "internalType": "uint256",
          "name": "_purchaseId",
          "type": "uint256"
        },
        {
          "internalType": "string",
          "name": "_message",
          "type": "string"
        },
        {
          "internalType": "address",
          "name": "_sender",
          "type": "address"
        },
        {
          "internalType": "address",
          "name": "_receiver",
          "type": "address"
        },
        {
          "internalType": "enum ContentMarketplace.NotificationType",
          "name": "_type",
          "type": "uint8"
        }
      ],
      "name": "newNotification",
      "outputs": [
        {
          "internalType": "uint256",
          "name": "notificationId",
          "type": "uint256"
        }
      ],
      "stateMutability": "nonpayable",
      "type": "function"
    },
    {
      "inputs": [
        {
          "internalType": "uint256",
          "name": "_adId",
          "type": "uint256"
        },
        {
          "internalType": "bytes",
          "name": "_buyerKey",
          "type": "bytes"
        }
      ],
      "name": "requestPurchase",
      "outputs": [
        {
          "internalType": "uint256",
          "name": "purchaseId",
          "type": "uint256"
        }
      ],
      "stateMutability": "payable",
      "type": "function"
    }
  ],
  "transactionHash": "0xd553e080d2aeba9a602c0fd4ca592412298ab2bed8f2ea92860bc88c316340e4",
  "args": [
    "0x868ddF52D8b8aC93a138f06F41533E16556b8f79"
  ],
  "solcInputHash": "d68a564b93971a0b468bb364d1f39e5a",
  "bytecode": "0x608060405260006001556000600455600060075534801561001f57600080fd5b5060405161192438038061192483398101604081905261003e91610063565b600080546001600160a01b0319166001600160a01b0392909216919091179055610091565b600060208284031215610074578081fd5b81516001600160a01b038116811461008a578182fd5b9392505050565b611884806100a06000396000f3fe6080604052600436106100b25760003560e01c806397f911b21161006f57806397f911b2146101b6578063a401a0cf146101d6578063a7c4e0e014610203578063a987b09614610230578063c357b13c14610243578063d75eb00014610263578063da8af2c914610283576100b2565b80633742a9f7146100b75780634aa64a39146100ed57806351c843761461011a5780635f7b3fed1461012f5780636a1a80d51461015c5780637ede1c0714610189575b600080fd5b3480156100c357600080fd5b506100d76100d2366004611296565b6102a3565b6040516100e491906116d6565b60405180910390f35b3480156100f957600080fd5b5061010d6101083660046111f6565b610421565b6040516100e491906114be565b61012d6101283660046112e1565b6105a7565b005b34801561013b57600080fd5b5061014f61014a366004611325565b610646565b6040516100e491906116e9565b34801561016857600080fd5b5061017c6101773660046111f6565b61070c565b6040516100e4919061151e565b34801561019557600080fd5b506101a96101a4366004611296565b6108da565b6040516100e491906116c3565b3480156101c257600080fd5b5061012d6101d13660046112ae565b6109cc565b3480156101e257600080fd5b506101f66101f13660046111f6565b610b17565b6040516100e491906115e4565b34801561020f57600080fd5b5061022361021e3660046111d5565b610d20565b6040516100e49190611637565b61014f61023e3660046112e1565b610d8c565b34801561024f57600080fd5b5061022361025e3660046111d5565b610edd565b34801561026f57600080fd5b5061012d61027e366004611296565b610f47565b34801561028f57600080fd5b5061014f61029e3660046112e1565b610f67565b6102ab611007565b600082815260056020908152604091829020825160c081018452815481526001808301546001600160a01b0316828501526002808401805487516101009482161594909402600019011691909104601f810186900486028301860187528083529295939493860193919290918301828280156103685780601f1061033d57610100808354040283529160200191610368565b820191906000526020600020905b81548152906001019060200180831161034b57829003601f168201915b505050918352505060038201805460408051602060026001851615610100026000190190941693909304601f81018490048402820184019092528181529382019392918301828280156103fc5780601f106103d1576101008083540402835291602001916103fc565b820191906000526020600020905b8154815290600101906020018083116103df57829003601f168201915b505050505081526020016004820154815260200160058201548152505090505b919050565b60608082516001600160401b038111801561043b57600080fd5b5060405190808252806020026020018201604052801561047557816020015b610462611046565b81526020019060019003908161045a5790505b50905060005b83518110156105a057600084828151811061049257fe5b60209081029190910181015160008181526002808452604091829020825160c08101845281546001600160a01b031681526001808301548288015282840154828601526003830154606083015260048301805486516101009382161593909302600019011694909404601f8101889004880282018801909552848152949650949093608086019390929183018282801561056d5780601f106105425761010080835404028352916020019161056d565b820191906000526020600020905b81548152906001019060200180831161055057829003601f168201915b5050505050815260200160058201548152505083838151811061058c57fe5b60209081029190910101525060010161047b565b5092915050565b6000828152600560209081526040909120825190916105cd91600384019185019061107a565b50610604836040518060600160405280602f8152602001611820602f913960018085015433916001600160a01b0390911690610646565b5080546040517fa2b880b5ac38ac625decca4880208262a354ea5ee5bef8b6b107380857ea97059161063991869086906117b2565b60405180910390a1505050565b600754600090815260086020908152604082208781558651909161067191600184019189019061107a565b5060028101805484919060ff1916600183600481111561068d57fe5b021790555060028101805461ff00191690554260038201556004810180546001600160a01b039687166001600160a01b0319918216179091556005909101805494909516931683179093555060078054600181810190925560009283526009602090815260408420805493840181558452909220018190559392505050565b60608082516001600160401b038111801561072657600080fd5b5060405190808252806020026020018201604052801561076057816020015b61074d611106565b8152602001906001900390816107455790505b50905060005b83518110156105a057600084828151811061077d57fe5b60200260200101519050600860008281526020019081526020016000206040518060e001604052908160008201548152602001600182018054600181600116156101000203166002900480601f0160208091040260200160405190810160405280929190818152602001828054600181600116156101000203166002900480156108485780601f1061081d57610100808354040283529160200191610848565b820191906000526020600020905b81548152906001019060200180831161082b57829003601f168201915b5050509183525050600282015460209091019060ff16600481111561086957fe5b600481111561087457fe5b81526002820154610100900460ff16151560208201526003820154604082015260048201546001600160a01b03908116606083015260059092015490911660809091015283518490849081106108c657fe5b602090810291909101015250600101610766565b6108e2611046565b600082815260026020818152604092839020835160c08101855281546001600160a01b031681526001808301548285015282850154828701526003830154606083015260048301805487516101009382161593909302600019011695909504601f8101859004850282018501909652858152909491936080860193919290918301828280156109b25780601f10610987576101008083540402835291602001916109b2565b820191906000526020600020905b81548152906001019060200180831161099557829003601f168201915b505050505081526020016005820154815250509050919050565b6109d4611007565b6109dd836102a3565b90506109e7611046565b81516109f2906108da565b9050600083610a05578260200151610a08565b81515b60208301516040519192506001600160a01b0383169181156108fc0291906000818181858888f19350505050158015610a45573d6000803e3d6000fd5b508315610a9257610a8c8560405180604001604052806016815260200175283ab931b430b9b2903bb0b99030b1b1b2b83a32b21760511b8152503385600001516003610646565b50610ad4565b610ad28560405180604001604052806016815260200175283ab931b430b9b2903bb0b9903932b532b1ba32b21760511b8152503385600001516004610646565b505b82516040517f90467038d2e860e2611181a29c81cfdc1de0a12763a183f96f6148d2a3bcbb4b91610b08918890889061179a565b60405180910390a15050505050565b60608082516001600160401b0381118015610b3157600080fd5b50604051908082528060200260200182016040528015610b6b57816020015b610b58611007565b815260200190600190039081610b505790505b50905060005b83518110156105a0576000848281518110610b8857fe5b602090810291909101810151600081815260058352604090819020815160c081018352815481526001808301546001600160a01b0316828701526002808401805486516101009482161594909402600019011691909104601f8101889004880283018801865280835295975091959294938601939092830182828015610c4f5780601f10610c2457610100808354040283529160200191610c4f565b820191906000526020600020905b815481529060010190602001808311610c3257829003601f168201915b505050918352505060038201805460408051602060026001851615610100026000190190941693909304601f8101849004840282018401909252818152938201939291830182828015610ce35780601f10610cb857610100808354040283529160200191610ce3565b820191906000526020600020905b815481529060010190602001808311610cc657829003601f168201915b5050505050815260200160048201548152602001600582015481525050838381518110610d0c57fe5b602090810291909101015250600101610b71565b6001600160a01b038116600090815260036020908152604091829020805483518184028101840190945280845260609392830182828015610d8057602002820191906000526020600020905b815481526020019060010190808311610d6c575b50505050509050919050565b6000610d96611046565b610d9f846108da565b905080602001513414610dcd5760405162461bcd60e51b8152600401610dc49061167b565b60405180910390fd5b60045460009081526005602090815260409091208581556001810180546001600160a01b0319163317905584519091610e0d91600284019187019061107a565b504260058201556004805460018082019092558254600090815260066020908152604080832080549586018155835281832090940183905583518085019094526016845275141d5c98da185cd9481dd85cc81c995c5d595cdd195960521b908401528451919550610e849286929091339190610646565b50805460018201546040517fb2c74dd2211a23bb10cb03155b814763ac4e02b65ee4dc22bfc9ae52ec14fb8092610ecd92909187916001600160a01b03169060028701906116f2565b60405180910390a1505092915050565b6001600160a01b038116600090815260096020908152604091829020805483518184028101840190945280845260609392830182828015610d805760200282019190600052602060002090815481526020019060010190808311610d6c5750505050509050919050565b6000908152600860205260409020600201805461ff001916610100179055565b6000610f71611007565b610f7a846102a3565b9050610f84611046565b8151610f8f906108da565b9050610fd28560405180604001604052806017815260200176141d5c98da185cd9481dd85cc818da185b1b195b99d959604a1b8152503384600001516002610646565b5081516040517f66de457dd85ecfee23f212af1e25cf9e3cb118a7de6d9f046ce16f58b715ba6391610ecd91889087906117da565b6040518060c001604052806000815260200160006001600160a01b03168152602001606081526020016060815260200160008152602001600081525090565b6040805160c0810182526000808252602082018190529181018290526060808201839052608082015260a081019190915290565b828054600181600116156101000203166002900490600052602060002090601f0160209004810192826110b057600085556110f6565b82601f106110c957805160ff19168380011785556110f6565b828001600101855582156110f6579182015b828111156110f65782518255916020019190600101906110db565b50611102929150611143565b5090565b6040805160e08101825260008082526060602083015290918201908152600060208201819052604082018190526060820181905260809091015290565b5b808211156111025760008155600101611144565b80356001600160a01b038116811461041c57600080fd5b600082601f83011261117f578081fd5b81356001600160401b0381111561119257fe5b6111a5601f8201601f19166020016117f0565b91508082528360208285010111156111bc57600080fd5b8060208401602084013760009082016020015292915050565b6000602082840312156111e6578081fd5b6111ef82611158565b9392505050565b60006020808385031215611208578182fd5b82356001600160401b038082111561121e578384fd5b818501915085601f830112611231578384fd5b81358181111561123d57fe5b838102915061124d8483016117f0565b8181528481019084860184860187018a1015611267578788fd5b8795505b8386101561128957803583526001959095019491860191860161126b565b5098975050505050505050565b6000602082840312156112a7578081fd5b5035919050565b600080604083850312156112c0578081fd5b82359150602083013580151581146112d6578182fd5b809150509250929050565b600080604083850312156112f3578182fd5b8235915060208301356001600160401b0381111561130f578182fd5b61131b8582860161116f565b9150509250929050565b600080600080600060a0868803121561133c578081fd5b8535945060208601356001600160401b03811115611358578182fd5b6113648882890161116f565b94505061137360408701611158565b925061138160608701611158565b9150608086013560058110611394578182fd5b809150509295509295909350565b6001600160a01b03169052565b60008151808452815b818110156113d4576020818501810151868301820152016113b8565b818111156113e55782602083870101525b50601f01601f19169290920160200192915050565b600060018060a01b038251168352602082015160208401526040820151604084015260608201516060840152608082015160c0608085015261143f60c08501826113af565b60a093840151949093019390935250919050565b60008151835260018060a01b036020830151166020840152604082015160c0604085015261148460c08501826113af565b90506060830151848203606086015261149d82826113af565b9150506080830151608085015260a083015160a08501528091505092915050565b6000602080830181845280855180835260408601915060408482028701019250838701855b8281101561151157603f198886030184526114ff8583516113fa565b945092850192908501906001016114e3565b5092979650505050505050565b60208082528251828201819052600091906040908185019080840286018301878501865b838110156115d657603f19898403018552815160e08151855288820151818a870152611570828701826113af565b915050878201516005811061158157fe5b858901526060828101511515908601526080808301519086015260a0808301516115ad828801826113a2565b505060c091820151916115c2868201846113a2565b509588019593505090860190600101611542565b509098975050505050505050565b6000602080830181845280855180835260408601915060408482028701019250838701855b8281101561151157603f19888603018452611625858351611453565b94509285019290850190600101611609565b6020808252825182820181905260009190848201906040850190845b8181101561166f57835183529284019291840191600101611653565b50909695505050505050565b60208082526028908201527f416d6f756e742073686f756c6420626520657175616c20746f20746865206974604082015267656d20707269636560c01b606082015260800190565b6000602082526111ef60208301846113fa565b6000602082526111ef6020830184611453565b90815260200190565b6000608082018683526020868185015260018060a01b03861660408501526080606085015282855460018082166000811461173457600181146117525761178a565b60028304607f16865260ff19831660a089015260c08801935061178a565b600283048087526117628a611813565b885b828110156117805781548b820160a00152908401908701611764565b8a0160a001955050505b50919a9950505050505050505050565b92835260208301919091521515604082015260600190565b6000848252836020830152606060408301526117d160608301846113af565b95945050505050565b9283526020830191909152604082015260600190565b6040518181016001600160401b038111828210171561180b57fe5b604052919050565b6000908152602090209056fe5468616e6b20796f7520666f7220796f75722070757263686173652e20506c6561736520636865636b206974656d2ea2646970667358221220c413c950c5162f921455074c1282eb7b612a6347ae1f69f948857a3d6b7bc35c64736f6c63430007040033",
  "devdoc": {
    "kind": "dev",
    "methods": {
      "constructor": {
        "params": {
          "descartesAddress": "address of the Descartes contract"
        }
      }
    },
    "version": 1
  },
  "userdoc": {
    "kind": "user",
    "methods": {
      "acceptPurchase(uint256,bytes)": {
        "notice": "called by seller to accept a purchase request for a registered advertisement"
      },
      "challengePurchase(uint256,bytes)": {
        "notice": "called by buyer to challenge a purchase, stating that content could not be retrieved"
      },
      "finalizePurchase(uint256,bool)": {
        "notice": "finalizes purchase, unlocking buyer's funds and seller's deposit as appropriate"
      },
      "getAd(uint256)": {
        "notice": "retrieves an advertisement given its identifier"
      },
      "getAds(uint256[])": {
        "notice": "retrieves an array of advertisements given their identifiers"
      },
      "getNotifications(uint256[])": {
        "notice": "retrieves an array of notifications given their identifiers"
      },
      "getPurchase(uint256)": {
        "notice": "retrieves a purchase given its identifier"
      },
      "getPurchases(uint256[])": {
        "notice": "retrieves an advertisement given its identifier"
      },
      "listAdsPerSeller(address)": {
        "notice": "returns identifiers for a seller's advertisements"
      },
      "listNotificationsPerUser(address)": {
        "notice": "returns identifiers for a seller's notifications"
      },
      "requestPurchase(uint256,bytes)": {
        "notice": "requests purchase of a registered advertisement"
      }
    },
    "version": 1
  },
  "storageLayout": {
    "storage": [
      {
        "astId": 143,
        "contract": "cache/solpp-generated-contracts/ContentMarketplace.sol:ContentMarketplace",
        "label": "descartes",
        "offset": 0,
        "slot": "0",
        "type": "t_contract(DescartesInterface)86"
      },
      {
        "astId": 193,
        "contract": "cache/solpp-generated-contracts/ContentMarketplace.sol:ContentMarketplace",
        "label": "numAds",
        "offset": 0,
        "slot": "1",
        "type": "t_uint256"
      },
      {
        "astId": 197,
        "contract": "cache/solpp-generated-contracts/ContentMarketplace.sol:ContentMarketplace",
        "label": "ads",
        "offset": 0,
        "slot": "2",
        "type": "t_mapping(t_uint256,t_struct(Advertisement)156_storage)"
      },
      {
        "astId": 202,
        "contract": "cache/solpp-generated-contracts/ContentMarketplace.sol:ContentMarketplace",
        "label": "adsPerSeller",
        "offset": 0,
        "slot": "3",
        "type": "t_mapping(t_address,t_array(t_uint256)dyn_storage)"
      },
      {
        "astId": 205,
        "contract": "cache/solpp-generated-contracts/ContentMarketplace.sol:ContentMarketplace",
        "label": "numPurchases",
        "offset": 0,
        "slot": "4",
        "type": "t_uint256"
      },
      {
        "astId": 209,
        "contract": "cache/solpp-generated-contracts/ContentMarketplace.sol:ContentMarketplace",
        "label": "purchases",
        "offset": 0,
        "slot": "5",
        "type": "t_mapping(t_uint256,t_struct(Purchase)169_storage)"
      },
      {
        "astId": 214,
        "contract": "cache/solpp-generated-contracts/ContentMarketplace.sol:ContentMarketplace",
        "label": "purchasesPerAd",
        "offset": 0,
        "slot": "6",
        "type": "t_mapping(t_uint256,t_array(t_uint256)dyn_storage)"
      },
      {
        "astId": 217,
        "contract": "cache/solpp-generated-contracts/ContentMarketplace.sol:ContentMarketplace",
        "label": "numNotifications",
        "offset": 0,
        "slot": "7",
        "type": "t_uint256"
      },
      {
        "astId": 221,
        "contract": "cache/solpp-generated-contracts/ContentMarketplace.sol:ContentMarketplace",
        "label": "notifications",
        "offset": 0,
        "slot": "8",
        "type": "t_mapping(t_uint256,t_struct(Notification)190_storage)"
      },
      {
        "astId": 226,
        "contract": "cache/solpp-generated-contracts/ContentMarketplace.sol:ContentMarketplace",
        "label": "notificationsPerUser",
        "offset": 0,
        "slot": "9",
        "type": "t_mapping(t_address,t_array(t_uint256)dyn_storage)"
      }
    ],
    "types": {
      "t_address": {
        "encoding": "inplace",
        "label": "address",
        "numberOfBytes": "20"
      },
      "t_address_payable": {
        "encoding": "inplace",
        "label": "address payable",
        "numberOfBytes": "20"
      },
      "t_array(t_uint256)dyn_storage": {
        "base": "t_uint256",
        "encoding": "dynamic_array",
        "label": "uint256[]",
        "numberOfBytes": "32"
      },
      "t_bool": {
        "encoding": "inplace",
        "label": "bool",
        "numberOfBytes": "1"
      },
      "t_bytes32": {
        "encoding": "inplace",
        "label": "bytes32",
        "numberOfBytes": "32"
      },
      "t_bytes_storage": {
        "encoding": "bytes",
        "label": "bytes",
        "numberOfBytes": "32"
      },
      "t_contract(DescartesInterface)86": {
        "encoding": "inplace",
        "label": "contract DescartesInterface",
        "numberOfBytes": "20"
      },
      "t_enum(NotificationType)175": {
        "encoding": "inplace",
        "label": "enum ContentMarketplace.NotificationType",
        "numberOfBytes": "1"
      },
      "t_mapping(t_address,t_array(t_uint256)dyn_storage)": {
        "encoding": "mapping",
        "key": "t_address",
        "label": "mapping(address => uint256[])",
        "numberOfBytes": "32",
        "value": "t_array(t_uint256)dyn_storage"
      },
      "t_mapping(t_uint256,t_array(t_uint256)dyn_storage)": {
        "encoding": "mapping",
        "key": "t_uint256",
        "label": "mapping(uint256 => uint256[])",
        "numberOfBytes": "32",
        "value": "t_array(t_uint256)dyn_storage"
      },
      "t_mapping(t_uint256,t_struct(Advertisement)156_storage)": {
        "encoding": "mapping",
        "key": "t_uint256",
        "label": "mapping(uint256 => struct ContentMarketplace.Advertisement)",
        "numberOfBytes": "32",
        "value": "t_struct(Advertisement)156_storage"
      },
      "t_mapping(t_uint256,t_struct(Notification)190_storage)": {
        "encoding": "mapping",
        "key": "t_uint256",
        "label": "mapping(uint256 => struct ContentMarketplace.Notification)",
        "numberOfBytes": "32",
        "value": "t_struct(Notification)190_storage"
      },
      "t_mapping(t_uint256,t_struct(Purchase)169_storage)": {
        "encoding": "mapping",
        "key": "t_uint256",
        "label": "mapping(uint256 => struct ContentMarketplace.Purchase)",
        "numberOfBytes": "32",
        "value": "t_struct(Purchase)169_storage"
      },
      "t_string_storage": {
        "encoding": "bytes",
        "label": "string",
        "numberOfBytes": "32"
      },
      "t_struct(Advertisement)156_storage": {
        "encoding": "inplace",
        "label": "struct ContentMarketplace.Advertisement",
        "members": [
          {
            "astId": 145,
            "contract": "cache/solpp-generated-contracts/ContentMarketplace.sol:ContentMarketplace",
            "label": "seller",
            "offset": 0,
            "slot": "0",
            "type": "t_address_payable"
          },
          {
            "astId": 147,
            "contract": "cache/solpp-generated-contracts/ContentMarketplace.sol:ContentMarketplace",
            "label": "price",
            "offset": 0,
            "slot": "1",
            "type": "t_uint256"
          },
          {
            "astId": 149,
            "contract": "cache/solpp-generated-contracts/ContentMarketplace.sol:ContentMarketplace",
            "label": "dataHash",
            "offset": 0,
            "slot": "2",
            "type": "t_bytes32"
          },
          {
            "astId": 151,
            "contract": "cache/solpp-generated-contracts/ContentMarketplace.sol:ContentMarketplace",
            "label": "encryptedDataHash",
            "offset": 0,
            "slot": "3",
            "type": "t_bytes32"
          },
          {
            "astId": 153,
            "contract": "cache/solpp-generated-contracts/ContentMarketplace.sol:ContentMarketplace",
            "label": "ipfsPath",
            "offset": 0,
            "slot": "4",
            "type": "t_bytes_storage"
          },
          {
            "astId": 155,
            "contract": "cache/solpp-generated-contracts/ContentMarketplace.sol:ContentMarketplace",
            "label": "testTemplateHash",
            "offset": 0,
            "slot": "5",
            "type": "t_bytes32"
          }
        ],
        "numberOfBytes": "192"
      },
      "t_struct(Notification)190_storage": {
        "encoding": "inplace",
        "label": "struct ContentMarketplace.Notification",
        "members": [
          {
            "astId": 177,
            "contract": "cache/solpp-generated-contracts/ContentMarketplace.sol:ContentMarketplace",
            "label": "purchaseId",
            "offset": 0,
            "slot": "0",
            "type": "t_uint256"
          },
          {
            "astId": 179,
            "contract": "cache/solpp-generated-contracts/ContentMarketplace.sol:ContentMarketplace",
            "label": "message",
            "offset": 0,
            "slot": "1",
            "type": "t_string_storage"
          },
          {
            "astId": 181,
            "contract": "cache/solpp-generated-contracts/ContentMarketplace.sol:ContentMarketplace",
            "label": "nType",
            "offset": 0,
            "slot": "2",
            "type": "t_enum(NotificationType)175"
          },
          {
            "astId": 183,
            "contract": "cache/solpp-generated-contracts/ContentMarketplace.sol:ContentMarketplace",
            "label": "archive",
            "offset": 1,
            "slot": "2",
            "type": "t_bool"
          },
          {
            "astId": 185,
            "contract": "cache/solpp-generated-contracts/ContentMarketplace.sol:ContentMarketplace",
            "label": "date",
            "offset": 0,
            "slot": "3",
            "type": "t_uint256"
          },
          {
            "astId": 187,
            "contract": "cache/solpp-generated-contracts/ContentMarketplace.sol:ContentMarketplace",
            "label": "sender",
            "offset": 0,
            "slot": "4",
            "type": "t_address"
          },
          {
            "astId": 189,
            "contract": "cache/solpp-generated-contracts/ContentMarketplace.sol:ContentMarketplace",
            "label": "receiver",
            "offset": 0,
            "slot": "5",
            "type": "t_address"
          }
        ],
        "numberOfBytes": "192"
      },
      "t_struct(Purchase)169_storage": {
        "encoding": "inplace",
        "label": "struct ContentMarketplace.Purchase",
        "members": [
          {
            "astId": 158,
            "contract": "cache/solpp-generated-contracts/ContentMarketplace.sol:ContentMarketplace",
            "label": "adId",
            "offset": 0,
            "slot": "0",
            "type": "t_uint256"
          },
          {
            "astId": 160,
            "contract": "cache/solpp-generated-contracts/ContentMarketplace.sol:ContentMarketplace",
            "label": "buyer",
            "offset": 0,
            "slot": "1",
            "type": "t_address_payable"
          },
          {
            "astId": 162,
            "contract": "cache/solpp-generated-contracts/ContentMarketplace.sol:ContentMarketplace",
            "label": "buyerKey",
            "offset": 0,
            "slot": "2",
            "type": "t_bytes_storage"
          },
          {
            "astId": 164,
            "contract": "cache/solpp-generated-contracts/ContentMarketplace.sol:ContentMarketplace",
            "label": "encryptedDataKey",
            "offset": 0,
            "slot": "3",
            "type": "t_bytes_storage"
          },
          {
            "astId": 166,
            "contract": "cache/solpp-generated-contracts/ContentMarketplace.sol:ContentMarketplace",
            "label": "descartesIndex",
            "offset": 0,
            "slot": "4",
            "type": "t_uint256"
          },
          {
            "astId": 168,
            "contract": "cache/solpp-generated-contracts/ContentMarketplace.sol:ContentMarketplace",
            "label": "date",
            "offset": 0,
            "slot": "5",
            "type": "t_uint256"
          }
        ],
        "numberOfBytes": "192"
      },
      "t_uint256": {
        "encoding": "inplace",
        "label": "uint256",
        "numberOfBytes": "32"
      }
    }
  }
}