{
  "address": "0xe71921337a32F2a2049e85d2BDeDb1704eAf628C",
  "abi": [
    {
      "inputs": [
        {
          "internalType": "address",
          "name": "descartesAddress",
          "type": "address"
        }
      ],
      "stateMutability": "nonpayable",
      "type": "constructor"
    },
    {
      "anonymous": false,
      "inputs": [
        {
          "indexed": false,
          "internalType": "uint256",
          "name": "adId",
          "type": "uint256"
        },
        {
          "indexed": false,
          "internalType": "uint256",
          "name": "purchaseId",
          "type": "uint256"
        },
        {
          "indexed": false,
          "internalType": "bytes",
          "name": "encryptedDataKey",
          "type": "bytes"
        }
      ],
      "name": "PurchaseAccepted",
      "type": "event"
    },
    {
      "anonymous": false,
      "inputs": [
        {
          "indexed": false,
          "internalType": "uint256",
          "name": "adId",
          "type": "uint256"
        },
        {
          "indexed": false,
          "internalType": "uint256",
          "name": "purchaseId",
          "type": "uint256"
        },
        {
          "indexed": false,
          "internalType": "uint256",
          "name": "descartesIndex",
          "type": "uint256"
        }
      ],
      "name": "PurchaseChallenged",
      "type": "event"
    },
    {
      "anonymous": false,
      "inputs": [
        {
          "indexed": false,
          "internalType": "uint256",
          "name": "adId",
          "type": "uint256"
        },
        {
          "indexed": false,
          "internalType": "uint256",
          "name": "purchaseId",
          "type": "uint256"
        },
        {
          "indexed": false,
          "internalType": "bool",
          "name": "isSuccess",
          "type": "bool"
        }
      ],
      "name": "PurchaseFinalized",
      "type": "event"
    },
    {
      "anonymous": false,
      "inputs": [
        {
          "indexed": false,
          "internalType": "uint256",
          "name": "adId",
          "type": "uint256"
        },
        {
          "indexed": false,
          "internalType": "uint256",
          "name": "purchaseId",
          "type": "uint256"
        },
        {
          "indexed": false,
          "internalType": "address",
          "name": "buyer",
          "type": "address"
        },
        {
          "indexed": false,
          "internalType": "bytes",
          "name": "buyerKey",
          "type": "bytes"
        }
      ],
      "name": "PurchaseRequested",
      "type": "event"
    },
    {
      "anonymous": false,
      "inputs": [
        {
          "indexed": false,
          "internalType": "address",
          "name": "_address",
          "type": "address"
        },
        {
          "indexed": false,
          "internalType": "bytes",
          "name": "_ipfsPath",
          "type": "bytes"
        },
        {
          "indexed": false,
          "internalType": "string",
          "name": "_carBrand",
          "type": "string"
        },
        {
          "indexed": false,
          "internalType": "string",
          "name": "_track",
          "type": "string"
        },
        {
          "indexed": false,
          "internalType": "string",
          "name": "_simulator",
          "type": "string"
        },
        {
          "indexed": false,
          "internalType": "string",
          "name": "_season",
          "type": "string"
        },
        {
          "indexed": false,
          "internalType": "uint256",
          "name": "_price",
          "type": "uint256"
        }
      ],
      "name": "carSetupSaved",
      "type": "event"
    },
    {
      "anonymous": false,
      "inputs": [
        {
          "indexed": false,
          "internalType": "address",
          "name": "_address",
          "type": "address"
        },
        {
          "indexed": false,
          "internalType": "bytes",
          "name": "_ipfsPath",
          "type": "bytes"
        },
        {
          "indexed": false,
          "internalType": "string",
          "name": "_carBrand",
          "type": "string"
        },
        {
          "indexed": false,
          "internalType": "string",
          "name": "_simulator",
          "type": "string"
        },
        {
          "indexed": false,
          "internalType": "uint256",
          "name": "_price",
          "type": "uint256"
        }
      ],
      "name": "skinSaved",
      "type": "event"
    },
    {
      "inputs": [
        {
          "internalType": "uint256",
          "name": "_purchaseId",
          "type": "uint256"
        },
        {
          "internalType": "bytes",
          "name": "_encryptedDataKey",
          "type": "bytes"
        }
      ],
      "name": "acceptPurchase",
      "outputs": [],
      "stateMutability": "payable",
      "type": "function"
    },
    {
      "inputs": [
        {
          "internalType": "address",
          "name": "_addr",
          "type": "address"
        }
      ],
      "name": "addressToString",
      "outputs": [
        {
          "internalType": "string",
          "name": "",
          "type": "string"
        }
      ],
      "stateMutability": "pure",
      "type": "function"
    },
    {
      "inputs": [
        {
          "internalType": "uint256",
          "name": "_notificationId",
          "type": "uint256"
        }
      ],
      "name": "archiveNotification",
      "outputs": [],
      "stateMutability": "nonpayable",
      "type": "function"
    },
    {
      "inputs": [
        {
          "internalType": "uint256",
          "name": "_purchaseId",
          "type": "uint256"
        },
        {
          "internalType": "bytes",
          "name": "_privateKey",
          "type": "bytes"
        }
      ],
      "name": "challengePurchase",
      "outputs": [
        {
          "internalType": "uint256",
          "name": "descartesIndex",
          "type": "uint256"
        }
      ],
      "stateMutability": "nonpayable",
      "type": "function"
    },
    {
      "inputs": [
        {
          "internalType": "uint256",
          "name": "_purchaseId",
          "type": "uint256"
        },
        {
          "internalType": "bool",
          "name": "isSuccess",
          "type": "bool"
        }
      ],
      "name": "finalizePurchase",
      "outputs": [],
      "stateMutability": "nonpayable",
      "type": "function"
    },
    {
      "inputs": [
        {
          "internalType": "uint256",
          "name": "_adId",
          "type": "uint256"
        }
      ],
      "name": "getAd",
      "outputs": [
        {
          "components": [
            {
              "internalType": "address payable",
              "name": "seller",
              "type": "address"
            },
            {
              "internalType": "uint256",
              "name": "price",
              "type": "uint256"
            },
            {
              "internalType": "bytes32",
              "name": "dataHash",
              "type": "bytes32"
            },
            {
              "internalType": "bytes32",
              "name": "encryptedDataHash",
              "type": "bytes32"
            },
            {
              "internalType": "bytes",
              "name": "ipfsPath",
              "type": "bytes"
            },
            {
              "internalType": "bytes32",
              "name": "testTemplateHash",
              "type": "bytes32"
            }
          ],
          "internalType": "struct ContentMarketplace.Advertisement",
          "name": "",
          "type": "tuple"
        }
      ],
      "stateMutability": "view",
      "type": "function"
    },
    {
      "inputs": [
        {
          "internalType": "uint256[]",
          "name": "_adIds",
          "type": "uint256[]"
        }
      ],
      "name": "getAds",
      "outputs": [
        {
          "components": [
            {
              "internalType": "address payable",
              "name": "seller",
              "type": "address"
            },
            {
              "internalType": "uint256",
              "name": "price",
              "type": "uint256"
            },
            {
              "internalType": "bytes32",
              "name": "dataHash",
              "type": "bytes32"
            },
            {
              "internalType": "bytes32",
              "name": "encryptedDataHash",
              "type": "bytes32"
            },
            {
              "internalType": "bytes",
              "name": "ipfsPath",
              "type": "bytes"
            },
            {
              "internalType": "bytes32",
              "name": "testTemplateHash",
              "type": "bytes32"
            }
          ],
          "internalType": "struct ContentMarketplace.Advertisement[]",
          "name": "",
          "type": "tuple[]"
        }
      ],
      "stateMutability": "view",
      "type": "function"
    },
    {
      "inputs": [],
      "name": "getCarSetups",
      "outputs": [
        {
          "components": [
            {
              "internalType": "uint256",
              "name": "id",
              "type": "uint256"
            },
            {
              "components": [
                {
                  "internalType": "address payable",
                  "name": "seller",
                  "type": "address"
                },
                {
                  "internalType": "uint256",
                  "name": "price",
                  "type": "uint256"
                },
                {
                  "internalType": "bytes32",
                  "name": "dataHash",
                  "type": "bytes32"
                },
                {
                  "internalType": "bytes32",
                  "name": "encryptedDataHash",
                  "type": "bytes32"
                },
                {
                  "internalType": "bytes",
                  "name": "ipfsPath",
                  "type": "bytes"
                },
                {
                  "internalType": "bytes32",
                  "name": "testTemplateHash",
                  "type": "bytes32"
                }
              ],
              "internalType": "struct ContentMarketplace.Advertisement",
              "name": "ad",
              "type": "tuple"
            },
            {
              "components": [
                {
                  "internalType": "string",
                  "name": "carBrand",
                  "type": "string"
                },
                {
                  "internalType": "string",
                  "name": "track",
                  "type": "string"
                },
                {
                  "internalType": "string",
                  "name": "simulator",
                  "type": "string"
                },
                {
                  "internalType": "string",
                  "name": "season",
                  "type": "string"
                },
                {
                  "internalType": "string",
                  "name": "description",
                  "type": "string"
                },
                {
                  "internalType": "string",
                  "name": "series",
                  "type": "string"
                }
              ],
              "internalType": "struct STMarketplace.carSetupInfo",
              "name": "info",
              "type": "tuple"
            }
          ],
          "internalType": "struct STMarketplace.carSetup[]",
          "name": "setups",
          "type": "tuple[]"
        }
      ],
      "stateMutability": "view",
      "type": "function"
    },
    {
      "inputs": [
        {
          "internalType": "uint256",
          "name": "_itemId",
          "type": "uint256"
        }
      ],
      "name": "getItemComments",
      "outputs": [
        {
          "components": [
            {
              "internalType": "uint256",
              "name": "itemId",
              "type": "uint256"
            },
            {
              "internalType": "address",
              "name": "commentator",
              "type": "address"
            },
            {
              "internalType": "string",
              "name": "description",
              "type": "string"
            },
            {
              "internalType": "uint256",
              "name": "review",
              "type": "uint256"
            },
            {
              "internalType": "string",
              "name": "date",
              "type": "string"
            }
          ],
          "internalType": "struct STMarketplace.comment[]",
          "name": "comments_to_return",
          "type": "tuple[]"
        }
      ],
      "stateMutability": "view",
      "type": "function"
    },
    {
      "inputs": [
        {
          "internalType": "address",
          "name": "_address",
          "type": "address"
        }
      ],
      "name": "getNickname",
      "outputs": [
        {
          "internalType": "string",
          "name": "",
          "type": "string"
        }
      ],
      "stateMutability": "nonpayable",
      "type": "function"
    },
    {
      "inputs": [
        {
          "internalType": "uint256[]",
          "name": "_notificationIds",
          "type": "uint256[]"
        }
      ],
      "name": "getNotifications",
      "outputs": [
        {
          "components": [
            {
              "internalType": "uint256",
              "name": "purchaseId",
              "type": "uint256"
            },
            {
              "internalType": "string",
              "name": "message",
              "type": "string"
            },
            {
              "internalType": "enum ContentMarketplace.NotificationType",
              "name": "nType",
              "type": "uint8"
            },
            {
              "internalType": "bool",
              "name": "archive",
              "type": "bool"
            },
            {
              "internalType": "uint256",
              "name": "date",
              "type": "uint256"
            },
            {
              "internalType": "address",
              "name": "sender",
              "type": "address"
            },
            {
              "internalType": "address",
              "name": "receiver",
              "type": "address"
            }
          ],
          "internalType": "struct ContentMarketplace.Notification[]",
          "name": "",
          "type": "tuple[]"
        }
      ],
      "stateMutability": "view",
      "type": "function"
    },
    {
      "inputs": [],
      "name": "getNumberCars",
      "outputs": [
        {
          "internalType": "uint256",
          "name": "",
          "type": "uint256"
        }
      ],
      "stateMutability": "view",
      "type": "function"
    },
    {
      "inputs": [],
      "name": "getNumberSellers",
      "outputs": [
        {
          "internalType": "uint256",
          "name": "",
          "type": "uint256"
        }
      ],
      "stateMutability": "view",
      "type": "function"
    },
    {
      "inputs": [],
      "name": "getNumberSkins",
      "outputs": [
        {
          "internalType": "uint256",
          "name": "",
          "type": "uint256"
        }
      ],
      "stateMutability": "view",
      "type": "function"
    },
    {
      "inputs": [
        {
          "internalType": "uint256",
          "name": "_purchaseId",
          "type": "uint256"
        }
      ],
      "name": "getPurchase",
      "outputs": [
        {
          "components": [
            {
              "internalType": "uint256",
              "name": "adId",
              "type": "uint256"
            },
            {
              "internalType": "address payable",
              "name": "buyer",
              "type": "address"
            },
            {
              "internalType": "bytes",
              "name": "buyerKey",
              "type": "bytes"
            },
            {
              "internalType": "bytes",
              "name": "encryptedDataKey",
              "type": "bytes"
            },
            {
              "internalType": "uint256",
              "name": "descartesIndex",
              "type": "uint256"
            },
            {
              "internalType": "uint256",
              "name": "date",
              "type": "uint256"
            }
          ],
          "internalType": "struct ContentMarketplace.Purchase",
          "name": "",
          "type": "tuple"
        }
      ],
      "stateMutability": "view",
      "type": "function"
    },
    {
      "inputs": [
        {
          "internalType": "uint256[]",
          "name": "_purchaseIds",
          "type": "uint256[]"
        }
      ],
      "name": "getPurchases",
      "outputs": [
        {
          "components": [
            {
              "internalType": "uint256",
              "name": "adId",
              "type": "uint256"
            },
            {
              "internalType": "address payable",
              "name": "buyer",
              "type": "address"
            },
            {
              "internalType": "bytes",
              "name": "buyerKey",
              "type": "bytes"
            },
            {
              "internalType": "bytes",
              "name": "encryptedDataKey",
              "type": "bytes"
            },
            {
              "internalType": "uint256",
              "name": "descartesIndex",
              "type": "uint256"
            },
            {
              "internalType": "uint256",
              "name": "date",
              "type": "uint256"
            }
          ],
          "internalType": "struct ContentMarketplace.Purchase[]",
          "name": "",
          "type": "tuple[]"
        }
      ],
      "stateMutability": "view",
      "type": "function"
    },
    {
      "inputs": [
        {
          "internalType": "uint256",
          "name": "index",
          "type": "uint256"
        }
      ],
      "name": "getResult",
      "outputs": [
        {
          "internalType": "bool",
          "name": "",
          "type": "bool"
        },
        {
          "internalType": "bool",
          "name": "",
          "type": "bool"
        },
        {
          "internalType": "address",
          "name": "",
          "type": "address"
        },
        {
          "internalType": "bytes",
          "name": "",
          "type": "bytes"
        }
      ],
      "stateMutability": "view",
      "type": "function"
    },
    {
      "inputs": [
        {
          "internalType": "string",
          "name": "_sellerNickname",
          "type": "string"
        }
      ],
      "name": "getSellerComments",
      "outputs": [
        {
          "components": [
            {
              "internalType": "uint256",
              "name": "itemId",
              "type": "uint256"
            },
            {
              "internalType": "address",
              "name": "commentator",
              "type": "address"
            },
            {
              "internalType": "string",
              "name": "description",
              "type": "string"
            },
            {
              "internalType": "uint256",
              "name": "review",
              "type": "uint256"
            },
            {
              "internalType": "string",
              "name": "date",
              "type": "string"
            }
          ],
          "internalType": "struct STMarketplace.comment[]",
          "name": "comments_to_return",
          "type": "tuple[]"
        }
      ],
      "stateMutability": "view",
      "type": "function"
    },
    {
      "inputs": [],
      "name": "getSkins",
      "outputs": [
        {
          "components": [
            {
              "internalType": "uint256",
              "name": "id",
              "type": "uint256"
            },
            {
              "components": [
                {
                  "internalType": "address payable",
                  "name": "seller",
                  "type": "address"
                },
                {
                  "internalType": "uint256",
                  "name": "price",
                  "type": "uint256"
                },
                {
                  "internalType": "bytes32",
                  "name": "dataHash",
                  "type": "bytes32"
                },
                {
                  "internalType": "bytes32",
                  "name": "encryptedDataHash",
                  "type": "bytes32"
                },
                {
                  "internalType": "bytes",
                  "name": "ipfsPath",
                  "type": "bytes"
                },
                {
                  "internalType": "bytes32",
                  "name": "testTemplateHash",
                  "type": "bytes32"
                }
              ],
              "internalType": "struct ContentMarketplace.Advertisement",
              "name": "ad",
              "type": "tuple"
            },
            {
              "components": [
                {
                  "internalType": "string",
                  "name": "carBrand",
                  "type": "string"
                },
                {
                  "internalType": "string",
                  "name": "simulator",
                  "type": "string"
                },
                {
                  "internalType": "string",
                  "name": "skinPic",
                  "type": "string"
                }
              ],
              "internalType": "struct STMarketplace.carSkinInfo",
              "name": "info",
              "type": "tuple"
            }
          ],
          "internalType": "struct STMarketplace.carSkin[]",
          "name": "skins",
          "type": "tuple[]"
        }
      ],
      "stateMutability": "view",
      "type": "function"
    },
    {
      "inputs": [
        {
          "internalType": "address",
          "name": "claimer",
          "type": "address"
        },
        {
          "internalType": "address",
          "name": "challenger",
          "type": "address"
        },
        {
          "internalType": "uint256",
          "name": "_purchaseId",
          "type": "uint256"
        },
        {
          "components": [
            {
              "internalType": "uint64",
              "name": "position",
              "type": "uint64"
            },
            {
              "internalType": "uint8",
              "name": "driveLog2Size",
              "type": "uint8"
            },
            {
              "internalType": "bytes",
              "name": "directValue",
              "type": "bytes"
            },
            {
              "internalType": "bytes",
              "name": "loggerIpfsPath",
              "type": "bytes"
            },
            {
              "internalType": "bytes32",
              "name": "loggerRootHash",
              "type": "bytes32"
            },
            {
              "internalType": "address",
              "name": "provider",
              "type": "address"
            },
            {
              "internalType": "bool",
              "name": "waitsProvider",
              "type": "bool"
            },
            {
              "internalType": "bool",
              "name": "needsLogger",
              "type": "bool"
            }
          ],
          "internalType": "struct DescartesInterface.Drive[]",
          "name": "drives",
          "type": "tuple[]"
        }
      ],
      "name": "instantiateCartesiVerification",
      "outputs": [
        {
          "internalType": "uint256",
          "name": "index",
          "type": "uint256"
        }
      ],
      "stateMutability": "nonpayable",
      "type": "function"
    },
    {
      "inputs": [
        {
          "internalType": "uint256",
          "name": "_address",
          "type": "uint256"
        }
      ],
      "name": "isCarSetup",
      "outputs": [
        {
          "internalType": "bool",
          "name": "",
          "type": "bool"
        }
      ],
      "stateMutability": "view",
      "type": "function"
    },
    {
      "inputs": [
        {
          "internalType": "address",
          "name": "_address",
          "type": "address"
        }
      ],
      "name": "isSeller",
      "outputs": [
        {
          "internalType": "bool",
          "name": "",
          "type": "bool"
        }
      ],
      "stateMutability": "view",
      "type": "function"
    },
    {
      "inputs": [
        {
          "internalType": "uint256",
          "name": "_address",
          "type": "uint256"
        }
      ],
      "name": "isSkin",
      "outputs": [
        {
          "internalType": "bool",
          "name": "",
          "type": "bool"
        }
      ],
      "stateMutability": "view",
      "type": "function"
    },
    {
      "inputs": [
        {
          "internalType": "address",
          "name": "_seller",
          "type": "address"
        }
      ],
      "name": "listAdsPerSeller",
      "outputs": [
        {
          "internalType": "uint256[]",
          "name": "",
          "type": "uint256[]"
        }
      ],
      "stateMutability": "view",
      "type": "function"
    },
    {
      "inputs": [
        {
          "internalType": "address",
          "name": "_user",
          "type": "address"
        }
      ],
      "name": "listNotificationsPerUser",
      "outputs": [
        {
          "internalType": "uint256[]",
          "name": "",
          "type": "uint256[]"
        }
      ],
      "stateMutability": "view",
      "type": "function"
    },
    {
      "inputs": [
        {
          "internalType": "bytes",
          "name": "_ipfsPath",
          "type": "bytes"
        },
        {
          "internalType": "string",
          "name": "_carBrand",
          "type": "string"
        },
        {
          "internalType": "string",
          "name": "_track",
          "type": "string"
        },
        {
          "internalType": "string",
          "name": "_simulator",
          "type": "string"
        },
        {
          "internalType": "string",
          "name": "_season",
          "type": "string"
        },
        {
          "internalType": "string",
          "name": "_series",
          "type": "string"
        },
        {
          "internalType": "string",
          "name": "_description",
          "type": "string"
        },
        {
          "internalType": "uint256",
          "name": "_price",
          "type": "uint256"
        },
        {
          "internalType": "bytes32",
          "name": "_dataHash",
          "type": "bytes32"
        },
        {
          "internalType": "bytes32",
          "name": "_encryptedDataHash",
          "type": "bytes32"
        },
        {
          "internalType": "string",
          "name": "_nickname",
          "type": "string"
        }
      ],
      "name": "newCarSetup",
      "outputs": [
        {
          "internalType": "uint256",
          "name": "id",
          "type": "uint256"
        }
      ],
      "stateMutability": "nonpayable",
      "type": "function"
    },
    {
      "inputs": [
        {
          "internalType": "uint256",
          "name": "_itemId",
          "type": "uint256"
        },
        {
          "internalType": "string",
          "name": "_description",
          "type": "string"
        },
        {
          "internalType": "uint256",
          "name": "_review",
          "type": "uint256"
        },
        {
          "internalType": "string",
          "name": "_date",
          "type": "string"
        },
        {
          "internalType": "string",
          "name": "_sellerNickname",
          "type": "string"
        }
      ],
      "name": "newComment",
      "outputs": [
        {
          "components": [
            {
              "internalType": "uint256",
              "name": "itemId",
              "type": "uint256"
            },
            {
              "internalType": "address",
              "name": "commentator",
              "type": "address"
            },
            {
              "internalType": "string",
              "name": "description",
              "type": "string"
            },
            {
              "internalType": "uint256",
              "name": "review",
              "type": "uint256"
            },
            {
              "internalType": "string",
              "name": "date",
              "type": "string"
            }
          ],
          "internalType": "struct STMarketplace.comment",
          "name": "comment_to_return",
          "type": "tuple"
        }
      ],
      "stateMutability": "nonpayable",
      "type": "function"
    },
    {
      "inputs": [
        {
          "internalType": "uint256",
          "name": "_purchaseId",
          "type": "uint256"
        },
        {
          "internalType": "string",
          "name": "_message",
          "type": "string"
        },
        {
          "internalType": "address",
          "name": "_sender",
          "type": "address"
        },
        {
          "internalType": "address",
          "name": "_receiver",
          "type": "address"
        },
        {
          "internalType": "enum ContentMarketplace.NotificationType",
          "name": "_type",
          "type": "uint8"
        }
      ],
      "name": "newNotification",
      "outputs": [
        {
          "internalType": "uint256",
          "name": "notificationId",
          "type": "uint256"
        }
      ],
      "stateMutability": "nonpayable",
      "type": "function"
    },
    {
      "inputs": [
        {
          "internalType": "bytes",
          "name": "_ipfsPath",
          "type": "bytes"
        },
        {
          "internalType": "string",
          "name": "_carBrand",
          "type": "string"
        },
        {
          "internalType": "string",
          "name": "_simulator",
          "type": "string"
        },
        {
          "internalType": "uint256",
          "name": "_price",
          "type": "uint256"
        },
        {
          "internalType": "bytes32",
          "name": "_dataHash",
          "type": "bytes32"
        },
        {
          "internalType": "bytes32",
          "name": "_encryptedDataHash",
          "type": "bytes32"
        },
        {
          "internalType": "string",
          "name": "_nickname",
          "type": "string"
        },
        {
          "internalType": "string",
          "name": "_imagePath",
          "type": "string"
        }
      ],
      "name": "newSkin",
      "outputs": [
        {
          "internalType": "uint256",
          "name": "id",
          "type": "uint256"
        }
      ],
      "stateMutability": "nonpayable",
      "type": "function"
    },
    {
      "inputs": [
        {
          "internalType": "uint256",
          "name": "_adId",
          "type": "uint256"
        },
        {
          "internalType": "bytes",
          "name": "_buyerKey",
          "type": "bytes"
        }
      ],
      "name": "requestPurchase",
      "outputs": [
        {
          "internalType": "uint256",
          "name": "purchaseId",
          "type": "uint256"
        }
      ],
      "stateMutability": "payable",
      "type": "function"
    },
    {
      "inputs": [
        {
          "internalType": "address",
          "name": "_address",
          "type": "address"
        },
        {
          "internalType": "string",
          "name": "_nickname",
          "type": "string"
        }
      ],
      "name": "saveSeller",
      "outputs": [
        {
          "internalType": "bool",
          "name": "",
          "type": "bool"
        }
      ],
      "stateMutability": "nonpayable",
      "type": "function"
    }
  ],
  "transactionHash": "0xc380c812c621c93cf270455db507b99d5812d109a4d823c132167405fa1a2452",
  "args": [
    "0x868ddF52D8b8aC93a138f06F41533E16556b8f79"
  ],
  "solcInputHash": "d68a564b93971a0b468bb364d1f39e5a",
  "bytecode": "0x60806040526000600181905560048190556007557f565ed3f9210522787f757fd3a4d2cb1714cd46523bcef460d3d630cd5a29c3aa600a55600b805467c0000000000000006001600160401b03199091161760ff60401b19166805000000000000000017905564174876e800600c556033600d5564307831323360d81b600e5564183c1a1a9b60d91b600f553480156200009857600080fd5b5060405162003ff138038062003ff1833981016040819052620000bb91620000e1565b600080546001600160a01b0319166001600160a01b039290921691909117905562000111565b600060208284031215620000f3578081fd5b81516001600160a01b03811681146200010a578182fd5b9392505050565b613ed080620001216000396000f3fe6080604052600436106101985760003560e01c80637ede1c07116100e2578063b31d9aa811610085578063b31d9aa8146104f9578063b95f22f314610519578063ba1219fa1461052e578063c357b13c14610550578063cc3fc93614610570578063d75eb00014610590578063da8af2c9146105b0578063ee95feaf146105d057610198565b80637ede1c07146103da57806389da3ac21461040757806397f911b21461041c578063995e43391461043c578063a401a0cf1461046c578063a7c4e0e014610499578063a987b096146104c6578063adaccd74146104d957610198565b80634aa64a391161014a5780634aa64a39146102c957806351c84376146102f65780635e57966d1461030b5780635f7b3fed146103385780636a1a80d5146103585780636e5702af146103855780637427a0491461039a5780637c5274ac146103ba57610198565b806304681a621461019d5780633742a9f7146101d35780633aff94d6146102005780633ed24f281461022257806344a9f70e1461024f578063491ea0121461027c5780634953d186146102a9575b600080fd5b3480156101a957600080fd5b506101bd6101b8366004613109565b6105f0565b6040516101ca9190613bd0565b60405180910390f35b3480156101df57600080fd5b506101f36101ee36600461322b565b6106e0565b6040516101ca9190613baa565b34801561020c57600080fd5b5061021561085e565b6040516101ca9190613899565b34801561022e57600080fd5b5061024261023d366004613339565b610db4565b6040516101ca9190613bbd565b34801561025b57600080fd5b5061026f61026a3660046131f1565b610f2d565b6040516101ca9190613a5c565b34801561028857600080fd5b5061029c61029736600461322b565b6110f6565b6040516101ca9190613af3565b3480156102b557600080fd5b506101bd6102c4366004612ca4565b611145565b3480156102d557600080fd5b506102e96102e4366004612e70565b6112f4565b6040516101ca9190613720565b61030961030436600461328a565b61147a565b005b34801561031757600080fd5b5061032b610326366004612c81565b611519565b6040516101ca9190613b3c565b34801561034457600080fd5b506101bd6103533660046132b8565b611695565b34801561036457600080fd5b50610378610373366004612e70565b61175b565b6040516101ca9190613780565b34801561039157600080fd5b506101bd611929565b3480156103a657600080fd5b5061029c6103b5366004612e23565b61192f565b3480156103c657600080fd5b506101bd6103d5366004612fac565b6119d5565b3480156103e657600080fd5b506103fa6103f536600461322b565b611b0e565b6040516101ca9190613b97565b34801561041357600080fd5b506101bd611c00565b34801561042857600080fd5b5061030961043736600461325b565b611c06565b34801561044857600080fd5b5061045c61045736600461322b565b611d51565b6040516101ca9493929190613afe565b34801561047857600080fd5b5061048c610487366004612e70565b611dea565b6040516101ca9190613846565b3480156104a557600080fd5b506104b96104b4366004612c81565b611ff3565b6040516101ca9190613aaf565b6101bd6104d436600461328a565b61205f565b3480156104e557600080fd5b5061032b6104f4366004612c81565b6121b0565b34801561050557600080fd5b5061026f61051436600461322b565b612251565b34801561052557600080fd5b506101bd612404565b34801561053a57600080fd5b5061054361240a565b6040516101ca91906139a3565b34801561055c57600080fd5b506104b961056b366004612c81565b6127a0565b34801561057c57600080fd5b5061029c61058b36600461322b565b61280a565b34801561059c57600080fd5b506103096105ab36600461322b565b612850565b3480156105bc57600080fd5b506101bd6105cb36600461328a565b612870565b3480156105dc57600080fd5b5061029c6105eb366004612c81565b612910565b60006106018686868c600f5461292e565b60008181526013602090815260409091208a5192935091610627918391908c01906129c1565b50875161063d90600183019060208b01906129c1565b50825161065390600283019060208601906129c1565b50601580546001810182556000919091527f55f448fdea98c4d29eb340757ef0a66cd03dbb9538908a6a81d96026b71ec47501829055610693338561192f565b507f01811ecd1a9083bd05030544982ea358e89f3b8c65fcfd97821171b02e844956338b8b8b8b6040516106cb9594939291906136c3565b60405180910390a15098975050505050505050565b6106e8612a49565b600082815260056020908152604091829020825160c081018452815481526001808301546001600160a01b0316828501526002808401805487516101009482161594909402600019011691909104601f810186900486028301860187528083529295939493860193919290918301828280156107a55780601f1061077a576101008083540402835291602001916107a5565b820191906000526020600020905b81548152906001019060200180831161078857829003601f168201915b505050918352505060038201805460408051602060026001851615610100026000190190941693909304601f81018490048402820184019092528181529382019392918301828280156108395780601f1061080e57610100808354040283529160200191610839565b820191906000526020600020905b81548152906001019060200180831161081c57829003601f168201915b505050505081526020016004820154815260200160058201548152505090505b919050565b6014546060906001600160401b038111801561087957600080fd5b506040519080825280602002602001820160405280156108b357816020015b6108a0612a88565b8152602001906001900390816108985790505b50905060005b601454811015610db0576000601482815481106108d257fe5b90600052602060002001549050808383815181106108ec57fe5b6020908102919091018101519190915260008281526002808352604091829020825160c08101845281546001600160a01b031681526001808301548287015282840154828601526003830154606083015260048301805486516101009382161593909302600019011694909404601f810187900487028201870190955284815290949193608086019391928301828280156109c85780601f1061099d576101008083540402835291602001916109c8565b820191906000526020600020905b8154815290600101906020018083116109ab57829003601f168201915b505050505081526020016005820154815250508383815181106109e757fe5b6020908102919091018101518101919091526000828152601282526040908190208151815460026001821615610100026000190190911604601f8101859004909402810160e090810190935260c081018481529093919284928491840182828015610a935780601f10610a6857610100808354040283529160200191610a93565b820191906000526020600020905b815481529060010190602001808311610a7657829003601f168201915b50505050508152602001600182018054600181600116156101000203166002900480601f016020809104026020016040519081016040528092919081815260200182805460018160011615610100020316600290048015610b355780601f10610b0a57610100808354040283529160200191610b35565b820191906000526020600020905b815481529060010190602001808311610b1857829003601f168201915b5050509183525050600282810180546040805160206001841615610100026000190190931694909404601f81018390048302850183019091528084529381019390830182828015610bc75780601f10610b9c57610100808354040283529160200191610bc7565b820191906000526020600020905b815481529060010190602001808311610baa57829003601f168201915b505050918352505060038201805460408051602060026001851615610100026000190190941693909304601f8101849004840282018401909252818152938201939291830182828015610c5b5780601f10610c3057610100808354040283529160200191610c5b565b820191906000526020600020905b815481529060010190602001808311610c3e57829003601f168201915b505050918352505060048201805460408051602060026001851615610100026000190190941693909304601f8101849004840282018401909252818152938201939291830182828015610cef5780601f10610cc457610100808354040283529160200191610cef565b820191906000526020600020905b815481529060010190602001808311610cd257829003601f168201915b505050918352505060058201805460408051602060026001851615610100026000190190941693909304601f8101849004840282018401909252818152938201939291830182828015610d835780601f10610d5857610100808354040283529160200191610d83565b820191906000526020600020905b815481529060010190602001808311610d6657829003601f168201915b505050505081525050838381518110610d9857fe5b602090810291909101015160400152506001016108b9565b5090565b610dbc612ab4565b610dc4612ab4565b506040805160a081018252878152336020808301918252828401898152606084018990526080840188905260008b815260108352948520805460018082018355918752958390208551600590970201958655925192850180546001600160a01b0319166001600160a01b039094169390931790925590518051929384939092610e549260028501929101906129c1565b506060820151600382015560808201518051610e7a9160048401916020909101906129c1565b505050601183604051610e8d9190613620565b908152604080516020928190038301902080546001808201835560009283529184902085516005909202019081558484015191810180546001600160a01b0319166001600160a01b03909316929092179091559083015180518493610ef99260028501929101906129c1565b506060820151600382015560808201518051610f1f9160048401916020909101906129c1565b509198975050505050505050565b6060601182604051610f3f9190613620565b9081526020016040518091039020805480602002602001604051908101604052809291908181526020016000905b828210156110eb5760008481526020908190206040805160a08101825260058602909201805483526001808201546001600160a01b0316848601526002808301805485516101009482161594909402600019011691909104601f81018790048702830187018552808352949592949386019391929091908301828280156110355780601f1061100a57610100808354040283529160200191611035565b820191906000526020600020905b81548152906001019060200180831161101857829003601f168201915b5050509183525050600382015460208083019190915260048301805460408051601f600260001961010060018716150201909416939093049283018590048502810185018252828152940193928301828280156110d35780601f106110a8576101008083540402835291602001916110d3565b820191906000526020600020905b8154815290600101906020018083116110b657829003601f168201915b50505050508152505081526020019060010190610f6d565b505050509050919050565b6000805b60145481101561113c5760006014828154811061111357fe5b906000526020600020015490508381141561113357600192505050610859565b506001016110fa565b50600092915050565b6040805160028082526060808301845260009390929190602083019080368337019050509050858160008151811061117957fe5b60200260200101906001600160a01b031690816001600160a01b03168152505084816001815181106111a757fe5b6001600160a01b0390921660209283029190910182015260008581526005909152604090206111d4612aec565b81546111df90611b0e565b600054600c54600a54600b54600d5460405163c817592d60e01b81529596506001600160a01b039094169463c817592d9461123a9493926001600160401b03811692600160401b90910460ff1691908b908e90600401613bd9565b602060405180830381600087803b15801561125457600080fd5b505af1158015611268573d6000803e3d6000fd5b505050506040513d601f19601f8201168201806040525081019061128c9190613243565b93508382600401819055506112c086604051806060016040528060268152602001613e466026913983516000906002611695565b506112e886604051806060016040528060228152602001613e24602291396000336002611695565b50505050949350505050565b60608082516001600160401b038111801561130e57600080fd5b5060405190808252806020026020018201604052801561134857816020015b611335612aec565b81526020019060019003908161132d5790505b50905060005b835181101561147357600084828151811061136557fe5b60209081029190910181015160008181526002808452604091829020825160c08101845281546001600160a01b031681526001808301548288015282840154828601526003830154606083015260048301805486516101009382161593909302600019011694909404601f810188900488028201880190955284815294965094909360808601939092918301828280156114405780601f1061141557610100808354040283529160200191611440565b820191906000526020600020905b81548152906001019060200180831161142357829003601f168201915b5050505050815260200160058201548152505083838151811061145f57fe5b60209081029190910101525060010161134e565b5092915050565b6000828152600560209081526040909120825190916114a09160038401918501906129c1565b506114d7836040518060600160405280602f8152602001613e6c602f913960018085015433916001600160a01b0390911690611695565b5080546040517fa2b880b5ac38ac625decca4880208262a354ea5ee5bef8b6b107380857ea97059161150c9186908690613d2b565b60405180910390a1505050565b604080518082018252601081526f181899199a1a9b1b9c1cb0b131b232b360811b60208201528151603380825260608281019094526001600160a01b03851692918491602082018180368337019050509050600360fc1b8160008151811061157d57fe5b60200101906001600160f81b031916908160001a905350600f60fb1b816001815181106115a657fe5b60200101906001600160f81b031916908160001a90535060005b601481101561168c578260048583600c01602081106115db57fe5b1a60f81b6001600160f81b031916901c60f81c60ff16815181106115fb57fe5b602001015160f81c60f81b82826002026002018151811061161857fe5b60200101906001600160f81b031916908160001a905350828482600c016020811061163f57fe5b825191901a600f1690811061165057fe5b602001015160f81c60f81b82826002026003018151811061166d57fe5b60200101906001600160f81b031916908160001a9053506001016115c0565b50949350505050565b60075460009081526008602090815260408220878155865190916116c09160018401918901906129c1565b5060028101805484919060ff191660018360048111156116dc57fe5b021790555060028101805461ff00191690554260038201556004810180546001600160a01b039687166001600160a01b0319918216179091556005909101805494909516931683179093555060078054600181810190925560009283526009602090815260408420805493840181558452909220018190559392505050565b60608082516001600160401b038111801561177557600080fd5b506040519080825280602002602001820160405280156117af57816020015b61179c612b20565b8152602001906001900390816117945790505b50905060005b83518110156114735760008482815181106117cc57fe5b60200260200101519050600860008281526020019081526020016000206040518060e001604052908160008201548152602001600182018054600181600116156101000203166002900480601f0160208091040260200160405190810160405280929190818152602001828054600181600116156101000203166002900480156118975780601f1061186c57610100808354040283529160200191611897565b820191906000526020600020905b81548152906001019060200180831161187a57829003601f168201915b5050509183525050600282015460209091019060ff1660048111156118b857fe5b60048111156118c357fe5b81526002820154610100900460ff16151560208201526003820154604082015260048201546001600160a01b039081166060830152600590920154909116608090910152835184908490811061191557fe5b6020908102919091010152506001016117b5565b60145490565b6001600160a01b03821660009081526016602052604081205460ff1661113c576001600160a01b0383166000818152601660209081526040808320805460ff191660019081179091556018805491820190557fb13d2d76d1f4b7be834882e410b3e3a8afaf69f83600ae24db354391d2378d2e0180546001600160a01b031916851790559282526017815291902083516119cb928501906129c1565b5060019392505050565b60006119e68585858f600e5461292e565b60008181526012602090815260409091208d5192935091611a0c918391908f01906129c1565b508a51611a2290600183019060208e01906129c1565b508951611a3890600283019060208d01906129c1565b508851611a4e90600383019060208c01906129c1565b508751611a6490600583019060208b01906129c1565b508651611a7a90600483019060208a01906129c1565b50601480546001810182556000919091527fce6d7b5282bd9a3661ae061feed1dbda4e52ab073b1f9285be6e155d9c38d4ec01829055611aba338461192f565b507f04118812b850fad5027a2efb4e9e53c91e978265ccc36620c8059bf1c5d0e6fa338e8e8e8e8e8c604051611af6979695949392919061363c565b60405180910390a1509b9a5050505050505050505050565b611b16612aec565b600082815260026020818152604092839020835160c08101855281546001600160a01b031681526001808301548285015282850154828701526003830154606083015260048301805487516101009382161593909302600019011695909504601f810185900485028201850190965285815290949193608086019391929091830182828015611be65780601f10611bbb57610100808354040283529160200191611be6565b820191906000526020600020905b815481529060010190602001808311611bc957829003601f168201915b505050505081526020016005820154815250509050919050565b60185490565b611c0e612a49565b611c17836106e0565b9050611c21612aec565b8151611c2c90611b0e565b9050600083611c3f578260200151611c42565b81515b60208301516040519192506001600160a01b0383169181156108fc0291906000818181858888f19350505050158015611c7f573d6000803e3d6000fd5b508315611ccc57611cc68560405180604001604052806016815260200175283ab931b430b9b2903bb0b99030b1b1b2b83a32b21760511b8152503385600001516003611695565b50611d0e565b611d0c8560405180604001604052806016815260200175283ab931b430b9b2903bb0b9903932b532b1ba32b21760511b8152503385600001516004611695565b505b82516040517f90467038d2e860e2611181a29c81cfdc1de0a12763a183f96f6148d2a3bcbb4b91611d429188908890613d13565b60405180910390a15050505050565b6000805460405163995e433960e01b8152829182916060916001600160a01b03169063995e433990611d87908890600401613bd0565b60006040518083038186803b158015611d9f57600080fd5b505afa158015611db3573d6000803e3d6000fd5b505050506040513d6000823e601f3d908101601f19168201604052611ddb9190810190612eff565b93509350935093509193509193565b60608082516001600160401b0381118015611e0457600080fd5b50604051908082528060200260200182016040528015611e3e57816020015b611e2b612a49565b815260200190600190039081611e235790505b50905060005b8351811015611473576000848281518110611e5b57fe5b602090810291909101810151600081815260058352604090819020815160c081018352815481526001808301546001600160a01b0316828701526002808401805486516101009482161594909402600019011691909104601f8101889004880283018801865280835295975091959294938601939092830182828015611f225780601f10611ef757610100808354040283529160200191611f22565b820191906000526020600020905b815481529060010190602001808311611f0557829003601f168201915b505050918352505060038201805460408051602060026001851615610100026000190190941693909304601f8101849004840282018401909252818152938201939291830182828015611fb65780601f10611f8b57610100808354040283529160200191611fb6565b820191906000526020600020905b815481529060010190602001808311611f9957829003601f168201915b5050505050815260200160048201548152602001600582015481525050838381518110611fdf57fe5b602090810291909101015250600101611e44565b6001600160a01b03811660009081526003602090815260409182902080548351818402810184019094528084526060939283018282801561205357602002820191906000526020600020905b81548152602001906001019080831161203f575b50505050509050919050565b6000612069612aec565b61207284611b0e565b9050806020015134146120a05760405162461bcd60e51b815260040161209790613b4f565b60405180910390fd5b60045460009081526005602090815260409091208581556001810180546001600160a01b03191633179055845190916120e09160028401918701906129c1565b504260058201556004805460018082019092558254600090815260066020908152604080832080549586018155835281832090940183905583518085019094526016845275141d5c98da185cd9481dd85cc81c995c5d595cdd195960521b9084015284519195506121579286929091339190611695565b50805460018201546040517fb2c74dd2211a23bb10cb03155b814763ac4e02b65ee4dc22bfc9ae52ec14fb80926121a092909187916001600160a01b0316906002870190613c6b565b60405180910390a1505092915050565b6001600160a01b03811660009081526017602090815260409182902080548351601f60026000196101006001861615020190931692909204918201849004840281018401909452808452606093928301828280156120535780601f1061222457610100808354040283529160200191612053565b820191906000526020600020905b8154815290600101906020018083116122325750939695505050505050565b606060106000838152602001908152602001600020805480602002602001604051908101604052809291908181526020016000905b828210156110eb5760008481526020908190206040805160a08101825260058602909201805483526001808201546001600160a01b0316848601526002808301805485516101009482161594909402600019011691909104601f810187900487028301870185528083529495929493860193919290919083018282801561234e5780601f106123235761010080835404028352916020019161234e565b820191906000526020600020905b81548152906001019060200180831161233157829003601f168201915b5050509183525050600382015460208083019190915260048301805460408051601f600260001961010060018716150201909416939093049283018590048502810185018252828152940193928301828280156123ec5780601f106123c1576101008083540402835291602001916123ec565b820191906000526020600020905b8154815290600101906020018083116123cf57829003601f168201915b50505050508152505081526020019060010190612286565b60155490565b6015546060906001600160401b038111801561242557600080fd5b5060405190808252806020026020018201604052801561245f57816020015b61244c612b5d565b8152602001906001900390816124445790505b50905060005b601554811015610db05760006015828154811061247e57fe5b906000526020600020015490508083838151811061249857fe5b6020908102919091018101519190915260008281526002808352604091829020825160c08101845281546001600160a01b031681526001808301548287015282840154828601526003830154606083015260048301805486516101009382161593909302600019011694909404601f810187900487028201870190955284815290949193608086019391928301828280156125745780601f1061254957610100808354040283529160200191612574565b820191906000526020600020905b81548152906001019060200180831161255757829003601f168201915b5050505050815260200160058201548152505083838151811061259357fe5b6020908102919091018101518101919091526000828152601382526040908190208151815460026001821615610100026000190190911604601f81018590049094028101608090810190935260608101848152909391928492849184018282801561263f5780601f106126145761010080835404028352916020019161263f565b820191906000526020600020905b81548152906001019060200180831161262257829003601f168201915b50505050508152602001600182018054600181600116156101000203166002900480601f0160208091040260200160405190810160405280929190818152602001828054600181600116156101000203166002900480156126e15780601f106126b6576101008083540402835291602001916126e1565b820191906000526020600020905b8154815290600101906020018083116126c457829003601f168201915b5050509183525050600282810180546040805160206001841615610100026000190190931694909404601f810183900483028501830190915280845293810193908301828280156127735780601f1061274857610100808354040283529160200191612773565b820191906000526020600020905b81548152906001019060200180831161275657829003601f168201915b50505050508152505083838151811061278857fe5b60209081029190910101516040015250600101612465565b6001600160a01b038116600090815260096020908152604091829020805483518184028101840190945280845260609392830182828015612053576020028201919060005260206000209081548152602001906001019080831161203f5750505050509050919050565b6000805b60155481101561113c5760006015828154811061282757fe5b906000526020600020015490508381141561284757600192505050610859565b5060010161280e565b6000908152600860205260409020600201805461ff001916610100179055565b600061287a612a49565b612883846106e0565b905061288d612aec565b815161289890611b0e565b90506128db8560405180604001604052806017815260200176141d5c98da185cd9481dd85cc818da185b1b195b99d959604a1b8152503384600001516002611695565b5081516040517f66de457dd85ecfee23f212af1e25cf9e3cb118a7de6d9f046ce16f58b715ba63916121a09188908790613d4a565b6001600160a01b031660009081526016602052604090205460ff1690565b600180546000908152600260208181526040832080546001600160a01b0319163317815593840189905590830187905560038301869055845191929161297c916004840191908701906129c1565b5060058101929092555060018054808201825591546001600160a01b031660009081526003602090815260408220805493840181558252902001819055949350505050565b828054600181600116156101000203166002900490600052602060002090601f0160209004810192826129f75760008555612a3d565b82601f10612a1057805160ff1916838001178555612a3d565b82800160010185558215612a3d579182015b82811115612a3d578251825591602001919060010190612a22565b50610db0929150612b84565b6040518060c001604052806000815260200160006001600160a01b03168152602001606081526020016060815260200160008152602001600081525090565b604051806060016040528060008152602001612aa2612aec565b8152602001612aaf612b99565b905290565b6040518060a001604052806000815260200160006001600160a01b031681526020016060815260200160008152602001606081525090565b6040805160c0810182526000808252602082018190529181018290526060808201839052608082015260a081019190915290565b6040805160e08101825260008082526060602083015290918201908152600060208201819052604082018190526060820181905260809091015290565b604051806060016040528060008152602001612b77612aec565b8152602001612aaf612bcf565b5b80821115610db05760008155600101612b85565b6040518060c001604052806060815260200160608152602001606081526020016060815260200160608152602001606081525090565b60405180606001604052806060815260200160608152602001606081525090565b803561085981613dfd565b803561085981613e15565b600082601f830112612c16578081fd5b8135612c29612c2482613da0565b613d60565b9150808252836020828501011115612c4057600080fd5b8060208401602084013760009082016020015292915050565b80356001600160401b038116811461085957600080fd5b803560ff8116811461085957600080fd5b600060208284031215612c92578081fd5b8135612c9d81613dfd565b9392505050565b60008060008060808587031215612cb9578283fd5b612cc38535613dfd565b843593506020850135612cd581613dfd565b92506040850135915060608501356001600160401b0380821115612cf7578283fd5b818701915087601f830112612d0a578283fd5b612d17612c248335613d83565b82358152602080820191908401855b8535811015612e115781358601610100818e03601f19011215612d47578788fd5b612d52610100613d60565b612d5e60208301612c59565b8152612d6c60408301612c70565b6020820152606082013587811115612d8257898afd5b612d918f602083860101612c06565b604083015250608082013587811115612da857898afd5b612db78f602083860101612c06565b60608301525060a08201356080820152612dd360c08301612bf0565b60a0820152612de460e08301612bfb565b60c0820152612df66101008301612bfb565b60e08201528552506020938401939190910190600101612d26565b50508094505050505092959194509250565b60008060408385031215612e35578182fd5b8235612e4081613dfd565b915060208301356001600160401b03811115612e5a578182fd5b612e6685828601612c06565b9150509250929050565b60006020808385031215612e82578182fd5b82356001600160401b03811115612e97578283fd5b8301601f81018513612ea7578283fd5b8035612eb5612c2482613d83565b8181528381019083850185840285018601891015612ed1578687fd5b8694505b83851015612ef3578035835260019490940193918501918501612ed5565b50979650505050505050565b60008060008060808587031215612f14578384fd5b8451612f1f81613e15565b6020860151909450612f3081613e15565b6040860151909350612f4181613dfd565b60608601519092506001600160401b03811115612f5c578182fd5b8501601f81018713612f6c578182fd5b8051612f7a612c2482613da0565b818152886020838501011115612f8e578384fd5b612f9f826020830160208601613dcd565b9598949750929550505050565b60008060008060008060008060008060006101608c8e031215612fcd578687fd5b6001600160401b03808d351115612fe2578788fd5b612fef8e8e358f01612c06565b9b508060208e01351115613001578788fd5b6130118e60208f01358f01612c06565b9a508060408e01351115613023578788fd5b6130338e60408f01358f01612c06565b99508060608e01351115613045578788fd5b6130558e60608f01358f01612c06565b98508060808e01351115613067578788fd5b6130778e60808f01358f01612c06565b97508060a08e01351115613089578687fd5b6130998e60a08f01358f01612c06565b96508060c08e013511156130ab578586fd5b6130bb8e60c08f01358f01612c06565b955060e08d013594506101008d013593506101208d01359250806101408e013511156130e5578182fd5b506130f78d6101408e01358e01612c06565b90509295989b509295989b9093969950565b600080600080600080600080610100898b031215613125578182fd5b88356001600160401b038082111561313b578384fd5b6131478c838d01612c06565b995060208b013591508082111561315c578384fd5b6131688c838d01612c06565b985060408b013591508082111561317d578384fd5b6131898c838d01612c06565b975060608b0135965060808b0135955060a08b0135945060c08b01359150808211156131b3578384fd5b6131bf8c838d01612c06565b935060e08b01359150808211156131d4578283fd5b506131e18b828c01612c06565b9150509295985092959890939650565b600060208284031215613202578081fd5b81356001600160401b03811115613217578182fd5b61322384828501612c06565b949350505050565b60006020828403121561323c578081fd5b5035919050565b600060208284031215613254578081fd5b5051919050565b6000806040838503121561326d578182fd5b82359150602083013561327f81613e15565b809150509250929050565b6000806040838503121561329c578182fd5b8235915060208301356001600160401b03811115612e5a578182fd5b600080600080600060a086880312156132cf578283fd5b8535945060208601356001600160401b038111156132eb578384fd5b6132f788828901612c06565b945050604086013561330881613dfd565b9250606086013561331881613dfd565b915060808601356005811061332b578182fd5b809150509295509295909350565b600080600080600060a08688031215613350578283fd5b8535945060208601356001600160401b038082111561336d578485fd5b61337989838a01612c06565b9550604088013594506060880135915080821115613395578283fd5b6133a189838a01612c06565b935060808801359150808211156133b6578283fd5b506133c388828901612c06565b9150509295509295909350565b6001600160a01b03169052565b6000815180845260208085018081965082840281019150828601855b858110156134b957828403895281516101006001600160401b0382511686528682015161342888880182613619565b506040808301518282890152613440838901826134cc565b925050506060808301518783038289015261345b83826134cc565b92505050608080830151818801525060a08083015161347c828901826133d0565b505060c080830151613490828901826134c6565b505060e091820151916134a5878201846134c6565b5099860199945050908401906001016133f9565b5091979650505050505050565b15159052565b600081518084526134e4816020860160208601613dcd565b601f01601f19169290920160200192915050565b600060018060a01b038251168352602082015160208401526040820151604084015260608201516060840152608082015160c0608085015261353d60c08501826134cc565b60a093840151949093019390935250919050565b60008151835260018060a01b036020830151166020840152604082015160c0604085015261358260c08501826134cc565b90506060830151848203606086015261359b82826134cc565b9150506080830151608085015260a083015160a08501528091505092915050565b60008151835260018060a01b036020830151166020840152604082015160a060408501526135ed60a08501826134cc565b9050606083015160608501526080830151848203608086015261361082826134cc565b95945050505050565b60ff169052565b60008251613632818460208701613dcd565b9190910192915050565b6001600160a01b038816815260e060208201819052600090613660908301896134cc565b828103604084015261367281896134cc565b9050828103606084015261368681886134cc565b9050828103608084015261369a81876134cc565b905082810360a08401526136ae81866134cc565b9150508260c083015298975050505050505050565b6001600160a01b038616815260a0602082018190526000906136e7908301876134cc565b82810360408401526136f981876134cc565b9050828103606084015261370d81866134cc565b9150508260808301529695505050505050565b6000602080830181845280855180835260408601915060408482028701019250838701855b8281101561377357603f198886030184526137618583516134f8565b94509285019290850190600101613745565b5092979650505050505050565b60208082528251828201819052600091906040908185019080840286018301878501865b8381101561383857603f19898403018552815160e08151855288820151818a8701526137d2828701826134cc565b91505087820151600581106137e357fe5b858901526060828101511515908601526080808301519086015260a08083015161380f828801826133d0565b505060c09182015191613824868201846133d0565b5095880195935050908601906001016137a4565b509098975050505050505050565b6000602080830181845280855180835260408601915060408482028701019250838701855b8281101561377357603f19888603018452613887858351613551565b9450928501929085019060010161386b565b60208082528251828201819052600091906040908185019080840286018301878501865b8381101561383857603f19898403018552815160608151855288820151818a8701526138eb828701826134f8565b90508883015192508581038987015260c0835181835261390d828401826134cc565b9150508a8401518282038c84015261392582826134cc565b915050898401518282038b84015261393d82826134cc565b915050828401518282038484015261395582826134cc565b935050506080808401518284038284015261397084826134cc565b9350505060a080840151935081830381830152505061398f81836134cc565b9689019694505050908601906001016138bd565b60208082528251828201819052600091906040908185019080840286018301878501865b8381101561383857603f19898403018552815160608151855288820151818a8701526139f5828701826134f8565b9050888301519250858103898701528251828252613a15838301826134cc565b925050898301518183038b830152613a2d83826134cc565b9250508883015192508082038982015250613a4881836134cc565b9689019694505050908601906001016139c7565b6000602080830181845280855180835260408601915060408482028701019250838701855b8281101561377357603f19888603018452613a9d8583516135bc565b94509285019290850190600101613a81565b6020808252825182820181905260009190848201906040850190845b81811015613ae757835183529284019291840191600101613acb565b50909695505050505050565b901515815260200190565b841515815283151560208201526001600160a01b0383166040820152608060608201819052600090613b32908301846134cc565b9695505050505050565b600060208252612c9d60208301846134cc565b60208082526028908201527f416d6f756e742073686f756c6420626520657175616c20746f20746865206974604082015267656d20707269636560c01b606082015260800190565b600060208252612c9d60208301846134f8565b600060208252612c9d6020830184613551565b600060208252612c9d60208301846135bc565b90815260200190565b600060e08201898352602089818501526001600160401b038916604085015260ff8816606085015286608085015260e060a0850152818651808452610100860191508288019350845b81811015613c475784516001600160a01b031683529383019391830191600101613c22565b505084810360c0860152613c5b81876133dd565b9c9b505050505050505050505050565b6000608082018683526020868185015260018060a01b038616604085015260806060850152828554600180821660008114613cad5760018114613ccb57613d03565b60028304607f16865260ff19831660a089015260c088019350613d03565b60028304808752613cdb8a613dc1565b885b82811015613cf95781548b820160a00152908401908701613cdd565b8a0160a001955050505b50919a9950505050505050505050565b92835260208301919091521515604082015260600190565b60008482528360208301526060604083015261361060608301846134cc565b9283526020830191909152604082015260600190565b6040518181016001600160401b0381118282101715613d7b57fe5b604052919050565b60006001600160401b03821115613d9657fe5b5060209081020190565b60006001600160401b03821115613db357fe5b50601f01601f191660200190565b60009081526020902090565b60005b83811015613de8578181015183820152602001613dd0565b83811115613df7576000848401525b50505050565b6001600160a01b0381168114613e1257600080fd5b50565b8015158114613e1257600080fdfe4368616c6c656e6765642070757263686173652e20436865636b207374617475732e507572636861736520776173206368616c6c656e6765642e20436865636b207374617475732e5468616e6b20796f7520666f7220796f75722070757263686173652e20506c6561736520636865636b206974656d2ea2646970667358221220c121d054ab488cbf77c8a2b7775fedd5409eea1ab83f8f5f439997107cb564f664736f6c63430007040033",
  "devdoc": {
    "kind": "dev",
    "methods": {
      "constructor": {
        "params": {
          "descartesAddress": "address of the Descartes contract"
        }
      }
    },
    "title": "Simthunder Sim Racing Marketplace - first iteration",
    "version": 1
  },
  "userdoc": {
    "events": {
      "carSetupSaved(address,bytes,string,string,string,string,uint256)": {
        "notice": "Events"
      }
    },
    "kind": "user",
    "methods": {
      "acceptPurchase(uint256,bytes)": {
        "notice": "called by seller to accept a purchase request for a registered advertisement"
      },
      "addressToString(address)": {
        "notice": "Utility method to return string from an address"
      },
      "challengePurchase(uint256,bytes)": {
        "notice": "called by buyer to challenge a purchase, stating that content could not be retrieved"
      },
      "constructor": {
        "notice": "Creates an instance of the contract"
      },
      "finalizePurchase(uint256,bool)": {
        "notice": "finalizes purchase, unlocking buyer's funds and seller's deposit as appropriate"
      },
      "getAd(uint256)": {
        "notice": "retrieves an advertisement given its identifier"
      },
      "getAds(uint256[])": {
        "notice": "retrieves an array of advertisements given their identifiers"
      },
      "getCarSetups()": {
        "notice": "Gets the list of all car setup files"
      },
      "getItemComments(uint256)": {
        "notice": "Gets the list of comments from item"
      },
      "getNickname(address)": {
        "notice": "Registers seller address"
      },
      "getNotifications(uint256[])": {
        "notice": "retrieves an array of notifications given their identifiers"
      },
      "getNumberCars()": {
        "notice": "Gets number of car setup files"
      },
      "getNumberSellers()": {
        "notice": "Gets number of sellers"
      },
      "getNumberSkins()": {
        "notice": "Gets number of skin files"
      },
      "getPurchase(uint256)": {
        "notice": "retrieves a purchase given its identifier"
      },
      "getPurchases(uint256[])": {
        "notice": "retrieves an advertisement given its identifier"
      },
      "getSellerComments(string)": {
        "notice": "Gets the list of comments from item"
      },
      "getSkins()": {
        "notice": "Gets the list of all skin files"
      },
      "isCarSetup(uint256)": {
        "notice": "Tests if car setup exists"
      },
      "isSeller(address)": {
        "notice": "Tests if sellers exists"
      },
      "isSkin(uint256)": {
        "notice": "Tests if skin exists"
      },
      "listAdsPerSeller(address)": {
        "notice": "returns identifiers for a seller's advertisements"
      },
      "listNotificationsPerUser(address)": {
        "notice": "returns identifiers for a seller's notifications"
      },
      "newCarSetup(bytes,string,string,string,string,string,string,uint256,bytes32,bytes32,string)": {
        "notice": "Registers a new car setup for sale"
      },
      "newComment(uint256,string,uint256,string,string)": {
        "notice": "Registers a new comment for item"
      },
      "newSkin(bytes,string,string,uint256,bytes32,bytes32,string,string)": {
        "notice": "Registers a new car skin for sale"
      },
      "requestPurchase(uint256,bytes)": {
        "notice": "requests purchase of a registered advertisement"
      },
      "saveSeller(address,string)": {
        "notice": "Registers seller address"
      }
    },
    "notice": "Non-Cartesi blockchain code for registering sellers and sim racing assets",
    "version": 1
  },
  "storageLayout": {
    "storage": [
      {
        "astId": 143,
        "contract": "cache/solpp-generated-contracts/STMarketplace.sol:STMarketplace",
        "label": "descartes",
        "offset": 0,
        "slot": "0",
        "type": "t_contract(DescartesInterface)86"
      },
      {
        "astId": 193,
        "contract": "cache/solpp-generated-contracts/STMarketplace.sol:STMarketplace",
        "label": "numAds",
        "offset": 0,
        "slot": "1",
        "type": "t_uint256"
      },
      {
        "astId": 197,
        "contract": "cache/solpp-generated-contracts/STMarketplace.sol:STMarketplace",
        "label": "ads",
        "offset": 0,
        "slot": "2",
        "type": "t_mapping(t_uint256,t_struct(Advertisement)156_storage)"
      },
      {
        "astId": 202,
        "contract": "cache/solpp-generated-contracts/STMarketplace.sol:STMarketplace",
        "label": "adsPerSeller",
        "offset": 0,
        "slot": "3",
        "type": "t_mapping(t_address,t_array(t_uint256)dyn_storage)"
      },
      {
        "astId": 205,
        "contract": "cache/solpp-generated-contracts/STMarketplace.sol:STMarketplace",
        "label": "numPurchases",
        "offset": 0,
        "slot": "4",
        "type": "t_uint256"
      },
      {
        "astId": 209,
        "contract": "cache/solpp-generated-contracts/STMarketplace.sol:STMarketplace",
        "label": "purchases",
        "offset": 0,
        "slot": "5",
        "type": "t_mapping(t_uint256,t_struct(Purchase)169_storage)"
      },
      {
        "astId": 214,
        "contract": "cache/solpp-generated-contracts/STMarketplace.sol:STMarketplace",
        "label": "purchasesPerAd",
        "offset": 0,
        "slot": "6",
        "type": "t_mapping(t_uint256,t_array(t_uint256)dyn_storage)"
      },
      {
        "astId": 217,
        "contract": "cache/solpp-generated-contracts/STMarketplace.sol:STMarketplace",
        "label": "numNotifications",
        "offset": 0,
        "slot": "7",
        "type": "t_uint256"
      },
      {
        "astId": 221,
        "contract": "cache/solpp-generated-contracts/STMarketplace.sol:STMarketplace",
        "label": "notifications",
        "offset": 0,
        "slot": "8",
        "type": "t_mapping(t_uint256,t_struct(Notification)190_storage)"
      },
      {
        "astId": 226,
        "contract": "cache/solpp-generated-contracts/STMarketplace.sol:STMarketplace",
        "label": "notificationsPerUser",
        "offset": 0,
        "slot": "9",
        "type": "t_mapping(t_address,t_array(t_uint256)dyn_storage)"
      },
      {
        "astId": 907,
        "contract": "cache/solpp-generated-contracts/STMarketplace.sol:STMarketplace",
        "label": "templateHash",
        "offset": 0,
        "slot": "10",
        "type": "t_bytes32"
      },
      {
        "astId": 910,
        "contract": "cache/solpp-generated-contracts/STMarketplace.sol:STMarketplace",
        "label": "outputPosition",
        "offset": 0,
        "slot": "11",
        "type": "t_uint64"
      },
      {
        "astId": 913,
        "contract": "cache/solpp-generated-contracts/STMarketplace.sol:STMarketplace",
        "label": "outputLog2Size",
        "offset": 8,
        "slot": "11",
        "type": "t_uint8"
      },
      {
        "astId": 916,
        "contract": "cache/solpp-generated-contracts/STMarketplace.sol:STMarketplace",
        "label": "finalTime",
        "offset": 0,
        "slot": "12",
        "type": "t_uint256"
      },
      {
        "astId": 919,
        "contract": "cache/solpp-generated-contracts/STMarketplace.sol:STMarketplace",
        "label": "roundDuration",
        "offset": 0,
        "slot": "13",
        "type": "t_uint256"
      },
      {
        "astId": 922,
        "contract": "cache/solpp-generated-contracts/STMarketplace.sol:STMarketplace",
        "label": "validateCarSetupTemplateHash",
        "offset": 0,
        "slot": "14",
        "type": "t_bytes32"
      },
      {
        "astId": 925,
        "contract": "cache/solpp-generated-contracts/STMarketplace.sol:STMarketplace",
        "label": "validateCarSkinTemplateHash",
        "offset": 0,
        "slot": "15",
        "type": "t_bytes32"
      },
      {
        "astId": 975,
        "contract": "cache/solpp-generated-contracts/STMarketplace.sol:STMarketplace",
        "label": "itemComments",
        "offset": 0,
        "slot": "16",
        "type": "t_mapping(t_uint256,t_array(t_struct(comment)970_storage)dyn_storage)"
      },
      {
        "astId": 980,
        "contract": "cache/solpp-generated-contracts/STMarketplace.sol:STMarketplace",
        "label": "sellerComments",
        "offset": 0,
        "slot": "17",
        "type": "t_mapping(t_string_memory_ptr,t_array(t_struct(comment)970_storage)dyn_storage)"
      },
      {
        "astId": 984,
        "contract": "cache/solpp-generated-contracts/STMarketplace.sol:STMarketplace",
        "label": "carSetupInfos",
        "offset": 0,
        "slot": "18",
        "type": "t_mapping(t_uint256,t_struct(carSetupInfo)938_storage)"
      },
      {
        "astId": 988,
        "contract": "cache/solpp-generated-contracts/STMarketplace.sol:STMarketplace",
        "label": "carSkinInfos",
        "offset": 0,
        "slot": "19",
        "type": "t_mapping(t_uint256,t_struct(carSkinInfo)945_storage)"
      },
      {
        "astId": 991,
        "contract": "cache/solpp-generated-contracts/STMarketplace.sol:STMarketplace",
        "label": "carSetupIds",
        "offset": 0,
        "slot": "20",
        "type": "t_array(t_uint256)dyn_storage"
      },
      {
        "astId": 994,
        "contract": "cache/solpp-generated-contracts/STMarketplace.sol:STMarketplace",
        "label": "carSkinIds",
        "offset": 0,
        "slot": "21",
        "type": "t_array(t_uint256)dyn_storage"
      },
      {
        "astId": 998,
        "contract": "cache/solpp-generated-contracts/STMarketplace.sol:STMarketplace",
        "label": "userExists",
        "offset": 0,
        "slot": "22",
        "type": "t_mapping(t_address,t_bool)"
      },
      {
        "astId": 1002,
        "contract": "cache/solpp-generated-contracts/STMarketplace.sol:STMarketplace",
        "label": "userNickname",
        "offset": 0,
        "slot": "23",
        "type": "t_mapping(t_address,t_string_storage)"
      },
      {
        "astId": 1005,
        "contract": "cache/solpp-generated-contracts/STMarketplace.sol:STMarketplace",
        "label": "userAddresses",
        "offset": 0,
        "slot": "24",
        "type": "t_array(t_address)dyn_storage"
      }
    ],
    "types": {
      "t_address": {
        "encoding": "inplace",
        "label": "address",
        "numberOfBytes": "20"
      },
      "t_address_payable": {
        "encoding": "inplace",
        "label": "address payable",
        "numberOfBytes": "20"
      },
      "t_array(t_address)dyn_storage": {
        "base": "t_address",
        "encoding": "dynamic_array",
        "label": "address[]",
        "numberOfBytes": "32"
      },
      "t_array(t_struct(comment)970_storage)dyn_storage": {
        "base": "t_struct(comment)970_storage",
        "encoding": "dynamic_array",
        "label": "struct STMarketplace.comment[]",
        "numberOfBytes": "32"
      },
      "t_array(t_uint256)dyn_storage": {
        "base": "t_uint256",
        "encoding": "dynamic_array",
        "label": "uint256[]",
        "numberOfBytes": "32"
      },
      "t_bool": {
        "encoding": "inplace",
        "label": "bool",
        "numberOfBytes": "1"
      },
      "t_bytes32": {
        "encoding": "inplace",
        "label": "bytes32",
        "numberOfBytes": "32"
      },
      "t_bytes_storage": {
        "encoding": "bytes",
        "label": "bytes",
        "numberOfBytes": "32"
      },
      "t_contract(DescartesInterface)86": {
        "encoding": "inplace",
        "label": "contract DescartesInterface",
        "numberOfBytes": "20"
      },
      "t_enum(NotificationType)175": {
        "encoding": "inplace",
        "label": "enum ContentMarketplace.NotificationType",
        "numberOfBytes": "1"
      },
      "t_mapping(t_address,t_array(t_uint256)dyn_storage)": {
        "encoding": "mapping",
        "key": "t_address",
        "label": "mapping(address => uint256[])",
        "numberOfBytes": "32",
        "value": "t_array(t_uint256)dyn_storage"
      },
      "t_mapping(t_address,t_bool)": {
        "encoding": "mapping",
        "key": "t_address",
        "label": "mapping(address => bool)",
        "numberOfBytes": "32",
        "value": "t_bool"
      },
      "t_mapping(t_address,t_string_storage)": {
        "encoding": "mapping",
        "key": "t_address",
        "label": "mapping(address => string)",
        "numberOfBytes": "32",
        "value": "t_string_storage"
      },
      "t_mapping(t_string_memory_ptr,t_array(t_struct(comment)970_storage)dyn_storage)": {
        "encoding": "mapping",
        "key": "t_string_memory_ptr",
        "label": "mapping(string => struct STMarketplace.comment[])",
        "numberOfBytes": "32",
        "value": "t_array(t_struct(comment)970_storage)dyn_storage"
      },
      "t_mapping(t_uint256,t_array(t_struct(comment)970_storage)dyn_storage)": {
        "encoding": "mapping",
        "key": "t_uint256",
        "label": "mapping(uint256 => struct STMarketplace.comment[])",
        "numberOfBytes": "32",
        "value": "t_array(t_struct(comment)970_storage)dyn_storage"
      },
      "t_mapping(t_uint256,t_array(t_uint256)dyn_storage)": {
        "encoding": "mapping",
        "key": "t_uint256",
        "label": "mapping(uint256 => uint256[])",
        "numberOfBytes": "32",
        "value": "t_array(t_uint256)dyn_storage"
      },
      "t_mapping(t_uint256,t_struct(Advertisement)156_storage)": {
        "encoding": "mapping",
        "key": "t_uint256",
        "label": "mapping(uint256 => struct ContentMarketplace.Advertisement)",
        "numberOfBytes": "32",
        "value": "t_struct(Advertisement)156_storage"
      },
      "t_mapping(t_uint256,t_struct(Notification)190_storage)": {
        "encoding": "mapping",
        "key": "t_uint256",
        "label": "mapping(uint256 => struct ContentMarketplace.Notification)",
        "numberOfBytes": "32",
        "value": "t_struct(Notification)190_storage"
      },
      "t_mapping(t_uint256,t_struct(Purchase)169_storage)": {
        "encoding": "mapping",
        "key": "t_uint256",
        "label": "mapping(uint256 => struct ContentMarketplace.Purchase)",
        "numberOfBytes": "32",
        "value": "t_struct(Purchase)169_storage"
      },
      "t_mapping(t_uint256,t_struct(carSetupInfo)938_storage)": {
        "encoding": "mapping",
        "key": "t_uint256",
        "label": "mapping(uint256 => struct STMarketplace.carSetupInfo)",
        "numberOfBytes": "32",
        "value": "t_struct(carSetupInfo)938_storage"
      },
      "t_mapping(t_uint256,t_struct(carSkinInfo)945_storage)": {
        "encoding": "mapping",
        "key": "t_uint256",
        "label": "mapping(uint256 => struct STMarketplace.carSkinInfo)",
        "numberOfBytes": "32",
        "value": "t_struct(carSkinInfo)945_storage"
      },
      "t_string_memory_ptr": {
        "encoding": "bytes",
        "label": "string",
        "numberOfBytes": "32"
      },
      "t_string_storage": {
        "encoding": "bytes",
        "label": "string",
        "numberOfBytes": "32"
      },
      "t_struct(Advertisement)156_storage": {
        "encoding": "inplace",
        "label": "struct ContentMarketplace.Advertisement",
        "members": [
          {
            "astId": 145,
            "contract": "cache/solpp-generated-contracts/STMarketplace.sol:STMarketplace",
            "label": "seller",
            "offset": 0,
            "slot": "0",
            "type": "t_address_payable"
          },
          {
            "astId": 147,
            "contract": "cache/solpp-generated-contracts/STMarketplace.sol:STMarketplace",
            "label": "price",
            "offset": 0,
            "slot": "1",
            "type": "t_uint256"
          },
          {
            "astId": 149,
            "contract": "cache/solpp-generated-contracts/STMarketplace.sol:STMarketplace",
            "label": "dataHash",
            "offset": 0,
            "slot": "2",
            "type": "t_bytes32"
          },
          {
            "astId": 151,
            "contract": "cache/solpp-generated-contracts/STMarketplace.sol:STMarketplace",
            "label": "encryptedDataHash",
            "offset": 0,
            "slot": "3",
            "type": "t_bytes32"
          },
          {
            "astId": 153,
            "contract": "cache/solpp-generated-contracts/STMarketplace.sol:STMarketplace",
            "label": "ipfsPath",
            "offset": 0,
            "slot": "4",
            "type": "t_bytes_storage"
          },
          {
            "astId": 155,
            "contract": "cache/solpp-generated-contracts/STMarketplace.sol:STMarketplace",
            "label": "testTemplateHash",
            "offset": 0,
            "slot": "5",
            "type": "t_bytes32"
          }
        ],
        "numberOfBytes": "192"
      },
      "t_struct(Notification)190_storage": {
        "encoding": "inplace",
        "label": "struct ContentMarketplace.Notification",
        "members": [
          {
            "astId": 177,
            "contract": "cache/solpp-generated-contracts/STMarketplace.sol:STMarketplace",
            "label": "purchaseId",
            "offset": 0,
            "slot": "0",
            "type": "t_uint256"
          },
          {
            "astId": 179,
            "contract": "cache/solpp-generated-contracts/STMarketplace.sol:STMarketplace",
            "label": "message",
            "offset": 0,
            "slot": "1",
            "type": "t_string_storage"
          },
          {
            "astId": 181,
            "contract": "cache/solpp-generated-contracts/STMarketplace.sol:STMarketplace",
            "label": "nType",
            "offset": 0,
            "slot": "2",
            "type": "t_enum(NotificationType)175"
          },
          {
            "astId": 183,
            "contract": "cache/solpp-generated-contracts/STMarketplace.sol:STMarketplace",
            "label": "archive",
            "offset": 1,
            "slot": "2",
            "type": "t_bool"
          },
          {
            "astId": 185,
            "contract": "cache/solpp-generated-contracts/STMarketplace.sol:STMarketplace",
            "label": "date",
            "offset": 0,
            "slot": "3",
            "type": "t_uint256"
          },
          {
            "astId": 187,
            "contract": "cache/solpp-generated-contracts/STMarketplace.sol:STMarketplace",
            "label": "sender",
            "offset": 0,
            "slot": "4",
            "type": "t_address"
          },
          {
            "astId": 189,
            "contract": "cache/solpp-generated-contracts/STMarketplace.sol:STMarketplace",
            "label": "receiver",
            "offset": 0,
            "slot": "5",
            "type": "t_address"
          }
        ],
        "numberOfBytes": "192"
      },
      "t_struct(Purchase)169_storage": {
        "encoding": "inplace",
        "label": "struct ContentMarketplace.Purchase",
        "members": [
          {
            "astId": 158,
            "contract": "cache/solpp-generated-contracts/STMarketplace.sol:STMarketplace",
            "label": "adId",
            "offset": 0,
            "slot": "0",
            "type": "t_uint256"
          },
          {
            "astId": 160,
            "contract": "cache/solpp-generated-contracts/STMarketplace.sol:STMarketplace",
            "label": "buyer",
            "offset": 0,
            "slot": "1",
            "type": "t_address_payable"
          },
          {
            "astId": 162,
            "contract": "cache/solpp-generated-contracts/STMarketplace.sol:STMarketplace",
            "label": "buyerKey",
            "offset": 0,
            "slot": "2",
            "type": "t_bytes_storage"
          },
          {
            "astId": 164,
            "contract": "cache/solpp-generated-contracts/STMarketplace.sol:STMarketplace",
            "label": "encryptedDataKey",
            "offset": 0,
            "slot": "3",
            "type": "t_bytes_storage"
          },
          {
            "astId": 166,
            "contract": "cache/solpp-generated-contracts/STMarketplace.sol:STMarketplace",
            "label": "descartesIndex",
            "offset": 0,
            "slot": "4",
            "type": "t_uint256"
          },
          {
            "astId": 168,
            "contract": "cache/solpp-generated-contracts/STMarketplace.sol:STMarketplace",
            "label": "date",
            "offset": 0,
            "slot": "5",
            "type": "t_uint256"
          }
        ],
        "numberOfBytes": "192"
      },
      "t_struct(carSetupInfo)938_storage": {
        "encoding": "inplace",
        "label": "struct STMarketplace.carSetupInfo",
        "members": [
          {
            "astId": 927,
            "contract": "cache/solpp-generated-contracts/STMarketplace.sol:STMarketplace",
            "label": "carBrand",
            "offset": 0,
            "slot": "0",
            "type": "t_string_storage"
          },
          {
            "astId": 929,
            "contract": "cache/solpp-generated-contracts/STMarketplace.sol:STMarketplace",
            "label": "track",
            "offset": 0,
            "slot": "1",
            "type": "t_string_storage"
          },
          {
            "astId": 931,
            "contract": "cache/solpp-generated-contracts/STMarketplace.sol:STMarketplace",
            "label": "simulator",
            "offset": 0,
            "slot": "2",
            "type": "t_string_storage"
          },
          {
            "astId": 933,
            "contract": "cache/solpp-generated-contracts/STMarketplace.sol:STMarketplace",
            "label": "season",
            "offset": 0,
            "slot": "3",
            "type": "t_string_storage"
          },
          {
            "astId": 935,
            "contract": "cache/solpp-generated-contracts/STMarketplace.sol:STMarketplace",
            "label": "description",
            "offset": 0,
            "slot": "4",
            "type": "t_string_storage"
          },
          {
            "astId": 937,
            "contract": "cache/solpp-generated-contracts/STMarketplace.sol:STMarketplace",
            "label": "series",
            "offset": 0,
            "slot": "5",
            "type": "t_string_storage"
          }
        ],
        "numberOfBytes": "192"
      },
      "t_struct(carSkinInfo)945_storage": {
        "encoding": "inplace",
        "label": "struct STMarketplace.carSkinInfo",
        "members": [
          {
            "astId": 940,
            "contract": "cache/solpp-generated-contracts/STMarketplace.sol:STMarketplace",
            "label": "carBrand",
            "offset": 0,
            "slot": "0",
            "type": "t_string_storage"
          },
          {
            "astId": 942,
            "contract": "cache/solpp-generated-contracts/STMarketplace.sol:STMarketplace",
            "label": "simulator",
            "offset": 0,
            "slot": "1",
            "type": "t_string_storage"
          },
          {
            "astId": 944,
            "contract": "cache/solpp-generated-contracts/STMarketplace.sol:STMarketplace",
            "label": "skinPic",
            "offset": 0,
            "slot": "2",
            "type": "t_string_storage"
          }
        ],
        "numberOfBytes": "96"
      },
      "t_struct(comment)970_storage": {
        "encoding": "inplace",
        "label": "struct STMarketplace.comment",
        "members": [
          {
            "astId": 961,
            "contract": "cache/solpp-generated-contracts/STMarketplace.sol:STMarketplace",
            "label": "itemId",
            "offset": 0,
            "slot": "0",
            "type": "t_uint256"
          },
          {
            "astId": 963,
            "contract": "cache/solpp-generated-contracts/STMarketplace.sol:STMarketplace",
            "label": "commentator",
            "offset": 0,
            "slot": "1",
            "type": "t_address"
          },
          {
            "astId": 965,
            "contract": "cache/solpp-generated-contracts/STMarketplace.sol:STMarketplace",
            "label": "description",
            "offset": 0,
            "slot": "2",
            "type": "t_string_storage"
          },
          {
            "astId": 967,
            "contract": "cache/solpp-generated-contracts/STMarketplace.sol:STMarketplace",
            "label": "review",
            "offset": 0,
            "slot": "3",
            "type": "t_uint256"
          },
          {
            "astId": 969,
            "contract": "cache/solpp-generated-contracts/STMarketplace.sol:STMarketplace",
            "label": "date",
            "offset": 0,
            "slot": "4",
            "type": "t_string_storage"
          }
        ],
        "numberOfBytes": "160"
      },
      "t_uint256": {
        "encoding": "inplace",
        "label": "uint256",
        "numberOfBytes": "32"
      },
      "t_uint64": {
        "encoding": "inplace",
        "label": "uint64",
        "numberOfBytes": "8"
      },
      "t_uint8": {
        "encoding": "inplace",
        "label": "uint8",
        "numberOfBytes": "1"
      }
    }
  }
}