{
  "contractName": "IPFSInbox",
  "abi": [
    {
      "inputs": [],
      "payable": false,
      "stateMutability": "nonpayable",
      "type": "constructor"
    },
    {
      "anonymous": false,
      "inputs": [
        {
          "indexed": false,
          "internalType": "address",
          "name": "_address",
          "type": "address"
        },
        {
          "indexed": false,
          "internalType": "string",
          "name": "_ipfsHash",
          "type": "string"
        },
        {
          "indexed": false,
          "internalType": "string",
          "name": "_carBrand",
          "type": "string"
        },
        {
          "indexed": false,
          "internalType": "string",
          "name": "_track",
          "type": "string"
        },
        {
          "indexed": false,
          "internalType": "string",
          "name": "_simulator",
          "type": "string"
        },
        {
          "indexed": false,
          "internalType": "string",
          "name": "_season",
          "type": "string"
        },
        {
          "indexed": false,
          "internalType": "uint256",
          "name": "_price",
          "type": "uint256"
        }
      ],
      "name": "carSaved",
      "type": "event"
    },
    {
      "anonymous": false,
      "inputs": [
        {
          "indexed": false,
          "internalType": "string",
          "name": "_ipfsHash",
          "type": "string"
        },
        {
          "indexed": false,
          "internalType": "address",
          "name": "_address",
          "type": "address"
        }
      ],
      "name": "ipfsSaved",
      "type": "event"
    },
    {
      "anonymous": false,
      "inputs": [
        {
          "indexed": false,
          "internalType": "address",
          "name": "_address",
          "type": "address"
        },
        {
          "indexed": false,
          "internalType": "string",
          "name": "_ipfsHash",
          "type": "string"
        },
        {
          "indexed": false,
          "internalType": "string",
          "name": "_carBrand",
          "type": "string"
        },
        {
          "indexed": false,
          "internalType": "string",
          "name": "_simulator",
          "type": "string"
        },
        {
          "indexed": false,
          "internalType": "uint256",
          "name": "_price",
          "type": "uint256"
        }
      ],
      "name": "skinSaved",
      "type": "event"
    },
    {
      "constant": true,
      "inputs": [],
      "name": "carsCounter",
      "outputs": [
        {
          "internalType": "uint256",
          "name": "",
          "type": "uint256"
        }
      ],
      "payable": false,
      "stateMutability": "view",
      "type": "function"
    },
    {
      "constant": true,
      "inputs": [],
      "name": "skinsCounter",
      "outputs": [
        {
          "internalType": "uint256",
          "name": "",
          "type": "uint256"
        }
      ],
      "payable": false,
      "stateMutability": "view",
      "type": "function"
    },
    {
      "constant": false,
      "inputs": [
        {
          "internalType": "address",
          "name": "_address",
          "type": "address"
        },
        {
          "internalType": "string",
          "name": "_ipfsHash",
          "type": "string"
        },
        {
          "internalType": "string",
          "name": "_carBrand",
          "type": "string"
        },
        {
          "internalType": "string",
          "name": "_track",
          "type": "string"
        },
        {
          "internalType": "string",
          "name": "_simulator",
          "type": "string"
        },
        {
          "internalType": "string",
          "name": "_season",
          "type": "string"
        },
        {
          "internalType": "uint256",
          "name": "_price",
          "type": "uint256"
        }
      ],
      "name": "saveCar",
      "outputs": [],
      "payable": false,
      "stateMutability": "nonpayable",
      "type": "function"
    },
    {
      "constant": false,
      "inputs": [
        {
          "internalType": "address",
          "name": "_address",
          "type": "address"
        },
        {
          "internalType": "string",
          "name": "_ipfsHash",
          "type": "string"
        },
        {
          "internalType": "string",
          "name": "_carBrand",
          "type": "string"
        },
        {
          "internalType": "string",
          "name": "_simulator",
          "type": "string"
        },
        {
          "internalType": "uint256",
          "name": "_price",
          "type": "uint256"
        }
      ],
      "name": "saveSkin",
      "outputs": [],
      "payable": false,
      "stateMutability": "nonpayable",
      "type": "function"
    },
    {
      "constant": true,
      "inputs": [],
      "name": "getCars",
      "outputs": [
        {
          "components": [
            {
              "internalType": "string",
              "name": "ipfsHash",
              "type": "string"
            },
            {
              "internalType": "string",
              "name": "carBrand",
              "type": "string"
            },
            {
              "internalType": "string",
              "name": "track",
              "type": "string"
            },
            {
              "internalType": "string",
              "name": "simulator",
              "type": "string"
            },
            {
              "internalType": "string",
              "name": "season",
              "type": "string"
            },
            {
              "internalType": "uint256",
              "name": "price",
              "type": "uint256"
            }
          ],
          "internalType": "struct IPFSInbox.carSetup[]",
          "name": "allCars",
          "type": "tuple[]"
        }
      ],
      "payable": false,
      "stateMutability": "view",
      "type": "function"
    },
    {
      "constant": true,
      "inputs": [],
      "name": "getSkins",
      "outputs": [
        {
          "components": [
            {
              "internalType": "string",
              "name": "ipfsHash",
              "type": "string"
            },
            {
              "internalType": "string",
              "name": "carBrand",
              "type": "string"
            },
            {
              "internalType": "string",
              "name": "simulator",
              "type": "string"
            },
            {
              "internalType": "uint256",
              "name": "price",
              "type": "uint256"
            }
          ],
          "internalType": "struct IPFSInbox.skin[]",
          "name": "allSkins",
          "type": "tuple[]"
        }
      ],
      "payable": false,
      "stateMutability": "view",
      "type": "function"
    },
    {
      "constant": true,
      "inputs": [],
      "name": "getNumberVendors",
      "outputs": [
        {
          "internalType": "uint256",
          "name": "",
          "type": "uint256"
        }
      ],
      "payable": false,
      "stateMutability": "view",
      "type": "function"
    },
    {
      "constant": true,
      "inputs": [],
      "name": "getNumberCars",
      "outputs": [
        {
          "internalType": "uint256",
          "name": "",
          "type": "uint256"
        }
      ],
      "payable": false,
      "stateMutability": "view",
      "type": "function"
    },
    {
      "constant": true,
      "inputs": [],
      "name": "getNumberSkins",
      "outputs": [
        {
          "internalType": "uint256",
          "name": "",
          "type": "uint256"
        }
      ],
      "payable": false,
      "stateMutability": "view",
      "type": "function"
    }
  ],
  "bytecode": "0x608060405234801561001057600080fd5b5060006005819055506000600681905550611a0c806100306000396000f3fe608060405234801561001057600080fd5b50600436106100925760003560e01c8063a3ccc13c11610066578063a3ccc13c1461010d578063a63e63141461012b578063b95f22f314610147578063ba1219fa14610165578063c244d4141461018357610092565b8062355a481461009757806317c39286146100b55780636e5702af146100d3578063a26f008b146100f1575b600080fd5b61009f6101a1565b6040516100ac91906117ee565b60405180910390f35b6100bd6101a7565b6040516100ca91906117aa565b60405180910390f35b6100db61066c565b6040516100e891906117ee565b60405180910390f35b61010b60048036036101069190810190611214565b610676565b005b61011561096b565b60405161012291906117ee565b60405180910390f35b6101456004803603610140919081019061132a565b610978565b005b61014f610c22565b60405161015c91906117ee565b60405180910390f35b61016d610c2c565b60405161017a91906117cc565b60405180910390f35b61018b610faf565b60405161019891906117ee565b60405180910390f35b60065481565b6060806005546040519080825280602002602001820160405280156101e657816020015b6101d3610fb5565b8152602001906001900390816101cb5790505b509050600080905060008090505b6003805490508110156106635760006003828154811061021057fe5b9060005260206000200160009054906101000a900473ffffffffffffffffffffffffffffffffffffffff16905060008090505b6000808373ffffffffffffffffffffffffffffffffffffffff1673ffffffffffffffffffffffffffffffffffffffff168152602001908152602001600020805490508110156106545760008060008473ffffffffffffffffffffffffffffffffffffffff1673ffffffffffffffffffffffffffffffffffffffff16815260200190815260200160002082815481106102d757fe5b90600052602060002090600602019050806040518060c0016040529081600082018054600181600116156101000203166002900480601f01602080910402602001604051908101604052809291908181526020018280546001816001161561010002031660029004801561038c5780601f106103615761010080835404028352916020019161038c565b820191906000526020600020905b81548152906001019060200180831161036f57829003601f168201915b50505050508152602001600182018054600181600116156101000203166002900480601f01602080910402602001604051908101604052809291908181526020018280546001816001161561010002031660029004801561042e5780601f106104035761010080835404028352916020019161042e565b820191906000526020600020905b81548152906001019060200180831161041157829003601f168201915b50505050508152602001600282018054600181600116156101000203166002900480601f0160208091040260200160405190810160405280929190818152602001828054600181600116156101000203166002900480156104d05780601f106104a5576101008083540402835291602001916104d0565b820191906000526020600020905b8154815290600101906020018083116104b357829003601f168201915b50505050508152602001600382018054600181600116156101000203166002900480601f0160208091040260200160405190810160405280929190818152602001828054600181600116156101000203166002900480156105725780601f1061054757610100808354040283529160200191610572565b820191906000526020600020905b81548152906001019060200180831161055557829003601f168201915b50505050508152602001600482018054600181600116156101000203166002900480601f0160208091040260200160405190810160405280929190818152602001828054600181600116156101000203166002900480156106145780601f106105e957610100808354040283529160200191610614565b820191906000526020600020905b8154815290600101906020018083116105f757829003601f168201915b5050505050815260200160058201548152505086868151811061063357fe5b60200260200101819052508480600101955050508080600101915050610243565b505080806001019150506101f4565b50819250505090565b6000600554905090565b61067e610feb565b6040518060c001604052808881526020018781526020018681526020018581526020018481526020018381525090506000808973ffffffffffffffffffffffffffffffffffffffff1673ffffffffffffffffffffffffffffffffffffffff16815260200190815260200160002081908060018154018082558091505090600182039060005260206000209060060201600090919290919091506000820151816000019080519060200190610733929190611021565b506020820151816001019080519060200190610750929190611021565b50604082015181600201908051906020019061076d929190611021565b50606082015181600301908051906020019061078a929190611021565b5060808201518160040190805190602001906107a7929190611021565b5060a0820151816005015550505060056000815480929190600101919050555060048790806001815401808255809150509060018203906000526020600020016000909192909190915090805190602001906108049291906110a1565b50507f8dea16d7d2138c1b0d473afea1e4ef926774315abb18aae4584438dcdf2059138888888888888860405161084197969594939291906116b0565b60405180910390a160001515600260008a73ffffffffffffffffffffffffffffffffffffffff1673ffffffffffffffffffffffffffffffffffffffff16815260200190815260200160002060009054906101000a900460ff1615151415610961576001600260008a73ffffffffffffffffffffffffffffffffffffffff1673ffffffffffffffffffffffffffffffffffffffff16815260200190815260200160002060006101000a81548160ff02191690831515021790555060038890806001815401808255809150509060018203906000526020600020016000909192909190916101000a81548173ffffffffffffffffffffffffffffffffffffffff021916908373ffffffffffffffffffffffffffffffffffffffff160217905550505b5050505050505050565b6000600380549050905090565b610980611121565b6040518060800160405280868152602001858152602001848152602001838152509050600160008773ffffffffffffffffffffffffffffffffffffffff1673ffffffffffffffffffffffffffffffffffffffff16815260200190815260200160002081908060018154018082558091505090600182039060005260206000209060040201600090919290919091506000820151816000019080519060200190610a2a929190611021565b506020820151816001019080519060200190610a47929190611021565b506040820151816002019080519060200190610a64929190611021565b50606082015181600301555050506006600081548092919060010191905055506004859080600181540180825580915050906001820390600052602060002001600090919290919091509080519060200190610ac19291906110a1565b50507fbcae586f547a927f23565f5e12858d43b5eba06018b093fd19ca2eafb95aac6e8686868686604051610afa959493929190611742565b60405180910390a160001515600260008873ffffffffffffffffffffffffffffffffffffffff1673ffffffffffffffffffffffffffffffffffffffff16815260200190815260200160002060009054906101000a900460ff1615151415610c1a576001600260008873ffffffffffffffffffffffffffffffffffffffff1673ffffffffffffffffffffffffffffffffffffffff16815260200190815260200160002060006101000a81548160ff02191690831515021790555060038690806001815401808255809150509060018203906000526020600020016000909192909190916101000a81548173ffffffffffffffffffffffffffffffffffffffff021916908373ffffffffffffffffffffffffffffffffffffffff160217905550505b505050505050565b6000600654905090565b606080600654604051908082528060200260200182016040528015610c6b57816020015b610c58611149565b815260200190600190039081610c505790505b509050600080905060008090505b600380549050811015610fa657600060038281548110610c9557fe5b9060005260206000200160009054906101000a900473ffffffffffffffffffffffffffffffffffffffff16905060008090505b600160008373ffffffffffffffffffffffffffffffffffffffff1673ffffffffffffffffffffffffffffffffffffffff16815260200190815260200160002080549050811015610f97576000600160008473ffffffffffffffffffffffffffffffffffffffff1673ffffffffffffffffffffffffffffffffffffffff1681526020019081526020016000208281548110610d5e57fe5b9060005260206000209060040201905080604051806080016040529081600082018054600181600116156101000203166002900480601f016020809104026020016040519081016040528092919081815260200182805460018160011615610100020316600290048015610e135780601f10610de857610100808354040283529160200191610e13565b820191906000526020600020905b815481529060010190602001808311610df657829003601f168201915b50505050508152602001600182018054600181600116156101000203166002900480601f016020809104026020016040519081016040528092919081815260200182805460018160011615610100020316600290048015610eb55780601f10610e8a57610100808354040283529160200191610eb5565b820191906000526020600020905b815481529060010190602001808311610e9857829003601f168201915b50505050508152602001600282018054600181600116156101000203166002900480601f016020809104026020016040519081016040528092919081815260200182805460018160011615610100020316600290048015610f575780601f10610f2c57610100808354040283529160200191610f57565b820191906000526020600020905b815481529060010190602001808311610f3a57829003601f168201915b50505050508152602001600382015481525050868681518110610f7657fe5b60200260200101819052508480600101955050508080600101915050610cc8565b50508080600101915050610c79565b50819250505090565b60055481565b6040518060c001604052806060815260200160608152602001606081526020016060815260200160608152602001600081525090565b6040518060c001604052806060815260200160608152602001606081526020016060815260200160608152602001600081525090565b828054600181600116156101000203166002900490600052602060002090601f016020900481019282601f1061106257805160ff1916838001178555611090565b82800160010185558215611090579182015b8281111561108f578251825591602001919060010190611074565b5b50905061109d9190611171565b5090565b828054600181600116156101000203166002900490600052602060002090601f016020900481019282601f106110e257805160ff1916838001178555611110565b82800160010185558215611110579182015b8281111561110f5782518255916020019190600101906110f4565b5b50905061111d9190611171565b5090565b6040518060800160405280606081526020016060815260200160608152602001600081525090565b6040518060800160405280606081526020016060815260200160608152602001600081525090565b61119391905b8082111561118f576000816000905550600101611177565b5090565b90565b6000813590506111a58161199b565b92915050565b600082601f8301126111bc57600080fd5b81356111cf6111ca82611836565b611809565b915080825260208301602083018583830111156111eb57600080fd5b6111f6838284611948565b50505092915050565b60008135905061120e816119b2565b92915050565b600080600080600080600060e0888a03121561122f57600080fd5b600061123d8a828b01611196565b975050602088013567ffffffffffffffff81111561125a57600080fd5b6112668a828b016111ab565b965050604088013567ffffffffffffffff81111561128357600080fd5b61128f8a828b016111ab565b955050606088013567ffffffffffffffff8111156112ac57600080fd5b6112b88a828b016111ab565b945050608088013567ffffffffffffffff8111156112d557600080fd5b6112e18a828b016111ab565b93505060a088013567ffffffffffffffff8111156112fe57600080fd5b61130a8a828b016111ab565b92505060c061131b8a828b016111ff565b91505092959891949750929550565b600080600080600060a0868803121561134257600080fd5b600061135088828901611196565b955050602086013567ffffffffffffffff81111561136d57600080fd5b611379888289016111ab565b945050604086013567ffffffffffffffff81111561139657600080fd5b6113a2888289016111ab565b935050606086013567ffffffffffffffff8111156113bf57600080fd5b6113cb888289016111ab565b92505060806113dc888289016111ff565b9150509295509295909350565b60006113f5838361157c565b905092915050565b60006114098383611621565b905092915050565b61141a8161190c565b82525050565b600061142b82611882565b61143581856118c8565b93508360208202850161144785611862565b8060005b85811015611483578484038952815161146485826113e9565b945061146f836118ae565b925060208a0199505060018101905061144b565b50829750879550505050505092915050565b60006114a08261188d565b6114aa81856118d9565b9350836020820285016114bc85611872565b8060005b858110156114f857848403895281516114d985826113fd565b94506114e4836118bb565b925060208a019950506001810190506114c0565b50829750879550505050505092915050565b6000611515826118a3565b61151f81856118fb565b935061152f818560208601611957565b6115388161198a565b840191505092915050565b600061154e82611898565b61155881856118ea565b9350611568818560208601611957565b6115718161198a565b840191505092915050565b600060c08301600083015184820360008601526115998282611543565b915050602083015184820360208601526115b38282611543565b915050604083015184820360408601526115cd8282611543565b915050606083015184820360608601526115e78282611543565b915050608083015184820360808601526116018282611543565b91505060a083015161161660a0860182611692565b508091505092915050565b6000608083016000830151848203600086015261163e8282611543565b915050602083015184820360208601526116588282611543565b915050604083015184820360408601526116728282611543565b91505060608301516116876060860182611692565b508091505092915050565b61169b8161193e565b82525050565b6116aa8161193e565b82525050565b600060e0820190506116c5600083018a611411565b81810360208301526116d7818961150a565b905081810360408301526116eb818861150a565b905081810360608301526116ff818761150a565b90508181036080830152611713818661150a565b905081810360a0830152611727818561150a565b905061173660c08301846116a1565b98975050505050505050565b600060a0820190506117576000830188611411565b8181036020830152611769818761150a565b9050818103604083015261177d818661150a565b90508181036060830152611791818561150a565b90506117a060808301846116a1565b9695505050505050565b600060208201905081810360008301526117c48184611420565b905092915050565b600060208201905081810360008301526117e68184611495565b905092915050565b600060208201905061180360008301846116a1565b92915050565b6000604051905081810181811067ffffffffffffffff8211171561182c57600080fd5b8060405250919050565b600067ffffffffffffffff82111561184d57600080fd5b601f19601f8301169050602081019050919050565b6000819050602082019050919050565b6000819050602082019050919050565b600081519050919050565b600081519050919050565b600081519050919050565b600081519050919050565b6000602082019050919050565b6000602082019050919050565b600082825260208201905092915050565b600082825260208201905092915050565b600082825260208201905092915050565b600082825260208201905092915050565b60006119178261191e565b9050919050565b600073ffffffffffffffffffffffffffffffffffffffff82169050919050565b6000819050919050565b82818337600083830152505050565b60005b8381101561197557808201518184015260208101905061195a565b83811115611984576000848401525b50505050565b6000601f19601f8301169050919050565b6119a48161190c565b81146119af57600080fd5b50565b6119bb8161193e565b81146119c657600080fd5b5056fea365627a7a723158200c0c863080bb3461ce72adf552c6a2eaad7452d34b87afb51b1396e1787664b46c6578706572696d656e74616cf564736f6c63430005100040",
  "source": "pragma solidity >0.5.2;\r\npragma experimental ABIEncoderV2;\r\n\r\ncontract IPFSInbox {    \r\n    \r\n    struct carSetup {\r\n        string ipfsHash;\r\n        string carBrand;\r\n        string track;\r\n        string simulator;\r\n        string season;\r\n        uint256 price;\r\n    }\r\n    \r\n    struct skin {\r\n        string ipfsHash;\r\n        string carBrand;\r\n        string simulator;\r\n        uint256 price;\r\n    }\r\n    \r\n    \r\n    //Saves those 2 files\r\n    mapping (address => carSetup[]) carsInbox;\r\n    mapping (address => skin[]) skinsInbox;\r\n    \r\n    \r\n    //To track if vendor address already exists\r\n    mapping (address => bool) userExists;\r\n    \r\n    //Keep track of all vendor addresses and existing files\r\n    address[] private userAddresses;\r\n    string[] private ipfsList;\r\n    uint256 public carsCounter;\r\n    uint256 public skinsCounter;\r\n        \r\n    // Events\r\n    event ipfsSaved(string _ipfsHash, address _address);\r\n    event carSaved(address _address, string _ipfsHash, string _carBrand, string _track, string _simulator, string _season, uint256 _price);\r\n    event skinSaved(address _address, string _ipfsHash, string _carBrand, string _simulator, uint256 _price);\r\n    \r\n    // An empty constructor that creates an instance of the contract\r\n    constructor() public{\r\n        carsCounter = 0;\r\n        skinsCounter = 0;\r\n    }    \r\n    \r\n\r\n    function saveCar(address _address, string memory _ipfsHash, string memory _carBrand, string memory _track, string memory _simulator, string memory _season, uint256 _price) public {\r\n        carSetup memory car = carSetup(_ipfsHash, _carBrand, _track, _simulator, _season, _price);\r\n        carsInbox[_address].push(car);\r\n        carsCounter++;\r\n        ipfsList.push(_ipfsHash);\r\n        emit carSaved(_address,_ipfsHash, _carBrand, _track, _simulator, _season, _price);\r\n        if(userExists[_address] == false) {\r\n            userExists[_address] = true;\r\n            userAddresses.push(_address);    \r\n        }\r\n    }\r\n    \r\n\r\n    \r\n    \r\n    function saveSkin(address _address, string memory _ipfsHash, string memory _carBrand, string memory _simulator, uint256 _price) public {\r\n        skin memory newSkin = skin(_ipfsHash, _carBrand,  _simulator, _price);\r\n        skinsInbox[_address].push(newSkin);\r\n        skinsCounter++;\r\n        ipfsList.push(_ipfsHash);\r\n        emit skinSaved (_address,_ipfsHash, _carBrand, _simulator, _price);\r\n        if(userExists[_address] == false) {\r\n            userExists[_address] = true;\r\n            userAddresses.push(_address);    \r\n        }\r\n    }\r\n    \r\n    function getCars() public view returns(carSetup[] memory allCars){\r\n        carSetup[] memory cars = new carSetup[](carsCounter);\r\n        uint256 i = 0;\r\n        for(uint256 j = 0; j < userAddresses.length; j++) {\r\n            address _address =  userAddresses[j];\r\n            \r\n            for(uint256 k = 0; k < carsInbox[_address].length; k++) {\r\n                carSetup storage car = carsInbox[_address][k];\r\n                cars[i] = car;\r\n                i++;\r\n            }\r\n        }\r\n        return cars;\r\n    }\r\n    \r\n    function getSkins() public view returns(skin[] memory allSkins){\r\n        skin[] memory skins = new skin[](skinsCounter);\r\n        uint256 i = 0;\r\n        for(uint256 j = 0; j < userAddresses.length; j++) {\r\n            address _address =  userAddresses[j];\r\n            \r\n            for(uint256 k = 0; k < skinsInbox[_address].length; k++) {\r\n                skin storage skin2 = skinsInbox[_address][k];\r\n                skins[i] = skin2;\r\n                i++;\r\n            }\r\n        }\r\n        return skins;\r\n    }\r\n    \r\n    \r\n    function getNumberVendors() public view returns(uint256) {\r\n        return userAddresses.length;\r\n    }\r\n    \r\n    function getNumberCars() public view returns(uint256) {\r\n        return carsCounter;\r\n    }\r\n    \r\n    function getNumberSkins() public view returns(uint256) {\r\n        return skinsCounter;\r\n    }\r\n    \r\n    \r\n}",
  "sourcePath": "C:/Users/afons/Documents/Development/Marketplace/market-dapp/backend/contracts/IPFSInbox.sol",
  "compiler": {
    "name": "solc",
    "version": "0.5.16+commit.9c3226ce.Emscripten.clang"
  },
  "schemaVersion": "3.3.2",
  "updatedAt": "2020-11-29T14:42:47.613Z",
  "networkType": "ethereum",
  "devdoc": {
    "methods": {}
  },
  "userdoc": {
    "methods": {}
  }
}