{
  "contractName": "IPFSInbox",
  "abi": [
    {
      "constant": true,
      "inputs": [],
      "name": "skinsCounter",
      "outputs": [
        {
          "name": "",
          "type": "uint256"
        }
      ],
      "payable": false,
      "stateMutability": "view",
      "type": "function"
    },
    {
      "constant": true,
      "inputs": [],
      "name": "carsCounter",
      "outputs": [
        {
          "name": "",
          "type": "uint256"
        }
      ],
      "payable": false,
      "stateMutability": "view",
      "type": "function"
    },
    {
      "inputs": [],
      "payable": false,
      "stateMutability": "nonpayable",
      "type": "constructor"
    },
    {
      "anonymous": false,
      "inputs": [
        {
          "indexed": false,
          "name": "_ipfsHash",
          "type": "string"
        },
        {
          "indexed": false,
          "name": "_address",
          "type": "address"
        }
      ],
      "name": "ipfsSaved",
      "type": "event"
    },
    {
      "anonymous": false,
      "inputs": [
        {
          "indexed": false,
          "name": "_address",
          "type": "address"
        },
        {
          "indexed": false,
          "name": "_ipfsHash",
          "type": "string"
        },
        {
          "indexed": false,
          "name": "_carBrand",
          "type": "string"
        },
        {
          "indexed": false,
          "name": "_track",
          "type": "string"
        },
        {
          "indexed": false,
          "name": "_simulator",
          "type": "string"
        },
        {
          "indexed": false,
          "name": "_season",
          "type": "string"
        },
        {
          "indexed": false,
          "name": "_price",
          "type": "uint256"
        }
      ],
      "name": "carSaved",
      "type": "event"
    },
    {
      "anonymous": false,
      "inputs": [
        {
          "indexed": false,
          "name": "_address",
          "type": "address"
        },
        {
          "indexed": false,
          "name": "_ipfsHash",
          "type": "string"
        },
        {
          "indexed": false,
          "name": "_carBrand",
          "type": "string"
        },
        {
          "indexed": false,
          "name": "_simulator",
          "type": "string"
        },
        {
          "indexed": false,
          "name": "_price",
          "type": "uint256"
        }
      ],
      "name": "skinSaved",
      "type": "event"
    },
    {
      "constant": false,
      "inputs": [
        {
          "name": "_address",
          "type": "address"
        },
        {
          "name": "_ipfsHash",
          "type": "string"
        },
        {
          "name": "_carBrand",
          "type": "string"
        },
        {
          "name": "_track",
          "type": "string"
        },
        {
          "name": "_simulator",
          "type": "string"
        },
        {
          "name": "_season",
          "type": "string"
        },
        {
          "name": "_price",
          "type": "uint256"
        }
      ],
      "name": "saveCar",
      "outputs": [],
      "payable": false,
      "stateMutability": "nonpayable",
      "type": "function"
    },
    {
      "constant": false,
      "inputs": [
        {
          "name": "_address",
          "type": "address"
        },
        {
          "name": "_ipfsHash",
          "type": "string"
        },
        {
          "name": "_carBrand",
          "type": "string"
        },
        {
          "name": "_simulator",
          "type": "string"
        },
        {
          "name": "_price",
          "type": "uint256"
        }
      ],
      "name": "saveSkin",
      "outputs": [],
      "payable": false,
      "stateMutability": "nonpayable",
      "type": "function"
    },
    {
      "constant": true,
      "inputs": [],
      "name": "getCars",
      "outputs": [
        {
          "components": [
            {
              "name": "ipfsHash",
              "type": "string"
            },
            {
              "name": "carBrand",
              "type": "string"
            },
            {
              "name": "track",
              "type": "string"
            },
            {
              "name": "simulator",
              "type": "string"
            },
            {
              "name": "season",
              "type": "string"
            },
            {
              "name": "price",
              "type": "uint256"
            }
          ],
          "name": "allCars",
          "type": "tuple[]"
        }
      ],
      "payable": false,
      "stateMutability": "view",
      "type": "function"
    },
    {
      "constant": true,
      "inputs": [],
      "name": "getSkins",
      "outputs": [
        {
          "components": [
            {
              "name": "ipfsHash",
              "type": "string"
            },
            {
              "name": "carBrand",
              "type": "string"
            },
            {
              "name": "simulator",
              "type": "string"
            },
            {
              "name": "price",
              "type": "uint256"
            }
          ],
          "name": "allSkins",
          "type": "tuple[]"
        }
      ],
      "payable": false,
      "stateMutability": "view",
      "type": "function"
    },
    {
      "constant": true,
      "inputs": [],
      "name": "getNumberVendors",
      "outputs": [
        {
          "name": "",
          "type": "uint256"
        }
      ],
      "payable": false,
      "stateMutability": "view",
      "type": "function"
    },
    {
      "constant": true,
      "inputs": [],
      "name": "getNumberCars",
      "outputs": [
        {
          "name": "",
          "type": "uint256"
        }
      ],
      "payable": false,
      "stateMutability": "view",
      "type": "function"
    },
    {
      "constant": true,
      "inputs": [],
      "name": "getNumberSkins",
      "outputs": [
        {
          "name": "",
          "type": "uint256"
        }
      ],
      "payable": false,
      "stateMutability": "view",
      "type": "function"
    }
  ],
  "bytecode": "0x608060405234801561001057600080fd5b50600060058190555060006006819055506119e9806100306000396000f3fe608060405260043610610092576000357c010000000000000000000000000000000000000000000000000000000090048062355a481461009757806317c39286146100c25780636e5702af146100ed578063a26f008b14610118578063a3ccc13c14610141578063a63e63141461016c578063b95f22f314610195578063ba1219fa146101c0578063c244d414146101eb575b600080fd5b3480156100a357600080fd5b506100ac610216565b6040516100b99190611830565b60405180910390f35b3480156100ce57600080fd5b506100d761021c565b6040516100e491906117ec565b60405180910390f35b3480156100f957600080fd5b506101026106ea565b60405161010f9190611830565b60405180910390f35b34801561012457600080fd5b5061013f600480360361013a91908101906112a1565b6106f4565b005b34801561014d57600080fd5b506101566109ea565b6040516101639190611830565b60405180910390f35b34801561017857600080fd5b50610193600480360361018e91908101906113b7565b6109f7565b005b3480156101a157600080fd5b506101aa610ca2565b6040516101b79190611830565b60405180910390f35b3480156101cc57600080fd5b506101d5610cac565b6040516101e2919061180e565b60405180910390f35b3480156101f757600080fd5b50610200611038565b60405161020d9190611830565b60405180910390f35b60065481565b60608060055460405190808252806020026020018201604052801561025b57816020015b61024861103e565b8152602001906001900390816102405790505b509050600080905060008090505b6003805490508110156106e157600060038281548110151561028757fe5b9060005260206000200160009054906101000a900473ffffffffffffffffffffffffffffffffffffffff16905060008090505b6000808373ffffffffffffffffffffffffffffffffffffffff1673ffffffffffffffffffffffffffffffffffffffff168152602001908152602001600020805490508110156106d25760008060008473ffffffffffffffffffffffffffffffffffffffff1673ffffffffffffffffffffffffffffffffffffffff1681526020019081526020016000208281548110151561035057fe5b906000526020600020906006020190508060c06040519081016040529081600082018054600181600116156101000203166002900480601f0160208091040260200160405190810160405280929190818152602001828054600181600116156101000203166002900480156104065780601f106103db57610100808354040283529160200191610406565b820191906000526020600020905b8154815290600101906020018083116103e957829003601f168201915b50505050508152602001600182018054600181600116156101000203166002900480601f0160208091040260200160405190810160405280929190818152602001828054600181600116156101000203166002900480156104a85780601f1061047d576101008083540402835291602001916104a8565b820191906000526020600020905b81548152906001019060200180831161048b57829003601f168201915b50505050508152602001600282018054600181600116156101000203166002900480601f01602080910402602001604051908101604052809291908181526020018280546001816001161561010002031660029004801561054a5780601f1061051f5761010080835404028352916020019161054a565b820191906000526020600020905b81548152906001019060200180831161052d57829003601f168201915b50505050508152602001600382018054600181600116156101000203166002900480601f0160208091040260200160405190810160405280929190818152602001828054600181600116156101000203166002900480156105ec5780601f106105c1576101008083540402835291602001916105ec565b820191906000526020600020905b8154815290600101906020018083116105cf57829003601f168201915b50505050508152602001600482018054600181600116156101000203166002900480601f01602080910402602001604051908101604052809291908181526020018280546001816001161561010002031660029004801561068e5780601f106106635761010080835404028352916020019161068e565b820191906000526020600020905b81548152906001019060200180831161067157829003601f168201915b5050505050815260200160058201548152505086868151811015156106af57fe5b9060200190602002018190525084806001019550505080806001019150506102ba565b50508080600101915050610269565b50819250505090565b6000600554905090565b6106fc611075565b60c0604051908101604052808881526020018781526020018681526020018581526020018481526020018381525090506000808973ffffffffffffffffffffffffffffffffffffffff1673ffffffffffffffffffffffffffffffffffffffff168152602001908152602001600020819080600181540180825580915050906001820390600052602060002090600602016000909192909190915060008201518160000190805190602001906107b29291906110ac565b5060208201518160010190805190602001906107cf9291906110ac565b5060408201518160020190805190602001906107ec9291906110ac565b5060608201518160030190805190602001906108099291906110ac565b5060808201518160040190805190602001906108269291906110ac565b5060a08201518160050155505050600560008154809291906001019190505550600487908060018154018082558091505090600182039060005260206000200160009091929091909150908051906020019061088392919061112c565b50507f8dea16d7d2138c1b0d473afea1e4ef926774315abb18aae4584438dcdf205913888888888888886040516108c097969594939291906116f2565b60405180910390a160001515600260008a73ffffffffffffffffffffffffffffffffffffffff1673ffffffffffffffffffffffffffffffffffffffff16815260200190815260200160002060009054906101000a900460ff16151514156109e0576001600260008a73ffffffffffffffffffffffffffffffffffffffff1673ffffffffffffffffffffffffffffffffffffffff16815260200190815260200160002060006101000a81548160ff02191690831515021790555060038890806001815401808255809150509060018203906000526020600020016000909192909190916101000a81548173ffffffffffffffffffffffffffffffffffffffff021916908373ffffffffffffffffffffffffffffffffffffffff160217905550505b5050505050505050565b6000600380549050905090565b6109ff6111ac565b608060405190810160405280868152602001858152602001848152602001838152509050600160008773ffffffffffffffffffffffffffffffffffffffff1673ffffffffffffffffffffffffffffffffffffffff16815260200190815260200160002081908060018154018082558091505090600182039060005260206000209060040201600090919290919091506000820151816000019080519060200190610aaa9291906110ac565b506020820151816001019080519060200190610ac79291906110ac565b506040820151816002019080519060200190610ae49291906110ac565b50606082015181600301555050506006600081548092919060010191905055506004859080600181540180825580915050906001820390600052602060002001600090919290919091509080519060200190610b4192919061112c565b50507fbcae586f547a927f23565f5e12858d43b5eba06018b093fd19ca2eafb95aac6e8686868686604051610b7a959493929190611784565b60405180910390a160001515600260008873ffffffffffffffffffffffffffffffffffffffff1673ffffffffffffffffffffffffffffffffffffffff16815260200190815260200160002060009054906101000a900460ff1615151415610c9a576001600260008873ffffffffffffffffffffffffffffffffffffffff1673ffffffffffffffffffffffffffffffffffffffff16815260200190815260200160002060006101000a81548160ff02191690831515021790555060038690806001815401808255809150509060018203906000526020600020016000909192909190916101000a81548173ffffffffffffffffffffffffffffffffffffffff021916908373ffffffffffffffffffffffffffffffffffffffff160217905550505b505050505050565b6000600654905090565b606080600654604051908082528060200260200182016040528015610ceb57816020015b610cd86111d5565b815260200190600190039081610cd05790505b509050600080905060008090505b60038054905081101561102f576000600382815481101515610d1757fe5b9060005260206000200160009054906101000a900473ffffffffffffffffffffffffffffffffffffffff16905060008090505b600160008373ffffffffffffffffffffffffffffffffffffffff1673ffffffffffffffffffffffffffffffffffffffff16815260200190815260200160002080549050811015611020576000600160008473ffffffffffffffffffffffffffffffffffffffff1673ffffffffffffffffffffffffffffffffffffffff16815260200190815260200160002082815481101515610de257fe5b906000526020600020906004020190508060806040519081016040529081600082018054600181600116156101000203166002900480601f016020809104026020016040519081016040528092919081815260200182805460018160011615610100020316600290048015610e985780601f10610e6d57610100808354040283529160200191610e98565b820191906000526020600020905b815481529060010190602001808311610e7b57829003601f168201915b50505050508152602001600182018054600181600116156101000203166002900480601f016020809104026020016040519081016040528092919081815260200182805460018160011615610100020316600290048015610f3a5780601f10610f0f57610100808354040283529160200191610f3a565b820191906000526020600020905b815481529060010190602001808311610f1d57829003601f168201915b50505050508152602001600282018054600181600116156101000203166002900480601f016020809104026020016040519081016040528092919081815260200182805460018160011615610100020316600290048015610fdc5780601f10610fb157610100808354040283529160200191610fdc565b820191906000526020600020905b815481529060010190602001808311610fbf57829003601f168201915b505050505081526020016003820154815250508686815181101515610ffd57fe5b906020019060200201819052508480600101955050508080600101915050610d4a565b50508080600101915050610cf9565b50819250505090565b60055481565b60c0604051908101604052806060815260200160608152602001606081526020016060815260200160608152602001600081525090565b60c0604051908101604052806060815260200160608152602001606081526020016060815260200160608152602001600081525090565b828054600181600116156101000203166002900490600052602060002090601f016020900481019282601f106110ed57805160ff191683800117855561111b565b8280016001018555821561111b579182015b8281111561111a5782518255916020019190600101906110ff565b5b50905061112891906111fe565b5090565b828054600181600116156101000203166002900490600052602060002090601f016020900481019282601f1061116d57805160ff191683800117855561119b565b8280016001018555821561119b579182015b8281111561119a57825182559160200191906001019061117f565b5b5090506111a891906111fe565b5090565b608060405190810160405280606081526020016060815260200160608152602001600081525090565b608060405190810160405280606081526020016060815260200160608152602001600081525090565b61122091905b8082111561121c576000816000905550600101611204565b5090565b90565b600061122f8235611940565b905092915050565b600082601f830112151561124a57600080fd5b813561125d61125882611878565b61184b565b9150808252602083016020830185838301111561127957600080fd5b61128483828461195c565b50505092915050565b60006112998235611952565b905092915050565b600080600080600080600060e0888a0312156112bc57600080fd5b60006112ca8a828b01611223565b975050602088013567ffffffffffffffff8111156112e757600080fd5b6112f38a828b01611237565b965050604088013567ffffffffffffffff81111561131057600080fd5b61131c8a828b01611237565b955050606088013567ffffffffffffffff81111561133957600080fd5b6113458a828b01611237565b945050608088013567ffffffffffffffff81111561136257600080fd5b61136e8a828b01611237565b93505060a088013567ffffffffffffffff81111561138b57600080fd5b6113978a828b01611237565b92505060c06113a88a828b0161128d565b91505092959891949750929550565b600080600080600060a086880312156113cf57600080fd5b60006113dd88828901611223565b955050602086013567ffffffffffffffff8111156113fa57600080fd5b61140688828901611237565b945050604086013567ffffffffffffffff81111561142357600080fd5b61142f88828901611237565b935050606086013567ffffffffffffffff81111561144c57600080fd5b61145888828901611237565b92505060806114698882890161128d565b9150509295509295909350565b61147f81611904565b82525050565b6000611490826118be565b808452602084019350836020820285016114a9856118a4565b60005b848110156114e25783830388526114c48383516115cd565b92506114cf826118ea565b91506020880197506001810190506114ac565b508196508694505050505092915050565b60006114fe826118c9565b80845260208401935083602082028501611517856118b1565b60005b84811015611550578383038852611532838351611672565b925061153d826118f7565b915060208801975060018101905061151a565b508196508694505050505092915050565b600061156c826118df565b80845261158081602086016020860161196b565b6115898161199e565b602085010191505092915050565b60006115a2826118d4565b8084526115b681602086016020860161196b565b6115bf8161199e565b602085010191505092915050565b600060c08301600083015184820360008601526115ea8282611597565b915050602083015184820360208601526116048282611597565b9150506040830151848203604086015261161e8282611597565b915050606083015184820360608601526116388282611597565b915050608083015184820360808601526116528282611597565b91505060a083015161166760a08601826116e3565b508091505092915050565b6000608083016000830151848203600086015261168f8282611597565b915050602083015184820360208601526116a98282611597565b915050604083015184820360408601526116c38282611597565b91505060608301516116d860608601826116e3565b508091505092915050565b6116ec81611936565b82525050565b600060e082019050611707600083018a611476565b81810360208301526117198189611561565b9050818103604083015261172d8188611561565b905081810360608301526117418187611561565b905081810360808301526117558186611561565b905081810360a08301526117698185611561565b905061177860c08301846116e3565b98975050505050505050565b600060a0820190506117996000830188611476565b81810360208301526117ab8187611561565b905081810360408301526117bf8186611561565b905081810360608301526117d38185611561565b90506117e260808301846116e3565b9695505050505050565b600060208201905081810360008301526118068184611485565b905092915050565b6000602082019050818103600083015261182881846114f3565b905092915050565b600060208201905061184560008301846116e3565b92915050565b6000604051905081810181811067ffffffffffffffff8211171561186e57600080fd5b8060405250919050565b600067ffffffffffffffff82111561188f57600080fd5b601f19601f8301169050602081019050919050565b6000602082019050919050565b6000602082019050919050565b600081519050919050565b600081519050919050565b600081519050919050565b600081519050919050565b6000602082019050919050565b6000602082019050919050565b600061190f82611916565b9050919050565b600073ffffffffffffffffffffffffffffffffffffffff82169050919050565b6000819050919050565b600061194b82611916565b9050919050565b6000819050919050565b82818337600083830152505050565b60005b8381101561198957808201518184015260208101905061196e565b83811115611998576000848401525b50505050565b6000601f19601f830116905091905056fea265627a7a72305820d9181fa277bd31ce7fab9810c14f7ed282e5a8daae2bc667a456883a40603ca76c6578706572696d656e74616cf50037",
  "source": "pragma solidity ^0.5.1;\r\npragma experimental ABIEncoderV2;\r\n\r\ncontract IPFSInbox {    \r\n    \r\n    struct carSetup {\r\n        string ipfsHash;\r\n        string carBrand;\r\n        string track;\r\n        string simulator;\r\n        string season;\r\n        uint256 price;\r\n    }\r\n    \r\n    struct skin {\r\n        string ipfsHash;\r\n        string carBrand;\r\n        string simulator;\r\n        uint256 price;\r\n    }\r\n    \r\n    \r\n    //Saves those 2 files\r\n    mapping (address => carSetup[]) carsInbox;\r\n    mapping (address => skin[]) skinsInbox;\r\n    \r\n    \r\n    //To track if vendor address already exists\r\n    mapping (address => bool) userExists;\r\n    \r\n    //Keep track of all vendor addresses and existing files\r\n    address[] private userAddresses;\r\n    string[] private ipfsList;\r\n    uint256 public carsCounter;\r\n    uint256 public skinsCounter;\r\n        \r\n    // Events\r\n    event ipfsSaved(string _ipfsHash, address _address);\r\n    event carSaved(address _address, string _ipfsHash, string _carBrand, string _track, string _simulator, string _season, uint256 _price);\r\n    event skinSaved(address _address, string _ipfsHash, string _carBrand, string _simulator, uint256 _price);\r\n    \r\n    // An empty constructor that creates an instance of the contract\r\n    constructor() public{\r\n        carsCounter = 0;\r\n        skinsCounter = 0;\r\n    }    \r\n    \r\n\r\n    function saveCar(address _address, string memory _ipfsHash, string memory _carBrand, string memory _track, string memory _simulator, string memory _season, uint256 _price) public {\r\n        carSetup memory car = carSetup(_ipfsHash, _carBrand, _track, _simulator, _season, _price);\r\n        carsInbox[_address].push(car);\r\n        carsCounter++;\r\n        ipfsList.push(_ipfsHash);\r\n        emit carSaved(_address,_ipfsHash, _carBrand, _track, _simulator, _season, _price);\r\n        if(userExists[_address] == false) {\r\n            userExists[_address] = true;\r\n            userAddresses.push(_address);    \r\n        }\r\n    }\r\n    \r\n\r\n    \r\n    \r\n    function saveSkin(address _address, string memory _ipfsHash, string memory _carBrand, string memory _simulator, uint256 _price) public {\r\n        skin memory newSkin = skin(_ipfsHash, _carBrand,  _simulator, _price);\r\n        skinsInbox[_address].push(newSkin);\r\n        skinsCounter++;\r\n        ipfsList.push(_ipfsHash);\r\n        emit skinSaved (_address,_ipfsHash, _carBrand, _simulator, _price);\r\n        if(userExists[_address] == false) {\r\n            userExists[_address] = true;\r\n            userAddresses.push(_address);    \r\n        }\r\n    }\r\n    \r\n    function getCars() public view returns(carSetup[] memory allCars){\r\n        carSetup[] memory cars = new carSetup[](carsCounter);\r\n        uint256 i = 0;\r\n        for(uint256 j = 0; j < userAddresses.length; j++) {\r\n            address _address =  userAddresses[j];\r\n            \r\n            for(uint256 k = 0; k < carsInbox[_address].length; k++) {\r\n                carSetup storage car = carsInbox[_address][k];\r\n                cars[i] = car;\r\n                i++;\r\n            }\r\n        }\r\n        return cars;\r\n    }\r\n    \r\n    function getSkins() public view returns(skin[] memory allSkins){\r\n        skin[] memory skins = new skin[](skinsCounter);\r\n        uint256 i = 0;\r\n        for(uint256 j = 0; j < userAddresses.length; j++) {\r\n            address _address =  userAddresses[j];\r\n            \r\n            for(uint256 k = 0; k < skinsInbox[_address].length; k++) {\r\n                skin storage skin2 = skinsInbox[_address][k];\r\n                skins[i] = skin2;\r\n                i++;\r\n            }\r\n        }\r\n        return skins;\r\n    }\r\n    \r\n    \r\n    function getNumberVendors() public view returns(uint256) {\r\n        return userAddresses.length;\r\n    }\r\n    \r\n    function getNumberCars() public view returns(uint256) {\r\n        return carsCounter;\r\n    }\r\n    \r\n    function getNumberSkins() public view returns(uint256) {\r\n        return skinsCounter;\r\n    }\r\n    \r\n    \r\n}",
  "sourcePath": "C:/Users/afons/Documents/Development/Marketplace/market-dapp/backend/contracts/IPFSInbox.sol",
  "compiler": {
    "name": "solc",
    "version": "0.5.1+commit.c8a2cb62.Emscripten.clang"
  },
  "schemaVersion": "3.3.2",
  "updatedAt": "2020-11-29T17:51:53.741Z",
  "networkType": "ethereum",
  "devdoc": {
    "methods": {}
  },
  "userdoc": {
    "methods": {}
  }
}