{
  "contractName": "IPFSInbox",
  "abi": [
    {
      "constant": true,
      "inputs": [],
      "name": "skinsCounter",
      "outputs": [
        {
          "name": "",
          "type": "uint256"
        }
      ],
      "payable": false,
      "stateMutability": "view",
      "type": "function"
    },
    {
      "constant": true,
      "inputs": [],
      "name": "carsCounter",
      "outputs": [
        {
          "name": "",
          "type": "uint256"
        }
      ],
      "payable": false,
      "stateMutability": "view",
      "type": "function"
    },
    {
      "inputs": [],
      "payable": false,
      "stateMutability": "nonpayable",
      "type": "constructor"
    },
    {
      "anonymous": false,
      "inputs": [
        {
          "indexed": false,
          "name": "_ipfsHash",
          "type": "string"
        },
        {
          "indexed": false,
          "name": "_address",
          "type": "address"
        }
      ],
      "name": "ipfsSaved",
      "type": "event"
    },
    {
      "anonymous": false,
      "inputs": [
        {
          "indexed": false,
          "name": "_address",
          "type": "address"
        },
        {
          "indexed": false,
          "name": "_ipfsHash",
          "type": "string"
        },
        {
          "indexed": false,
          "name": "_carBrand",
          "type": "string"
        },
        {
          "indexed": false,
          "name": "_track",
          "type": "string"
        },
        {
          "indexed": false,
          "name": "_simulator",
          "type": "string"
        },
        {
          "indexed": false,
          "name": "_season",
          "type": "string"
        },
        {
          "indexed": false,
          "name": "_price",
          "type": "uint256"
        }
      ],
      "name": "carSaved",
      "type": "event"
    },
    {
      "anonymous": false,
      "inputs": [
        {
          "indexed": false,
          "name": "_address",
          "type": "address"
        },
        {
          "indexed": false,
          "name": "_ipfsHash",
          "type": "string"
        },
        {
          "indexed": false,
          "name": "_carBrand",
          "type": "string"
        },
        {
          "indexed": false,
          "name": "_simulator",
          "type": "string"
        },
        {
          "indexed": false,
          "name": "_price",
          "type": "uint256"
        }
      ],
      "name": "skinSaved",
      "type": "event"
    },
    {
      "constant": false,
      "inputs": [
        {
          "name": "_address",
          "type": "address"
        },
        {
          "name": "_ipfsHash",
          "type": "string"
        },
        {
          "name": "_carBrand",
          "type": "string"
        },
        {
          "name": "_track",
          "type": "string"
        },
        {
          "name": "_simulator",
          "type": "string"
        },
        {
          "name": "_season",
          "type": "string"
        },
        {
          "name": "_price",
          "type": "uint256"
        }
      ],
      "name": "saveCar",
      "outputs": [],
      "payable": false,
      "stateMutability": "nonpayable",
      "type": "function"
    },
    {
      "constant": false,
      "inputs": [
        {
          "name": "_address",
          "type": "address"
        },
        {
          "name": "_ipfsHash",
          "type": "string"
        },
        {
          "name": "_carBrand",
          "type": "string"
        },
        {
          "name": "_simulator",
          "type": "string"
        },
        {
          "name": "_price",
          "type": "uint256"
        }
      ],
      "name": "saveSkin",
      "outputs": [],
      "payable": false,
      "stateMutability": "nonpayable",
      "type": "function"
    },
    {
      "constant": false,
      "inputs": [
        {
          "name": "_address",
          "type": "address"
        }
      ],
      "name": "saveVendor",
      "outputs": [
        {
          "name": "",
          "type": "bool"
        }
      ],
      "payable": false,
      "stateMutability": "nonpayable",
      "type": "function"
    },
    {
      "constant": true,
      "inputs": [],
      "name": "getCars",
      "outputs": [
        {
          "components": [
            {
              "name": "ipfsHash",
              "type": "string"
            },
            {
              "name": "carBrand",
              "type": "string"
            },
            {
              "name": "track",
              "type": "string"
            },
            {
              "name": "simulator",
              "type": "string"
            },
            {
              "name": "season",
              "type": "string"
            },
            {
              "name": "price",
              "type": "uint256"
            },
            {
              "name": "_address",
              "type": "string"
            }
          ],
          "name": "allCars",
          "type": "tuple[]"
        }
      ],
      "payable": false,
      "stateMutability": "view",
      "type": "function"
    },
    {
      "constant": true,
      "inputs": [],
      "name": "getSkins",
      "outputs": [
        {
          "components": [
            {
              "name": "ipfsHash",
              "type": "string"
            },
            {
              "name": "carBrand",
              "type": "string"
            },
            {
              "name": "simulator",
              "type": "string"
            },
            {
              "name": "price",
              "type": "uint256"
            },
            {
              "name": "_address",
              "type": "string"
            }
          ],
          "name": "allSkins",
          "type": "tuple[]"
        }
      ],
      "payable": false,
      "stateMutability": "view",
      "type": "function"
    },
    {
      "constant": true,
      "inputs": [
        {
          "name": "_address",
          "type": "address"
        }
      ],
      "name": "isVendor",
      "outputs": [
        {
          "name": "",
          "type": "bool"
        }
      ],
      "payable": false,
      "stateMutability": "view",
      "type": "function"
    },
    {
      "constant": true,
      "inputs": [],
      "name": "getNumberVendors",
      "outputs": [
        {
          "name": "",
          "type": "uint256"
        }
      ],
      "payable": false,
      "stateMutability": "view",
      "type": "function"
    },
    {
      "constant": true,
      "inputs": [],
      "name": "getNumberCars",
      "outputs": [
        {
          "name": "",
          "type": "uint256"
        }
      ],
      "payable": false,
      "stateMutability": "view",
      "type": "function"
    },
    {
      "constant": true,
      "inputs": [],
      "name": "getNumberSkins",
      "outputs": [
        {
          "name": "",
          "type": "uint256"
        }
      ],
      "payable": false,
      "stateMutability": "view",
      "type": "function"
    },
    {
      "constant": true,
      "inputs": [
        {
          "name": "_addr",
          "type": "address"
        }
      ],
      "name": "addressToString",
      "outputs": [
        {
          "name": "",
          "type": "string"
        }
      ],
      "payable": false,
      "stateMutability": "pure",
      "type": "function"
    }
  ],
  "bytecode": "0x608060405234801561001057600080fd5b5060006005819055506000600681905550612273806100306000396000f3fe6080604052600436106100b3576000357c010000000000000000000000000000000000000000000000000000000090048062355a48146100b857806317c39286146100e35780635e57966d1461010e5780636e5702af1461014b578063a26f008b14610176578063a3ccc13c1461019f578063a63e6314146101ca578063b95f22f3146101f3578063ba1219fa1461021e578063c244d41414610249578063cb4f199d14610274578063ee54d54f146102b1575b600080fd5b3480156100c457600080fd5b506100cd6102ee565b6040516100da91906120ae565b60405180910390f35b3480156100ef57600080fd5b506100f86102f4565b604051610105919061202d565b60405180910390f35b34801561011a57600080fd5b5061013560048036036101309190810190611a76565b610864565b604051610142919061208c565b60405180910390f35b34801561015757600080fd5b50610160610c1e565b60405161016d91906120ae565b60405180910390f35b34801561018257600080fd5b5061019d60048036036101989190810190611a9f565b610c28565b005b3480156101ab57600080fd5b506101b4610f4f565b6040516101c191906120ae565b60405180910390f35b3480156101d657600080fd5b506101f160048036036101ec9190810190611bb5565b610f5c565b005b3480156101ff57600080fd5b50610208611238565b60405161021591906120ae565b60405180910390f35b34801561022a57600080fd5b50610233611242565b604051610240919061204f565b60405180910390f35b34801561025557600080fd5b5061025e611670565b60405161026b91906120ae565b60405180910390f35b34801561028057600080fd5b5061029b60048036036102969190810190611a76565b611676565b6040516102a89190612071565b60405180910390f35b3480156102bd57600080fd5b506102d860048036036102d39190810190611a76565b6117a1565b6040516102e59190612071565b60405180910390f35b60065481565b60608060055460405190808252806020026020018201604052801561033357816020015b6103206117f7565b8152602001906001900390816103185790505b509050600080905060008090505b60038054905081101561085b57600060038281548110151561035f57fe5b9060005260206000200160009054906101000a900473ffffffffffffffffffffffffffffffffffffffff16905060008090505b6000808373ffffffffffffffffffffffffffffffffffffffff1673ffffffffffffffffffffffffffffffffffffffff1681526020019081526020016000208054905081101561084c5760008060008473ffffffffffffffffffffffffffffffffffffffff1673ffffffffffffffffffffffffffffffffffffffff1681526020019081526020016000208281548110151561042857fe5b906000526020600020906007020190508060e06040519081016040529081600082018054600181600116156101000203166002900480601f0160208091040260200160405190810160405280929190818152602001828054600181600116156101000203166002900480156104de5780601f106104b3576101008083540402835291602001916104de565b820191906000526020600020905b8154815290600101906020018083116104c157829003601f168201915b50505050508152602001600182018054600181600116156101000203166002900480601f0160208091040260200160405190810160405280929190818152602001828054600181600116156101000203166002900480156105805780601f1061055557610100808354040283529160200191610580565b820191906000526020600020905b81548152906001019060200180831161056357829003601f168201915b50505050508152602001600282018054600181600116156101000203166002900480601f0160208091040260200160405190810160405280929190818152602001828054600181600116156101000203166002900480156106225780601f106105f757610100808354040283529160200191610622565b820191906000526020600020905b81548152906001019060200180831161060557829003601f168201915b50505050508152602001600382018054600181600116156101000203166002900480601f0160208091040260200160405190810160405280929190818152602001828054600181600116156101000203166002900480156106c45780601f10610699576101008083540402835291602001916106c4565b820191906000526020600020905b8154815290600101906020018083116106a757829003601f168201915b50505050508152602001600482018054600181600116156101000203166002900480601f0160208091040260200160405190810160405280929190818152602001828054600181600116156101000203166002900480156107665780601f1061073b57610100808354040283529160200191610766565b820191906000526020600020905b81548152906001019060200180831161074957829003601f168201915b5050505050815260200160058201548152602001600682018054600181600116156101000203166002900480601f0160208091040260200160405190810160405280929190818152602001828054600181600116156101000203166002900480156108125780601f106107e757610100808354040283529160200191610812565b820191906000526020600020905b8154815290600101906020018083116107f557829003601f168201915b505050505081525050868681518110151561082957fe5b906020019060200201819052508480600101955050508080600101915050610392565b50508080600101915050610341565b50819250505090565b606060008273ffffffffffffffffffffffffffffffffffffffff16600102905060606040805190810160405280601081526020017f30313233343536373839616263646566000000000000000000000000000000008152509050606060336040519080825280601f01601f1916602001820160405280156108f45781602001600182028038833980820191505090505b5090507f300000000000000000000000000000000000000000000000000000000000000081600081518110151561092757fe5b9060200101907effffffffffffffffffffffffffffffffffffffffffffffffffffffffffffff1916908160001a9053507f780000000000000000000000000000000000000000000000000000000000000081600181518110151561098757fe5b9060200101907effffffffffffffffffffffffffffffffffffffffffffffffffffffffffffff1916908160001a90535060008090505b6014811015610c125782600485600c84016020811015156109da57fe5b1a7f0100000000000000000000000000000000000000000000000000000000000000027effffffffffffffffffffffffffffffffffffffffffffffffffffffffffffff1916908060020a82049150507f0100000000000000000000000000000000000000000000000000000000000000900460ff16815181101515610a5b57fe5b9060200101517f010000000000000000000000000000000000000000000000000000000000000090047f0100000000000000000000000000000000000000000000000000000000000000028260028302600201815181101515610aba57fe5b9060200101907effffffffffffffffffffffffffffffffffffffffffffffffffffffffffffff1916908160001a90535082600f7f01000000000000000000000000000000000000000000000000000000000000000285600c8401602081101515610b2057fe5b1a7f010000000000000000000000000000000000000000000000000000000000000002167f0100000000000000000000000000000000000000000000000000000000000000900460ff16815181101515610b7657fe5b9060200101517f010000000000000000000000000000000000000000000000000000000000000090047f0100000000000000000000000000000000000000000000000000000000000000028260028302600301815181101515610bd557fe5b9060200101907effffffffffffffffffffffffffffffffffffffffffffffffffffffffffffff1916908160001a90535080806001019150506109bd565b50809350505050919050565b6000600554905090565b6060610c3388610864565b9050610c3d611835565b60e0604051908101604052808981526020018881526020018781526020018681526020018581526020018481526020018381525090506000808a73ffffffffffffffffffffffffffffffffffffffff1673ffffffffffffffffffffffffffffffffffffffff16815260200190815260200160002081908060018154018082558091505090600182039060005260206000209060070201600090919290919091506000820151816000019080519060200190610cf9929190611873565b506020820151816001019080519060200190610d16929190611873565b506040820151816002019080519060200190610d33929190611873565b506060820151816003019080519060200190610d50929190611873565b506080820151816004019080519060200190610d6d929190611873565b5060a0820151816005015560c0820151816006019080519060200190610d94929190611873565b505050506005600081548092919060010191905055506004889080600181540180825580915050906001820390600052602060002001600090919290919091509080519060200190610de79291906118f3565b50507f8dea16d7d2138c1b0d473afea1e4ef926774315abb18aae4584438dcdf20591389898989898989604051610e249796959493929190611f33565b60405180910390a160001515600260008b73ffffffffffffffffffffffffffffffffffffffff1673ffffffffffffffffffffffffffffffffffffffff16815260200190815260200160002060009054906101000a900460ff1615151415610f44576001600260008b73ffffffffffffffffffffffffffffffffffffffff1673ffffffffffffffffffffffffffffffffffffffff16815260200190815260200160002060006101000a81548160ff02191690831515021790555060038990806001815401808255809150509060018203906000526020600020016000909192909190916101000a81548173ffffffffffffffffffffffffffffffffffffffff021916908373ffffffffffffffffffffffffffffffffffffffff160217905550505b505050505050505050565b6000600380549050905090565b6060610f6786610864565b9050610f71611973565b60a060405190810160405280878152602001868152602001858152602001848152602001838152509050600160008873ffffffffffffffffffffffffffffffffffffffff1673ffffffffffffffffffffffffffffffffffffffff16815260200190815260200160002081908060018154018082558091505090600182039060005260206000209060050201600090919290919091506000820151816000019080519060200190611022929190611873565b50602082015181600101908051906020019061103f929190611873565b50604082015181600201908051906020019061105c929190611873565b50606082015181600301556080820151816004019080519060200190611083929190611873565b5050505060066000815480929190600101919050555060048690806001815401808255809150509060018203906000526020600020016000909192909190915090805190602001906110d69291906118f3565b50507fbcae586f547a927f23565f5e12858d43b5eba06018b093fd19ca2eafb95aac6e878787878760405161110f959493929190611fc5565b60405180910390a160001515600260008973ffffffffffffffffffffffffffffffffffffffff1673ffffffffffffffffffffffffffffffffffffffff16815260200190815260200160002060009054906101000a900460ff161515141561122f576001600260008973ffffffffffffffffffffffffffffffffffffffff1673ffffffffffffffffffffffffffffffffffffffff16815260200190815260200160002060006101000a81548160ff02191690831515021790555060038790806001815401808255809150509060018203906000526020600020016000909192909190916101000a81548173ffffffffffffffffffffffffffffffffffffffff021916908373ffffffffffffffffffffffffffffffffffffffff160217905550505b50505050505050565b6000600654905090565b60608060065460405190808252806020026020018201604052801561128157816020015b61126e6119a3565b8152602001906001900390816112665790505b509050600080905060008090505b6003805490508110156116675760006003828154811015156112ad57fe5b9060005260206000200160009054906101000a900473ffffffffffffffffffffffffffffffffffffffff16905060008090505b600160008373ffffffffffffffffffffffffffffffffffffffff1673ffffffffffffffffffffffffffffffffffffffff16815260200190815260200160002080549050811015611658576000600160008473ffffffffffffffffffffffffffffffffffffffff1673ffffffffffffffffffffffffffffffffffffffff1681526020019081526020016000208281548110151561137857fe5b906000526020600020906005020190508060a06040519081016040529081600082018054600181600116156101000203166002900480601f01602080910402602001604051908101604052809291908181526020018280546001816001161561010002031660029004801561142e5780601f106114035761010080835404028352916020019161142e565b820191906000526020600020905b81548152906001019060200180831161141157829003601f168201915b50505050508152602001600182018054600181600116156101000203166002900480601f0160208091040260200160405190810160405280929190818152602001828054600181600116156101000203166002900480156114d05780601f106114a5576101008083540402835291602001916114d0565b820191906000526020600020905b8154815290600101906020018083116114b357829003601f168201915b50505050508152602001600282018054600181600116156101000203166002900480601f0160208091040260200160405190810160405280929190818152602001828054600181600116156101000203166002900480156115725780601f1061154757610100808354040283529160200191611572565b820191906000526020600020905b81548152906001019060200180831161155557829003601f168201915b5050505050815260200160038201548152602001600482018054600181600116156101000203166002900480601f01602080910402602001604051908101604052809291908181526020018280546001816001161561010002031660029004801561161e5780601f106115f35761010080835404028352916020019161161e565b820191906000526020600020905b81548152906001019060200180831161160157829003601f168201915b505050505081525050868681518110151561163557fe5b9060200190602002018190525084806001019550505080806001019150506112e0565b5050808060010191505061128f565b50819250505090565b60055481565b6000801515600260008473ffffffffffffffffffffffffffffffffffffffff1673ffffffffffffffffffffffffffffffffffffffff16815260200190815260200160002060009054906101000a900460ff1615151415611797576001600260008473ffffffffffffffffffffffffffffffffffffffff1673ffffffffffffffffffffffffffffffffffffffff16815260200190815260200160002060006101000a81548160ff02191690831515021790555060038290806001815401808255809150509060018203906000526020600020016000909192909190916101000a81548173ffffffffffffffffffffffffffffffffffffffff021916908373ffffffffffffffffffffffffffffffffffffffff160217905550506001905061179c565b600090505b919050565b6000600260008373ffffffffffffffffffffffffffffffffffffffff1673ffffffffffffffffffffffffffffffffffffffff16815260200190815260200160002060009054906101000a900460ff169050919050565b60e060405190810160405280606081526020016060815260200160608152602001606081526020016060815260200160008152602001606081525090565b60e060405190810160405280606081526020016060815260200160608152602001606081526020016060815260200160008152602001606081525090565b828054600181600116156101000203166002900490600052602060002090601f016020900481019282601f106118b457805160ff19168380011785556118e2565b828001600101855582156118e2579182015b828111156118e15782518255916020019190600101906118c6565b5b5090506118ef91906119d3565b5090565b828054600181600116156101000203166002900490600052602060002090601f016020900481019282601f1061193457805160ff1916838001178555611962565b82800160010185558215611962579182015b82811115611961578251825591602001919060010190611946565b5b50905061196f91906119d3565b5090565b60a06040519081016040528060608152602001606081526020016060815260200160008152602001606081525090565b60a06040519081016040528060608152602001606081526020016060815260200160008152602001606081525090565b6119f591905b808211156119f15760008160009055506001016119d9565b5090565b90565b6000611a0482356121ca565b905092915050565b600082601f8301121515611a1f57600080fd5b8135611a32611a2d826120f6565b6120c9565b91508082526020830160208301858383011115611a4e57600080fd5b611a598382846121e6565b50505092915050565b6000611a6e82356121dc565b905092915050565b600060208284031215611a8857600080fd5b6000611a96848285016119f8565b91505092915050565b600080600080600080600060e0888a031215611aba57600080fd5b6000611ac88a828b016119f8565b975050602088013567ffffffffffffffff811115611ae557600080fd5b611af18a828b01611a0c565b965050604088013567ffffffffffffffff811115611b0e57600080fd5b611b1a8a828b01611a0c565b955050606088013567ffffffffffffffff811115611b3757600080fd5b611b438a828b01611a0c565b945050608088013567ffffffffffffffff811115611b6057600080fd5b611b6c8a828b01611a0c565b93505060a088013567ffffffffffffffff811115611b8957600080fd5b611b958a828b01611a0c565b92505060c0611ba68a828b01611a62565b91505092959891949750929550565b600080600080600060a08688031215611bcd57600080fd5b6000611bdb888289016119f8565b955050602086013567ffffffffffffffff811115611bf857600080fd5b611c0488828901611a0c565b945050604086013567ffffffffffffffff811115611c2157600080fd5b611c2d88828901611a0c565b935050606086013567ffffffffffffffff811115611c4a57600080fd5b611c5688828901611a0c565b9250506080611c6788828901611a62565b9150509295509295909350565b611c7d81612182565b82525050565b6000611c8e8261213c565b80845260208401935083602082028501611ca785612122565b60005b84811015611ce0578383038852611cc2838351611dda565b9250611ccd82612168565b9150602088019750600181019050611caa565b508196508694505050505092915050565b6000611cfc82612147565b80845260208401935083602082028501611d158561212f565b60005b84811015611d4e578383038852611d30838351611e99565b9250611d3b82612175565b9150602088019750600181019050611d18565b508196508694505050505092915050565b611d6881612194565b82525050565b6000611d798261215d565b808452611d8d8160208601602086016121f5565b611d9681612228565b602085010191505092915050565b6000611daf82612152565b808452611dc38160208601602086016121f5565b611dcc81612228565b602085010191505092915050565b600060e0830160008301518482036000860152611df78282611da4565b91505060208301518482036020860152611e118282611da4565b91505060408301518482036040860152611e2b8282611da4565b91505060608301518482036060860152611e458282611da4565b91505060808301518482036080860152611e5f8282611da4565b91505060a0830151611e7460a0860182611f24565b5060c083015184820360c0860152611e8c8282611da4565b9150508091505092915050565b600060a0830160008301518482036000860152611eb68282611da4565b91505060208301518482036020860152611ed08282611da4565b91505060408301518482036040860152611eea8282611da4565b9150506060830151611eff6060860182611f24565b5060808301518482036080860152611f178282611da4565b9150508091505092915050565b611f2d816121c0565b82525050565b600060e082019050611f48600083018a611c74565b8181036020830152611f5a8189611d6e565b90508181036040830152611f6e8188611d6e565b90508181036060830152611f828187611d6e565b90508181036080830152611f968186611d6e565b905081810360a0830152611faa8185611d6e565b9050611fb960c0830184611f24565b98975050505050505050565b600060a082019050611fda6000830188611c74565b8181036020830152611fec8187611d6e565b905081810360408301526120008186611d6e565b905081810360608301526120148185611d6e565b90506120236080830184611f24565b9695505050505050565b600060208201905081810360008301526120478184611c83565b905092915050565b600060208201905081810360008301526120698184611cf1565b905092915050565b60006020820190506120866000830184611d5f565b92915050565b600060208201905081810360008301526120a68184611d6e565b905092915050565b60006020820190506120c36000830184611f24565b92915050565b6000604051905081810181811067ffffffffffffffff821117156120ec57600080fd5b8060405250919050565b600067ffffffffffffffff82111561210d57600080fd5b601f19601f8301169050602081019050919050565b6000602082019050919050565b6000602082019050919050565b600081519050919050565b600081519050919050565b600081519050919050565b600081519050919050565b6000602082019050919050565b6000602082019050919050565b600061218d826121a0565b9050919050565b60008115159050919050565b600073ffffffffffffffffffffffffffffffffffffffff82169050919050565b6000819050919050565b60006121d5826121a0565b9050919050565b6000819050919050565b82818337600083830152505050565b60005b838110156122135780820151818401526020810190506121f8565b83811115612222576000848401525b50505050565b6000601f19601f830116905091905056fea265627a7a72305820e42b5ab8a4f19928dcffddb7b33e9c1d2582f479fe954be596e088e28969b85c6c6578706572696d656e74616cf50037",
  "source": "pragma solidity ^0.5.1;\r\npragma experimental ABIEncoderV2;\r\n\r\ncontract IPFSInbox {    \r\n    \r\n    struct carSetup {\r\n        string ipfsHash;\r\n        string carBrand;\r\n        string track;\r\n        string simulator;\r\n        string season;\r\n        uint256 price;\r\n        string _address;\r\n    }\r\n    \r\n    struct skin {\r\n        string ipfsHash;\r\n        string carBrand;\r\n        string simulator;\r\n        uint256 price;\r\n        string _address;\r\n    }\r\n    \r\n    \r\n    //Saves those 2 files\r\n    mapping (address => carSetup[]) carsInbox;\r\n    mapping (address => skin[]) skinsInbox;\r\n    \r\n    \r\n    //To track if vendor address already exists\r\n    mapping (address => bool) userExists;\r\n    \r\n    //Keep track of all vendor addresses and existing files\r\n    address[] private userAddresses;\r\n    string[] private ipfsList;\r\n    uint256 public carsCounter;\r\n    uint256 public skinsCounter;\r\n        \r\n    // Events\r\n    event ipfsSaved(string _ipfsHash, address _address);\r\n    event carSaved(address _address, string _ipfsHash, string _carBrand, string _track, string _simulator, string _season, uint256 _price);\r\n    event skinSaved(address _address, string _ipfsHash, string _carBrand, string _simulator, uint256 _price);\r\n    \r\n    // An empty constructor that creates an instance of the contract\r\n    constructor() public{\r\n        carsCounter = 0;\r\n        skinsCounter = 0;\r\n    }    \r\n    \r\n\r\n    function saveCar(address _address, string memory _ipfsHash, string memory _carBrand, string memory _track, string memory _simulator, string memory _season, uint256 _price) public {\r\n        string memory string_address = addressToString(_address);\r\n        carSetup memory car = carSetup(_ipfsHash, _carBrand, _track, _simulator, _season, _price, string_address);\r\n        carsInbox[_address].push(car);\r\n        carsCounter++;\r\n        ipfsList.push(_ipfsHash);\r\n        emit carSaved(_address,_ipfsHash, _carBrand, _track, _simulator, _season, _price);\r\n        if(userExists[_address] == false) {\r\n            userExists[_address] = true;\r\n            userAddresses.push(_address);    \r\n        }\r\n    }\r\n    \r\n\r\n    \r\n    \r\n    function saveSkin(address _address, string memory _ipfsHash, string memory _carBrand, string memory _simulator, uint256 _price) public {\r\n        string memory string_address = addressToString(_address);\r\n        skin memory newSkin = skin(_ipfsHash, _carBrand,  _simulator, _price, string_address);\r\n        skinsInbox[_address].push(newSkin);\r\n        skinsCounter++;\r\n        ipfsList.push(_ipfsHash);\r\n        emit skinSaved (_address,_ipfsHash, _carBrand, _simulator, _price);\r\n        if(userExists[_address] == false) {\r\n            userExists[_address] = true;\r\n            userAddresses.push(_address);    \r\n        }\r\n    }\r\n\r\n    function saveVendor(address _address) public returns(bool){\r\n        if(userExists[_address] == false) {\r\n            userExists[_address] = true;\r\n            userAddresses.push(_address);\r\n            return true;    \r\n        }\r\n        return false;\r\n    }\r\n    \r\n    function getCars() public view returns(carSetup[] memory allCars){\r\n        carSetup[] memory cars = new carSetup[](carsCounter);\r\n        uint256 i = 0;\r\n        for(uint256 j = 0; j < userAddresses.length; j++) {\r\n            address _address =  userAddresses[j];\r\n            \r\n            for(uint256 k = 0; k < carsInbox[_address].length; k++) {\r\n                carSetup storage car = carsInbox[_address][k];\r\n                cars[i] = car;\r\n                i++;\r\n            }\r\n        }\r\n        return cars;\r\n    }\r\n    \r\n    function getSkins() public view returns(skin[] memory allSkins){\r\n        skin[] memory skins = new skin[](skinsCounter);\r\n        uint256 i = 0;\r\n        for(uint256 j = 0; j < userAddresses.length; j++) {\r\n            address _address =  userAddresses[j];\r\n            \r\n            for(uint256 k = 0; k < skinsInbox[_address].length; k++) {\r\n                skin storage skin2 = skinsInbox[_address][k];\r\n                skins[i] = skin2;\r\n                i++;\r\n            }\r\n        }\r\n        return skins;\r\n    }\r\n\r\n    function isVendor(address _address) public view returns(bool) {\r\n        return userExists[_address];\r\n    }\r\n    \r\n    \r\n    function getNumberVendors() public view returns(uint256) {\r\n        return userAddresses.length;\r\n    }\r\n    \r\n    function getNumberCars() public view returns(uint256) {\r\n        return carsCounter;\r\n    }\r\n    \r\n    function getNumberSkins() public view returns(uint256) {\r\n        return skinsCounter;\r\n    }\r\n    \r\n    function addressToString(address _addr) public pure returns(string memory) \r\n    {\r\n        bytes32 value = bytes32(uint256(_addr));\r\n        bytes memory alphabet = \"0123456789abcdef\";\r\n\r\n        bytes memory str = new bytes(51);\r\n        str[0] = '0';\r\n        str[1] = 'x';\r\n        for (uint256 i = 0; i < 20; i++) {\r\n            str[2+i*2] = alphabet[uint8(value[i + 12] >> 4)];\r\n            str[3+i*2] = alphabet[uint8(value[i + 12] & 0x0f)];\r\n        }\r\n        return string(str);\r\n    }\r\n}",
  "sourcePath": "C:/Users/afons/Documents/Development/Marketplace/market-dapp/backend/contracts/IPFSInbox.sol",
  "compiler": {
    "name": "solc",
    "version": "0.5.1+commit.c8a2cb62.Emscripten.clang"
  },
  "schemaVersion": "3.3.2",
  "updatedAt": "2020-11-29T23:06:29.577Z",
  "networkType": "ethereum",
  "devdoc": {
    "methods": {}
  },
  "userdoc": {
    "methods": {}
  }
}