{
  "contractName": "STMarketplace",
  "abi": [
    {
      "constant": true,
      "inputs": [],
      "name": "skinsCounter",
      "outputs": [
        {
          "name": "",
          "type": "uint256"
        }
      ],
      "payable": false,
      "stateMutability": "view",
      "type": "function"
    },
    {
      "constant": true,
      "inputs": [],
      "name": "purchaseCounter",
      "outputs": [
        {
          "name": "",
          "type": "uint256"
        }
      ],
      "payable": false,
      "stateMutability": "view",
      "type": "function"
    },
    {
      "constant": true,
      "inputs": [],
      "name": "itemCounter",
      "outputs": [
        {
          "name": "",
          "type": "uint256"
        }
      ],
      "payable": false,
      "stateMutability": "view",
      "type": "function"
    },
    {
      "constant": true,
      "inputs": [],
      "name": "carSetupCounter",
      "outputs": [
        {
          "name": "",
          "type": "uint256"
        }
      ],
      "payable": false,
      "stateMutability": "view",
      "type": "function"
    },
    {
      "inputs": [],
      "payable": false,
      "stateMutability": "nonpayable",
      "type": "constructor"
    },
    {
      "anonymous": false,
      "inputs": [
        {
          "indexed": false,
          "name": "_ipfsHash",
          "type": "string"
        },
        {
          "indexed": false,
          "name": "_address",
          "type": "address"
        }
      ],
      "name": "ipfsSaved",
      "type": "event"
    },
    {
      "anonymous": false,
      "inputs": [
        {
          "indexed": false,
          "name": "_address",
          "type": "address"
        },
        {
          "indexed": false,
          "name": "_ipfsHash",
          "type": "string"
        },
        {
          "indexed": false,
          "name": "_carBrand",
          "type": "string"
        },
        {
          "indexed": false,
          "name": "_track",
          "type": "string"
        },
        {
          "indexed": false,
          "name": "_simulator",
          "type": "string"
        },
        {
          "indexed": false,
          "name": "_season",
          "type": "string"
        },
        {
          "indexed": false,
          "name": "_price",
          "type": "uint256"
        }
      ],
      "name": "carSetupSaved",
      "type": "event"
    },
    {
      "anonymous": false,
      "inputs": [
        {
          "indexed": false,
          "name": "_address",
          "type": "address"
        },
        {
          "indexed": false,
          "name": "_ipfsHash",
          "type": "string"
        },
        {
          "indexed": false,
          "name": "_carBrand",
          "type": "string"
        },
        {
          "indexed": false,
          "name": "_simulator",
          "type": "string"
        },
        {
          "indexed": false,
          "name": "_price",
          "type": "uint256"
        }
      ],
      "name": "skinSaved",
      "type": "event"
    },
    {
      "anonymous": false,
      "inputs": [
        {
          "indexed": false,
          "name": "_address",
          "type": "address"
        },
        {
          "indexed": false,
          "name": "itemId",
          "type": "uint256"
        }
      ],
      "name": "newPurchaseRequest",
      "type": "event"
    },
    {
      "constant": false,
      "inputs": [
        {
          "name": "_ipfsHash",
          "type": "string"
        },
        {
          "name": "_carBrand",
          "type": "string"
        },
        {
          "name": "_track",
          "type": "string"
        },
        {
          "name": "_simulator",
          "type": "string"
        },
        {
          "name": "_season",
          "type": "string"
        },
        {
          "name": "_price",
          "type": "uint256"
        }
      ],
      "name": "newCarSetup",
      "outputs": [],
      "payable": false,
      "stateMutability": "nonpayable",
      "type": "function"
    },
    {
      "constant": false,
      "inputs": [
        {
          "name": "_ipfsHash",
          "type": "string"
        },
        {
          "name": "_carBrand",
          "type": "string"
        },
        {
          "name": "_simulator",
          "type": "string"
        },
        {
          "name": "_price",
          "type": "uint256"
        }
      ],
      "name": "newSkin",
      "outputs": [],
      "payable": false,
      "stateMutability": "nonpayable",
      "type": "function"
    },
    {
      "constant": false,
      "inputs": [
        {
          "name": "itemId",
          "type": "uint256"
        }
      ],
      "name": "purchaseRequest",
      "outputs": [
        {
          "name": "",
          "type": "uint256"
        }
      ],
      "payable": false,
      "stateMutability": "nonpayable",
      "type": "function"
    },
    {
      "constant": false,
      "inputs": [
        {
          "name": "_address",
          "type": "address"
        }
      ],
      "name": "saveSeller",
      "outputs": [
        {
          "name": "",
          "type": "bool"
        }
      ],
      "payable": false,
      "stateMutability": "nonpayable",
      "type": "function"
    },
    {
      "constant": true,
      "inputs": [],
      "name": "getCarSetups",
      "outputs": [
        {
          "components": [
            {
              "name": "itemId",
              "type": "uint256"
            },
            {
              "name": "ipfsHash",
              "type": "string"
            },
            {
              "name": "carBrand",
              "type": "string"
            },
            {
              "name": "track",
              "type": "string"
            },
            {
              "name": "simulator",
              "type": "string"
            },
            {
              "name": "season",
              "type": "string"
            },
            {
              "name": "price",
              "type": "uint256"
            },
            {
              "name": "_address",
              "type": "string"
            }
          ],
          "name": "allCars",
          "type": "tuple[]"
        }
      ],
      "payable": false,
      "stateMutability": "view",
      "type": "function"
    },
    {
      "constant": true,
      "inputs": [],
      "name": "getSkins",
      "outputs": [
        {
          "components": [
            {
              "name": "itemId",
              "type": "uint256"
            },
            {
              "name": "ipfsHash",
              "type": "string"
            },
            {
              "name": "carBrand",
              "type": "string"
            },
            {
              "name": "simulator",
              "type": "string"
            },
            {
              "name": "price",
              "type": "uint256"
            },
            {
              "name": "_address",
              "type": "string"
            }
          ],
          "name": "allSkins",
          "type": "tuple[]"
        }
      ],
      "payable": false,
      "stateMutability": "view",
      "type": "function"
    },
    {
      "constant": true,
      "inputs": [
        {
          "name": "_address",
          "type": "address"
        }
      ],
      "name": "isSeller",
      "outputs": [
        {
          "name": "",
          "type": "bool"
        }
      ],
      "payable": false,
      "stateMutability": "view",
      "type": "function"
    },
    {
      "constant": true,
      "inputs": [],
      "name": "getNumberSellers",
      "outputs": [
        {
          "name": "",
          "type": "uint256"
        }
      ],
      "payable": false,
      "stateMutability": "view",
      "type": "function"
    },
    {
      "constant": true,
      "inputs": [],
      "name": "getNumberCars",
      "outputs": [
        {
          "name": "",
          "type": "uint256"
        }
      ],
      "payable": false,
      "stateMutability": "view",
      "type": "function"
    },
    {
      "constant": true,
      "inputs": [],
      "name": "getNumberSkins",
      "outputs": [
        {
          "name": "",
          "type": "uint256"
        }
      ],
      "payable": false,
      "stateMutability": "view",
      "type": "function"
    },
    {
      "constant": true,
      "inputs": [
        {
          "name": "_addr",
          "type": "address"
        }
      ],
      "name": "addressToString",
      "outputs": [
        {
          "name": "",
          "type": "string"
        }
      ],
      "payable": false,
      "stateMutability": "pure",
      "type": "function"
    }
  ],
  "bytecode": "0x608060405234801561001057600080fd5b50600060058190555060006006819055506125bd806100306000396000f3fe6080604052600436106100d4576000357c010000000000000000000000000000000000000000000000000000000090048062355a48146100d95780630271db4014610104578063055680f0146101415780633aff94d61461016c578063418c777a1461019757806343f6c643146101c05780635e57966d146101fd5780636d6d00ed1461023a5780636e5702af1461026557806389da3ac2146102905780639af06da4146102bb578063a9f2f940146102e6578063b95f22f31461030f578063ba1219fa1461033a578063ee95feaf14610365575b600080fd5b3480156100e557600080fd5b506100ee6103a2565b6040516100fb91906123d4565b60405180910390f35b34801561011057600080fd5b5061012b60048036036101269190810190611d4c565b6103a8565b6040516101389190612397565b60405180910390f35b34801561014d57600080fd5b506101566104d3565b60405161016391906123d4565b60405180910390f35b34801561017857600080fd5b506101816104d9565b60405161018e9190612353565b60405180910390f35b3480156101a357600080fd5b506101be60048036036101b99190810190611d75565b610a54565b005b3480156101cc57600080fd5b506101e760048036036101e29190810190611f21565b610d9f565b6040516101f491906123d4565b60405180910390f35b34801561020957600080fd5b50610224600480360361021f9190810190611d4c565b610f03565b60405161023191906123b2565b60405180910390f35b34801561024657600080fd5b5061024f6112bd565b60405161025c91906123d4565b60405180910390f35b34801561027157600080fd5b5061027a6112c3565b60405161028791906123d4565b60405180910390f35b34801561029c57600080fd5b506102a56112cd565b6040516102b291906123d4565b60405180910390f35b3480156102c757600080fd5b506102d06112da565b6040516102dd91906123d4565b60405180910390f35b3480156102f257600080fd5b5061030d60048036036103089190810190611e76565b6112e0565b005b34801561031b57600080fd5b506103246115df565b60405161033191906123d4565b60405180910390f35b34801561034657600080fd5b5061034f6115e9565b60405161035c9190612375565b60405180910390f35b34801561037157600080fd5b5061038c60048036036103879190810190611d4c565b611a21565b6040516103999190612397565b60405180910390f35b60065481565b6000801515600260008473ffffffffffffffffffffffffffffffffffffffff1673ffffffffffffffffffffffffffffffffffffffff16815260200190815260200160002060009054906101000a900460ff16151514156104c9576001600260008473ffffffffffffffffffffffffffffffffffffffff1673ffffffffffffffffffffffffffffffffffffffff16815260200190815260200160002060006101000a81548160ff02191690831515021790555060038290806001815401808255809150509060018203906000526020600020016000909192909190916101000a81548173ffffffffffffffffffffffffffffffffffffffff021916908373ffffffffffffffffffffffffffffffffffffffff16021790555050600190506104ce565b600090505b919050565b60075481565b60608060055460405190808252806020026020018201604052801561051857816020015b610505611a77565b8152602001906001900390816104fd5790505b509050600080905060008090505b600380549050811015610a4b57600060038281548110151561054457fe5b9060005260206000200160009054906101000a900473ffffffffffffffffffffffffffffffffffffffff16905060008090505b6000808373ffffffffffffffffffffffffffffffffffffffff1673ffffffffffffffffffffffffffffffffffffffff16815260200190815260200160002080549050811015610a3c5760008060008473ffffffffffffffffffffffffffffffffffffffff1673ffffffffffffffffffffffffffffffffffffffff1681526020019081526020016000208281548110151561060d57fe5b9060005260206000209060080201905080610100604051908101604052908160008201548152602001600182018054600181600116156101000203166002900480601f0160208091040260200160405190810160405280929190818152602001828054600181600116156101000203166002900480156106ce5780601f106106a3576101008083540402835291602001916106ce565b820191906000526020600020905b8154815290600101906020018083116106b157829003601f168201915b50505050508152602001600282018054600181600116156101000203166002900480601f0160208091040260200160405190810160405280929190818152602001828054600181600116156101000203166002900480156107705780601f1061074557610100808354040283529160200191610770565b820191906000526020600020905b81548152906001019060200180831161075357829003601f168201915b50505050508152602001600382018054600181600116156101000203166002900480601f0160208091040260200160405190810160405280929190818152602001828054600181600116156101000203166002900480156108125780601f106107e757610100808354040283529160200191610812565b820191906000526020600020905b8154815290600101906020018083116107f557829003601f168201915b50505050508152602001600482018054600181600116156101000203166002900480601f0160208091040260200160405190810160405280929190818152602001828054600181600116156101000203166002900480156108b45780601f10610889576101008083540402835291602001916108b4565b820191906000526020600020905b81548152906001019060200180831161089757829003601f168201915b50505050508152602001600582018054600181600116156101000203166002900480601f0160208091040260200160405190810160405280929190818152602001828054600181600116156101000203166002900480156109565780601f1061092b57610100808354040283529160200191610956565b820191906000526020600020905b81548152906001019060200180831161093957829003601f168201915b5050505050815260200160068201548152602001600782018054600181600116156101000203166002900480601f016020809104026020016040519081016040528092919081815260200182805460018160011615610100020316600290048015610a025780601f106109d757610100808354040283529160200191610a02565b820191906000526020600020905b8154815290600101906020018083116109e557829003601f168201915b5050505050815250508686815181101515610a1957fe5b906020019060200201819052508480600101955050508080600101915050610577565b50508080600101915050610526565b50819250505090565b6060610a5f33610f03565b9050610a69611abd565b6101006040519081016040528060085481526020018981526020018881526020018781526020018681526020018581526020018481526020018381525090506008600081548092919060010191905055506000803373ffffffffffffffffffffffffffffffffffffffff1673ffffffffffffffffffffffffffffffffffffffff1681526020019081526020016000208190806001815401808255809150509060018203906000526020600020906008020160009091929091909150600082015181600001556020820151816001019080519060200190610b4a929190611b03565b506040820151816002019080519060200190610b67929190611b03565b506060820151816003019080519060200190610b84929190611b03565b506080820151816004019080519060200190610ba1929190611b03565b5060a0820151816005019080519060200190610bbe929190611b03565b5060c0820151816006015560e0820151816007019080519060200190610be5929190611b03565b505050506005600081548092919060010191905055506004889080600181540180825580915050906001820390600052602060002001600090919290919091509080519060200190610c38929190611b83565b50507f06c2cc8dfda82c5f606177ae7a48de7042c86de8583b0c1d8f54be1cfe8b8fa633898989898989604051610c759796959493929190612230565b60405180910390a160001515600260003373ffffffffffffffffffffffffffffffffffffffff1673ffffffffffffffffffffffffffffffffffffffff16815260200190815260200160002060009054906101000a900460ff1615151415610d95576001600260003373ffffffffffffffffffffffffffffffffffffffff1673ffffffffffffffffffffffffffffffffffffffff16815260200190815260200160002060006101000a81548160ff02191690831515021790555060033390806001815401808255809150509060018203906000526020600020016000909192909190916101000a81548173ffffffffffffffffffffffffffffffffffffffff021916908373ffffffffffffffffffffffffffffffffffffffff160217905550505b5050505050505050565b6000806007549050600760008154809291906001019190505550610dc1611c03565b60606040519081016040528060075481526020018581526020013373ffffffffffffffffffffffffffffffffffffffff168152509050600960003373ffffffffffffffffffffffffffffffffffffffff1673ffffffffffffffffffffffffffffffffffffffff1681526020019081526020016000208190806001815401808255809150509060018203906000526020600020906003020160009091929091909150600082015181600001556020820151816001015560408201518160020160006101000a81548173ffffffffffffffffffffffffffffffffffffffff021916908373ffffffffffffffffffffffffffffffffffffffff1602179055505050507fe72ce4473ace5facf638c4646d1c26b9d24e640af72eda4c4b6c04146077121e3385604051610ef192919061232a565b60405180910390a18192505050919050565b606060008273ffffffffffffffffffffffffffffffffffffffff16600102905060606040805190810160405280601081526020017f30313233343536373839616263646566000000000000000000000000000000008152509050606060336040519080825280601f01601f191660200182016040528015610f935781602001600182028038833980820191505090505b5090507f3000000000000000000000000000000000000000000000000000000000000000816000815181101515610fc657fe5b9060200101907effffffffffffffffffffffffffffffffffffffffffffffffffffffffffffff1916908160001a9053507f780000000000000000000000000000000000000000000000000000000000000081600181518110151561102657fe5b9060200101907effffffffffffffffffffffffffffffffffffffffffffffffffffffffffffff1916908160001a90535060008090505b60148110156112b15782600485600c840160208110151561107957fe5b1a7f0100000000000000000000000000000000000000000000000000000000000000027effffffffffffffffffffffffffffffffffffffffffffffffffffffffffffff1916908060020a82049150507f0100000000000000000000000000000000000000000000000000000000000000900460ff168151811015156110fa57fe5b9060200101517f010000000000000000000000000000000000000000000000000000000000000090047f010000000000000000000000000000000000000000000000000000000000000002826002830260020181518110151561115957fe5b9060200101907effffffffffffffffffffffffffffffffffffffffffffffffffffffffffffff1916908160001a90535082600f7f01000000000000000000000000000000000000000000000000000000000000000285600c84016020811015156111bf57fe5b1a7f010000000000000000000000000000000000000000000000000000000000000002167f0100000000000000000000000000000000000000000000000000000000000000900460ff1681518110151561121557fe5b9060200101517f010000000000000000000000000000000000000000000000000000000000000090047f010000000000000000000000000000000000000000000000000000000000000002826002830260030181518110151561127457fe5b9060200101907effffffffffffffffffffffffffffffffffffffffffffffffffffffffffffff1916908160001a905350808060010191505061105c565b50809350505050919050565b60085481565b6000600554905090565b6000600380549050905090565b60055481565b60606112eb33610f03565b90506112f5611c3b565b60c0604051908101604052806008548152602001878152602001868152602001858152602001848152602001838152509050600860008154809291906001019190505550600160003373ffffffffffffffffffffffffffffffffffffffff1673ffffffffffffffffffffffffffffffffffffffff16815260200190815260200160002081908060018154018082558091505090600182039060005260206000209060060201600090919290919091506000820151816000015560208201518160010190805190602001906113ca929190611b03565b5060408201518160020190805190602001906113e7929190611b03565b506060820151816003019080519060200190611404929190611b03565b506080820151816004015560a082015181600501908051906020019061142b929190611b03565b50505050600660008154809291906001019190505550600486908060018154018082558091505090600182039060005260206000200160009091929091909150908051906020019061147e929190611b83565b50507fbcae586f547a927f23565f5e12858d43b5eba06018b093fd19ca2eafb95aac6e33878787876040516114b79594939291906122c2565b60405180910390a160001515600260003373ffffffffffffffffffffffffffffffffffffffff1673ffffffffffffffffffffffffffffffffffffffff16815260200190815260200160002060009054906101000a900460ff16151514156115d7576001600260003373ffffffffffffffffffffffffffffffffffffffff1673ffffffffffffffffffffffffffffffffffffffff16815260200190815260200160002060006101000a81548160ff02191690831515021790555060033390806001815401808255809150509060018203906000526020600020016000909192909190916101000a81548173ffffffffffffffffffffffffffffffffffffffff021916908373ffffffffffffffffffffffffffffffffffffffff160217905550505b505050505050565b6000600654905090565b60608060065460405190808252806020026020018201604052801561162857816020015b611615611c72565b81526020019060019003908161160d5790505b509050600080905060008090505b600380549050811015611a1857600060038281548110151561165457fe5b9060005260206000200160009054906101000a900473ffffffffffffffffffffffffffffffffffffffff16905060008090505b600160008373ffffffffffffffffffffffffffffffffffffffff1673ffffffffffffffffffffffffffffffffffffffff16815260200190815260200160002080549050811015611a09576000600160008473ffffffffffffffffffffffffffffffffffffffff1673ffffffffffffffffffffffffffffffffffffffff1681526020019081526020016000208281548110151561171f57fe5b906000526020600020906006020190508060c0604051908101604052908160008201548152602001600182018054600181600116156101000203166002900480601f0160208091040260200160405190810160405280929190818152602001828054600181600116156101000203166002900480156117df5780601f106117b4576101008083540402835291602001916117df565b820191906000526020600020905b8154815290600101906020018083116117c257829003601f168201915b50505050508152602001600282018054600181600116156101000203166002900480601f0160208091040260200160405190810160405280929190818152602001828054600181600116156101000203166002900480156118815780601f1061185657610100808354040283529160200191611881565b820191906000526020600020905b81548152906001019060200180831161186457829003601f168201915b50505050508152602001600382018054600181600116156101000203166002900480601f0160208091040260200160405190810160405280929190818152602001828054600181600116156101000203166002900480156119235780601f106118f857610100808354040283529160200191611923565b820191906000526020600020905b81548152906001019060200180831161190657829003601f168201915b5050505050815260200160048201548152602001600582018054600181600116156101000203166002900480601f0160208091040260200160405190810160405280929190818152602001828054600181600116156101000203166002900480156119cf5780601f106119a4576101008083540402835291602001916119cf565b820191906000526020600020905b8154815290600101906020018083116119b257829003601f168201915b50505050508152505086868151811015156119e657fe5b906020019060200201819052508480600101955050508080600101915050611687565b50508080600101915050611636565b50819250505090565b6000600260008373ffffffffffffffffffffffffffffffffffffffff1673ffffffffffffffffffffffffffffffffffffffff16815260200190815260200160002060009054906101000a900460ff169050919050565b6101006040519081016040528060008152602001606081526020016060815260200160608152602001606081526020016060815260200160008152602001606081525090565b6101006040519081016040528060008152602001606081526020016060815260200160608152602001606081526020016060815260200160008152602001606081525090565b828054600181600116156101000203166002900490600052602060002090601f016020900481019282601f10611b4457805160ff1916838001178555611b72565b82800160010185558215611b72579182015b82811115611b71578251825591602001919060010190611b56565b5b509050611b7f9190611ca9565b5090565b828054600181600116156101000203166002900490600052602060002090601f016020900481019282601f10611bc457805160ff1916838001178555611bf2565b82800160010185558215611bf2579182015b82811115611bf1578251825591602001919060010190611bd6565b5b509050611bff9190611ca9565b5090565b6060604051908101604052806000815260200160008152602001600073ffffffffffffffffffffffffffffffffffffffff1681525090565b60c0604051908101604052806000815260200160608152602001606081526020016060815260200160008152602001606081525090565b60c0604051908101604052806000815260200160608152602001606081526020016060815260200160008152602001606081525090565b611ccb91905b80821115611cc7576000816000905550600101611caf565b5090565b90565b6000611cda82356124de565b905092915050565b600082601f8301121515611cf557600080fd5b8135611d08611d038261241c565b6123ef565b91508082526020830160208301858383011115611d2457600080fd5b611d2f838284612530565b50505092915050565b6000611d4482356124f0565b905092915050565b600060208284031215611d5e57600080fd5b6000611d6c84828501611cce565b91505092915050565b60008060008060008060c08789031215611d8e57600080fd5b600087013567ffffffffffffffff811115611da857600080fd5b611db489828a01611ce2565b965050602087013567ffffffffffffffff811115611dd157600080fd5b611ddd89828a01611ce2565b955050604087013567ffffffffffffffff811115611dfa57600080fd5b611e0689828a01611ce2565b945050606087013567ffffffffffffffff811115611e2357600080fd5b611e2f89828a01611ce2565b935050608087013567ffffffffffffffff811115611e4c57600080fd5b611e5889828a01611ce2565b92505060a0611e6989828a01611d38565b9150509295509295509295565b60008060008060808587031215611e8c57600080fd5b600085013567ffffffffffffffff811115611ea657600080fd5b611eb287828801611ce2565b945050602085013567ffffffffffffffff811115611ecf57600080fd5b611edb87828801611ce2565b935050604085013567ffffffffffffffff811115611ef857600080fd5b611f0487828801611ce2565b9250506060611f1587828801611d38565b91505092959194509250565b600060208284031215611f3357600080fd5b6000611f4184828501611d38565b91505092915050565b611f53816124fa565b82525050565b6000611f6482612462565b80845260208401935083602082028501611f7d85612448565b60005b84811015611fb6578383038852611f988383516120b0565b9250611fa38261248e565b9150602088019750600181019050611f80565b508196508694505050505092915050565b6000611fd28261246d565b80845260208401935083602082028501611feb85612455565b60005b84811015612024578383038852612006838351612183565b92506120118261249b565b9150602088019750600181019050611fee565b508196508694505050505092915050565b61203e816124a8565b82525050565b600061204f82612483565b80845261206381602086016020860161253f565b61206c81612572565b602085010191505092915050565b600061208582612478565b80845261209981602086016020860161253f565b6120a281612572565b602085010191505092915050565b6000610100830160008301516120c96000860182612221565b50602083015184820360208601526120e1828261207a565b915050604083015184820360408601526120fb828261207a565b91505060608301518482036060860152612115828261207a565b9150506080830151848203608086015261212f828261207a565b91505060a083015184820360a0860152612149828261207a565b91505060c083015161215e60c0860182612221565b5060e083015184820360e0860152612176828261207a565b9150508091505092915050565b600060c08301600083015161219b6000860182612221565b50602083015184820360208601526121b3828261207a565b915050604083015184820360408601526121cd828261207a565b915050606083015184820360608601526121e7828261207a565b91505060808301516121fc6080860182612221565b5060a083015184820360a0860152612214828261207a565b9150508091505092915050565b61222a816124d4565b82525050565b600060e082019050612245600083018a611f4a565b81810360208301526122578189612044565b9050818103604083015261226b8188612044565b9050818103606083015261227f8187612044565b905081810360808301526122938186612044565b905081810360a08301526122a78185612044565b90506122b660c0830184612221565b98975050505050505050565b600060a0820190506122d76000830188611f4a565b81810360208301526122e98187612044565b905081810360408301526122fd8186612044565b905081810360608301526123118185612044565b90506123206080830184612221565b9695505050505050565b600060408201905061233f6000830185611f4a565b61234c6020830184612221565b9392505050565b6000602082019050818103600083015261236d8184611f59565b905092915050565b6000602082019050818103600083015261238f8184611fc7565b905092915050565b60006020820190506123ac6000830184612035565b92915050565b600060208201905081810360008301526123cc8184612044565b905092915050565b60006020820190506123e96000830184612221565b92915050565b6000604051905081810181811067ffffffffffffffff8211171561241257600080fd5b8060405250919050565b600067ffffffffffffffff82111561243357600080fd5b601f19601f8301169050602081019050919050565b6000602082019050919050565b6000602082019050919050565b600081519050919050565b600081519050919050565b600081519050919050565b600081519050919050565b6000602082019050919050565b6000602082019050919050565b60008115159050919050565b600073ffffffffffffffffffffffffffffffffffffffff82169050919050565b6000819050919050565b60006124e9826124b4565b9050919050565b6000819050919050565b60006125058261250c565b9050919050565b60006125178261251e565b9050919050565b6000612529826124b4565b9050919050565b82818337600083830152505050565b60005b8381101561255d578082015181840152602081019050612542565b8381111561256c576000848401525b50505050565b6000601f19601f830116905091905056fea265627a7a72305820d467f81c551ae2525e1aa4562563e13599541052a58df1def00d7f20523627cd6c6578706572696d656e74616cf50037",
  "source": "pragma solidity ^0.5.1;\npragma experimental ABIEncoderV2;\n\ncontract STMarketplace {    \n    \n    struct carSetup {\n        uint256 itemId;\n        string ipfsHash;\n        string carBrand;\n        string track;\n        string simulator;\n        string season;\n        uint256 price;\n        string _address;\n    }\n    \n    struct skin {\n        uint256 itemId;\n        string ipfsHash;\n        string carBrand;\n        string simulator;\n        uint256 price;\n        string _address;\n    }\n\n    struct purchase {\n        uint256 purchaseId;\n        uint256 itemId;\n        address buyer;\n    }\n    \n    // Maps the 2 type of files\n    mapping (address => carSetup[]) setupsBySeller;\n    mapping (address => skin[]) skinsBySeller;\n    \n    // To track if seller address already exists\n    mapping (address => bool) userExists;\n    \n    // Keep track of all seller addresses and existing files\n    address[] private userAddresses;\n    string[] private ipfsList;\n\n    uint256 public carSetupCounter;\n    uint256 public skinsCounter;\n    uint256 public purchaseCounter;\n    uint256 public itemCounter;\n\n    mapping (address => purchase[]) purchasesBySeller;\n\n    /// @notice Events\n    event ipfsSaved(string _ipfsHash, address _address);\n    event carSetupSaved(address _address, string _ipfsHash, string _carBrand, string _track, string _simulator, string _season, uint256 _price);\n    event skinSaved(address _address, string _ipfsHash, string _carBrand, string _simulator, uint256 _price);\n    event newPurchaseRequest(address _address, uint256 itemId);\n    \n    /// @notice An empty constructor that creates an instance of the contract\n    constructor() public{\n        carSetupCounter = 0;\n        skinsCounter = 0;\n    }    \n    \n    /// @notice registers a new car setup for sale\n    function newCarSetup(string memory _ipfsHash, string memory _carBrand, string memory _track, string memory _simulator, string memory _season, uint256 _price) public {\n        string memory string_address = addressToString(msg.sender);\n        carSetup memory car = carSetup(itemCounter, _ipfsHash, _carBrand, _track, _simulator, _season, _price, string_address);\n        itemCounter++;\n        setupsBySeller[msg.sender].push(car);\n        carSetupCounter++;\n        ipfsList.push(_ipfsHash);\n        emit carSetupSaved(msg.sender,_ipfsHash, _carBrand, _track, _simulator, _season, _price);\n        if(userExists[msg.sender] == false) {\n            userExists[msg.sender] = true;\n            userAddresses.push(msg.sender);    \n        }\n    }\n    \n    /// @notice registers a new car skin for sale\n    function newSkin(string memory _ipfsHash, string memory _carBrand, string memory _simulator, uint256 _price) public {\n        string memory string_address = addressToString(msg.sender);\n        skin memory carSkin = skin(itemCounter, _ipfsHash, _carBrand,  _simulator, _price, string_address);\n        itemCounter++;\n        skinsBySeller[msg.sender].push(carSkin);\n        skinsCounter++;\n        ipfsList.push(_ipfsHash);\n        emit skinSaved (msg.sender,_ipfsHash, _carBrand, _simulator, _price);\n        if(userExists[msg.sender] == false) {\n            userExists[msg.sender] = true;\n            userAddresses.push(msg.sender);    \n        }\n    }\n\n    /// @notice registers a new purchase request\n    function purchaseRequest(uint256 itemId) public returns(uint256) {\n        uint256 purchaseId = purchaseCounter;\n        purchaseCounter++;\n        purchase memory newPurchase = purchase(purchaseCounter, itemId, msg.sender);\n        \n        purchasesBySeller[msg.sender].push(newPurchase);\n\n        emit newPurchaseRequest(msg.sender,itemId);\n\n        return purchaseId;\n    }\n\n    /// @notice saves seller\n    function saveSeller(address _address) public returns(bool){\n        if(userExists[_address] == false) {\n            userExists[_address] = true;\n            userAddresses.push(_address);\n            return true;    \n        }\n        return false;\n    }\n    \n    /// @notice get the list of all car setup files\n    function getCarSetups() public view returns(carSetup[] memory allCars){\n        carSetup[] memory cars = new carSetup[](carSetupCounter);\n        uint256 i = 0;\n        for(uint256 j = 0; j < userAddresses.length; j++) {\n            address _address =  userAddresses[j];\n            \n            for(uint256 k = 0; k < setupsBySeller[_address].length; k++) {\n                carSetup storage car = setupsBySeller[_address][k];\n                cars[i] = car;\n                i++;\n            }\n        }\n        return cars;\n    }\n    \n    /// @notice get the list of all skin files\n    function getSkins() public view returns(skin[] memory allSkins){\n        skin[] memory skins = new skin[](skinsCounter);\n        uint256 i = 0;\n        for(uint256 j = 0; j < userAddresses.length; j++) {\n            address _address =  userAddresses[j];\n            \n            for(uint256 k = 0; k < skinsBySeller[_address].length; k++) {\n                skin storage skin2 = skinsBySeller[_address][k];\n                skins[i] = skin2;\n                i++;\n            }\n        }\n        return skins;\n    }\n\n    function isSeller(address _address) public view returns(bool) {\n        return userExists[_address];\n    }\n    \n    function getNumberSellers() public view returns(uint256) {\n        return userAddresses.length;\n    }\n    \n    function getNumberCars() public view returns(uint256) {\n        return carSetupCounter;\n    }\n    \n    function getNumberSkins() public view returns(uint256) {\n        return skinsCounter;\n    }\n    \n    function addressToString(address _addr) public pure returns(string memory) \n    {\n        bytes32 value = bytes32(uint256(_addr));\n        bytes memory alphabet = \"0123456789abcdef\";\n\n        bytes memory str = new bytes(51);\n        str[0] = '0';\n        str[1] = 'x';\n        for (uint256 i = 0; i < 20; i++) {\n            str[2+i*2] = alphabet[uint8(value[i + 12] >> 4)];\n            str[3+i*2] = alphabet[uint8(value[i + 12] & 0x0f)];\n        }\n        return string(str);\n    }\n}",
  "sourcePath": "/home/miguel/Documents/TokenWised/Marketplace/market-dapp/backend/contracts/STMarketplace.sol",
  "compiler": {
    "name": "solc",
    "version": "0.5.1+commit.c8a2cb62.Emscripten.clang"
  },
  "schemaVersion": "3.3.2",
  "updatedAt": "2020-12-01T03:42:49.667Z",
  "networkType": "ethereum",
  "devdoc": {
    "methods": {}
  },
  "userdoc": {
    "methods": {
      "constructor": "An empty constructor that creates an instance of the contract",
      "getCarSetups()": {
        "notice": "get the list of all car setup files"
      },
      "getSkins()": {
        "notice": "get the list of all skin files"
      },
      "newCarSetup(string,string,string,string,string,uint256)": {
        "notice": "registers a new car setup for sale"
      },
      "newSkin(string,string,string,uint256)": {
        "notice": "registers a new car skin for sale"
      },
      "purchaseRequest(uint256)": {
        "notice": "registers a new purchase request"
      },
      "saveSeller(address)": {
        "notice": "saves seller"
      }
    }
  }
}