{
  "contractName": "STMarketplace",
  "abi": [
    {
      "constant": true,
      "inputs": [
        {
          "name": "_adIds",
          "type": "uint256[]"
        }
      ],
      "name": "getAds",
      "outputs": [
        {
          "components": [
            {
              "name": "seller",
              "type": "address"
            },
            {
              "name": "price",
              "type": "uint256"
            },
            {
              "name": "dataHash",
              "type": "bytes32"
            },
            {
              "name": "encryptedDataHash",
              "type": "bytes32"
            },
            {
              "name": "ipfsPath",
              "type": "bytes"
            },
            {
              "name": "testTemplateHash",
              "type": "bytes32"
            }
          ],
          "name": "",
          "type": "tuple[]"
        }
      ],
      "payable": false,
      "stateMutability": "view",
      "type": "function"
    },
    {
      "constant": false,
      "inputs": [
        {
          "name": "_purchaseId",
          "type": "uint256"
        },
        {
          "name": "_encryptedDataKey",
          "type": "bytes"
        }
      ],
      "name": "acceptPurchase",
      "outputs": [],
      "payable": true,
      "stateMutability": "payable",
      "type": "function"
    },
    {
      "constant": true,
      "inputs": [
        {
          "name": "_adId",
          "type": "uint256"
        }
      ],
      "name": "getAd",
      "outputs": [
        {
          "components": [
            {
              "name": "seller",
              "type": "address"
            },
            {
              "name": "price",
              "type": "uint256"
            },
            {
              "name": "dataHash",
              "type": "bytes32"
            },
            {
              "name": "encryptedDataHash",
              "type": "bytes32"
            },
            {
              "name": "ipfsPath",
              "type": "bytes"
            },
            {
              "name": "testTemplateHash",
              "type": "bytes32"
            }
          ],
          "name": "",
          "type": "tuple"
        }
      ],
      "payable": false,
      "stateMutability": "view",
      "type": "function"
    },
    {
      "constant": true,
      "inputs": [
        {
          "name": "_seller",
          "type": "address"
        }
      ],
      "name": "listAdsPerSeller",
      "outputs": [
        {
          "name": "",
          "type": "uint256[]"
        }
      ],
      "payable": false,
      "stateMutability": "view",
      "type": "function"
    },
    {
      "constant": false,
      "inputs": [
        {
          "name": "_adId",
          "type": "uint256"
        },
        {
          "name": "_buyerKey",
          "type": "bytes"
        }
      ],
      "name": "requestPurchase",
      "outputs": [
        {
          "name": "purchaseId",
          "type": "uint256"
        }
      ],
      "payable": true,
      "stateMutability": "payable",
      "type": "function"
    },
    {
      "constant": false,
      "inputs": [
        {
          "name": "_purchaseId",
          "type": "uint256"
        },
        {
          "name": "_privateKey",
          "type": "bytes"
        }
      ],
      "name": "challengePurchase",
      "outputs": [
        {
          "name": "descartesIndex",
          "type": "uint256"
        }
      ],
      "payable": false,
      "stateMutability": "nonpayable",
      "type": "function"
    },
    {
      "constant": false,
      "inputs": [
        {
          "name": "_purchaseId",
          "type": "uint256"
        }
      ],
      "name": "finalizePurchase",
      "outputs": [],
      "payable": false,
      "stateMutability": "nonpayable",
      "type": "function"
    },
    {
      "inputs": [
        {
          "name": "descartesAddress",
          "type": "address"
        }
      ],
      "payable": false,
      "stateMutability": "nonpayable",
      "type": "constructor"
    },
    {
      "anonymous": false,
      "inputs": [
        {
          "indexed": false,
          "name": "_address",
          "type": "address"
        },
        {
          "indexed": false,
          "name": "_ipfsPath",
          "type": "bytes"
        },
        {
          "indexed": false,
          "name": "_carBrand",
          "type": "string"
        },
        {
          "indexed": false,
          "name": "_track",
          "type": "string"
        },
        {
          "indexed": false,
          "name": "_simulator",
          "type": "string"
        },
        {
          "indexed": false,
          "name": "_season",
          "type": "string"
        },
        {
          "indexed": false,
          "name": "_price",
          "type": "uint256"
        }
      ],
      "name": "carSetupSaved",
      "type": "event"
    },
    {
      "anonymous": false,
      "inputs": [
        {
          "indexed": false,
          "name": "_address",
          "type": "address"
        },
        {
          "indexed": false,
          "name": "_ipfsPath",
          "type": "bytes"
        },
        {
          "indexed": false,
          "name": "_carBrand",
          "type": "string"
        },
        {
          "indexed": false,
          "name": "_simulator",
          "type": "string"
        },
        {
          "indexed": false,
          "name": "_price",
          "type": "uint256"
        }
      ],
      "name": "skinSaved",
      "type": "event"
    },
    {
      "anonymous": false,
      "inputs": [
        {
          "indexed": false,
          "name": "adId",
          "type": "uint256"
        },
        {
          "indexed": false,
          "name": "purchaseId",
          "type": "uint256"
        },
        {
          "indexed": false,
          "name": "buyer",
          "type": "address"
        },
        {
          "indexed": false,
          "name": "buyerKey",
          "type": "bytes"
        }
      ],
      "name": "PurchaseRequested",
      "type": "event"
    },
    {
      "anonymous": false,
      "inputs": [
        {
          "indexed": false,
          "name": "adId",
          "type": "uint256"
        },
        {
          "indexed": false,
          "name": "purchaseId",
          "type": "uint256"
        },
        {
          "indexed": false,
          "name": "encryptedDataKey",
          "type": "bytes"
        }
      ],
      "name": "PurchaseAccepted",
      "type": "event"
    },
    {
      "anonymous": false,
      "inputs": [
        {
          "indexed": false,
          "name": "adId",
          "type": "uint256"
        },
        {
          "indexed": false,
          "name": "purchaseId",
          "type": "uint256"
        },
        {
          "indexed": false,
          "name": "descartesIndex",
          "type": "uint256"
        }
      ],
      "name": "PurchaseChallenged",
      "type": "event"
    },
    {
      "anonymous": false,
      "inputs": [
        {
          "indexed": false,
          "name": "adId",
          "type": "uint256"
        },
        {
          "indexed": false,
          "name": "purchaseId",
          "type": "uint256"
        },
        {
          "indexed": false,
          "name": "isSuccess",
          "type": "bool"
        }
      ],
      "name": "PurchaseFinalized",
      "type": "event"
    },
    {
      "constant": false,
      "inputs": [
        {
          "name": "_ipfsPath",
          "type": "bytes"
        },
        {
          "name": "_carBrand",
          "type": "string"
        },
        {
          "name": "_track",
          "type": "string"
        },
        {
          "name": "_simulator",
          "type": "string"
        },
        {
          "name": "_season",
          "type": "string"
        },
        {
          "name": "_price",
          "type": "uint256"
        },
        {
          "name": "_dataHash",
          "type": "bytes32"
        },
        {
          "name": "_encryptedDataHash",
          "type": "bytes32"
        }
      ],
      "name": "newCarSetup",
      "outputs": [
        {
          "name": "id",
          "type": "uint256"
        }
      ],
      "payable": false,
      "stateMutability": "nonpayable",
      "type": "function"
    },
    {
      "constant": false,
      "inputs": [
        {
          "name": "_ipfsPath",
          "type": "bytes"
        },
        {
          "name": "_carBrand",
          "type": "string"
        },
        {
          "name": "_simulator",
          "type": "string"
        },
        {
          "name": "_price",
          "type": "uint256"
        },
        {
          "name": "_dataHash",
          "type": "bytes32"
        },
        {
          "name": "_encryptedDataHash",
          "type": "bytes32"
        }
      ],
      "name": "newSkin",
      "outputs": [
        {
          "name": "id",
          "type": "uint256"
        }
      ],
      "payable": false,
      "stateMutability": "nonpayable",
      "type": "function"
    },
    {
      "constant": false,
      "inputs": [
        {
          "name": "_address",
          "type": "address"
        }
      ],
      "name": "saveSeller",
      "outputs": [
        {
          "name": "",
          "type": "bool"
        }
      ],
      "payable": false,
      "stateMutability": "nonpayable",
      "type": "function"
    },
    {
      "constant": true,
      "inputs": [],
      "name": "getCarSetups",
      "outputs": [
        {
          "components": [
            {
              "name": "id",
              "type": "uint256"
            },
            {
              "components": [
                {
                  "name": "seller",
                  "type": "address"
                },
                {
                  "name": "price",
                  "type": "uint256"
                },
                {
                  "name": "dataHash",
                  "type": "bytes32"
                },
                {
                  "name": "encryptedDataHash",
                  "type": "bytes32"
                },
                {
                  "name": "ipfsPath",
                  "type": "bytes"
                },
                {
                  "name": "testTemplateHash",
                  "type": "bytes32"
                }
              ],
              "name": "ad",
              "type": "tuple"
            },
            {
              "components": [
                {
                  "name": "carBrand",
                  "type": "string"
                },
                {
                  "name": "track",
                  "type": "string"
                },
                {
                  "name": "simulator",
                  "type": "string"
                },
                {
                  "name": "season",
                  "type": "string"
                }
              ],
              "name": "info",
              "type": "tuple"
            }
          ],
          "name": "setups",
          "type": "tuple[]"
        }
      ],
      "payable": false,
      "stateMutability": "view",
      "type": "function"
    },
    {
      "constant": true,
      "inputs": [],
      "name": "getSkins",
      "outputs": [
        {
          "components": [
            {
              "name": "id",
              "type": "uint256"
            },
            {
              "components": [
                {
                  "name": "seller",
                  "type": "address"
                },
                {
                  "name": "price",
                  "type": "uint256"
                },
                {
                  "name": "dataHash",
                  "type": "bytes32"
                },
                {
                  "name": "encryptedDataHash",
                  "type": "bytes32"
                },
                {
                  "name": "ipfsPath",
                  "type": "bytes"
                },
                {
                  "name": "testTemplateHash",
                  "type": "bytes32"
                }
              ],
              "name": "ad",
              "type": "tuple"
            },
            {
              "components": [
                {
                  "name": "carBrand",
                  "type": "string"
                },
                {
                  "name": "simulator",
                  "type": "string"
                }
              ],
              "name": "info",
              "type": "tuple"
            }
          ],
          "name": "skins",
          "type": "tuple[]"
        }
      ],
      "payable": false,
      "stateMutability": "view",
      "type": "function"
    },
    {
      "constant": true,
      "inputs": [
        {
          "name": "_address",
          "type": "address"
        }
      ],
      "name": "isSeller",
      "outputs": [
        {
          "name": "",
          "type": "bool"
        }
      ],
      "payable": false,
      "stateMutability": "view",
      "type": "function"
    },
    {
      "constant": true,
      "inputs": [],
      "name": "getNumberSellers",
      "outputs": [
        {
          "name": "",
          "type": "uint256"
        }
      ],
      "payable": false,
      "stateMutability": "view",
      "type": "function"
    },
    {
      "constant": true,
      "inputs": [],
      "name": "getNumberCars",
      "outputs": [
        {
          "name": "",
          "type": "uint256"
        }
      ],
      "payable": false,
      "stateMutability": "view",
      "type": "function"
    },
    {
      "constant": true,
      "inputs": [],
      "name": "getNumberSkins",
      "outputs": [
        {
          "name": "",
          "type": "uint256"
        }
      ],
      "payable": false,
      "stateMutability": "view",
      "type": "function"
    },
    {
      "constant": true,
      "inputs": [
        {
          "name": "_addr",
          "type": "address"
        }
      ],
      "name": "addressToString",
      "outputs": [
        {
          "name": "",
          "type": "string"
        }
      ],
      "payable": false,
      "stateMutability": "pure",
      "type": "function"
    }
  ],
  "bytecode": "0x60806040526000805560006003557f30783132330000000000000000000000000000000000000000000000000000006006557f30783435360000000000000000000000000000000000000000000000000000006007553480156200006257600080fd5b5060405160208062002d0c8339810180604052620000849190810190620000a1565b5062000101565b6000620000998251620000ed565b905092915050565b600060208284031215620000b457600080fd5b6000620000c4848285016200008b565b91505092915050565b600073ffffffffffffffffffffffffffffffffffffffff82169050919050565b6000620000fa82620000cd565b9050919050565b612bfb80620001116000396000f3fe6080604052600436106100eb576000357c0100000000000000000000000000000000000000000000000000000000900480630271db40146100f05780633aff94d61461012d5780634aa64a391461015857806351c84376146101955780635e57966d146101b15780636e5702af146101ee5780637ede1c071461021957806389da3ac2146102565780639499c34814610281578063a7c4e0e0146102be578063a987b096146102fb578063b95f22f31461032b578063ba1219fa14610356578063da8af2c914610381578063ee95feaf146103be578063f358eb9b146103fb578063ffadf2c014610424575b600080fd5b3480156100fc57600080fd5b5061011760048036036101129190810190611e4d565b610461565b604051610124919061287b565b60405180910390f35b34801561013957600080fd5b5061014261058c565b60405161014f9190612815565b60405180910390f35b34801561016457600080fd5b5061017f600480360361017a9190810190611e76565b610a5b565b60405161018c91906127f3565b60405180910390f35b6101af60048036036101aa91908101906120db565b610c39565b005b3480156101bd57600080fd5b506101d860048036036101d39190810190611e4d565b610c3d565b6040516101e59190612896565b60405180910390f35b3480156101fa57600080fd5b50610203610ff7565b60405161021091906128da565b60405180910390f35b34801561022557600080fd5b50610240600480360361023b91908101906120b2565b611004565b60405161024d91906128b8565b60405180910390f35b34801561026257600080fd5b5061026b611152565b60405161027891906128da565b60405180910390f35b34801561028d57600080fd5b506102a860048036036102a39190810190611eb7565b61115f565b6040516102b591906128da565b60405180910390f35b3480156102ca57600080fd5b506102e560048036036102e09190810190611e4d565b611276565b6040516102f29190612859565b60405180910390f35b610315600480360361031091908101906120db565b61130d565b60405161032291906128da565b60405180910390f35b34801561033757600080fd5b50610340611452565b60405161034d91906128da565b60405180910390f35b34801561036257600080fd5b5061036b61145f565b6040516103789190612837565b60405180910390f35b34801561038d57600080fd5b506103a860048036036103a391908101906120db565b6117e9565b6040516103b591906128da565b60405180910390f35b3480156103ca57600080fd5b506103e560048036036103e09190810190611e4d565b6117f1565b6040516103f2919061287b565b60405180910390f35b34801561040757600080fd5b50610422600480360361041d91908101906120b2565b611847565b005b34801561043057600080fd5b5061044b60048036036104469190810190611fe1565b61184a565b60405161045891906128da565b60405180910390f35b6000801515600c60008473ffffffffffffffffffffffffffffffffffffffff1673ffffffffffffffffffffffffffffffffffffffff16815260200190815260200160002060009054906101000a900460ff1615151415610582576001600c60008473ffffffffffffffffffffffffffffffffffffffff1673ffffffffffffffffffffffffffffffffffffffff16815260200190815260200160002060006101000a81548160ff021916908315150217905550600d8290806001815401808255809150509060018203906000526020600020016000909192909190916101000a81548173ffffffffffffffffffffffffffffffffffffffff021916908373ffffffffffffffffffffffffffffffffffffffff1602179055505060019050610587565b600090505b919050565b6060600a805490506040519080825280602002602001820160405280156105cd57816020015b6105ba611a6e565b8152602001906001900390816105b25790505b50905060008090505b600a80549050811015610a54576000600a828154811015156105f457fe5b9060005260206000200154905080838381518110151561061057fe5b9060200190602002015160000181815250506001600082815260200190815260200160002060c060405190810160405290816000820160009054906101000a900473ffffffffffffffffffffffffffffffffffffffff1673ffffffffffffffffffffffffffffffffffffffff1673ffffffffffffffffffffffffffffffffffffffff168152602001600182015481526020016002820154815260200160038201548152602001600482018054600181600116156101000203166002900480601f01602080910402602001604051908101604052809291908181526020018280546001816001161561010002031660029004801561074e5780601f106107235761010080835404028352916020019161074e565b820191906000526020600020905b81548152906001019060200180831161073157829003601f168201915b50505050508152602001600582015481525050838381518110151561076f57fe5b90602001906020020151602001819052506008600082815260200190815260200160002060806040519081016040529081600082018054600181600116156101000203166002900480601f0160208091040260200160405190810160405280929190818152602001828054600181600116156101000203166002900480156108385780601f1061080d57610100808354040283529160200191610838565b820191906000526020600020905b81548152906001019060200180831161081b57829003601f168201915b50505050508152602001600182018054600181600116156101000203166002900480601f0160208091040260200160405190810160405280929190818152602001828054600181600116156101000203166002900480156108da5780601f106108af576101008083540402835291602001916108da565b820191906000526020600020905b8154815290600101906020018083116108bd57829003601f168201915b50505050508152602001600282018054600181600116156101000203166002900480601f01602080910402602001604051908101604052809291908181526020018280546001816001161561010002031660029004801561097c5780601f106109515761010080835404028352916020019161097c565b820191906000526020600020905b81548152906001019060200180831161095f57829003601f168201915b50505050508152602001600382018054600181600116156101000203166002900480601f016020809104026020016040519081016040528092919081815260200182805460018160011615610100020316600290048015610a1e5780601f106109f357610100808354040283529160200191610a1e565b820191906000526020600020905b815481529060010190602001808311610a0157829003601f168201915b5050505050815250508383815181101515610a3557fe5b90602001906020020151604001819052505080806001019150506105d6565b5080905090565b6060808251604051908082528060200260200182016040528015610a9957816020015b610a86611a9d565b815260200190600190039081610a7e5790505b50905060008090505b8351811015610c2f5760008482815181101515610abb57fe5b9060200190602002015190506001600082815260200190815260200160002060c060405190810160405290816000820160009054906101000a900473ffffffffffffffffffffffffffffffffffffffff1673ffffffffffffffffffffffffffffffffffffffff1673ffffffffffffffffffffffffffffffffffffffff168152602001600182015481526020016002820154815260200160038201548152602001600482018054600181600116156101000203166002900480601f016020809104026020016040519081016040528092919081815260200182805460018160011615610100020316600290048015610bf35780601f10610bc857610100808354040283529160200191610bf3565b820191906000526020600020905b815481529060010190602001808311610bd657829003601f168201915b505050505081526020016005820154815250508383815181101515610c1457fe5b90602001906020020181905250508080600101915050610aa2565b5080915050919050565b5050565b606060008273ffffffffffffffffffffffffffffffffffffffff16600102905060606040805190810160405280601081526020017f30313233343536373839616263646566000000000000000000000000000000008152509050606060336040519080825280601f01601f191660200182016040528015610ccd5781602001600182028038833980820191505090505b5090507f3000000000000000000000000000000000000000000000000000000000000000816000815181101515610d0057fe5b9060200101907effffffffffffffffffffffffffffffffffffffffffffffffffffffffffffff1916908160001a9053507f7800000000000000000000000000000000000000000000000000000000000000816001815181101515610d6057fe5b9060200101907effffffffffffffffffffffffffffffffffffffffffffffffffffffffffffff1916908160001a90535060008090505b6014811015610feb5782600485600c8401602081101515610db357fe5b1a7f0100000000000000000000000000000000000000000000000000000000000000027effffffffffffffffffffffffffffffffffffffffffffffffffffffffffffff1916908060020a82049150507f0100000000000000000000000000000000000000000000000000000000000000900460ff16815181101515610e3457fe5b9060200101517f010000000000000000000000000000000000000000000000000000000000000090047f0100000000000000000000000000000000000000000000000000000000000000028260028302600201815181101515610e9357fe5b9060200101907effffffffffffffffffffffffffffffffffffffffffffffffffffffffffffff1916908160001a90535082600f7f01000000000000000000000000000000000000000000000000000000000000000285600c8401602081101515610ef957fe5b1a7f010000000000000000000000000000000000000000000000000000000000000002167f0100000000000000000000000000000000000000000000000000000000000000900460ff16815181101515610f4f57fe5b9060200101517f010000000000000000000000000000000000000000000000000000000000000090047f0100000000000000000000000000000000000000000000000000000000000000028260028302600301815181101515610fae57fe5b9060200101907effffffffffffffffffffffffffffffffffffffffffffffffffffffffffffff1916908160001a9053508080600101915050610d96565b50809350505050919050565b6000600a80549050905090565b61100c611af3565b6001600083815260200190815260200160002060c060405190810160405290816000820160009054906101000a900473ffffffffffffffffffffffffffffffffffffffff1673ffffffffffffffffffffffffffffffffffffffff1673ffffffffffffffffffffffffffffffffffffffff168152602001600182015481526020016002820154815260200160038201548152602001600482018054600181600116156101000203166002900480601f0160208091040260200160405190810160405280929190818152602001828054600181600116156101000203166002900480156111385780601f1061110d57610100808354040283529160200191611138565b820191906000526020600020905b81548152906001019060200180831161111b57829003601f168201915b505050505081526020016005820154815250509050919050565b6000600d80549050905090565b60006111708484848c600654611929565b90506000600860008381526020019081526020016000209050888160000190805190602001906111a1929190611b49565b50878160010190805190602001906111ba929190611b49565b50868160020190805190602001906111d3929190611b49565b50858160030190805190602001906111ec929190611b49565b50600a82908060018154018082558091505090600182039060005260206000200160009091929091909150555061122233610461565b507f04118812b850fad5027a2efb4e9e53c91e978265ccc36620c8059bf1c5d0e6fa338b8b8b8b8b8b60405161125e97969594939291906126f9565b60405180910390a18191505098975050505050505050565b6060600260008373ffffffffffffffffffffffffffffffffffffffff1673ffffffffffffffffffffffffffffffffffffffff16815260200190815260200160002080548060200260200160405190810160405280929190818152602001828054801561130157602002820191906000526020600020905b8154815260200190600101908083116112ed575b50505050509050919050565b6000806004600060035481526020019081526020016000209050838160000181905550338160010160006101000a81548173ffffffffffffffffffffffffffffffffffffffff021916908373ffffffffffffffffffffffffffffffffffffffff1602179055508281600201908051906020019061138b929190611bc9565b506003600081548092919060010191905055915060056000826000015481526020019081526020016000208290806001815401808255809150509060018203906000526020600020016000909192909190915055507fb2c74dd2211a23bb10cb03155b814763ac4e02b65ee4dc22bfc9ae52ec14fb808160000154838360010160009054906101000a900473ffffffffffffffffffffffffffffffffffffffff168460020160405161144094939291906128f5565b60405180910390a18191505092915050565b6000600b80549050905090565b6060600b805490506040519080825280602002602001820160405280156114a057816020015b61148d611c49565b8152602001906001900390816114855790505b50905060008090505b600b805490508110156117e2576000600b828154811015156114c757fe5b906000526020600020015490508083838151811015156114e357fe5b9060200190602002015160000181815250506001600082815260200190815260200160002060c060405190810160405290816000820160009054906101000a900473ffffffffffffffffffffffffffffffffffffffff1673ffffffffffffffffffffffffffffffffffffffff1673ffffffffffffffffffffffffffffffffffffffff168152602001600182015481526020016002820154815260200160038201548152602001600482018054600181600116156101000203166002900480601f0160208091040260200160405190810160405280929190818152602001828054600181600116156101000203166002900480156116215780601f106115f657610100808354040283529160200191611621565b820191906000526020600020905b81548152906001019060200180831161160457829003601f168201915b50505050508152602001600582015481525050838381518110151561164257fe5b906020019060200201516020018190525060096000828152602001908152602001600020604080519081016040529081600082018054600181600116156101000203166002900480601f01602080910402602001604051908101604052809291908181526020018280546001816001161561010002031660029004801561170a5780601f106116df5761010080835404028352916020019161170a565b820191906000526020600020905b8154815290600101906020018083116116ed57829003601f168201915b50505050508152602001600182018054600181600116156101000203166002900480601f0160208091040260200160405190810160405280929190818152602001828054600181600116156101000203166002900480156117ac5780601f10611781576101008083540402835291602001916117ac565b820191906000526020600020905b81548152906001019060200180831161178f57829003601f168201915b50505050508152505083838151811015156117c357fe5b90602001906020020151604001819052505080806001019150506114a9565b5080905090565b600092915050565b6000600c60008373ffffffffffffffffffffffffffffffffffffffff1673ffffffffffffffffffffffffffffffffffffffff16815260200190815260200160002060009054906101000a900460ff169050919050565b50565b600061185b8484848a600754611929565b905060006009600083815260200190815260200160002090508681600001908051906020019061188c929190611b49565b50858160010190805190602001906118a5929190611b49565b50600b8290806001815401808255809150509060018203906000526020600020016000909192909190915055506118db33610461565b507f01811ecd1a9083bd05030544982ea358e89f3b8c65fcfd97821171b02e844956338989898960405161191395949392919061278b565b60405180910390a1819150509695505050505050565b60008060016000805481526020019081526020016000209050338160000160006101000a81548173ffffffffffffffffffffffffffffffffffffffff021916908373ffffffffffffffffffffffffffffffffffffffff160217905550868160010181905550858160020181905550848160030181905550838160040190805190602001906119b8929190611bc9565b50828160050181905550600080815480929190600101919050559150600260008260000160009054906101000a900473ffffffffffffffffffffffffffffffffffffffff1673ffffffffffffffffffffffffffffffffffffffff1673ffffffffffffffffffffffffffffffffffffffff1681526020019081526020016000208290806001815401808255809150509060018203906000526020600020016000909192909190915055508191505095945050505050565b6101606040519081016040528060008152602001611a8a611a9d565b8152602001611a97611c78565b81525090565b60c060405190810160405280600073ffffffffffffffffffffffffffffffffffffffff16815260200160008152602001600080191681526020016000801916815260200160608152602001600080191681525090565b60c060405190810160405280600073ffffffffffffffffffffffffffffffffffffffff16815260200160008152602001600080191681526020016000801916815260200160608152602001600080191681525090565b828054600181600116156101000203166002900490600052602060002090601f016020900481019282601f10611b8a57805160ff1916838001178555611bb8565b82800160010185558215611bb8579182015b82811115611bb7578251825591602001919060010190611b9c565b5b509050611bc59190611ca1565b5090565b828054600181600116156101000203166002900490600052602060002090601f016020900481019282601f10611c0a57805160ff1916838001178555611c38565b82800160010185558215611c38579182015b82811115611c37578251825591602001919060010190611c1c565b5b509050611c459190611ca1565b5090565b6101206040519081016040528060008152602001611c65611a9d565b8152602001611c72611cc6565b81525090565b608060405190810160405280606081526020016060815260200160608152602001606081525090565b611cc391905b80821115611cbf576000816000905550600101611ca7565b5090565b90565b604080519081016040528060608152602001606081525090565b6000611cec8235612b12565b905092915050565b600082601f8301121515611d0757600080fd5b8135611d1a611d158261296e565b612941565b91508181835260208401935060208101905083856020840282011115611d3f57600080fd5b60005b83811015611d6f5781611d558882611e39565b845260208401935060208301925050600181019050611d42565b5050505092915050565b6000611d858235612b24565b905092915050565b600082601f8301121515611da057600080fd5b8135611db3611dae82612996565b612941565b91508082526020830160208301858383011115611dcf57600080fd5b611dda838284612b6e565b50505092915050565b600082601f8301121515611df657600080fd5b8135611e09611e04826129c2565b612941565b91508082526020830160208301858383011115611e2557600080fd5b611e30838284612b6e565b50505092915050565b6000611e458235612b2e565b905092915050565b600060208284031215611e5f57600080fd5b6000611e6d84828501611ce0565b91505092915050565b600060208284031215611e8857600080fd5b600082013567ffffffffffffffff811115611ea257600080fd5b611eae84828501611cf4565b91505092915050565b600080600080600080600080610100898b031215611ed457600080fd5b600089013567ffffffffffffffff811115611eee57600080fd5b611efa8b828c01611d8d565b985050602089013567ffffffffffffffff811115611f1757600080fd5b611f238b828c01611de3565b975050604089013567ffffffffffffffff811115611f4057600080fd5b611f4c8b828c01611de3565b965050606089013567ffffffffffffffff811115611f6957600080fd5b611f758b828c01611de3565b955050608089013567ffffffffffffffff811115611f9257600080fd5b611f9e8b828c01611de3565b94505060a0611faf8b828c01611e39565b93505060c0611fc08b828c01611d79565b92505060e0611fd18b828c01611d79565b9150509295985092959890939650565b60008060008060008060c08789031215611ffa57600080fd5b600087013567ffffffffffffffff81111561201457600080fd5b61202089828a01611d8d565b965050602087013567ffffffffffffffff81111561203d57600080fd5b61204989828a01611de3565b955050604087013567ffffffffffffffff81111561206657600080fd5b61207289828a01611de3565b945050606061208389828a01611e39565b935050608061209489828a01611d79565b92505060a06120a589828a01611d79565b9150509295509295509295565b6000602082840312156120c457600080fd5b60006120d284828501611e39565b91505092915050565b600080604083850312156120ee57600080fd5b60006120fc85828601611e39565b925050602083013567ffffffffffffffff81111561211957600080fd5b61212585828601611d8d565b9150509250929050565b61213881612b38565b82525050565b61214781612ac0565b82525050565b600061215882612a34565b80845260208401935083602082028501612171856129ee565b60005b848110156121aa57838303885261218c8383516124f7565b925061219782612a8c565b9150602088019750600181019050612174565b508196508694505050505092915050565b60006121c682612a3f565b808452602084019350836020820285016121df856129fb565b60005b848110156122185783830388526121fa8383516125f8565b925061220582612a99565b91506020880197506001810190506121e2565b508196508694505050505092915050565b600061223482612a4a565b8084526020840193508360208202850161224d85612a08565b60005b84811015612286578383038852612268838351612693565b925061227382612aa6565b9150602088019750600181019050612250565b508196508694505050505092915050565b60006122a282612a55565b8084526020840193506122b483612a15565b60005b828110156122e6576122ca8683516126ea565b6122d382612ab3565b91506020860195506001810190506122b7565b50849250505092915050565b6122fb81612ad2565b82525050565b61230a81612ade565b82525050565b600061231b82612a6b565b80845261232f816020860160208601612b7d565b61233881612bb0565b602085010191505092915050565b600061235182612a60565b808452612365816020860160208601612b7d565b61236e81612bb0565b602085010191505092915050565b60008154600181166000811461239957600181146123b9576123fa565b607f600283041680865260ff1983166020870152604086019350506123fa565b600282048086526020860195506123cf85612a22565b60005b828110156123f1578154818901526001820191506020810190506123d2565b80880195505050505b505092915050565b600061240d82612a81565b808452612421816020860160208601612b7d565b61242a81612bb0565b602085010191505092915050565b600061244382612a76565b808452612457816020860160208601612b7d565b61246081612bb0565b602085010191505092915050565b600060c083016000830151612486600086018261213e565b50602083015161249960208601826126ea565b5060408301516124ac6040860182612301565b5060608301516124bf6060860182612301565b50608083015184820360808601526124d78282612346565b91505060a08301516124ec60a0860182612301565b508091505092915050565b600060c08301600083015161250f600086018261213e565b50602083015161252260208601826126ea565b5060408301516125356040860182612301565b5060608301516125486060860182612301565b50608083015184820360808601526125608282612346565b91505060a083015161257560a0860182612301565b508091505092915050565b6000608083016000830151848203600086015261259d8282612438565b915050602083015184820360208601526125b78282612438565b915050604083015184820360408601526125d18282612438565b915050606083015184820360608601526125eb8282612438565b9150508091505092915050565b600060608301600083015161261060008601826126ea565b506020830151848203602086015261262882826124f7565b915050604083015184820360408601526126428282612580565b9150508091505092915050565b6000604083016000830151848203600086015261266c8282612438565b915050602083015184820360208601526126868282612438565b9150508091505092915050565b60006060830160008301516126ab60008601826126ea565b50602083015184820360208601526126c382826124f7565b915050604083015184820360408601526126dd828261264f565b9150508091505092915050565b6126f381612b08565b82525050565b600060e08201905061270e600083018a61212f565b81810360208301526127208189612310565b905081810360408301526127348188612402565b905081810360608301526127488187612402565b9050818103608083015261275c8186612402565b905081810360a08301526127708185612402565b905061277f60c08301846126ea565b98975050505050505050565b600060a0820190506127a0600083018861212f565b81810360208301526127b28187612310565b905081810360408301526127c68186612402565b905081810360608301526127da8185612402565b90506127e960808301846126ea565b9695505050505050565b6000602082019050818103600083015261280d818461214d565b905092915050565b6000602082019050818103600083015261282f81846121bb565b905092915050565b600060208201905081810360008301526128518184612229565b905092915050565b600060208201905081810360008301526128738184612297565b905092915050565b600060208201905061289060008301846122f2565b92915050565b600060208201905081810360008301526128b08184612402565b905092915050565b600060208201905081810360008301526128d2818461246e565b905092915050565b60006020820190506128ef60008301846126ea565b92915050565b600060808201905061290a60008301876126ea565b61291760208301866126ea565b612924604083018561213e565b8181036060830152612936818461237c565b905095945050505050565b6000604051905081810181811067ffffffffffffffff8211171561296457600080fd5b8060405250919050565b600067ffffffffffffffff82111561298557600080fd5b602082029050602081019050919050565b600067ffffffffffffffff8211156129ad57600080fd5b601f19601f8301169050602081019050919050565b600067ffffffffffffffff8211156129d957600080fd5b601f19601f8301169050602081019050919050565b6000602082019050919050565b6000602082019050919050565b6000602082019050919050565b6000602082019050919050565b60008160005260206000209050919050565b600081519050919050565b600081519050919050565b600081519050919050565b600081519050919050565b600081519050919050565b600081519050919050565b600081519050919050565b600081519050919050565b6000602082019050919050565b6000602082019050919050565b6000602082019050919050565b6000602082019050919050565b6000612acb82612ae8565b9050919050565b60008115159050919050565b6000819050919050565b600073ffffffffffffffffffffffffffffffffffffffff82169050919050565b6000819050919050565b6000612b1d82612ae8565b9050919050565b6000819050919050565b6000819050919050565b6000612b4382612b4a565b9050919050565b6000612b5582612b5c565b9050919050565b6000612b6782612ae8565b9050919050565b82818337600083830152505050565b60005b83811015612b9b578082015181840152602081019050612b80565b83811115612baa576000848401525b50505050565b6000601f19601f830116905091905056fea265627a7a723058200c71438dd83a0e12dd3539ca57fcee05e0f980d4c688fce6418af9bea00021416c6578706572696d656e74616cf50037",
  "source": "pragma solidity ^0.5.1;\npragma experimental ABIEncoderV2;\n\nimport \"./ContentMarketplace.sol\";\n\n/// @title Simthunder Sim Racing Marketplace - first iteration\n/// @notice Non-Cartesi blockchain code for registering sellers and sim racing assets\n\ncontract STMarketplace is ContentMarketplace {    \n\n    // cartesi machine template used to validate each asset category\n    bytes32 validateCarSetupTemplateHash = \"0x123\";\n    bytes32 validateCarSkinTemplateHash = \"0x456\";\n    \n    // holds information specific to a car setup file\n    struct carSetupInfo {\n        string carBrand;\n        string track;\n        string simulator;\n        string season;\n    }\n       \n    // holds information specific to a car skin file\n    struct carSkinInfo {\n        string carBrand;\n        string simulator;\n    }\n       \n    // full representation of an advertised car setup\n    struct carSetup {\n        uint256 id;         // id of the advertisement\n        Advertisement ad;   // generic ad information, including seller and content\n        carSetupInfo info;  // specific car setup information\n    }\n       \n    // full representation of an advertised car skin\n    struct carSkin {\n        uint256 id;         // id of the advertisement\n        Advertisement ad;   // generic ad information, including seller and content\n        carSkinInfo info;   // specific car skin information\n    }\n\n\n    /// @notice Maps the 2 type of files\n    mapping(uint256 => carSetupInfo) carSetupInfos;\n    mapping(uint256 => carSkinInfo) carSkinInfos;\n    uint256[] carSetupIds;\n    uint256[] carSkinIds;\n    \n    /// @notice To track if seller address already exists\n    mapping (address => bool) userExists;\n    \n    // /// @notice Keep track of all seller addresses and existing files\n    address[] private userAddresses;\n\n    /// @notice Events\n    event carSetupSaved(address _address, bytes _ipfsPath, string _carBrand, string _track, string _simulator, string _season, uint256 _price);\n    event skinSaved(address _address, bytes _ipfsPath, string _carBrand, string _simulator, uint256 _price);\n    \n    /// @notice Creates an instance of the contract\n    /// @param descartesAddress address of the Descartes contract\n    constructor(address descartesAddress) public ContentMarketplace(descartesAddress) {\n    }    \n    \n    /// @notice Registers a new car setup for sale\n    function newCarSetup(\n        bytes memory _ipfsPath,        // ipfs path of encrypted data\n        string memory _carBrand,\n        string memory _track,\n        string memory _simulator,\n        string memory _season,\n        uint256 _price,                // trade price\n        bytes32 _dataHash,             // merkle hash of unencrypted data\n        bytes32 _encryptedDataHash     // merkle hash of encrypted data\n    ) public\n        returns (uint256 id)           // returns ad identifier\n    {\n        id = createAd(\n            _price,\n            _dataHash,\n            _encryptedDataHash,\n            _ipfsPath,\n            validateCarSetupTemplateHash\n        );\n\n        carSetupInfo storage info = carSetupInfos[id];\n        info.carBrand = _carBrand;\n        info.track = _track;\n        info.simulator = _simulator;\n        info.season = _season;\n\n        carSetupIds.push(id);\n        saveSeller(msg.sender);\n        emit carSetupSaved(msg.sender, _ipfsPath, _carBrand, _track, _simulator, _season, _price);\n\n        return id;\n    }\n\n    /// @notice Registers a new car skin for sale\n    function newSkin(\n        bytes memory _ipfsPath,        // ipfs path of encrypted data\n        string memory _carBrand,\n        string memory _simulator,\n        uint256 _price,                // trade price\n        bytes32 _dataHash,             // merkle hash of unencrypted data\n        bytes32 _encryptedDataHash     // merkle hash of encrypted data\n    ) public\n        returns (uint256 id)           // returns ad identifier\n    {\n        id = createAd(\n            _price,\n            _dataHash,\n            _encryptedDataHash,\n            _ipfsPath,\n            validateCarSkinTemplateHash\n        );\n\n        carSkinInfo storage info = carSkinInfos[id];\n        info.carBrand = _carBrand;\n        info.simulator = _simulator;\n\n        carSkinIds.push(id);\n        saveSeller(msg.sender);\n        emit skinSaved (msg.sender,_ipfsPath, _carBrand, _simulator, _price);\n\n        return id;\n    }\n\n    /// @notice Registers seller address\n    function saveSeller(address _address) public returns(bool){\n        if(userExists[_address] == false) {\n            userExists[_address] = true;\n            userAddresses.push(_address);\n            return true;    \n        }\n        return false;\n    }\n    \n    /// @notice Gets the list of all car setup files\n    function getCarSetups() public view returns(carSetup[] memory setups){\n        setups = new carSetup[](carSetupIds.length);\n        for (uint256 i = 0; i < carSetupIds.length; i++) {\n            uint256 id = carSetupIds[i];\n            setups[i].id = id;\n            setups[i].ad = ads[id];\n            setups[i].info = carSetupInfos[id];\n        }\n        return setups;\n    }\n    \n    /// @notice Gets the list of all skin files\n    function getSkins() public view returns(carSkin[] memory skins){\n        skins = new carSkin[](carSkinIds.length);\n        for(uint256 i = 0; i < carSkinIds.length; i++) {\n            uint256 id = carSkinIds[i];\n            skins[i].id = id;\n            skins[i].ad = ads[id];\n            skins[i].info = carSkinInfos[id];\n        }\n        return skins;\n    }\n\n    /// @notice Tests if sellers exists\n    function isSeller(address _address) public view returns(bool) {\n        return userExists[_address];\n    }\n    \n    /// @notice Gets number of sellers\n    function getNumberSellers() public view returns(uint256) {\n        return userAddresses.length;\n    }\n    \n    /// @notice Gets number of car setup files\n    function getNumberCars() public view returns(uint256) {\n        return carSetupIds.length;\n    }\n    \n    /// @notice Gets number of skin files\n    function getNumberSkins() public view returns(uint256) {\n        return carSkinIds.length;\n    }\n    \n    /// @notice Utility method to return string from an address\n    function addressToString(address _addr) public pure returns(string memory) \n    {\n        bytes32 value = bytes32(uint256(_addr));\n        bytes memory alphabet = \"0123456789abcdef\";\n\n        bytes memory str = new bytes(51);\n        str[0] = '0';\n        str[1] = 'x';\n        for (uint256 i = 0; i < 20; i++) {\n            str[2+i*2] = alphabet[uint8(value[i + 12] >> 4)];\n            str[3+i*2] = alphabet[uint8(value[i + 12] & 0x0f)];\n        }\n        return string(str);\n    }\n}",
  "sourcePath": "/home/miguel/Documents/TokenWised/Marketplace/market-dapp/backend/contracts/STMarketplace.sol",
  "compiler": {
    "name": "solc",
    "version": "0.5.1+commit.c8a2cb62.Emscripten.clang"
  },
  "schemaVersion": "3.3.2",
  "updatedAt": "2020-12-27T18:34:33.978Z",
  "networkType": "ethereum",
  "devdoc": {
    "methods": {
      "constructor": {
        "params": {
          "descartesAddress": "address of the Descartes contract"
        }
      }
    },
    "title": "Simthunder Sim Racing Marketplace - first iteration"
  },
  "userdoc": {
    "methods": {
      "acceptPurchase(uint256,bytes)": {
        "notice": "called by seller to accept a purchase request for a registered advertisement"
      },
      "addressToString(address)": {
        "notice": "Utility method to return string from an address"
      },
      "challengePurchase(uint256,bytes)": {
        "notice": "called by buyer to challenge a purchase, stating that content could not be retrieved"
      },
      "constructor": "Creates an instance of the contract",
      "finalizePurchase(uint256)": {
        "notice": "finalizes purchase, unlocking buyer's funds and seller's deposit as appropriate"
      },
      "getAd(uint256)": {
        "notice": "retrieves an advertisement given its identifier"
      },
      "getAds(uint256[])": {
        "notice": "retrieves an array of advertisements given their identifiers"
      },
      "getCarSetups()": {
        "notice": "Gets the list of all car setup files"
      },
      "getNumberCars()": {
        "notice": "Gets number of car setup files"
      },
      "getNumberSellers()": {
        "notice": "Gets number of sellers"
      },
      "getNumberSkins()": {
        "notice": "Gets number of skin files"
      },
      "getSkins()": {
        "notice": "Gets the list of all skin files"
      },
      "isSeller(address)": {
        "notice": "Tests if sellers exists"
      },
      "listAdsPerSeller(address)": {
        "notice": "returns identifiers for a seller's advertisements"
      },
      "newCarSetup(bytes,string,string,string,string,uint256,bytes32,bytes32)": {
        "notice": "Registers a new car setup for sale"
      },
      "newSkin(bytes,string,string,uint256,bytes32,bytes32)": {
        "notice": "Registers a new car skin for sale"
      },
      "requestPurchase(uint256,bytes)": {
        "notice": "requests purchase of a registered advertisement"
      },
      "saveSeller(address)": {
        "notice": "Registers seller address"
      }
    },
    "notice": "Non-Cartesi blockchain code for registering sellers and sim racing assets"
  }
}