{
  "contractName": "ContentMarketplace",
  "abi": [
    {
      "inputs": [
        {
          "name": "descartesAddress",
          "type": "address"
        }
      ],
      "payable": false,
      "stateMutability": "nonpayable",
      "type": "constructor"
    },
    {
      "anonymous": false,
      "inputs": [
        {
          "indexed": false,
          "name": "adId",
          "type": "uint256"
        },
        {
          "indexed": false,
          "name": "purchaseId",
          "type": "uint256"
        },
        {
          "indexed": false,
          "name": "buyer",
          "type": "address"
        },
        {
          "indexed": false,
          "name": "buyerKey",
          "type": "bytes"
        }
      ],
      "name": "PurchaseRequested",
      "type": "event"
    },
    {
      "anonymous": false,
      "inputs": [
        {
          "indexed": false,
          "name": "adId",
          "type": "uint256"
        },
        {
          "indexed": false,
          "name": "purchaseId",
          "type": "uint256"
        },
        {
          "indexed": false,
          "name": "encryptedDataKey",
          "type": "bytes"
        }
      ],
      "name": "PurchaseAccepted",
      "type": "event"
    },
    {
      "anonymous": false,
      "inputs": [
        {
          "indexed": false,
          "name": "adId",
          "type": "uint256"
        },
        {
          "indexed": false,
          "name": "purchaseId",
          "type": "uint256"
        },
        {
          "indexed": false,
          "name": "descartesIndex",
          "type": "uint256"
        }
      ],
      "name": "PurchaseChallenged",
      "type": "event"
    },
    {
      "anonymous": false,
      "inputs": [
        {
          "indexed": false,
          "name": "adId",
          "type": "uint256"
        },
        {
          "indexed": false,
          "name": "purchaseId",
          "type": "uint256"
        },
        {
          "indexed": false,
          "name": "isSuccess",
          "type": "bool"
        }
      ],
      "name": "PurchaseFinalized",
      "type": "event"
    },
    {
      "constant": true,
      "inputs": [
        {
          "name": "_adId",
          "type": "uint256"
        }
      ],
      "name": "getAd",
      "outputs": [
        {
          "components": [
            {
              "name": "seller",
              "type": "address"
            },
            {
              "name": "price",
              "type": "uint256"
            },
            {
              "name": "dataHash",
              "type": "bytes32"
            },
            {
              "name": "encryptedDataHash",
              "type": "bytes32"
            },
            {
              "name": "ipfsPath",
              "type": "bytes"
            },
            {
              "name": "testTemplateHash",
              "type": "bytes32"
            }
          ],
          "name": "",
          "type": "tuple"
        }
      ],
      "payable": false,
      "stateMutability": "view",
      "type": "function"
    },
    {
      "constant": true,
      "inputs": [
        {
          "name": "_adIds",
          "type": "uint256[]"
        }
      ],
      "name": "getAds",
      "outputs": [
        {
          "components": [
            {
              "name": "seller",
              "type": "address"
            },
            {
              "name": "price",
              "type": "uint256"
            },
            {
              "name": "dataHash",
              "type": "bytes32"
            },
            {
              "name": "encryptedDataHash",
              "type": "bytes32"
            },
            {
              "name": "ipfsPath",
              "type": "bytes"
            },
            {
              "name": "testTemplateHash",
              "type": "bytes32"
            }
          ],
          "name": "",
          "type": "tuple[]"
        }
      ],
      "payable": false,
      "stateMutability": "view",
      "type": "function"
    },
    {
      "constant": true,
      "inputs": [
        {
          "name": "_seller",
          "type": "address"
        }
      ],
      "name": "listAdsPerSeller",
      "outputs": [
        {
          "name": "",
          "type": "uint256[]"
        }
      ],
      "payable": false,
      "stateMutability": "view",
      "type": "function"
    },
    {
      "constant": true,
      "inputs": [
        {
          "name": "_purchaseId",
          "type": "uint256"
        }
      ],
      "name": "getPurchase",
      "outputs": [
        {
          "components": [
            {
              "name": "adId",
              "type": "uint256"
            },
            {
              "name": "buyer",
              "type": "address"
            },
            {
              "name": "buyerKey",
              "type": "bytes"
            },
            {
              "name": "encryptedDataKey",
              "type": "bytes"
            },
            {
              "name": "date",
              "type": "uint256"
            }
          ],
          "name": "",
          "type": "tuple"
        }
      ],
      "payable": false,
      "stateMutability": "view",
      "type": "function"
    },
    {
      "constant": true,
      "inputs": [
        {
          "name": "_purchaseIds",
          "type": "uint256[]"
        }
      ],
      "name": "getPurchases",
      "outputs": [
        {
          "components": [
            {
              "name": "adId",
              "type": "uint256"
            },
            {
              "name": "buyer",
              "type": "address"
            },
            {
              "name": "buyerKey",
              "type": "bytes"
            },
            {
              "name": "encryptedDataKey",
              "type": "bytes"
            },
            {
              "name": "date",
              "type": "uint256"
            }
          ],
          "name": "",
          "type": "tuple[]"
        }
      ],
      "payable": false,
      "stateMutability": "view",
      "type": "function"
    },
    {
      "constant": false,
      "inputs": [
        {
          "name": "_adId",
          "type": "uint256"
        },
        {
          "name": "_buyerKey",
          "type": "bytes"
        }
      ],
      "name": "requestPurchase",
      "outputs": [
        {
          "name": "purchaseId",
          "type": "uint256"
        }
      ],
      "payable": true,
      "stateMutability": "payable",
      "type": "function"
    },
    {
      "constant": false,
      "inputs": [
        {
          "name": "_purchaseId",
          "type": "uint256"
        },
        {
          "name": "_encryptedDataKey",
          "type": "bytes"
        }
      ],
      "name": "acceptPurchase",
      "outputs": [],
      "payable": true,
      "stateMutability": "payable",
      "type": "function"
    },
    {
      "constant": false,
      "inputs": [
        {
          "name": "_purchaseId",
          "type": "uint256"
        },
        {
          "name": "_privateKey",
          "type": "bytes"
        }
      ],
      "name": "challengePurchase",
      "outputs": [
        {
          "name": "descartesIndex",
          "type": "uint256"
        }
      ],
      "payable": false,
      "stateMutability": "nonpayable",
      "type": "function"
    },
    {
      "constant": false,
      "inputs": [
        {
          "name": "_purchaseId",
          "type": "uint256"
        }
      ],
      "name": "finalizePurchase",
      "outputs": [],
      "payable": false,
      "stateMutability": "nonpayable",
      "type": "function"
    },
    {
      "constant": false,
      "inputs": [
        {
          "name": "_purchaseId",
          "type": "uint256"
        },
        {
          "name": "_message",
          "type": "string"
        },
        {
          "name": "_sender",
          "type": "address"
        },
        {
          "name": "_receiver",
          "type": "address"
        },
        {
          "name": "_type",
          "type": "uint8"
        }
      ],
      "name": "newNotification",
      "outputs": [
        {
          "name": "notificationId",
          "type": "uint256"
        }
      ],
      "payable": false,
      "stateMutability": "nonpayable",
      "type": "function"
    },
    {
      "constant": true,
      "inputs": [
        {
          "name": "_notificationIds",
          "type": "uint256[]"
        }
      ],
      "name": "getNotifications",
      "outputs": [
        {
          "components": [
            {
              "name": "purchaseId",
              "type": "uint256"
            },
            {
              "name": "message",
              "type": "string"
            },
            {
              "name": "nType",
              "type": "uint8"
            },
            {
              "name": "archive",
              "type": "bool"
            },
            {
              "name": "date",
              "type": "uint256"
            },
            {
              "name": "sender",
              "type": "address"
            },
            {
              "name": "receiver",
              "type": "address"
            }
          ],
          "name": "",
          "type": "tuple[]"
        }
      ],
      "payable": false,
      "stateMutability": "view",
      "type": "function"
    },
    {
      "constant": true,
      "inputs": [
        {
          "name": "_user",
          "type": "address"
        }
      ],
      "name": "listNotificationsPerUser",
      "outputs": [
        {
          "name": "",
          "type": "uint256[]"
        }
      ],
      "payable": false,
      "stateMutability": "view",
      "type": "function"
    },
    {
      "constant": false,
      "inputs": [
        {
          "name": "_notificationId",
          "type": "uint256"
        }
      ],
      "name": "archiveNotification",
      "outputs": [],
      "payable": false,
      "stateMutability": "nonpayable",
      "type": "function"
    }
  ],
  "bytecode": "0x608060405260008055600060035560006006553480156200001f57600080fd5b506040516020806200268b83398101806040526200004191908101906200005e565b50620000be565b6000620000568251620000aa565b905092915050565b6000602082840312156200007157600080fd5b6000620000818482850162000048565b91505092915050565b600073ffffffffffffffffffffffffffffffffffffffff82169050919050565b6000620000b7826200008a565b9050919050565b6125bd80620000ce6000396000f3fe6080604052600436106100bf576000357c0100000000000000000000000000000000000000000000000000000000900480633742a9f7146100c45780634aa64a391461010157806351c843761461013e5780635f7b3fed1461015a5780636a1a80d5146101975780637ede1c07146101d4578063a401a0cf14610211578063a7c4e0e01461024e578063a987b0961461028b578063c357b13c146102bb578063d75eb000146102f8578063da8af2c914610321578063f358eb9b1461035e575b600080fd5b3480156100d057600080fd5b506100eb60048036036100e691908101906119c4565b610387565b6040516100f891906121c6565b60405180910390f35b34801561010d57600080fd5b5061012860048036036101239190810190611983565b610563565b60405161013591906120fc565b60405180910390f35b610158600480360361015391908101906119ed565b610741565b005b34801561016657600080fd5b50610181600480360361017c9190810190611a41565b610844565b60405161018e91906121e8565b60405180910390f35b3480156101a357600080fd5b506101be60048036036101b99190810190611983565b6109da565b6040516101cb919061211e565b60405180910390f35b3480156101e057600080fd5b506101fb60048036036101f691908101906119c4565b610c42565b60405161020891906121a4565b60405180910390f35b34801561021d57600080fd5b5061023860048036036102339190810190611983565b610d90565b6040516102459190612140565b60405180910390f35b34801561025a57600080fd5b506102756004803603610270919081019061195a565b610ffc565b6040516102829190612162565b60405180910390f35b6102a560048036036102a091908101906119ed565b611093565b6040516102b291906121e8565b60405180910390f35b3480156102c757600080fd5b506102e260048036036102dd919081019061195a565b611286565b6040516102ef9190612162565b60405180910390f35b34801561030457600080fd5b5061031f600480360361031a91908101906119c4565b61131d565b005b34801561032d57600080fd5b50610348600480360361034391908101906119ed565b61134f565b60405161035591906121e8565b60405180910390f35b34801561036a57600080fd5b50610385600480360361038091908101906119c4565b61140d565b005b61038f611519565b6004600083815260200190815260200160002060a06040519081016040529081600082015481526020016001820160009054906101000a900473ffffffffffffffffffffffffffffffffffffffff1673ffffffffffffffffffffffffffffffffffffffff1673ffffffffffffffffffffffffffffffffffffffff168152602001600282018054600181600116156101000203166002900480601f0160208091040260200160405190810160405280929190818152602001828054600181600116156101000203166002900480156104a75780601f1061047c576101008083540402835291602001916104a7565b820191906000526020600020905b81548152906001019060200180831161048a57829003601f168201915b50505050508152602001600382018054600181600116156101000203166002900480601f0160208091040260200160405190810160405280929190818152602001828054600181600116156101000203166002900480156105495780601f1061051e57610100808354040283529160200191610549565b820191906000526020600020905b81548152906001019060200180831161052c57829003601f168201915b505050505081526020016004820154815250509050919050565b60608082516040519080825280602002602001820160405280156105a157816020015b61058e61155f565b8152602001906001900390816105865790505b50905060008090505b835181101561073757600084828151811015156105c357fe5b9060200190602002015190506001600082815260200190815260200160002060c060405190810160405290816000820160009054906101000a900473ffffffffffffffffffffffffffffffffffffffff1673ffffffffffffffffffffffffffffffffffffffff1673ffffffffffffffffffffffffffffffffffffffff168152602001600182015481526020016002820154815260200160038201548152602001600482018054600181600116156101000203166002900480601f0160208091040260200160405190810160405280929190818152602001828054600181600116156101000203166002900480156106fb5780601f106106d0576101008083540402835291602001916106fb565b820191906000526020600020905b8154815290600101906020018083116106de57829003601f168201915b50505050508152602001600582015481525050838381518110151561071c57fe5b906020019060200201819052505080806001019150506105aa565b5080915050919050565b6000600460008481526020019081526020016000209050818160030190805190602001906107709291906115b5565b506107ff83606060405190810160405280602f81526020017f5468616e6b20796f7520666f7220796f75722070757263686173652e20506c6581526020017f61736520636865636b206974656d2e0000000000000000000000000000000000815250338460010160009054906101000a900473ffffffffffffffffffffffffffffffffffffffff166001610844565b507fa2b880b5ac38ac625decca4880208262a354ea5ee5bef8b6b107380857ea97058160000154848460405161083793929190612286565b60405180910390a1505050565b60008060076000600654815260200190815260200160002090508681600001819055508581600101908051906020019061087f929190611635565b50828160020160006101000a81548160ff021916908360038111156108a057fe5b021790555060008160020160016101000a81548160ff021916908315150217905550428160030181905550848160040160006101000a81548173ffffffffffffffffffffffffffffffffffffffff021916908373ffffffffffffffffffffffffffffffffffffffff160217905550838160050160006101000a81548173ffffffffffffffffffffffffffffffffffffffff021916908373ffffffffffffffffffffffffffffffffffffffff16021790555060066000815480929190600101919050559150600860008573ffffffffffffffffffffffffffffffffffffffff1673ffffffffffffffffffffffffffffffffffffffff1681526020019081526020016000208290806001815401808255809150509060018203906000526020600020016000909192909190915055508191505095945050505050565b6060808251604051908082528060200260200182016040528015610a1857816020015b610a056116b5565b8152602001906001900390816109fd5790505b50905060008090505b8351811015610c385760008482815181101515610a3a57fe5b9060200190602002015190506007600082815260200190815260200160002060e0604051908101604052908160008201548152602001600182018054600181600116156101000203166002900480601f016020809104026020016040519081016040528092919081815260200182805460018160011615610100020316600290048015610b085780601f10610add57610100808354040283529160200191610b08565b820191906000526020600020905b815481529060010190602001808311610aeb57829003601f168201915b505050505081526020016002820160009054906101000a900460ff166003811115610b2f57fe5b6003811115610b3a57fe5b81526020016002820160019054906101000a900460ff16151515158152602001600382015481526020016004820160009054906101000a900473ffffffffffffffffffffffffffffffffffffffff1673ffffffffffffffffffffffffffffffffffffffff1673ffffffffffffffffffffffffffffffffffffffff1681526020016005820160009054906101000a900473ffffffffffffffffffffffffffffffffffffffff1673ffffffffffffffffffffffffffffffffffffffff1673ffffffffffffffffffffffffffffffffffffffff16815250508383815181101515610c1d57fe5b90602001906020020181905250508080600101915050610a21565b5080915050919050565b610c4a61172c565b6001600083815260200190815260200160002060c060405190810160405290816000820160009054906101000a900473ffffffffffffffffffffffffffffffffffffffff1673ffffffffffffffffffffffffffffffffffffffff1673ffffffffffffffffffffffffffffffffffffffff168152602001600182015481526020016002820154815260200160038201548152602001600482018054600181600116156101000203166002900480601f016020809104026020016040519081016040528092919081815260200182805460018160011615610100020316600290048015610d765780601f10610d4b57610100808354040283529160200191610d76565b820191906000526020600020905b815481529060010190602001808311610d5957829003601f168201915b505050505081526020016005820154815250509050919050565b6060808251604051908082528060200260200182016040528015610dce57816020015b610dbb611782565b815260200190600190039081610db35790505b50905060008090505b8351811015610ff25760008482815181101515610df057fe5b9060200190602002015190506004600082815260200190815260200160002060a06040519081016040529081600082015481526020016001820160009054906101000a900473ffffffffffffffffffffffffffffffffffffffff1673ffffffffffffffffffffffffffffffffffffffff1673ffffffffffffffffffffffffffffffffffffffff168152602001600282018054600181600116156101000203166002900480601f016020809104026020016040519081016040528092919081815260200182805460018160011615610100020316600290048015610f145780601f10610ee957610100808354040283529160200191610f14565b820191906000526020600020905b815481529060010190602001808311610ef757829003601f168201915b50505050508152602001600382018054600181600116156101000203166002900480601f016020809104026020016040519081016040528092919081815260200182805460018160011615610100020316600290048015610fb65780601f10610f8b57610100808354040283529160200191610fb6565b820191906000526020600020905b815481529060010190602001808311610f9957829003601f168201915b505050505081526020016004820154815250508383815181101515610fd757fe5b90602001906020020181905250508080600101915050610dd7565b5080915050919050565b6060600260008373ffffffffffffffffffffffffffffffffffffffff1673ffffffffffffffffffffffffffffffffffffffff16815260200190815260200160002080548060200260200160405190810160405280929190818152602001828054801561108757602002820191906000526020600020905b815481526020019060010190808311611073575b50505050509050919050565b600061109d61172c565b6110a684610c42565b90508060200151341415156110f0576040517f08c379a00000000000000000000000000000000000000000000000000000000081526004016110e790612184565b60405180910390fd5b60006004600060035481526020019081526020016000209050848160000181905550338160010160006101000a81548173ffffffffffffffffffffffffffffffffffffffff021916908373ffffffffffffffffffffffffffffffffffffffff1602179055508381600201908051906020019061116d9291906115b5565b50428160040181905550600360008154809291906001019190505592506005600082600001548152602001908152602001600020839080600181540180825580915050906001820390600052602060002001600090919290919091505550611212836040805190810160405280601681526020017f50757263686173652077617320726571756573746564000000000000000000008152503385600001516000610844565b507fb2c74dd2211a23bb10cb03155b814763ac4e02b65ee4dc22bfc9ae52ec14fb808160000154848360010160009054906101000a900473ffffffffffffffffffffffffffffffffffffffff16846002016040516112739493929190612203565b60405180910390a1829250505092915050565b6060600860008373ffffffffffffffffffffffffffffffffffffffff1673ffffffffffffffffffffffffffffffffffffffff16815260200190815260200160002080548060200260200160405190810160405280929190818152602001828054801561131157602002820191906000526020600020905b8154815260200190600101908083116112fd575b50505050509050919050565b60016007600083815260200190815260200160002060020160016101000a81548160ff02191690831515021790555050565b6000611359611519565b61136284610387565b905061136c61172c565b6113798260000151610c42565b90506113c2856040805190810160405280601781526020017f507572636861736520776173206368616c6c656e6765640000000000000000008152503384600001516002610844565b507f66de457dd85ecfee23f212af1e25cf9e3cb118a7de6d9f046ce16f58b715ba63826000015186856040516113fa939291906122c4565b60405180910390a1829250505092915050565b611415611519565b61141e82610387565b905061142861172c565b6114358260000151610c42565b90506000816000015190508073ffffffffffffffffffffffffffffffffffffffff166108fc83602001519081150290604051600060405180830381858888f1935050505015801561148a573d6000803e3d6000fd5b506114d2846040805190810160405280601581526020017f50757263686173652077617320616363657074656400000000000000000000008152503385600001516003610844565b507f90467038d2e860e2611181a29c81cfdc1de0a12763a183f96f6148d2a3bcbb4b836000015185600160405161150b9392919061224f565b60405180910390a150505050565b60a06040519081016040528060008152602001600073ffffffffffffffffffffffffffffffffffffffff1681526020016060815260200160608152602001600081525090565b60c060405190810160405280600073ffffffffffffffffffffffffffffffffffffffff16815260200160008152602001600080191681526020016000801916815260200160608152602001600080191681525090565b828054600181600116156101000203166002900490600052602060002090601f016020900481019282601f106115f657805160ff1916838001178555611624565b82800160010185558215611624579182015b82811115611623578251825591602001919060010190611608565b5b50905061163191906117c8565b5090565b828054600181600116156101000203166002900490600052602060002090601f016020900481019282601f1061167657805160ff19168380011785556116a4565b828001600101855582156116a4579182015b828111156116a3578251825591602001919060010190611688565b5b5090506116b191906117c8565b5090565b60e0604051908101604052806000815260200160608152602001600060038111156116dc57fe5b815260200160001515815260200160008152602001600073ffffffffffffffffffffffffffffffffffffffff168152602001600073ffffffffffffffffffffffffffffffffffffffff1681525090565b60c060405190810160405280600073ffffffffffffffffffffffffffffffffffffffff16815260200160008152602001600080191681526020016000801916815260200160608152602001600080191681525090565b60a06040519081016040528060008152602001600073ffffffffffffffffffffffffffffffffffffffff1681526020016060815260200160608152602001600081525090565b6117ea91905b808211156117e65760008160009055506001016117ce565b5090565b90565b60006117f982356124e9565b905092915050565b600082601f830112151561181457600080fd5b813561182761182282612328565b6122fb565b9150818183526020840193506020810190508385602084028201111561184c57600080fd5b60005b8381101561187c57816118628882611946565b84526020840193506020830192505060018101905061184f565b5050505092915050565b600082601f830112151561189957600080fd5b81356118ac6118a782612350565b6122fb565b915080825260208301602083018583830111156118c857600080fd5b6118d3838284612530565b50505092915050565b60006118e882356124fb565b905092915050565b600082601f830112151561190357600080fd5b81356119166119118261237c565b6122fb565b9150808252602083016020830185838301111561193257600080fd5b61193d838284612530565b50505092915050565b60006119528235612514565b905092915050565b60006020828403121561196c57600080fd5b600061197a848285016117ed565b91505092915050565b60006020828403121561199557600080fd5b600082013567ffffffffffffffff8111156119af57600080fd5b6119bb84828501611801565b91505092915050565b6000602082840312156119d657600080fd5b60006119e484828501611946565b91505092915050565b60008060408385031215611a0057600080fd5b6000611a0e85828601611946565b925050602083013567ffffffffffffffff811115611a2b57600080fd5b611a3785828601611886565b9150509250929050565b600080600080600060a08688031215611a5957600080fd5b6000611a6788828901611946565b955050602086013567ffffffffffffffff811115611a8457600080fd5b611a90888289016118f0565b9450506040611aa1888289016117ed565b9350506060611ab2888289016117ed565b9250506080611ac3888289016118dc565b9150509295509295909350565b611ad981612481565b82525050565b611ae88161246f565b82525050565b6000611af9826123ee565b80845260208401935083602082028501611b12856123a8565b60005b84811015611b4b578383038852611b2d838351611ece565b9250611b388261243b565b9150602088019750600181019050611b15565b508196508694505050505092915050565b6000611b67826123f9565b80845260208401935083602082028501611b80856123b5565b60005b84811015611bb9578383038852611b9b838351611f57565b9250611ba682612448565b9150602088019750600181019050611b83565b508196508694505050505092915050565b6000611bd582612404565b80845260208401935083602082028501611bee856123c2565b60005b84811015611c27578383038852611c09838351612070565b9250611c1482612455565b9150602088019750600181019050611bf1565b508196508694505050505092915050565b6000611c438261240f565b808452602084019350611c55836123cf565b60005b82811015611c8757611c6b8683516120ed565b611c7482612462565b9150602086019550600181019050611c58565b50849250505092915050565b611c9c81612493565b82525050565b611cab8161249f565b82525050565b6000611cbc82612425565b808452611cd081602086016020860161253f565b611cd981612572565b602085010191505092915050565b6000611cf28261241a565b808452611d0681602086016020860161253f565b611d0f81612572565b602085010191505092915050565b600081546001811660008114611d3a5760018114611d5a57611d9b565b607f600283041680865260ff198316602087015260408601935050611d9b565b60028204808652602086019550611d70856123dc565b60005b82811015611d9257815481890152600182019150602081019050611d73565b80880195505050505b505092915050565b611dac8161251e565b82525050565b6000611dbd82612430565b808452611dd181602086016020860161253f565b611dda81612572565b602085010191505092915050565b6000602882527f416d6f756e742073686f756c6420626520657175616c20746f2074686520697460208301527f656d2070726963650000000000000000000000000000000000000000000000006040830152606082019050919050565b600060c083016000830151611e5d6000860182611ad0565b506020830151611e7060208601826120ed565b506040830151611e836040860182611ca2565b506060830151611e966060860182611ca2565b5060808301518482036080860152611eae8282611ce7565b91505060a0830151611ec360a0860182611ca2565b508091505092915050565b600060c083016000830151611ee66000860182611ad0565b506020830151611ef960208601826120ed565b506040830151611f0c6040860182611ca2565b506060830151611f1f6060860182611ca2565b5060808301518482036080860152611f378282611ce7565b91505060a0830151611f4c60a0860182611ca2565b508091505092915050565b600060e083016000830151611f6f60008601826120ed565b5060208301518482036020860152611f878282611db2565b9150506040830151611f9c6040860182611da3565b506060830151611faf6060860182611c93565b506080830151611fc260808601826120ed565b5060a0830151611fd560a0860182611adf565b5060c0830151611fe860c0860182611adf565b508091505092915050565b600060a08301600083015161200b60008601826120ed565b50602083015161201e6020860182611adf565b50604083015184820360408601526120368282611ce7565b915050606083015184820360608601526120508282611ce7565b915050608083015161206560808601826120ed565b508091505092915050565b600060a08301600083015161208860008601826120ed565b50602083015161209b6020860182611adf565b50604083015184820360408601526120b38282611ce7565b915050606083015184820360608601526120cd8282611ce7565b91505060808301516120e260808601826120ed565b508091505092915050565b6120f6816124df565b82525050565b600060208201905081810360008301526121168184611aee565b905092915050565b600060208201905081810360008301526121388184611b5c565b905092915050565b6000602082019050818103600083015261215a8184611bca565b905092915050565b6000602082019050818103600083015261217c8184611c38565b905092915050565b6000602082019050818103600083015261219d81611de8565b9050919050565b600060208201905081810360008301526121be8184611e45565b905092915050565b600060208201905081810360008301526121e08184611ff3565b905092915050565b60006020820190506121fd60008301846120ed565b92915050565b600060808201905061221860008301876120ed565b61222560208301866120ed565b6122326040830185611adf565b81810360608301526122448184611d1d565b905095945050505050565b600060608201905061226460008301866120ed565b61227160208301856120ed565b61227e6040830184611c93565b949350505050565b600060608201905061229b60008301866120ed565b6122a860208301856120ed565b81810360408301526122ba8184611cb1565b9050949350505050565b60006060820190506122d960008301866120ed565b6122e660208301856120ed565b6122f360408301846120ed565b949350505050565b6000604051905081810181811067ffffffffffffffff8211171561231e57600080fd5b8060405250919050565b600067ffffffffffffffff82111561233f57600080fd5b602082029050602081019050919050565b600067ffffffffffffffff82111561236757600080fd5b601f19601f8301169050602081019050919050565b600067ffffffffffffffff82111561239357600080fd5b601f19601f8301169050602081019050919050565b6000602082019050919050565b6000602082019050919050565b6000602082019050919050565b6000602082019050919050565b60008160005260206000209050919050565b600081519050919050565b600081519050919050565b600081519050919050565b600081519050919050565b600081519050919050565b600081519050919050565b600081519050919050565b6000602082019050919050565b6000602082019050919050565b6000602082019050919050565b6000602082019050919050565b600061247a826124bf565b9050919050565b600061248c826124bf565b9050919050565b60008115159050919050565b6000819050919050565b60006004821015156124b757fe5b819050919050565b600073ffffffffffffffffffffffffffffffffffffffff82169050919050565b6000819050919050565b60006124f4826124bf565b9050919050565b600060048210151561250c57600080fd5b819050919050565b6000819050919050565b6000612529826124a9565b9050919050565b82818337600083830152505050565b60005b8381101561255d578082015181840152602081019050612542565b8381111561256c576000848401525b50505050565b6000601f19601f830116905091905056fea265627a7a72305820fc1637b4a7d3a9748bc194e84d1f49241fdf962b3741069b076b89bef92aa8be6c6578706572696d656e74616cf50037",
  "source": "pragma solidity ^0.5.1;\npragma experimental ABIEncoderV2;\n\ncontract ContentMarketplace {\n\n    /// @notice records necessary information for an advertisement\n    struct Advertisement {\n        address payable seller;       // seller address\n        uint256 price;                // trade price\n        bytes32 dataHash;             // merkle hash of unencrypted data\n        bytes32 encryptedDataHash;    // merkle hash of encrypted data\n        bytes ipfsPath;               // ipfs path of encrypted data\n        bytes32 testTemplateHash;     // hash of the machine representing the test procedure for decrypted data\n    }\n\n    /// @notice records information regarding a purchase\n    struct Purchase {\n        uint256 adId;\n        address buyer;\n        bytes buyerKey;\n        bytes encryptedDataKey;\n        uint256 date;\n    }\n\n    enum NotificationType { Request, Accept_A, Challenge, Accept_B }\n    // @notice full representation of a notification\n    struct Notification {\n        uint256 purchaseId;       // purchase information\n        string message;           // generic message\n        NotificationType nType;   // type of notification\n        bool archive;             // archived notification\n        uint256 date;             // notification date\n        address sender;           // notification from address\n        address receiver;         // notification to address\n    }\n\n    // storage of advertisements\n    uint256 numAds = 0;\n    mapping(uint256 => Advertisement) internal ads;\n    mapping(address => uint256[]) internal adsPerSeller;\n\n    // storage of purchases\n    uint256 numPurchases = 0;\n    mapping(uint256 => Purchase) internal purchases;\n    mapping(uint256 => uint256[]) internal purchasesPerAd;\n\n    // storage of notifications\n    uint256 numNotifications = 0;\n    mapping(uint256 => Notification) notifications;\n    mapping(address => uint256[]) notificationsPerUser;\n\n    // purchase events\n    event PurchaseRequested(uint256 adId, uint256 purchaseId, address buyer, bytes buyerKey);\n    event PurchaseAccepted(uint256 adId, uint256 purchaseId, bytes encryptedDataKey);\n    event PurchaseChallenged(uint256 adId, uint256 purchaseId, uint256 descartesIndex);\n    event PurchaseFinalized(uint256 adId, uint256 purchaseId, bool isSuccess);\n\n\n    /// @param descartesAddress address of the Descartes contract\n    constructor(address descartesAddress) public {\n        // TODO retrieve Descartes interface from the address\n    }\n\n    /// @notice creates a new advertisement for published and encrypted content\n    function createAd(\n        uint256 _price,                // trade price\n        bytes32 _dataHash,             // merkle hash of unencrypted data\n        bytes32 _encryptedDataHash,    // merkle hash of encrypted data\n        bytes memory _ipfsPath,        // ipfs path of encrypted data\n        bytes32 _testTemplateHash      // hash of the machine representing the test procedure for decrypted data\n    ) internal\n        returns (uint256 adId)          // returns ad identifier\n    {\n        Advertisement storage ad = ads[numAds];\n        ad.seller = msg.sender;\n        ad.price = _price;\n        ad.dataHash = _dataHash;\n        ad.encryptedDataHash = _encryptedDataHash;\n        ad.ipfsPath = _ipfsPath;\n        ad.testTemplateHash = _testTemplateHash;\n\n        adId = numAds++;\n        adsPerSeller[ad.seller].push(adId);\n\n        return adId;\n    }\n\n    /// @notice retrieves an advertisement given its identifier\n    function getAd(uint256 _adId) public view\n        returns (Advertisement memory)\n    {\n        return ads[_adId];\n    }\n\n    /// @notice retrieves an array of advertisements given their identifiers\n    function getAds(uint256[] memory _adIds) public view\n        returns (Advertisement[] memory)\n    {\n        Advertisement[] memory ret = new Advertisement[](_adIds.length);\n        for(uint256 i = 0; i < _adIds.length; i++) {\n            uint256 id = _adIds[i];\n            ret[i] = ads[id];\n        }\n        return ret;\n    }\n\n    /// @notice returns identifiers for a seller's advertisements\n    function listAdsPerSeller(address _seller) public view\n        returns (uint256[] memory)\n    {\n        return adsPerSeller[_seller];\n    }\n\n    /// @notice retrieves a purchase given its identifier\n    function getPurchase(uint256 _purchaseId) public view\n        returns (Purchase memory)\n    {\n        return purchases[_purchaseId];\n    }\n\n    /// @notice retrieves an advertisement given its identifier\n    function getPurchases(uint256[] memory _purchaseIds) public view\n        returns (Purchase[] memory)\n    {\n        Purchase[] memory ret = new Purchase[](_purchaseIds.length);\n        for(uint256 i = 0; i < _purchaseIds.length; i++) {\n            uint256 id = _purchaseIds[i];\n            ret[i] = purchases[id];\n        }\n        return ret;\n    }\n\n    /// @notice requests purchase of a registered advertisement\n    function requestPurchase(\n        uint256 _adId,                 // ad identifier\n        bytes memory _buyerKey         // buyer's public key used for encrypting messages so that only the buyer can see\n    ) public\n        payable                        // funds matching ad price, which will be locked until purchase is finalized\n        returns (uint256 purchaseId)   // returns purchase request identifier\n    {\n        // TODO: ensure ad exists\n        // TODO: ensure funds are adequade\n        Advertisement memory ad = getAd(_adId);\n        require(msg.value == (ad.price),\"Amount should be equal to the item price\");\n\n        // stores purchase info\n        Purchase storage purchase = purchases[numPurchases];\n        purchase.adId = _adId;\n        purchase.buyer = msg.sender;\n        purchase.buyerKey = _buyerKey;\n        purchase.date = now;\n\n        purchaseId = numPurchases++;\n        purchasesPerAd[purchase.adId].push(purchaseId);\n\n        newNotification(purchaseId, \"Purchase was requested\", msg.sender, ad.seller, NotificationType.Request);\n\n        emit PurchaseRequested(purchase.adId, purchaseId, purchase.buyer, purchase.buyerKey);\n        return purchaseId;\n    }\n\n    /// @notice called by seller to accept a purchase request for a registered advertisement\n    function acceptPurchase(\n        uint256 _purchaseId,           // purchase request identifier\n        bytes memory _encryptedDataKey // key for decrypting data, encrypted using buyer's public key\n    ) public\n        payable                        // deposit sent by the seller that will be locked until purchase is finalized\n    {\n        // TODO...\n\n        Purchase storage purchase = purchases[_purchaseId];\n        purchase.encryptedDataKey = _encryptedDataKey;\n\n        newNotification(_purchaseId, \"Thank you for your purchase. Please check item.\", msg.sender, purchase.buyer, NotificationType.Accept_A);\n    \n        emit PurchaseAccepted(purchase.adId, _purchaseId, _encryptedDataKey);\n    }\n\n\n    /// @notice called by buyer to challenge a purchase, stating that content could not be retrieved\n    function challengePurchase(\n        uint256 _purchaseId,           // purchase request identifier\n        bytes memory _privateKey       // buyer's private key used to decrypt the data key\n    ) public\n        returns (uint256 descartesIndex)  // returns index of the descartes computation that will verify the challenge\n    {\n        // TODO...\n\n        Purchase memory purchase = getPurchase(_purchaseId);\n        Advertisement memory ad = getAd(purchase.adId);\n\n        newNotification(_purchaseId, \"Purchase was challenged\", msg.sender, ad.seller, NotificationType.Challenge);\n\n        emit PurchaseChallenged(purchase.adId, _purchaseId, descartesIndex);\n        return descartesIndex;\n    }\n\n    /// @notice finalizes purchase, unlocking buyer's funds and seller's deposit as appropriate\n    function finalizePurchase(\n        uint256 _purchaseId            // purchase request identifier\n    ) public {\n        // TODO...\n        Purchase memory purchase = getPurchase(_purchaseId);\n        Advertisement memory ad = getAd(purchase.adId);\n\n        address payable accountAddress = ad.seller;\n        accountAddress.transfer(ad.price);\n\n        newNotification(_purchaseId, \"Purchase was accepted\", msg.sender, ad.seller, NotificationType.Accept_B);\n\n        emit PurchaseFinalized(purchase.adId, _purchaseId, true); \n    }\n\n    // @notice create notification\n    function newNotification(\n        uint256 _purchaseId,           // purchase request identifier\n        string memory _message,        // generic message\n        address _sender,               // who sends the message\n        address _receiver,             // who receives the message\n        NotificationType _type         // type of notification\n    ) public\n        returns (uint256 notificationId)           // returns notification identifier\n    {\n        Notification storage notification = notifications[numNotifications];\n        notification.purchaseId = _purchaseId;\n        notification.message = _message;\n        notification.nType = _type;\n        notification.archive = false;\n        notification.date = now;\n        notification.sender = _sender;\n        notification.receiver = _receiver;\n\n        notificationId = numNotifications++;\n        //notificationsPerSeller[ads[purchases[_purchaseId].adId].seller].push(notificationId);\n        notificationsPerUser[_receiver].push(notificationId);\n\n        return notificationId;\n    }\n\n    /// @notice retrieves an array of notifications given their identifiers\n    function getNotifications(uint256[] memory _notificationIds) public view\n        returns (Notification[] memory)\n    {\n        Notification[] memory ret = new Notification[](_notificationIds.length);\n        for(uint256 i = 0; i < _notificationIds.length; i++) {\n            uint256 id = _notificationIds[i];\n            ret[i] = notifications[id];\n        }\n        return ret;\n    }\n\n    /// @notice returns identifiers for a seller's notifications\n    function listNotificationsPerUser(address _user) public view\n        returns (uint256[] memory)\n    {\n        return notificationsPerUser[_user];\n    }\n\n    function archiveNotification(uint256 _notificationId) public {\n        notifications[_notificationId].archive = true;\n    }\n\n}\n",
  "sourcePath": "/home/miguel/Documents/TokenWised/Marketplace/market-dapp/backend/contracts/ContentMarketplace.sol",
  "compiler": {
    "name": "solc",
    "version": "0.5.1+commit.c8a2cb62.Emscripten.clang"
  },
  "schemaVersion": "3.3.2",
  "updatedAt": "2021-01-27T00:36:03.599Z",
  "devdoc": {
    "methods": {
      "constructor": {
        "params": {
          "descartesAddress": "address of the Descartes contract"
        }
      }
    }
  },
  "userdoc": {
    "methods": {
      "acceptPurchase(uint256,bytes)": {
        "notice": "called by seller to accept a purchase request for a registered advertisement"
      },
      "challengePurchase(uint256,bytes)": {
        "notice": "called by buyer to challenge a purchase, stating that content could not be retrieved"
      },
      "finalizePurchase(uint256)": {
        "notice": "finalizes purchase, unlocking buyer's funds and seller's deposit as appropriate"
      },
      "getAd(uint256)": {
        "notice": "retrieves an advertisement given its identifier"
      },
      "getAds(uint256[])": {
        "notice": "retrieves an array of advertisements given their identifiers"
      },
      "getNotifications(uint256[])": {
        "notice": "retrieves an array of notifications given their identifiers"
      },
      "getPurchase(uint256)": {
        "notice": "retrieves a purchase given its identifier"
      },
      "getPurchases(uint256[])": {
        "notice": "retrieves an advertisement given its identifier"
      },
      "listAdsPerSeller(address)": {
        "notice": "returns identifiers for a seller's advertisements"
      },
      "listNotificationsPerUser(address)": {
        "notice": "returns identifiers for a seller's notifications"
      },
      "requestPurchase(uint256,bytes)": {
        "notice": "requests purchase of a registered advertisement"
      }
    }
  }
}