{
  "contractName": "IPFSInbox",
  "abi": [
    {
      "inputs": [],
      "payable": false,
      "stateMutability": "nonpayable",
      "type": "constructor"
    },
    {
      "anonymous": false,
      "inputs": [
        {
          "indexed": false,
          "internalType": "string",
          "name": "response",
          "type": "string"
        }
      ],
      "name": "inboxResponse",
      "type": "event"
    },
    {
      "anonymous": false,
      "inputs": [
        {
          "indexed": false,
          "internalType": "string",
          "name": "_ipfsHash",
          "type": "string"
        },
        {
          "indexed": false,
          "internalType": "address",
          "name": "_address",
          "type": "address"
        }
      ],
      "name": "ipfsSent",
      "type": "event"
    },
    {
      "constant": false,
      "inputs": [
        {
          "internalType": "address",
          "name": "_address",
          "type": "address"
        },
        {
          "internalType": "string",
          "name": "_ipfsHash",
          "type": "string"
        },
        {
          "internalType": "uint256",
          "name": "_filePrice",
          "type": "uint256"
        }
      ],
      "name": "saveIPFS",
      "outputs": [],
      "payable": false,
      "stateMutability": "nonpayable",
      "type": "function"
    },
    {
      "constant": true,
      "inputs": [],
      "name": "getNumberItems",
      "outputs": [
        {
          "internalType": "uint256",
          "name": "",
          "type": "uint256"
        }
      ],
      "payable": false,
      "stateMutability": "view",
      "type": "function"
    },
    {
      "constant": true,
      "inputs": [],
      "name": "getNumberVendors",
      "outputs": [
        {
          "internalType": "uint256",
          "name": "",
          "type": "uint256"
        }
      ],
      "payable": false,
      "stateMutability": "view",
      "type": "function"
    },
    {
      "constant": true,
      "inputs": [
        {
          "internalType": "address",
          "name": "_address",
          "type": "address"
        }
      ],
      "name": "getItemsFromVendor",
      "outputs": [
        {
          "internalType": "string[]",
          "name": "",
          "type": "string[]"
        }
      ],
      "payable": false,
      "stateMutability": "view",
      "type": "function"
    },
    {
      "constant": true,
      "inputs": [],
      "name": "getItems",
      "outputs": [
        {
          "internalType": "string[]",
          "name": "",
          "type": "string[]"
        }
      ],
      "payable": false,
      "stateMutability": "view",
      "type": "function"
    }
  ],
  "bytecode": "0x608060405234801561001057600080fd5b50610a92806100206000396000f3fe608060405234801561001057600080fd5b50600436106100575760003560e01c80633e1e355a1461005c578063410d59cc14610078578063a3ccc13c14610096578063a91dc604146100b4578063fe9e1b53146100e4575b600080fd5b61007660048036036100719190810190610711565b610102565b005b6100806102fc565b60405161008d9190610891565b60405180910390f35b61009e6103e5565b6040516100ab91906108b3565b60405180910390f35b6100ce60048036036100c991908101906106e8565b6103f2565b6040516100db9190610891565b60405180910390f35b6100ec610519565b6040516100f991906108b3565b60405180910390f35b6000808473ffffffffffffffffffffffffffffffffffffffff1673ffffffffffffffffffffffffffffffffffffffff16815260200190815260200160002082908060018154018082558091505090600182039060005260206000200160009091929091909150908051906020019061017b9291906105c5565b50508060018360405161018e919061087a565b90815260200160405180910390208190555060048290806001815401808255809150509060018203906000526020600020016000909192909190915090805190602001906101dd9291906105c5565b505060001515600260008573ffffffffffffffffffffffffffffffffffffffff1673ffffffffffffffffffffffffffffffffffffffff16815260200190815260200160002060009054906101000a900460ff16151514156102f7576001600260008573ffffffffffffffffffffffffffffffffffffffff1673ffffffffffffffffffffffffffffffffffffffff16815260200190815260200160002060006101000a81548160ff02191690831515021790555060038390806001815401808255809150509060018203906000526020600020016000909192909190916101000a81548173ffffffffffffffffffffffffffffffffffffffff021916908373ffffffffffffffffffffffffffffffffffffffff160217905550505b505050565b60606004805480602002602001604051908101604052809291908181526020016000905b828210156103dc578382906000526020600020018054600181600116156101000203166002900480601f0160208091040260200160405190810160405280929190818152602001828054600181600116156101000203166002900480156103c85780601f1061039d576101008083540402835291602001916103c8565b820191906000526020600020905b8154815290600101906020018083116103ab57829003601f168201915b505050505081526020019060010190610320565b50505050905090565b6000600380549050905090565b60606000808373ffffffffffffffffffffffffffffffffffffffff1673ffffffffffffffffffffffffffffffffffffffff168152602001908152602001600020805480602002602001604051908101604052809291908181526020016000905b8282101561050e578382906000526020600020018054600181600116156101000203166002900480601f0160208091040260200160405190810160405280929190818152602001828054600181600116156101000203166002900480156104fa5780601f106104cf576101008083540402835291602001916104fa565b820191906000526020600020905b8154815290600101906020018083116104dd57829003601f168201915b505050505081526020019060010190610452565b505050509050919050565b6000806000905060008090505b6003805490508110156105bd576000806003838154811061054357fe5b9060005260206000200160009054906101000a900473ffffffffffffffffffffffffffffffffffffffff1673ffffffffffffffffffffffffffffffffffffffff1673ffffffffffffffffffffffffffffffffffffffff16815260200190815260200160002080549050820191508080600101915050610526565b508091505090565b828054600181600116156101000203166002900490600052602060002090601f016020900481019282601f1061060657805160ff1916838001178555610634565b82800160010185558215610634579182015b82811115610633578251825591602001919060010190610618565b5b5090506106419190610645565b5090565b61066791905b8082111561066357600081600090555060010161064b565b5090565b90565b60008135905061067981610a21565b92915050565b600082601f83011261069057600080fd5b81356106a361069e826108fb565b6108ce565b915080825260208301602083018583830111156106bf57600080fd5b6106ca8382846109ce565b50505092915050565b6000813590506106e281610a38565b92915050565b6000602082840312156106fa57600080fd5b60006107088482850161066a565b91505092915050565b60008060006060848603121561072657600080fd5b60006107348682870161066a565b935050602084013567ffffffffffffffff81111561075157600080fd5b61075d8682870161067f565b925050604061076e868287016106d3565b9150509250925092565b60006107848383610832565b905092915050565b600061079782610937565b6107a18185610965565b9350836020820285016107b385610927565b8060005b858110156107ef57848403895281516107d08582610778565b94506107db83610958565b925060208a019950506001810190506107b7565b50829750879550505050505092915050565b600061080c8261094d565b6108168185610987565b93506108268185602086016109dd565b80840191505092915050565b600061083d82610942565b6108478185610976565b93506108578185602086016109dd565b61086081610a10565b840191505092915050565b610874816109c4565b82525050565b60006108868284610801565b915081905092915050565b600060208201905081810360008301526108ab818461078c565b905092915050565b60006020820190506108c8600083018461086b565b92915050565b6000604051905081810181811067ffffffffffffffff821117156108f157600080fd5b8060405250919050565b600067ffffffffffffffff82111561091257600080fd5b601f19601f8301169050602081019050919050565b6000819050602082019050919050565b600081519050919050565b600081519050919050565b600081519050919050565b6000602082019050919050565b600082825260208201905092915050565b600082825260208201905092915050565b600081905092915050565b600061099d826109a4565b9050919050565b600073ffffffffffffffffffffffffffffffffffffffff82169050919050565b6000819050919050565b82818337600083830152505050565b60005b838110156109fb5780820151818401526020810190506109e0565b83811115610a0a576000848401525b50505050565b6000601f19601f8301169050919050565b610a2a81610992565b8114610a3557600080fd5b50565b610a41816109c4565b8114610a4c57600080fd5b5056fea365627a7a723158204c0d50d0f683587dff8fe7642608562842e8fa72613d6c643d64ba7426b705296c6578706572696d656e74616cf564736f6c63430005100040",
  "source": "pragma solidity >0.5.2;\r\npragma experimental ABIEncoderV2;\r\n\r\ncontract IPFSInbox {    \r\n    \r\n    mapping (address => string[]) ipfsInbox;\r\n    mapping (string => uint256) fileIpfsPrice;\r\n    mapping (address => bool) userExists;\r\n    \r\n    address[] private userAddresses;\r\n    string[] private ipfsList;\r\n    \r\n    // Events\r\n    event ipfsSent(string _ipfsHash, address _address);\r\n    event inboxResponse(string response);    \r\n    \r\n    \r\n    // An empty constructor that creates an instance of the contract\r\n    constructor() public {}    \r\n    \r\n    \r\n    function saveIPFS(address _address, string memory _ipfsHash, uint256 _filePrice) public {\r\n        ipfsInbox[_address].push(_ipfsHash);\r\n        fileIpfsPrice[_ipfsHash] = _filePrice;\r\n        ipfsList.push(_ipfsHash);\r\n        if(userExists[_address] == false) {\r\n            userExists[_address] = true;\r\n            userAddresses.push(_address);    \r\n        }\r\n        \r\n    }\r\n    \r\n    function getNumberItems()  public view returns(uint256){\r\n        uint256 items_length = 0;\r\n        for(uint256 i = 0; i < userAddresses.length; i++) {\r\n            items_length += ipfsInbox[userAddresses[i]].length;\r\n        }\r\n        \r\n        return items_length;\r\n    }\r\n    \r\n    \r\n    function getNumberVendors() public view returns(uint256) {\r\n        return userAddresses.length;\r\n    }\r\n    \r\n    \r\n    function getItemsFromVendor(address _address) public view returns(string[] memory) {\r\n        return ipfsInbox[_address];\r\n    }\r\n    \r\n    function getItems() public view returns(string[] memory) {\r\n        return ipfsList;\r\n    }\r\n}",
  "sourcePath": "C:/Users/afons/Documents/Development/ipfs/backend/contracts/IPFSInbox.sol",
  "compiler": {
    "name": "solc",
    "version": "0.5.16+commit.9c3226ce.Emscripten.clang"
  },
  "schemaVersion": "3.3.2",
  "updatedAt": "2020-11-25T21:53:04.182Z",
  "networkType": "ethereum",
  "devdoc": {
    "methods": {}
  },
  "userdoc": {
    "methods": {}
  }
}