{
  "contractName": "STMarketplace",
  "abi": [
    {
      "constant": true,
      "inputs": [
        {
          "name": "_purchaseId",
          "type": "uint256"
        }
      ],
      "name": "getPurchase",
      "outputs": [
        {
          "components": [
            {
              "name": "adId",
              "type": "uint256"
            },
            {
              "name": "buyer",
              "type": "address"
            },
            {
              "name": "buyerKey",
              "type": "bytes"
            },
            {
              "name": "encryptedDataKey",
              "type": "bytes"
            },
            {
              "name": "date",
              "type": "uint256"
            }
          ],
          "name": "",
          "type": "tuple"
        }
      ],
      "payable": false,
      "stateMutability": "view",
      "type": "function"
    },
    {
      "constant": true,
      "inputs": [
        {
          "name": "_adIds",
          "type": "uint256[]"
        }
      ],
      "name": "getAds",
      "outputs": [
        {
          "components": [
            {
              "name": "seller",
              "type": "address"
            },
            {
              "name": "price",
              "type": "uint256"
            },
            {
              "name": "dataHash",
              "type": "bytes32"
            },
            {
              "name": "encryptedDataHash",
              "type": "bytes32"
            },
            {
              "name": "ipfsPath",
              "type": "bytes"
            },
            {
              "name": "testTemplateHash",
              "type": "bytes32"
            }
          ],
          "name": "",
          "type": "tuple[]"
        }
      ],
      "payable": false,
      "stateMutability": "view",
      "type": "function"
    },
    {
      "constant": false,
      "inputs": [
        {
          "name": "_purchaseId",
          "type": "uint256"
        },
        {
          "name": "_encryptedDataKey",
          "type": "bytes"
        }
      ],
      "name": "acceptPurchase",
      "outputs": [],
      "payable": true,
      "stateMutability": "payable",
      "type": "function"
    },
    {
      "constant": false,
      "inputs": [
        {
          "name": "_purchaseId",
          "type": "uint256"
        },
        {
          "name": "_message",
          "type": "string"
        },
        {
          "name": "_sender",
          "type": "address"
        },
        {
          "name": "_receiver",
          "type": "address"
        },
        {
          "name": "_type",
          "type": "uint8"
        }
      ],
      "name": "newNotification",
      "outputs": [
        {
          "name": "notificationId",
          "type": "uint256"
        }
      ],
      "payable": false,
      "stateMutability": "nonpayable",
      "type": "function"
    },
    {
      "constant": true,
      "inputs": [
        {
          "name": "_notificationIds",
          "type": "uint256[]"
        }
      ],
      "name": "getNotifications",
      "outputs": [
        {
          "components": [
            {
              "name": "purchaseId",
              "type": "uint256"
            },
            {
              "name": "message",
              "type": "string"
            },
            {
              "name": "nType",
              "type": "uint8"
            },
            {
              "name": "archive",
              "type": "bool"
            },
            {
              "name": "date",
              "type": "uint256"
            },
            {
              "name": "sender",
              "type": "address"
            },
            {
              "name": "receiver",
              "type": "address"
            }
          ],
          "name": "",
          "type": "tuple[]"
        }
      ],
      "payable": false,
      "stateMutability": "view",
      "type": "function"
    },
    {
      "constant": true,
      "inputs": [
        {
          "name": "_adId",
          "type": "uint256"
        }
      ],
      "name": "getAd",
      "outputs": [
        {
          "components": [
            {
              "name": "seller",
              "type": "address"
            },
            {
              "name": "price",
              "type": "uint256"
            },
            {
              "name": "dataHash",
              "type": "bytes32"
            },
            {
              "name": "encryptedDataHash",
              "type": "bytes32"
            },
            {
              "name": "ipfsPath",
              "type": "bytes"
            },
            {
              "name": "testTemplateHash",
              "type": "bytes32"
            }
          ],
          "name": "",
          "type": "tuple"
        }
      ],
      "payable": false,
      "stateMutability": "view",
      "type": "function"
    },
    {
      "constant": true,
      "inputs": [
        {
          "name": "_purchaseIds",
          "type": "uint256[]"
        }
      ],
      "name": "getPurchases",
      "outputs": [
        {
          "components": [
            {
              "name": "adId",
              "type": "uint256"
            },
            {
              "name": "buyer",
              "type": "address"
            },
            {
              "name": "buyerKey",
              "type": "bytes"
            },
            {
              "name": "encryptedDataKey",
              "type": "bytes"
            },
            {
              "name": "date",
              "type": "uint256"
            }
          ],
          "name": "",
          "type": "tuple[]"
        }
      ],
      "payable": false,
      "stateMutability": "view",
      "type": "function"
    },
    {
      "constant": true,
      "inputs": [
        {
          "name": "_seller",
          "type": "address"
        }
      ],
      "name": "listAdsPerSeller",
      "outputs": [
        {
          "name": "",
          "type": "uint256[]"
        }
      ],
      "payable": false,
      "stateMutability": "view",
      "type": "function"
    },
    {
      "constant": false,
      "inputs": [
        {
          "name": "_adId",
          "type": "uint256"
        },
        {
          "name": "_buyerKey",
          "type": "bytes"
        }
      ],
      "name": "requestPurchase",
      "outputs": [
        {
          "name": "purchaseId",
          "type": "uint256"
        }
      ],
      "payable": true,
      "stateMutability": "payable",
      "type": "function"
    },
    {
      "constant": true,
      "inputs": [
        {
          "name": "_user",
          "type": "address"
        }
      ],
      "name": "listNotificationsPerUser",
      "outputs": [
        {
          "name": "",
          "type": "uint256[]"
        }
      ],
      "payable": false,
      "stateMutability": "view",
      "type": "function"
    },
    {
      "constant": false,
      "inputs": [
        {
          "name": "_notificationId",
          "type": "uint256"
        }
      ],
      "name": "archiveNotification",
      "outputs": [],
      "payable": false,
      "stateMutability": "nonpayable",
      "type": "function"
    },
    {
      "constant": false,
      "inputs": [
        {
          "name": "_purchaseId",
          "type": "uint256"
        },
        {
          "name": "_privateKey",
          "type": "bytes"
        }
      ],
      "name": "challengePurchase",
      "outputs": [
        {
          "name": "descartesIndex",
          "type": "uint256"
        }
      ],
      "payable": false,
      "stateMutability": "nonpayable",
      "type": "function"
    },
    {
      "constant": false,
      "inputs": [
        {
          "name": "_purchaseId",
          "type": "uint256"
        }
      ],
      "name": "finalizePurchase",
      "outputs": [],
      "payable": false,
      "stateMutability": "nonpayable",
      "type": "function"
    },
    {
      "inputs": [
        {
          "name": "descartesAddress",
          "type": "address"
        }
      ],
      "payable": false,
      "stateMutability": "nonpayable",
      "type": "constructor"
    },
    {
      "anonymous": false,
      "inputs": [
        {
          "indexed": false,
          "name": "_address",
          "type": "address"
        },
        {
          "indexed": false,
          "name": "_ipfsPath",
          "type": "bytes"
        },
        {
          "indexed": false,
          "name": "_carBrand",
          "type": "string"
        },
        {
          "indexed": false,
          "name": "_track",
          "type": "string"
        },
        {
          "indexed": false,
          "name": "_simulator",
          "type": "string"
        },
        {
          "indexed": false,
          "name": "_season",
          "type": "string"
        },
        {
          "indexed": false,
          "name": "_price",
          "type": "uint256"
        }
      ],
      "name": "carSetupSaved",
      "type": "event"
    },
    {
      "anonymous": false,
      "inputs": [
        {
          "indexed": false,
          "name": "_address",
          "type": "address"
        },
        {
          "indexed": false,
          "name": "_ipfsPath",
          "type": "bytes"
        },
        {
          "indexed": false,
          "name": "_carBrand",
          "type": "string"
        },
        {
          "indexed": false,
          "name": "_simulator",
          "type": "string"
        },
        {
          "indexed": false,
          "name": "_price",
          "type": "uint256"
        }
      ],
      "name": "skinSaved",
      "type": "event"
    },
    {
      "anonymous": false,
      "inputs": [
        {
          "indexed": false,
          "name": "adId",
          "type": "uint256"
        },
        {
          "indexed": false,
          "name": "purchaseId",
          "type": "uint256"
        },
        {
          "indexed": false,
          "name": "buyer",
          "type": "address"
        },
        {
          "indexed": false,
          "name": "buyerKey",
          "type": "bytes"
        }
      ],
      "name": "PurchaseRequested",
      "type": "event"
    },
    {
      "anonymous": false,
      "inputs": [
        {
          "indexed": false,
          "name": "adId",
          "type": "uint256"
        },
        {
          "indexed": false,
          "name": "purchaseId",
          "type": "uint256"
        },
        {
          "indexed": false,
          "name": "encryptedDataKey",
          "type": "bytes"
        }
      ],
      "name": "PurchaseAccepted",
      "type": "event"
    },
    {
      "anonymous": false,
      "inputs": [
        {
          "indexed": false,
          "name": "adId",
          "type": "uint256"
        },
        {
          "indexed": false,
          "name": "purchaseId",
          "type": "uint256"
        },
        {
          "indexed": false,
          "name": "descartesIndex",
          "type": "uint256"
        }
      ],
      "name": "PurchaseChallenged",
      "type": "event"
    },
    {
      "anonymous": false,
      "inputs": [
        {
          "indexed": false,
          "name": "adId",
          "type": "uint256"
        },
        {
          "indexed": false,
          "name": "purchaseId",
          "type": "uint256"
        },
        {
          "indexed": false,
          "name": "isSuccess",
          "type": "bool"
        }
      ],
      "name": "PurchaseFinalized",
      "type": "event"
    },
    {
      "constant": false,
      "inputs": [
        {
          "name": "_ipfsPath",
          "type": "bytes"
        },
        {
          "name": "_carBrand",
          "type": "string"
        },
        {
          "name": "_track",
          "type": "string"
        },
        {
          "name": "_simulator",
          "type": "string"
        },
        {
          "name": "_season",
          "type": "string"
        },
        {
          "name": "_series",
          "type": "string"
        },
        {
          "name": "_description",
          "type": "string"
        },
        {
          "name": "_price",
          "type": "uint256"
        },
        {
          "name": "_dataHash",
          "type": "bytes32"
        },
        {
          "name": "_encryptedDataHash",
          "type": "bytes32"
        },
        {
          "name": "_nickname",
          "type": "string"
        }
      ],
      "name": "newCarSetup",
      "outputs": [
        {
          "name": "id",
          "type": "uint256"
        }
      ],
      "payable": false,
      "stateMutability": "nonpayable",
      "type": "function"
    },
    {
      "constant": false,
      "inputs": [
        {
          "name": "_ipfsPath",
          "type": "bytes"
        },
        {
          "name": "_carBrand",
          "type": "string"
        },
        {
          "name": "_simulator",
          "type": "string"
        },
        {
          "name": "_price",
          "type": "uint256"
        },
        {
          "name": "_dataHash",
          "type": "bytes32"
        },
        {
          "name": "_encryptedDataHash",
          "type": "bytes32"
        },
        {
          "name": "_nickname",
          "type": "string"
        }
      ],
      "name": "newSkin",
      "outputs": [
        {
          "name": "id",
          "type": "uint256"
        }
      ],
      "payable": false,
      "stateMutability": "nonpayable",
      "type": "function"
    },
    {
      "constant": false,
      "inputs": [
        {
          "name": "_address",
          "type": "address"
        },
        {
          "name": "_nickname",
          "type": "string"
        }
      ],
      "name": "saveSeller",
      "outputs": [
        {
          "name": "",
          "type": "bool"
        }
      ],
      "payable": false,
      "stateMutability": "nonpayable",
      "type": "function"
    },
    {
      "constant": false,
      "inputs": [
        {
          "name": "_address",
          "type": "address"
        }
      ],
      "name": "getNickname",
      "outputs": [
        {
          "name": "",
          "type": "string"
        }
      ],
      "payable": false,
      "stateMutability": "nonpayable",
      "type": "function"
    },
    {
      "constant": true,
      "inputs": [],
      "name": "getCarSetups",
      "outputs": [
        {
          "components": [
            {
              "name": "id",
              "type": "uint256"
            },
            {
              "components": [
                {
                  "name": "seller",
                  "type": "address"
                },
                {
                  "name": "price",
                  "type": "uint256"
                },
                {
                  "name": "dataHash",
                  "type": "bytes32"
                },
                {
                  "name": "encryptedDataHash",
                  "type": "bytes32"
                },
                {
                  "name": "ipfsPath",
                  "type": "bytes"
                },
                {
                  "name": "testTemplateHash",
                  "type": "bytes32"
                }
              ],
              "name": "ad",
              "type": "tuple"
            },
            {
              "components": [
                {
                  "name": "carBrand",
                  "type": "string"
                },
                {
                  "name": "track",
                  "type": "string"
                },
                {
                  "name": "simulator",
                  "type": "string"
                },
                {
                  "name": "season",
                  "type": "string"
                },
                {
                  "name": "description",
                  "type": "string"
                },
                {
                  "name": "series",
                  "type": "string"
                }
              ],
              "name": "info",
              "type": "tuple"
            }
          ],
          "name": "setups",
          "type": "tuple[]"
        }
      ],
      "payable": false,
      "stateMutability": "view",
      "type": "function"
    },
    {
      "constant": true,
      "inputs": [],
      "name": "getSkins",
      "outputs": [
        {
          "components": [
            {
              "name": "id",
              "type": "uint256"
            },
            {
              "components": [
                {
                  "name": "seller",
                  "type": "address"
                },
                {
                  "name": "price",
                  "type": "uint256"
                },
                {
                  "name": "dataHash",
                  "type": "bytes32"
                },
                {
                  "name": "encryptedDataHash",
                  "type": "bytes32"
                },
                {
                  "name": "ipfsPath",
                  "type": "bytes"
                },
                {
                  "name": "testTemplateHash",
                  "type": "bytes32"
                }
              ],
              "name": "ad",
              "type": "tuple"
            },
            {
              "components": [
                {
                  "name": "carBrand",
                  "type": "string"
                },
                {
                  "name": "simulator",
                  "type": "string"
                }
              ],
              "name": "info",
              "type": "tuple"
            }
          ],
          "name": "skins",
          "type": "tuple[]"
        }
      ],
      "payable": false,
      "stateMutability": "view",
      "type": "function"
    },
    {
      "constant": true,
      "inputs": [
        {
          "name": "_address",
          "type": "address"
        }
      ],
      "name": "isSeller",
      "outputs": [
        {
          "name": "",
          "type": "bool"
        }
      ],
      "payable": false,
      "stateMutability": "view",
      "type": "function"
    },
    {
      "constant": true,
      "inputs": [],
      "name": "getNumberSellers",
      "outputs": [
        {
          "name": "",
          "type": "uint256"
        }
      ],
      "payable": false,
      "stateMutability": "view",
      "type": "function"
    },
    {
      "constant": true,
      "inputs": [],
      "name": "getNumberCars",
      "outputs": [
        {
          "name": "",
          "type": "uint256"
        }
      ],
      "payable": false,
      "stateMutability": "view",
      "type": "function"
    },
    {
      "constant": true,
      "inputs": [],
      "name": "getNumberSkins",
      "outputs": [
        {
          "name": "",
          "type": "uint256"
        }
      ],
      "payable": false,
      "stateMutability": "view",
      "type": "function"
    },
    {
      "constant": true,
      "inputs": [
        {
          "name": "_addr",
          "type": "address"
        }
      ],
      "name": "addressToString",
      "outputs": [
        {
          "name": "",
          "type": "string"
        }
      ],
      "payable": false,
      "stateMutability": "pure",
      "type": "function"
    }
  ],
  "bytecode": "0x608060405260008055600060035560006006557f30783132330000000000000000000000000000000000000000000000000000006009557f3078343536000000000000000000000000000000000000000000000000000000600a553480156200006757600080fd5b50604051602080620045cd8339810180604052620000899190810190620000a6565b5062000106565b60006200009e8251620000f2565b905092915050565b600060208284031215620000b957600080fd5b6000620000c98482850162000090565b91505092915050565b600073ffffffffffffffffffffffffffffffffffffffff82169050919050565b6000620000ff82620000d2565b9050919050565b6144b780620001166000396000f3fe608060405260043610610138576000357c0100000000000000000000000000000000000000000000000000000000900480633742a9f71461013d5780633aff94d61461017a5780634aa64a39146101a557806351c84376146101e25780635e57966d146101fe5780635f7b3fed1461023b5780636a1a80d5146102785780636e5702af146102b55780637427a049146102e05780637c5274ac1461031d5780637ede1c071461035a57806389da3ac214610397578063a401a0cf146103c2578063a7c4e0e0146103ff578063a987b0961461043c578063adaccd741461046c578063b4d20787146104a9578063b95f22f3146104e6578063ba1219fa14610511578063c357b13c1461053c578063d75eb00014610579578063da8af2c9146105a2578063ee95feaf146105df578063f358eb9b1461061c575b600080fd5b34801561014957600080fd5b50610164600480360361015f91908101906133ef565b610645565b604051610171919061402b565b60405180910390f35b34801561018657600080fd5b5061018f610821565b60405161019c9190613f46565b60405180910390f35b3480156101b157600080fd5b506101cc60048036036101c79190810190613100565b610e34565b6040516101d99190613ee0565b60405180910390f35b6101fc60048036036101f79190810190613418565b611012565b005b34801561020a57600080fd5b5061022560048036036102209190810190613083565b611115565b6040516102329190613fc7565b60405180910390f35b34801561024757600080fd5b50610262600480360361025d919081019061346c565b6114cf565b60405161026f919061404d565b60405180910390f35b34801561028457600080fd5b5061029f600480360361029a9190810190613100565b611665565b6040516102ac9190613f02565b60405180910390f35b3480156102c157600080fd5b506102ca6118cd565b6040516102d7919061404d565b60405180910390f35b3480156102ec57600080fd5b50610307600480360361030291908101906130ac565b6118da565b6040516103149190613fac565b60405180910390f35b34801561032957600080fd5b50610344600480360361033f9190810190613141565b611a5a565b604051610351919061404d565b60405180910390f35b34801561036657600080fd5b50610381600480360361037c91908101906133ef565b611ba7565b60405161038e9190614009565b60405180910390f35b3480156103a357600080fd5b506103ac611cf5565b6040516103b9919061404d565b60405180910390f35b3480156103ce57600080fd5b506103e960048036036103e49190810190613100565b611d02565b6040516103f69190613f24565b60405180910390f35b34801561040b57600080fd5b5061042660048036036104219190810190613083565b611f6e565b6040516104339190613f8a565b60405180910390f35b61045660048036036104519190810190613418565b612005565b604051610463919061404d565b60405180910390f35b34801561047857600080fd5b50610493600480360361048e9190810190613083565b6121f8565b6040516104a09190613fc7565b60405180910390f35b3480156104b557600080fd5b506104d060048036036104cb91908101906132f1565b6122d9565b6040516104dd919061404d565b60405180910390f35b3480156104f257600080fd5b506104fb6123ba565b604051610508919061404d565b60405180910390f35b34801561051d57600080fd5b506105266123c7565b6040516105339190613f68565b60405180910390f35b34801561054857600080fd5b50610563600480360361055e9190810190613083565b612751565b6040516105709190613f8a565b60405180910390f35b34801561058557600080fd5b506105a0600480360361059b91908101906133ef565b6127e8565b005b3480156105ae57600080fd5b506105c960048036036105c49190810190613418565b61281a565b6040516105d6919061404d565b60405180910390f35b3480156105eb57600080fd5b5061060660048036036106019190810190613083565b6128d8565b6040516106139190613fac565b60405180910390f35b34801561062857600080fd5b50610643600480360361063e91908101906133ef565b61292e565b005b61064d612b7f565b6004600083815260200190815260200160002060a06040519081016040529081600082015481526020016001820160009054906101000a900473ffffffffffffffffffffffffffffffffffffffff1673ffffffffffffffffffffffffffffffffffffffff1673ffffffffffffffffffffffffffffffffffffffff168152602001600282018054600181600116156101000203166002900480601f0160208091040260200160405190810160405280929190818152602001828054600181600116156101000203166002900480156107655780601f1061073a57610100808354040283529160200191610765565b820191906000526020600020905b81548152906001019060200180831161074857829003601f168201915b50505050508152602001600382018054600181600116156101000203166002900480601f0160208091040260200160405190810160405280929190818152602001828054600181600116156101000203166002900480156108075780601f106107dc57610100808354040283529160200191610807565b820191906000526020600020905b8154815290600101906020018083116107ea57829003601f168201915b505050505081526020016004820154815250509050919050565b6060600d8054905060405190808252806020026020018201604052801561086257816020015b61084f612bc5565b8152602001906001900390816108475790505b50905060008090505b600d80549050811015610e2d576000600d8281548110151561088957fe5b906000526020600020015490508083838151811015156108a557fe5b9060200190602002015160000181815250506001600082815260200190815260200160002060c060405190810160405290816000820160009054906101000a900473ffffffffffffffffffffffffffffffffffffffff1673ffffffffffffffffffffffffffffffffffffffff1673ffffffffffffffffffffffffffffffffffffffff168152602001600182015481526020016002820154815260200160038201548152602001600482018054600181600116156101000203166002900480601f0160208091040260200160405190810160405280929190818152602001828054600181600116156101000203166002900480156109e35780601f106109b8576101008083540402835291602001916109e3565b820191906000526020600020905b8154815290600101906020018083116109c657829003601f168201915b505050505081526020016005820154815250508383815181101515610a0457fe5b9060200190602002015160200181905250600b600082815260200190815260200160002060c06040519081016040529081600082018054600181600116156101000203166002900480601f016020809104026020016040519081016040528092919081815260200182805460018160011615610100020316600290048015610acd5780601f10610aa257610100808354040283529160200191610acd565b820191906000526020600020905b815481529060010190602001808311610ab057829003601f168201915b50505050508152602001600182018054600181600116156101000203166002900480601f016020809104026020016040519081016040528092919081815260200182805460018160011615610100020316600290048015610b6f5780601f10610b4457610100808354040283529160200191610b6f565b820191906000526020600020905b815481529060010190602001808311610b5257829003601f168201915b50505050508152602001600282018054600181600116156101000203166002900480601f016020809104026020016040519081016040528092919081815260200182805460018160011615610100020316600290048015610c115780601f10610be657610100808354040283529160200191610c11565b820191906000526020600020905b815481529060010190602001808311610bf457829003601f168201915b50505050508152602001600382018054600181600116156101000203166002900480601f016020809104026020016040519081016040528092919081815260200182805460018160011615610100020316600290048015610cb35780601f10610c8857610100808354040283529160200191610cb3565b820191906000526020600020905b815481529060010190602001808311610c9657829003601f168201915b50505050508152602001600482018054600181600116156101000203166002900480601f016020809104026020016040519081016040528092919081815260200182805460018160011615610100020316600290048015610d555780601f10610d2a57610100808354040283529160200191610d55565b820191906000526020600020905b815481529060010190602001808311610d3857829003601f168201915b50505050508152602001600582018054600181600116156101000203166002900480601f016020809104026020016040519081016040528092919081815260200182805460018160011615610100020316600290048015610df75780601f10610dcc57610100808354040283529160200191610df7565b820191906000526020600020905b815481529060010190602001808311610dda57829003601f168201915b5050505050815250508383815181101515610e0e57fe5b906020019060200201516040018190525050808060010191505061086b565b5080905090565b6060808251604051908082528060200260200182016040528015610e7257816020015b610e5f612bf4565b815260200190600190039081610e575790505b50905060008090505b83518110156110085760008482815181101515610e9457fe5b9060200190602002015190506001600082815260200190815260200160002060c060405190810160405290816000820160009054906101000a900473ffffffffffffffffffffffffffffffffffffffff1673ffffffffffffffffffffffffffffffffffffffff1673ffffffffffffffffffffffffffffffffffffffff168152602001600182015481526020016002820154815260200160038201548152602001600482018054600181600116156101000203166002900480601f016020809104026020016040519081016040528092919081815260200182805460018160011615610100020316600290048015610fcc5780601f10610fa157610100808354040283529160200191610fcc565b820191906000526020600020905b815481529060010190602001808311610faf57829003601f168201915b505050505081526020016005820154815250508383815181101515610fed57fe5b90602001906020020181905250508080600101915050610e7b565b5080915050919050565b600060046000848152602001908152602001600020905081816003019080519060200190611041929190612c4a565b506110d083606060405190810160405280602f81526020017f5468616e6b20796f7520666f7220796f75722070757263686173652e20506c6581526020017f61736520636865636b206974656d2e0000000000000000000000000000000000815250338460010160009054906101000a900473ffffffffffffffffffffffffffffffffffffffff1660016114cf565b507fa2b880b5ac38ac625decca4880208262a354ea5ee5bef8b6b107380857ea970581600001548484604051611108939291906140eb565b60405180910390a1505050565b606060008273ffffffffffffffffffffffffffffffffffffffff16600102905060606040805190810160405280601081526020017f30313233343536373839616263646566000000000000000000000000000000008152509050606060336040519080825280601f01601f1916602001820160405280156111a55781602001600182028038833980820191505090505b5090507f30000000000000000000000000000000000000000000000000000000000000008160008151811015156111d857fe5b9060200101907effffffffffffffffffffffffffffffffffffffffffffffffffffffffffffff1916908160001a9053507f780000000000000000000000000000000000000000000000000000000000000081600181518110151561123857fe5b9060200101907effffffffffffffffffffffffffffffffffffffffffffffffffffffffffffff1916908160001a90535060008090505b60148110156114c35782600485600c840160208110151561128b57fe5b1a7f0100000000000000000000000000000000000000000000000000000000000000027effffffffffffffffffffffffffffffffffffffffffffffffffffffffffffff1916908060020a82049150507f0100000000000000000000000000000000000000000000000000000000000000900460ff1681518110151561130c57fe5b9060200101517f010000000000000000000000000000000000000000000000000000000000000090047f010000000000000000000000000000000000000000000000000000000000000002826002830260020181518110151561136b57fe5b9060200101907effffffffffffffffffffffffffffffffffffffffffffffffffffffffffffff1916908160001a90535082600f7f01000000000000000000000000000000000000000000000000000000000000000285600c84016020811015156113d157fe5b1a7f010000000000000000000000000000000000000000000000000000000000000002167f0100000000000000000000000000000000000000000000000000000000000000900460ff1681518110151561142757fe5b9060200101517f010000000000000000000000000000000000000000000000000000000000000090047f010000000000000000000000000000000000000000000000000000000000000002826002830260030181518110151561148657fe5b9060200101907effffffffffffffffffffffffffffffffffffffffffffffffffffffffffffff1916908160001a905350808060010191505061126e565b50809350505050919050565b60008060076000600654815260200190815260200160002090508681600001819055508581600101908051906020019061150a929190612cca565b50828160020160006101000a81548160ff0219169083600381111561152b57fe5b021790555060008160020160016101000a81548160ff021916908315150217905550428160030181905550848160040160006101000a81548173ffffffffffffffffffffffffffffffffffffffff021916908373ffffffffffffffffffffffffffffffffffffffff160217905550838160050160006101000a81548173ffffffffffffffffffffffffffffffffffffffff021916908373ffffffffffffffffffffffffffffffffffffffff16021790555060066000815480929190600101919050559150600860008573ffffffffffffffffffffffffffffffffffffffff1673ffffffffffffffffffffffffffffffffffffffff1681526020019081526020016000208290806001815401808255809150509060018203906000526020600020016000909192909190915055508191505095945050505050565b60608082516040519080825280602002602001820160405280156116a357816020015b611690612d4a565b8152602001906001900390816116885790505b50905060008090505b83518110156118c357600084828151811015156116c557fe5b9060200190602002015190506007600082815260200190815260200160002060e0604051908101604052908160008201548152602001600182018054600181600116156101000203166002900480601f0160208091040260200160405190810160405280929190818152602001828054600181600116156101000203166002900480156117935780601f1061176857610100808354040283529160200191611793565b820191906000526020600020905b81548152906001019060200180831161177657829003601f168201915b505050505081526020016002820160009054906101000a900460ff1660038111156117ba57fe5b60038111156117c557fe5b81526020016002820160019054906101000a900460ff16151515158152602001600382015481526020016004820160009054906101000a900473ffffffffffffffffffffffffffffffffffffffff1673ffffffffffffffffffffffffffffffffffffffff1673ffffffffffffffffffffffffffffffffffffffff1681526020016005820160009054906101000a900473ffffffffffffffffffffffffffffffffffffffff1673ffffffffffffffffffffffffffffffffffffffff1673ffffffffffffffffffffffffffffffffffffffff168152505083838151811015156118a857fe5b906020019060200201819052505080806001019150506116ac565b5080915050919050565b6000600d80549050905090565b6000801515600f60008573ffffffffffffffffffffffffffffffffffffffff1673ffffffffffffffffffffffffffffffffffffffff16815260200190815260200160002060009054906101000a900460ff1615151415611a4f576001600f60008573ffffffffffffffffffffffffffffffffffffffff1673ffffffffffffffffffffffffffffffffffffffff16815260200190815260200160002060006101000a81548160ff02191690831515021790555060118390806001815401808255809150509060018203906000526020600020016000909192909190916101000a81548173ffffffffffffffffffffffffffffffffffffffff021916908373ffffffffffffffffffffffffffffffffffffffff1602179055505081601060008573ffffffffffffffffffffffffffffffffffffffff1673ffffffffffffffffffffffffffffffffffffffff1681526020019081526020016000209080519060200190611a45929190612cca565b5060019050611a54565b600090505b92915050565b6000611a6b8585858f600954612a3a565b90506000600b600083815260200190815260200160002090508b816000019080519060200190611a9c929190612cca565b508a816001019080519060200190611ab5929190612cca565b5089816002019080519060200190611ace929190612cca565b5088816003019080519060200190611ae7929190612cca565b5087816005019080519060200190611b00929190612cca565b5086816004019080519060200190611b19929190612cca565b50600d829080600181540180825580915050906001820390600052602060002001600090919290919091505550611b5033846118da565b507f04118812b850fad5027a2efb4e9e53c91e978265ccc36620c8059bf1c5d0e6fa338e8e8e8e8e8c604051611b8c9796959493929190613de6565b60405180910390a1819150509b9a5050505050505050505050565b611baf612dc1565b6001600083815260200190815260200160002060c060405190810160405290816000820160009054906101000a900473ffffffffffffffffffffffffffffffffffffffff1673ffffffffffffffffffffffffffffffffffffffff1673ffffffffffffffffffffffffffffffffffffffff168152602001600182015481526020016002820154815260200160038201548152602001600482018054600181600116156101000203166002900480601f016020809104026020016040519081016040528092919081815260200182805460018160011615610100020316600290048015611cdb5780601f10611cb057610100808354040283529160200191611cdb565b820191906000526020600020905b815481529060010190602001808311611cbe57829003601f168201915b505050505081526020016005820154815250509050919050565b6000601180549050905090565b6060808251604051908082528060200260200182016040528015611d4057816020015b611d2d612e17565b815260200190600190039081611d255790505b50905060008090505b8351811015611f645760008482815181101515611d6257fe5b9060200190602002015190506004600082815260200190815260200160002060a06040519081016040529081600082015481526020016001820160009054906101000a900473ffffffffffffffffffffffffffffffffffffffff1673ffffffffffffffffffffffffffffffffffffffff1673ffffffffffffffffffffffffffffffffffffffff168152602001600282018054600181600116156101000203166002900480601f016020809104026020016040519081016040528092919081815260200182805460018160011615610100020316600290048015611e865780601f10611e5b57610100808354040283529160200191611e86565b820191906000526020600020905b815481529060010190602001808311611e6957829003601f168201915b50505050508152602001600382018054600181600116156101000203166002900480601f016020809104026020016040519081016040528092919081815260200182805460018160011615610100020316600290048015611f285780601f10611efd57610100808354040283529160200191611f28565b820191906000526020600020905b815481529060010190602001808311611f0b57829003601f168201915b505050505081526020016004820154815250508383815181101515611f4957fe5b90602001906020020181905250508080600101915050611d49565b5080915050919050565b6060600260008373ffffffffffffffffffffffffffffffffffffffff1673ffffffffffffffffffffffffffffffffffffffff168152602001908152602001600020805480602002602001604051908101604052809291908181526020018280548015611ff957602002820191906000526020600020905b815481526020019060010190808311611fe5575b50505050509050919050565b600061200f612dc1565b61201884611ba7565b9050806020015134141515612062576040517f08c379a000000000000000000000000000000000000000000000000000000000815260040161205990613fe9565b60405180910390fd5b60006004600060035481526020019081526020016000209050848160000181905550338160010160006101000a81548173ffffffffffffffffffffffffffffffffffffffff021916908373ffffffffffffffffffffffffffffffffffffffff160217905550838160020190805190602001906120df929190612c4a565b50428160040181905550600360008154809291906001019190505592506005600082600001548152602001908152602001600020839080600181540180825580915050906001820390600052602060002001600090919290919091505550612184836040805190810160405280601681526020017f507572636861736520776173207265717565737465640000000000000000000081525033856000015160006114cf565b507fb2c74dd2211a23bb10cb03155b814763ac4e02b65ee4dc22bfc9ae52ec14fb808160000154848360010160009054906101000a900473ffffffffffffffffffffffffffffffffffffffff16846002016040516121e59493929190614068565b60405180910390a1829250505092915050565b6060601060008373ffffffffffffffffffffffffffffffffffffffff1673ffffffffffffffffffffffffffffffffffffffff1681526020019081526020016000208054600181600116156101000203166002900480601f0160208091040260200160405190810160405280929190818152602001828054600181600116156101000203166002900480156122cd5780601f106122a2576101008083540402835291602001916122cd565b820191906000526020600020905b8154815290600101906020018083116122b057829003601f168201915b50505050509050919050565b60006122ea8585858b600a54612a3a565b90506000600c600083815260200190815260200160002090508781600001908051906020019061231b929190612cca565b5086816001019080519060200190612334929190612cca565b50600e82908060018154018082558091505090600182039060005260206000200160009091929091909150555061236b33846118da565b507f01811ecd1a9083bd05030544982ea358e89f3b8c65fcfd97821171b02e844956338a8a8a8a6040516123a3959493929190613e78565b60405180910390a181915050979650505050505050565b6000600e80549050905090565b6060600e8054905060405190808252806020026020018201604052801561240857816020015b6123f5612e5d565b8152602001906001900390816123ed5790505b50905060008090505b600e8054905081101561274a576000600e8281548110151561242f57fe5b9060005260206000200154905080838381518110151561244b57fe5b9060200190602002015160000181815250506001600082815260200190815260200160002060c060405190810160405290816000820160009054906101000a900473ffffffffffffffffffffffffffffffffffffffff1673ffffffffffffffffffffffffffffffffffffffff1673ffffffffffffffffffffffffffffffffffffffff168152602001600182015481526020016002820154815260200160038201548152602001600482018054600181600116156101000203166002900480601f0160208091040260200160405190810160405280929190818152602001828054600181600116156101000203166002900480156125895780601f1061255e57610100808354040283529160200191612589565b820191906000526020600020905b81548152906001019060200180831161256c57829003601f168201915b5050505050815260200160058201548152505083838151811015156125aa57fe5b9060200190602002015160200181905250600c6000828152602001908152602001600020604080519081016040529081600082018054600181600116156101000203166002900480601f0160208091040260200160405190810160405280929190818152602001828054600181600116156101000203166002900480156126725780601f1061264757610100808354040283529160200191612672565b820191906000526020600020905b81548152906001019060200180831161265557829003601f168201915b50505050508152602001600182018054600181600116156101000203166002900480601f0160208091040260200160405190810160405280929190818152602001828054600181600116156101000203166002900480156127145780601f106126e957610100808354040283529160200191612714565b820191906000526020600020905b8154815290600101906020018083116126f757829003601f168201915b505050505081525050838381518110151561272b57fe5b9060200190602002015160400181905250508080600101915050612411565b5080905090565b6060600860008373ffffffffffffffffffffffffffffffffffffffff1673ffffffffffffffffffffffffffffffffffffffff1681526020019081526020016000208054806020026020016040519081016040528092919081815260200182805480156127dc57602002820191906000526020600020905b8154815260200190600101908083116127c8575b50505050509050919050565b60016007600083815260200190815260200160002060020160016101000a81548160ff02191690831515021790555050565b6000612824612b7f565b61282d84610645565b9050612837612dc1565b6128448260000151611ba7565b905061288d856040805190810160405280601781526020017f507572636861736520776173206368616c6c656e67656400000000000000000081525033846000015160026114cf565b507f66de457dd85ecfee23f212af1e25cf9e3cb118a7de6d9f046ce16f58b715ba63826000015186856040516128c593929190614129565b60405180910390a1829250505092915050565b6000600f60008373ffffffffffffffffffffffffffffffffffffffff1673ffffffffffffffffffffffffffffffffffffffff16815260200190815260200160002060009054906101000a900460ff169050919050565b612936612b7f565b61293f82610645565b9050612949612dc1565b6129568260000151611ba7565b90506000816000015190508073ffffffffffffffffffffffffffffffffffffffff166108fc83602001519081150290604051600060405180830381858888f193505050501580156129ab573d6000803e3d6000fd5b506129f3846040805190810160405280601581526020017f507572636861736520776173206163636570746564000000000000000000000081525033856000015160036114cf565b507f90467038d2e860e2611181a29c81cfdc1de0a12763a183f96f6148d2a3bcbb4b8360000151856001604051612a2c939291906140b4565b60405180910390a150505050565b60008060016000805481526020019081526020016000209050338160000160006101000a81548173ffffffffffffffffffffffffffffffffffffffff021916908373ffffffffffffffffffffffffffffffffffffffff16021790555086816001018190555085816002018190555084816003018190555083816004019080519060200190612ac9929190612c4a565b50828160050181905550600080815480929190600101919050559150600260008260000160009054906101000a900473ffffffffffffffffffffffffffffffffffffffff1673ffffffffffffffffffffffffffffffffffffffff1673ffffffffffffffffffffffffffffffffffffffff1681526020019081526020016000208290806001815401808255809150509060018203906000526020600020016000909192909190915055508191505095945050505050565b60a06040519081016040528060008152602001600073ffffffffffffffffffffffffffffffffffffffff1681526020016060815260200160608152602001600081525090565b6101a06040519081016040528060008152602001612be1612bf4565b8152602001612bee612e8c565b81525090565b60c060405190810160405280600073ffffffffffffffffffffffffffffffffffffffff16815260200160008152602001600080191681526020016000801916815260200160608152602001600080191681525090565b828054600181600116156101000203166002900490600052602060002090601f016020900481019282601f10612c8b57805160ff1916838001178555612cb9565b82800160010185558215612cb9579182015b82811115612cb8578251825591602001919060010190612c9d565b5b509050612cc69190612ec3565b5090565b828054600181600116156101000203166002900490600052602060002090601f016020900481019282601f10612d0b57805160ff1916838001178555612d39565b82800160010185558215612d39579182015b82811115612d38578251825591602001919060010190612d1d565b5b509050612d469190612ec3565b5090565b60e060405190810160405280600081526020016060815260200160006003811115612d7157fe5b815260200160001515815260200160008152602001600073ffffffffffffffffffffffffffffffffffffffff168152602001600073ffffffffffffffffffffffffffffffffffffffff1681525090565b60c060405190810160405280600073ffffffffffffffffffffffffffffffffffffffff16815260200160008152602001600080191681526020016000801916815260200160608152602001600080191681525090565b60a06040519081016040528060008152602001600073ffffffffffffffffffffffffffffffffffffffff1681526020016060815260200160608152602001600081525090565b6101206040519081016040528060008152602001612e79612bf4565b8152602001612e86612ee8565b81525090565b60c0604051908101604052806060815260200160608152602001606081526020016060815260200160608152602001606081525090565b612ee591905b80821115612ee1576000816000905550600101612ec9565b5090565b90565b604080519081016040528060608152602001606081525090565b6000612f0e82356143a3565b905092915050565b600082601f8301121515612f2957600080fd5b8135612f3c612f378261418d565b614160565b91508181835260208401935060208101905083856020840282011115612f6157600080fd5b60005b83811015612f915781612f77888261306f565b845260208401935060208301925050600181019050612f64565b5050505092915050565b6000612fa782356143b5565b905092915050565b600082601f8301121515612fc257600080fd5b8135612fd5612fd0826141b5565b614160565b91508082526020830160208301858383011115612ff157600080fd5b612ffc83828461442a565b50505092915050565b600061301182356143bf565b905092915050565b600082601f830112151561302c57600080fd5b813561303f61303a826141e1565b614160565b9150808252602083016020830185838301111561305b57600080fd5b61306683828461442a565b50505092915050565b600061307b82356143d8565b905092915050565b60006020828403121561309557600080fd5b60006130a384828501612f02565b91505092915050565b600080604083850312156130bf57600080fd5b60006130cd85828601612f02565b925050602083013567ffffffffffffffff8111156130ea57600080fd5b6130f685828601613019565b9150509250929050565b60006020828403121561311257600080fd5b600082013567ffffffffffffffff81111561312c57600080fd5b61313884828501612f16565b91505092915050565b60008060008060008060008060008060006101608c8e03121561316357600080fd5b60008c013567ffffffffffffffff81111561317d57600080fd5b6131898e828f01612faf565b9b505060208c013567ffffffffffffffff8111156131a657600080fd5b6131b28e828f01613019565b9a505060408c013567ffffffffffffffff8111156131cf57600080fd5b6131db8e828f01613019565b99505060608c013567ffffffffffffffff8111156131f857600080fd5b6132048e828f01613019565b98505060808c013567ffffffffffffffff81111561322157600080fd5b61322d8e828f01613019565b97505060a08c013567ffffffffffffffff81111561324a57600080fd5b6132568e828f01613019565b96505060c08c013567ffffffffffffffff81111561327357600080fd5b61327f8e828f01613019565b95505060e06132908e828f0161306f565b9450506101006132a28e828f01612f9b565b9350506101206132b48e828f01612f9b565b9250506101408c013567ffffffffffffffff8111156132d257600080fd5b6132de8e828f01613019565b9150509295989b509295989b9093969950565b600080600080600080600060e0888a03121561330c57600080fd5b600088013567ffffffffffffffff81111561332657600080fd5b6133328a828b01612faf565b975050602088013567ffffffffffffffff81111561334f57600080fd5b61335b8a828b01613019565b965050604088013567ffffffffffffffff81111561337857600080fd5b6133848a828b01613019565b95505060606133958a828b0161306f565b94505060806133a68a828b01612f9b565b93505060a06133b78a828b01612f9b565b92505060c088013567ffffffffffffffff8111156133d457600080fd5b6133e08a828b01613019565b91505092959891949750929550565b60006020828403121561340157600080fd5b600061340f8482850161306f565b91505092915050565b6000806040838503121561342b57600080fd5b60006134398582860161306f565b925050602083013567ffffffffffffffff81111561345657600080fd5b61346285828601612faf565b9150509250929050565b600080600080600060a0868803121561348457600080fd5b60006134928882890161306f565b955050602086013567ffffffffffffffff8111156134af57600080fd5b6134bb88828901613019565b94505060406134cc88828901612f02565b93505060606134dd88828901612f02565b92505060806134ee88828901613005565b9150509295509295909350565b613504816143e2565b82525050565b6135138161433b565b82525050565b61352281614329565b82525050565b60006135338261426d565b8084526020840193508360208202850161354c8561420d565b60005b84811015613585578383038852613567838351613a1a565b9250613572826142db565b915060208801975060018101905061354f565b508196508694505050505092915050565b60006135a182614278565b808452602084019350836020820285016135ba8561421a565b60005b848110156135f35783830388526135d5838351613aa3565b92506135e0826142e8565b91506020880197506001810190506135bd565b508196508694505050505092915050565b600061360f82614283565b8084526020840193508360208202850161362885614227565b60005b84811015613661578383038852613643838351613bbc565b925061364e826142f5565b915060208801975060018101905061362b565b508196508694505050505092915050565b600061367d8261428e565b8084526020840193508360208202850161369685614234565b60005b848110156136cf5783830388526136b1838351613ce5565b92506136bc82614302565b9150602088019750600181019050613699565b508196508694505050505092915050565b60006136eb82614299565b8084526020840193508360208202850161370485614241565b60005b8481101561373d57838303885261371f838351613d80565b925061372a8261430f565b9150602088019750600181019050613707565b508196508694505050505092915050565b6000613759826142a4565b80845260208401935061376b8361424e565b60005b8281101561379d57613781868351613dd7565b61378a8261431c565b915060208601955060018101905061376e565b50849250505092915050565b6137b28161434d565b82525050565b6137c181614359565b82525050565b60006137d2826142ba565b8084526137e6816020860160208601614439565b6137ef8161446c565b602085010191505092915050565b6000613808826142af565b80845261381c816020860160208601614439565b6138258161446c565b602085010191505092915050565b6000815460018116600081146138505760018114613870576138b1565b607f600283041680865260ff1983166020870152604086019350506138b1565b600282048086526020860195506138868561425b565b60005b828110156138a857815481890152600182019150602081019050613889565b80880195505050505b505092915050565b6138c2816143f4565b82525050565b60006138d3826142d0565b8084526138e7816020860160208601614439565b6138f08161446c565b602085010191505092915050565b6000613909826142c5565b80845261391d816020860160208601614439565b6139268161446c565b602085010191505092915050565b6000602882527f416d6f756e742073686f756c6420626520657175616c20746f2074686520697460208301527f656d2070726963650000000000000000000000000000000000000000000000006040830152606082019050919050565b600060c0830160008301516139a9600086018261350a565b5060208301516139bc6020860182613dd7565b5060408301516139cf60408601826137b8565b5060608301516139e260608601826137b8565b50608083015184820360808601526139fa82826137fd565b91505060a0830151613a0f60a08601826137b8565b508091505092915050565b600060c083016000830151613a32600086018261350a565b506020830151613a456020860182613dd7565b506040830151613a5860408601826137b8565b506060830151613a6b60608601826137b8565b5060808301518482036080860152613a8382826137fd565b91505060a0830151613a9860a08601826137b8565b508091505092915050565b600060e083016000830151613abb6000860182613dd7565b5060208301518482036020860152613ad382826138fe565b9150506040830151613ae860408601826138b9565b506060830151613afb60608601826137a9565b506080830151613b0e6080860182613dd7565b5060a0830151613b2160a0860182613519565b5060c0830151613b3460c0860182613519565b508091505092915050565b600060a083016000830151613b576000860182613dd7565b506020830151613b6a6020860182613519565b5060408301518482036040860152613b8282826137fd565b91505060608301518482036060860152613b9c82826137fd565b9150506080830151613bb16080860182613dd7565b508091505092915050565b600060a083016000830151613bd46000860182613dd7565b506020830151613be76020860182613519565b5060408301518482036040860152613bff82826137fd565b91505060608301518482036060860152613c1982826137fd565b9150506080830151613c2e6080860182613dd7565b508091505092915050565b600060c0830160008301518482036000860152613c5682826138fe565b91505060208301518482036020860152613c7082826138fe565b91505060408301518482036040860152613c8a82826138fe565b91505060608301518482036060860152613ca482826138fe565b91505060808301518482036080860152613cbe82826138fe565b91505060a083015184820360a0860152613cd882826138fe565b9150508091505092915050565b6000606083016000830151613cfd6000860182613dd7565b5060208301518482036020860152613d158282613a1a565b91505060408301518482036040860152613d2f8282613c39565b9150508091505092915050565b60006040830160008301518482036000860152613d5982826138fe565b91505060208301518482036020860152613d7382826138fe565b9150508091505092915050565b6000606083016000830151613d986000860182613dd7565b5060208301518482036020860152613db08282613a1a565b91505060408301518482036040860152613dca8282613d3c565b9150508091505092915050565b613de081614399565b82525050565b600060e082019050613dfb600083018a6134fb565b8181036020830152613e0d81896137c7565b90508181036040830152613e2181886138c8565b90508181036060830152613e3581876138c8565b90508181036080830152613e4981866138c8565b905081810360a0830152613e5d81856138c8565b9050613e6c60c0830184613dd7565b98975050505050505050565b600060a082019050613e8d60008301886134fb565b8181036020830152613e9f81876137c7565b90508181036040830152613eb381866138c8565b90508181036060830152613ec781856138c8565b9050613ed66080830184613dd7565b9695505050505050565b60006020820190508181036000830152613efa8184613528565b905092915050565b60006020820190508181036000830152613f1c8184613596565b905092915050565b60006020820190508181036000830152613f3e8184613604565b905092915050565b60006020820190508181036000830152613f608184613672565b905092915050565b60006020820190508181036000830152613f8281846136e0565b905092915050565b60006020820190508181036000830152613fa4818461374e565b905092915050565b6000602082019050613fc160008301846137a9565b92915050565b60006020820190508181036000830152613fe181846138c8565b905092915050565b6000602082019050818103600083015261400281613934565b9050919050565b600060208201905081810360008301526140238184613991565b905092915050565b600060208201905081810360008301526140458184613b3f565b905092915050565b60006020820190506140626000830184613dd7565b92915050565b600060808201905061407d6000830187613dd7565b61408a6020830186613dd7565b6140976040830185613519565b81810360608301526140a98184613833565b905095945050505050565b60006060820190506140c96000830186613dd7565b6140d66020830185613dd7565b6140e360408301846137a9565b949350505050565b60006060820190506141006000830186613dd7565b61410d6020830185613dd7565b818103604083015261411f81846137c7565b9050949350505050565b600060608201905061413e6000830186613dd7565b61414b6020830185613dd7565b6141586040830184613dd7565b949350505050565b6000604051905081810181811067ffffffffffffffff8211171561418357600080fd5b8060405250919050565b600067ffffffffffffffff8211156141a457600080fd5b602082029050602081019050919050565b600067ffffffffffffffff8211156141cc57600080fd5b601f19601f8301169050602081019050919050565b600067ffffffffffffffff8211156141f857600080fd5b601f19601f8301169050602081019050919050565b6000602082019050919050565b6000602082019050919050565b6000602082019050919050565b6000602082019050919050565b6000602082019050919050565b6000602082019050919050565b60008160005260206000209050919050565b600081519050919050565b600081519050919050565b600081519050919050565b600081519050919050565b600081519050919050565b600081519050919050565b600081519050919050565b600081519050919050565b600081519050919050565b600081519050919050565b6000602082019050919050565b6000602082019050919050565b6000602082019050919050565b6000602082019050919050565b6000602082019050919050565b6000602082019050919050565b600061433482614379565b9050919050565b600061434682614379565b9050919050565b60008115159050919050565b6000819050919050565b600060048210151561437157fe5b819050919050565b600073ffffffffffffffffffffffffffffffffffffffff82169050919050565b6000819050919050565b60006143ae82614379565b9050919050565b6000819050919050565b60006004821015156143d057600080fd5b819050919050565b6000819050919050565b60006143ed82614406565b9050919050565b60006143ff82614363565b9050919050565b600061441182614418565b9050919050565b600061442382614379565b9050919050565b82818337600083830152505050565b60005b8381101561445757808201518184015260208101905061443c565b83811115614466576000848401525b50505050565b6000601f19601f830116905091905056fea265627a7a7230582066043078f797e9ba7ca56ce12270a72009e2495ad280a1bdbf9ea879c8ab06fc6c6578706572696d656e74616cf50037",
  "source": "pragma solidity ^0.5.1;\npragma experimental ABIEncoderV2;\n\nimport \"./ContentMarketplace.sol\";\n\n/// @title Simthunder Sim Racing Marketplace - first iteration\n/// @notice Non-Cartesi blockchain code for registering sellers and sim racing assets\n\ncontract STMarketplace is ContentMarketplace {    \n\n    // cartesi machine template used to validate each asset category\n    bytes32 validateCarSetupTemplateHash = \"0x123\";\n    bytes32 validateCarSkinTemplateHash = \"0x456\";\n    \n    // holds information specific to a car setup file\n    struct carSetupInfo {\n        string carBrand;\n        string track;\n        string simulator;\n        string season;\n        string description;\n        string series;\n    }\n       \n    // holds information specific to a car skin file\n    struct carSkinInfo {\n        string carBrand;\n        string simulator;\n    }\n       \n    // full representation of an advertised car setup\n    struct carSetup {\n        uint256 id;         // id of the advertisement\n        Advertisement ad;   // generic ad information, including seller and content\n        carSetupInfo info;  // specific car setup information\n    }\n       \n    // full representation of an advertised car skin\n    struct carSkin {\n        uint256 id;         // id of the advertisement\n        Advertisement ad;   // generic ad information, including seller and content\n        carSkinInfo info;   // specific car skin information\n    }\n\n    /// @notice Maps the 2 type of files\n    mapping(uint256 => carSetupInfo) carSetupInfos;\n    mapping(uint256 => carSkinInfo) carSkinInfos;\n    uint256[] carSetupIds;\n    uint256[] carSkinIds;\n    \n    /// @notice To track if seller address already exists\n    mapping (address => bool) userExists;\n\n    /// @notice To mapping user and his nickname\n    mapping (address => string) userNickname;\n    \n    // /// @notice Keep track of all seller addresses and existing files\n    address[] private userAddresses;\n\n    /// @notice Events\n    event carSetupSaved(address _address, bytes _ipfsPath, string _carBrand, string _track, string _simulator, string _season, uint256 _price);\n    event skinSaved(address _address, bytes _ipfsPath, string _carBrand, string _simulator, uint256 _price);\n    \n    /// @notice Creates an instance of the contract\n    /// @param descartesAddress address of the Descartes contract\n    constructor(address descartesAddress) public ContentMarketplace(descartesAddress) {\n    }    \n    \n    /// @notice Registers a new car setup for sale\n    function newCarSetup(\n        bytes memory _ipfsPath,        // ipfs path of encrypted data\n        string memory _carBrand,\n        string memory _track,\n        string memory _simulator,\n        string memory _season,\n        string memory _series,\n        string memory _description,\n        uint256 _price,                // trade price\n        bytes32 _dataHash,             // merkle hash of unencrypted data\n        bytes32 _encryptedDataHash,    // merkle hash of encrypted data\n        string memory _nickname\n    ) public\n        returns (uint256 id)           // returns ad identifier\n    {\n        id = createAd(\n            _price,\n            _dataHash,\n            _encryptedDataHash,\n            _ipfsPath,\n            validateCarSetupTemplateHash\n        );\n\n        carSetupInfo storage info = carSetupInfos[id];\n        info.carBrand = _carBrand;\n        info.track = _track;\n        info.simulator = _simulator;\n        info.season = _season;\n        info.series = _series;\n        info.description = _description;\n        \n        carSetupIds.push(id);\n        saveSeller(msg.sender, _nickname);\n\n        emit carSetupSaved(msg.sender, _ipfsPath, _carBrand, _track, _simulator, _season, _price);\n\n        return id;\n    }\n\n    /// @notice Registers a new car skin for sale\n    function newSkin(\n        bytes memory _ipfsPath,        // ipfs path of encrypted data\n        string memory _carBrand,\n        string memory _simulator,\n        uint256 _price,                // trade price\n        bytes32 _dataHash,             // merkle hash of unencrypted data\n        bytes32 _encryptedDataHash,    // merkle hash of encrypted data\n        string memory _nickname\n    ) public\n        returns (uint256 id)           // returns ad identifier\n    {\n        id = createAd(\n            _price,\n            _dataHash,\n            _encryptedDataHash,\n            _ipfsPath,\n            validateCarSkinTemplateHash\n        );\n\n        carSkinInfo storage info = carSkinInfos[id];\n        info.carBrand = _carBrand;\n        info.simulator = _simulator;\n\n        carSkinIds.push(id);\n        saveSeller(msg.sender, _nickname);\n        emit skinSaved (msg.sender,_ipfsPath, _carBrand, _simulator, _price);\n\n        return id;\n    }\n\n    /// @notice Registers seller address\n    function saveSeller(address _address, string memory _nickname) public returns(bool){\n        if(userExists[_address] == false) {\n            userExists[_address] = true;\n            userAddresses.push(_address);\n            userNickname[_address] = _nickname;\n            return true;    \n        }\n        return false;\n    }\n\n    /// @notice Registers seller address\n    function getNickname(address _address) public returns(string memory) {\n        return userNickname[_address];\n    }\n    \n    /// @notice Gets the list of all car setup files\n    function getCarSetups() public view returns(carSetup[] memory setups){\n        setups = new carSetup[](carSetupIds.length);\n        for (uint256 i = 0; i < carSetupIds.length; i++) {\n            uint256 id = carSetupIds[i];\n            setups[i].id = id;\n            setups[i].ad = ads[id];\n            setups[i].info = carSetupInfos[id];\n        }\n        return setups;\n    }\n    \n    /// @notice Gets the list of all skin files\n    function getSkins() public view returns(carSkin[] memory skins){\n        skins = new carSkin[](carSkinIds.length);\n        for(uint256 i = 0; i < carSkinIds.length; i++) {\n            uint256 id = carSkinIds[i];\n            skins[i].id = id;\n            skins[i].ad = ads[id];\n            skins[i].info = carSkinInfos[id];\n        }\n        return skins;\n    }\n\n    /// @notice Tests if sellers exists\n    function isSeller(address _address) public view returns(bool) {\n        return userExists[_address];\n    }\n    \n    /// @notice Gets number of sellers\n    function getNumberSellers() public view returns(uint256) {\n        return userAddresses.length;\n    }\n    \n    /// @notice Gets number of car setup files\n    function getNumberCars() public view returns(uint256) {\n        return carSetupIds.length;\n    }\n    \n    /// @notice Gets number of skin files\n    function getNumberSkins() public view returns(uint256) {\n        return carSkinIds.length;\n    }\n    \n    /// @notice Utility method to return string from an address\n    function addressToString(address _addr) public pure returns(string memory) \n    {\n        bytes32 value = bytes32(uint256(_addr));\n        bytes memory alphabet = \"0123456789abcdef\";\n\n        bytes memory str = new bytes(51);\n        str[0] = '0';\n        str[1] = 'x';\n        for (uint256 i = 0; i < 20; i++) {\n            str[2+i*2] = alphabet[uint8(value[i + 12] >> 4)];\n            str[3+i*2] = alphabet[uint8(value[i + 12] & 0x0f)];\n        }\n        return string(str);\n    }\n}",
  "sourcePath": "/home/miguel/Documents/TokenWised/Marketplace/market-dapp/backend/contracts/STMarketplace.sol",
  "compiler": {
    "name": "solc",
    "version": "0.5.1+commit.c8a2cb62.Emscripten.clang"
  },
  "schemaVersion": "3.3.2",
  "updatedAt": "2021-02-02T00:14:51.901Z",
  "networkType": "ethereum",
  "devdoc": {
    "methods": {
      "constructor": {
        "params": {
          "descartesAddress": "address of the Descartes contract"
        }
      }
    },
    "title": "Simthunder Sim Racing Marketplace - first iteration"
  },
  "userdoc": {
    "methods": {
      "acceptPurchase(uint256,bytes)": {
        "notice": "called by seller to accept a purchase request for a registered advertisement"
      },
      "addressToString(address)": {
        "notice": "Utility method to return string from an address"
      },
      "challengePurchase(uint256,bytes)": {
        "notice": "called by buyer to challenge a purchase, stating that content could not be retrieved"
      },
      "constructor": "Creates an instance of the contract",
      "finalizePurchase(uint256)": {
        "notice": "finalizes purchase, unlocking buyer's funds and seller's deposit as appropriate"
      },
      "getAd(uint256)": {
        "notice": "retrieves an advertisement given its identifier"
      },
      "getAds(uint256[])": {
        "notice": "retrieves an array of advertisements given their identifiers"
      },
      "getCarSetups()": {
        "notice": "Gets the list of all car setup files"
      },
      "getNickname(address)": {
        "notice": "Registers seller address"
      },
      "getNotifications(uint256[])": {
        "notice": "retrieves an array of notifications given their identifiers"
      },
      "getNumberCars()": {
        "notice": "Gets number of car setup files"
      },
      "getNumberSellers()": {
        "notice": "Gets number of sellers"
      },
      "getNumberSkins()": {
        "notice": "Gets number of skin files"
      },
      "getPurchase(uint256)": {
        "notice": "retrieves a purchase given its identifier"
      },
      "getPurchases(uint256[])": {
        "notice": "retrieves an advertisement given its identifier"
      },
      "getSkins()": {
        "notice": "Gets the list of all skin files"
      },
      "isSeller(address)": {
        "notice": "Tests if sellers exists"
      },
      "listAdsPerSeller(address)": {
        "notice": "returns identifiers for a seller's advertisements"
      },
      "listNotificationsPerUser(address)": {
        "notice": "returns identifiers for a seller's notifications"
      },
      "newCarSetup(bytes,string,string,string,string,string,string,uint256,bytes32,bytes32,string)": {
        "notice": "Registers a new car setup for sale"
      },
      "newSkin(bytes,string,string,uint256,bytes32,bytes32,string)": {
        "notice": "Registers a new car skin for sale"
      },
      "requestPurchase(uint256,bytes)": {
        "notice": "requests purchase of a registered advertisement"
      },
      "saveSeller(address,string)": {
        "notice": "Registers seller address"
      }
    },
    "notice": "Non-Cartesi blockchain code for registering sellers and sim racing assets"
  }
}