{
  "address": "0x1Eff360828c4bB7F9dC7Ebf0A03BfD523257F71d",
  "abi": [
    {
      "inputs": [
        {
          "internalType": "address",
          "name": "payable_token",
          "type": "address"
        }
      ],
      "stateMutability": "nonpayable",
      "type": "constructor"
    },
    {
      "anonymous": false,
      "inputs": [
        {
          "indexed": false,
          "internalType": "uint256",
          "name": "adId",
          "type": "uint256"
        },
        {
          "indexed": false,
          "internalType": "uint256",
          "name": "purchaseId",
          "type": "uint256"
        },
        {
          "indexed": false,
          "internalType": "bytes",
          "name": "encryptedDataKey",
          "type": "bytes"
        }
      ],
      "name": "PurchaseAccepted",
      "type": "event"
    },
    {
      "anonymous": false,
      "inputs": [
        {
          "indexed": false,
          "internalType": "uint256",
          "name": "adId",
          "type": "uint256"
        },
        {
          "indexed": false,
          "internalType": "uint256",
          "name": "purchaseId",
          "type": "uint256"
        },
        {
          "indexed": false,
          "internalType": "bool",
          "name": "isSuccess",
          "type": "bool"
        }
      ],
      "name": "PurchaseFinalized",
      "type": "event"
    },
    {
      "anonymous": false,
      "inputs": [
        {
          "indexed": false,
          "internalType": "uint256",
          "name": "adId",
          "type": "uint256"
        },
        {
          "indexed": false,
          "internalType": "uint256",
          "name": "purchaseId",
          "type": "uint256"
        },
        {
          "indexed": false,
          "internalType": "address",
          "name": "buyer",
          "type": "address"
        },
        {
          "indexed": false,
          "internalType": "bytes",
          "name": "buyerKey",
          "type": "bytes"
        }
      ],
      "name": "PurchaseRequested",
      "type": "event"
    },
    {
      "inputs": [
        {
          "internalType": "uint256",
          "name": "_purchaseId",
          "type": "uint256"
        },
        {
          "internalType": "bytes",
          "name": "_encryptedDataKey",
          "type": "bytes"
        }
      ],
      "name": "acceptPurchase",
      "outputs": [],
      "stateMutability": "nonpayable",
      "type": "function"
    },
    {
      "inputs": [
        {
          "internalType": "uint256",
          "name": "_notificationId",
          "type": "uint256"
        }
      ],
      "name": "archiveNotification",
      "outputs": [],
      "stateMutability": "nonpayable",
      "type": "function"
    },
    {
      "inputs": [
        {
          "internalType": "uint256",
          "name": "_purchaseId",
          "type": "uint256"
        },
        {
          "internalType": "bool",
          "name": "isSuccess",
          "type": "bool"
        }
      ],
      "name": "finalizePurchase",
      "outputs": [],
      "stateMutability": "nonpayable",
      "type": "function"
    },
    {
      "inputs": [
        {
          "internalType": "uint256",
          "name": "_adId",
          "type": "uint256"
        }
      ],
      "name": "getAd",
      "outputs": [
        {
          "components": [
            {
              "internalType": "address payable",
              "name": "seller",
              "type": "address"
            },
            {
              "internalType": "uint256",
              "name": "price",
              "type": "uint256"
            },
            {
              "internalType": "bytes32",
              "name": "dataHash",
              "type": "bytes32"
            },
            {
              "internalType": "bytes32",
              "name": "encryptedDataHash",
              "type": "bytes32"
            },
            {
              "internalType": "bytes",
              "name": "ipfsPath",
              "type": "bytes"
            },
            {
              "internalType": "bytes32",
              "name": "testTemplateHash",
              "type": "bytes32"
            }
          ],
          "internalType": "struct ContentMarketplace.Advertisement",
          "name": "",
          "type": "tuple"
        }
      ],
      "stateMutability": "view",
      "type": "function"
    },
    {
      "inputs": [
        {
          "internalType": "uint256[]",
          "name": "_adIds",
          "type": "uint256[]"
        }
      ],
      "name": "getAds",
      "outputs": [
        {
          "components": [
            {
              "internalType": "address payable",
              "name": "seller",
              "type": "address"
            },
            {
              "internalType": "uint256",
              "name": "price",
              "type": "uint256"
            },
            {
              "internalType": "bytes32",
              "name": "dataHash",
              "type": "bytes32"
            },
            {
              "internalType": "bytes32",
              "name": "encryptedDataHash",
              "type": "bytes32"
            },
            {
              "internalType": "bytes",
              "name": "ipfsPath",
              "type": "bytes"
            },
            {
              "internalType": "bytes32",
              "name": "testTemplateHash",
              "type": "bytes32"
            }
          ],
          "internalType": "struct ContentMarketplace.Advertisement[]",
          "name": "",
          "type": "tuple[]"
        }
      ],
      "stateMutability": "view",
      "type": "function"
    },
    {
      "inputs": [
        {
          "internalType": "uint256[]",
          "name": "_notificationIds",
          "type": "uint256[]"
        }
      ],
      "name": "getNotifications",
      "outputs": [
        {
          "components": [
            {
              "internalType": "uint256",
              "name": "purchaseId",
              "type": "uint256"
            },
            {
              "internalType": "string",
              "name": "message",
              "type": "string"
            },
            {
              "internalType": "enum ContentMarketplace.NotificationType",
              "name": "nType",
              "type": "uint8"
            },
            {
              "internalType": "bool",
              "name": "archive",
              "type": "bool"
            },
            {
              "internalType": "uint256",
              "name": "date",
              "type": "uint256"
            },
            {
              "internalType": "address",
              "name": "sender",
              "type": "address"
            },
            {
              "internalType": "address",
              "name": "receiver",
              "type": "address"
            }
          ],
          "internalType": "struct ContentMarketplace.Notification[]",
          "name": "",
          "type": "tuple[]"
        }
      ],
      "stateMutability": "view",
      "type": "function"
    },
    {
      "inputs": [
        {
          "internalType": "uint256",
          "name": "_purchaseId",
          "type": "uint256"
        }
      ],
      "name": "getPurchase",
      "outputs": [
        {
          "components": [
            {
              "internalType": "uint256",
              "name": "adId",
              "type": "uint256"
            },
            {
              "internalType": "address payable",
              "name": "buyer",
              "type": "address"
            },
            {
              "internalType": "bytes",
              "name": "buyerKey",
              "type": "bytes"
            },
            {
              "internalType": "bytes",
              "name": "encryptedDataKey",
              "type": "bytes"
            },
            {
              "internalType": "uint256",
              "name": "date",
              "type": "uint256"
            }
          ],
          "internalType": "struct ContentMarketplace.Purchase",
          "name": "",
          "type": "tuple"
        }
      ],
      "stateMutability": "view",
      "type": "function"
    },
    {
      "inputs": [
        {
          "internalType": "uint256[]",
          "name": "_purchaseIds",
          "type": "uint256[]"
        }
      ],
      "name": "getPurchases",
      "outputs": [
        {
          "components": [
            {
              "internalType": "uint256",
              "name": "adId",
              "type": "uint256"
            },
            {
              "internalType": "address payable",
              "name": "buyer",
              "type": "address"
            },
            {
              "internalType": "bytes",
              "name": "buyerKey",
              "type": "bytes"
            },
            {
              "internalType": "bytes",
              "name": "encryptedDataKey",
              "type": "bytes"
            },
            {
              "internalType": "uint256",
              "name": "date",
              "type": "uint256"
            }
          ],
          "internalType": "struct ContentMarketplace.Purchase[]",
          "name": "",
          "type": "tuple[]"
        }
      ],
      "stateMutability": "view",
      "type": "function"
    },
    {
      "inputs": [
        {
          "internalType": "address",
          "name": "_seller",
          "type": "address"
        }
      ],
      "name": "listAdsPerSeller",
      "outputs": [
        {
          "internalType": "uint256[]",
          "name": "",
          "type": "uint256[]"
        }
      ],
      "stateMutability": "view",
      "type": "function"
    },
    {
      "inputs": [
        {
          "internalType": "address",
          "name": "_user",
          "type": "address"
        }
      ],
      "name": "listNotificationsPerUser",
      "outputs": [
        {
          "internalType": "uint256[]",
          "name": "",
          "type": "uint256[]"
        }
      ],
      "stateMutability": "view",
      "type": "function"
    },
    {
      "inputs": [
        {
          "internalType": "uint256",
          "name": "adPrice",
          "type": "uint256"
        },
        {
          "internalType": "uint256",
          "name": "_adId",
          "type": "uint256"
        },
        {
          "internalType": "bytes",
          "name": "_buyerKey",
          "type": "bytes"
        }
      ],
      "name": "requestPurchase",
      "outputs": [
        {
          "internalType": "uint256",
          "name": "purchaseId",
          "type": "uint256"
        }
      ],
      "stateMutability": "nonpayable",
      "type": "function"
    }
  ],
  "transactionHash": "0x82add3000f7dedd55a94b6417a913da0bcbbc8040790dd1858a32045e42d28cb",
  "args": [
    "0xf0c3C4AC63Be272a94712bCcc39490A159Cd0D7C"
  ],
  "solcInputHash": "615c5a632bac9805ab8069148bdbf8c8",
  "bytecode": "0x608060405260006001556000600455600060075534801561001f57600080fd5b50604051611a35380380611a3583398101604081905261003e91610063565b600080546001600160a01b0319166001600160a01b0392909216919091179055610091565b600060208284031215610074578081fd5b81516001600160a01b038116811461008a578182fd5b9392505050565b611995806100a06000396000f3fe608060405234801561001057600080fd5b50600436106100a95760003560e01c80637ede1c07116100715780637ede1c071461014c57806397f911b21461016c578063a401a0cf1461017f578063a7c4e0e01461019f578063c357b13c146101bf578063d75eb000146101d2576100a9565b80633742a9f7146100ae5780634aa64a39146100d757806351c84376146100f7578063685f5f291461010c5780636a1a80d51461012c575b600080fd5b6100c16100bc3660046112e1565b6101e5565b6040516100ce91906117ec565b60405180910390f35b6100ea6100e5366004611225565b610358565b6040516100ce9190611521565b61010a610105366004611340565b6104de565b005b61011f61011a366004611384565b61057d565b6040516100ce91906117ff565b61013f61013a366004611225565b610817565b6040516100ce9190611581565b61015f61015a3660046112e1565b6109e5565b6040516100ce91906117d9565b61010a61017a366004611311565b610ad7565b61019261018d366004611225565b610c8c565b6040516100ce9190611647565b6101b26101ad3660046111f7565b610e8b565b6040516100ce919061169a565b6101b26101cd3660046111f7565b610ef7565b61010a6101e03660046112e1565b610f61565b6101ed611047565b600082815260056020908152604091829020825160a081018452815481526001808301546001600160a01b0316828501526002808401805487516101009482161594909402600019011691909104601f810186900486028301860187528083529295939493860193919290918301828280156102aa5780601f1061027f576101008083540402835291602001916102aa565b820191906000526020600020905b81548152906001019060200180831161028d57829003601f168201915b505050918352505060038201805460408051602060026001851615610100026000190190941693909304601f810184900484028201840190925281815293820193929183018282801561033e5780601f106103135761010080835404028352916020019161033e565b820191906000526020600020905b81548152906001019060200180831161032157829003601f168201915b505050505081526020016004820154815250509050919050565b60608082516001600160401b038111801561037257600080fd5b506040519080825280602002602001820160405280156103ac57816020015b61039961107f565b8152602001906001900390816103915790505b50905060005b83518110156104d75760008482815181106103c957fe5b60209081029190910181015160008181526002808452604091829020825160c08101845281546001600160a01b031681526001808301548288015282840154828601526003830154606083015260048301805486516101009382161593909302600019011694909404601f810188900488028201880190955284815294965094909360808601939092918301828280156104a45780601f10610479576101008083540402835291602001916104a4565b820191906000526020600020905b81548152906001019060200180831161048757829003601f168201915b505050505081526020016005820154815250508383815181106104c357fe5b6020908102919091010152506001016103b2565b5092915050565b6000828152600560209081526040909120825190916105049160038401918501906110b3565b5061053b836040518060600160405280602f8152602001611931602f913960018085015433916001600160a01b0390911690610f81565b5080546040517fa2b880b5ac38ac625decca4880208262a354ea5ee5bef8b6b107380857ea97059161057091869086906118c8565b60405180910390a1505050565b600061058761107f565b610590846109e5565b9050806020015185146105be5760405162461bcd60e51b81526004016105b590611727565b60405180910390fd5b6020810151600054604051636eb1769f60e11b81526001600160a01b039091169063dd62ed3e906105f590339030906004016114e3565b60206040518083038186803b15801561060d57600080fd5b505afa158015610621573d6000803e3d6000fd5b505050506040513d601f19601f8201168201806040525081019061064591906112f9565b10156106635760405162461bcd60e51b81526004016105b59061176f565b60045460009081526005602090815260409091208581556001810180546001600160a01b03191633179055845190916106a39160028401918701906110b3565b50426004808301919091558054600180820183558354600090815260066020908152604080832080549485018155835281832090930184905590549086015191516323b872dd60e01b81529296506001600160a01b0316926323b872dd9261070f9233923092016114fd565b602060405180830381600087803b15801561072957600080fd5b505af115801561073d573d6000803e3d6000fd5b505050506040513d601f19601f8201168201806040525081019061076191906112c5565b61077d5760405162461bcd60e51b81526004016105b5906117a2565b6107bd8360405180604001604052806016815260200175141d5c98da185cd9481dd85cc81c995c5d595cdd195960521b8152503385600001516000610f81565b50805460018201546040517fb2c74dd2211a23bb10cb03155b814763ac4e02b65ee4dc22bfc9ae52ec14fb809261080692909187916001600160a01b0316906002870190611808565b60405180910390a150509392505050565b60608082516001600160401b038111801561083157600080fd5b5060405190808252806020026020018201604052801561086b57816020015b61085861113f565b8152602001906001900390816108505790505b50905060005b83518110156104d757600084828151811061088857fe5b60200260200101519050600860008281526020019081526020016000206040518060e001604052908160008201548152602001600182018054600181600116156101000203166002900480601f0160208091040260200160405190810160405280929190818152602001828054600181600116156101000203166002900480156109535780601f1061092857610100808354040283529160200191610953565b820191906000526020600020905b81548152906001019060200180831161093657829003601f168201915b5050509183525050600282015460209091019060ff16600481111561097457fe5b600481111561097f57fe5b81526002820154610100900460ff16151560208201526003820154604082015260048201546001600160a01b03908116606083015260059092015490911660809091015283518490849081106109d157fe5b602090810291909101015250600101610871565b6109ed61107f565b600082815260026020818152604092839020835160c08101855281546001600160a01b031681526001808301548285015282850154828701526003830154606083015260048301805487516101009382161593909302600019011695909504601f810185900485028201850190965285815290949193608086019391929091830182828015610abd5780601f10610a9257610100808354040283529160200191610abd565b820191906000526020600020905b815481529060010190602001808311610aa057829003601f168201915b505050505081526020016005820154815250509050919050565b610adf611047565b610ae8836101e5565b9050610af261107f565b8151610afd906109e5565b9050600083610b10578260200151610b13565b81515b60005460208401516040516323b872dd60e01b81529293506001600160a01b03909116916323b872dd91610b4d91309186916004016114fd565b602060405180830381600087803b158015610b6757600080fd5b505af1158015610b7b573d6000803e3d6000fd5b505050506040513d601f19601f82011682018060405250810190610b9f91906112c5565b610bbb5760405162461bcd60e51b81526004016105b5906116de565b8315610c0757610c018560405180604001604052806016815260200175283ab931b430b9b2903bb0b99030b1b1b2b83a32b21760511b8152503385600001516003610f81565b50610c49565b610c478560405180604001604052806016815260200175283ab931b430b9b2903bb0b9903932b532b1ba32b21760511b8152503385600001516004610f81565b505b82516040517f90467038d2e860e2611181a29c81cfdc1de0a12763a183f96f6148d2a3bcbb4b91610c7d91889088906118b0565b60405180910390a15050505050565b60608082516001600160401b0381118015610ca657600080fd5b50604051908082528060200260200182016040528015610ce057816020015b610ccd611047565b815260200190600190039081610cc55790505b50905060005b83518110156104d7576000848281518110610cfd57fe5b602090810291909101810151600081815260058352604090819020815160a081018352815481526001808301546001600160a01b0316828701526002808401805486516101009482161594909402600019011691909104601f8101889004880283018801865280835295975091959294938601939092830182828015610dc45780601f10610d9957610100808354040283529160200191610dc4565b820191906000526020600020905b815481529060010190602001808311610da757829003601f168201915b505050918352505060038201805460408051602060026001851615610100026000190190941693909304601f8101849004840282018401909252818152938201939291830182828015610e585780601f10610e2d57610100808354040283529160200191610e58565b820191906000526020600020905b815481529060010190602001808311610e3b57829003601f168201915b50505050508152602001600482015481525050838381518110610e7757fe5b602090810291909101015250600101610ce6565b6001600160a01b038116600090815260036020908152604091829020805483518184028101840190945280845260609392830182828015610eeb57602002820191906000526020600020905b815481526020019060010190808311610ed7575b50505050509050919050565b6001600160a01b038116600090815260096020908152604091829020805483518184028101840190945280845260609392830182828015610eeb5760200282019190600052602060002090815481526020019060010190808311610ed75750505050509050919050565b6000908152600860205260409020600201805461ff001916610100179055565b6007546000908152600860209081526040822087815586519091610fac9160018401918901906110b3565b5060028101805484919060ff19166001836004811115610fc857fe5b021790555060028101805461ff00191690554260038201556004810180546001600160a01b039687166001600160a01b0319918216179091556005909101805494909516931683179093555060078054600181810190925560009283526009602090815260408420805493840181558452909220018190559392505050565b6040518060a001604052806000815260200160006001600160a01b031681526020016060815260200160608152602001600081525090565b6040805160c0810182526000808252602082018190529181018290526060808201839052608082015260a081019190915290565b828054600181600116156101000203166002900490600052602060002090601f0160209004810192826110e9576000855561112f565b82601f1061110257805160ff191683800117855561112f565b8280016001018555821561112f579182015b8281111561112f578251825591602001919060010190611114565b5061113b92915061117c565b5090565b6040805160e08101825260008082526060602083015290918201908152600060208201819052604082018190526060820181905260809091015290565b5b8082111561113b576000815560010161117d565b600082601f8301126111a1578081fd5b81356001600160401b038111156111b457fe5b6111c7601f8201601f19166020016118f0565b91508082528360208285010111156111de57600080fd5b8060208401602084013760009082016020015292915050565b600060208284031215611208578081fd5b81356001600160a01b038116811461121e578182fd5b9392505050565b60006020808385031215611237578182fd5b82356001600160401b038082111561124d578384fd5b818501915085601f830112611260578384fd5b81358181111561126c57fe5b838102915061127c8483016118f0565b8181528481019084860184860187018a1015611296578788fd5b8795505b838610156112b857803583526001959095019491860191860161129a565b5098975050505050505050565b6000602082840312156112d6578081fd5b815161121e8161191f565b6000602082840312156112f2578081fd5b5035919050565b60006020828403121561130a578081fd5b5051919050565b60008060408385031215611323578081fd5b8235915060208301356113358161191f565b809150509250929050565b60008060408385031215611352578182fd5b8235915060208301356001600160401b0381111561136e578182fd5b61137a85828601611191565b9150509250929050565b600080600060608486031215611398578081fd5b833592506020840135915060408401356001600160401b038111156113bb578182fd5b6113c786828701611191565b9150509250925092565b6001600160a01b03169052565b60008151808452815b81811015611403576020818501810151868301820152016113e7565b818111156114145782602083870101525b50601f01601f19169290920160200192915050565b600060018060a01b038251168352602082015160208401526040820151604084015260608201516060840152608082015160c0608085015261146e60c08501826113de565b60a093840151949093019390935250919050565b60008151835260018060a01b036020830151166020840152604082015160a060408501526114b360a08501826113de565b9050606083015184820360608601526114cc82826113de565b915050608083015160808501528091505092915050565b6001600160a01b0392831681529116602082015260400190565b6001600160a01b039384168152919092166020820152604081019190915260600190565b6000602080830181845280855180835260408601915060408482028701019250838701855b8281101561157457603f19888603018452611562858351611429565b94509285019290850190600101611546565b5092979650505050505050565b60208082528251828201819052600091906040908185019080840286018301878501865b8381101561163957603f19898403018552815160e08151855288820151818a8701526115d3828701826113de565b91505087820151600581106115e457fe5b858901526060828101511515908601526080808301519086015260a080830151611610828801826113d1565b505060c09182015191611625868201846113d1565b5095880195935050908601906001016115a5565b509098975050505050505050565b6000602080830181845280855180835260408601915060408482028701019250838701855b8281101561157457603f19888603018452611688858351611482565b9450928501929085019060010161166c565b6020808252825182820181905260009190848201906040850190845b818110156116d2578351835292840192918401916001016116b6565b50909695505050505050565b60208082526029908201527f43616e6e6f7420756e6c6f636b2066756e647320746f207472616e736665722060408201526806f776e6572736869760bc1b606082015260800190565b60208082526028908201527f416d6f756e742073686f756c6420626520657175616c20746f20746865206974604082015267656d20707269636560c01b606082015260800190565b602080825260199082015278436865636b2074686520746f6b656e20616c6c6f77616e636560381b604082015260600190565b6020808252601e908201527f43616e6e6f74207472616e73666572204974656d206f776e6572736869700000604082015260600190565b60006020825261121e6020830184611429565b60006020825261121e6020830184611482565b90815260200190565b6000608082018683526020868185015260018060a01b03861660408501526080606085015282855460018082166000811461184a5760018114611868576118a0565b60028304607f16865260ff19831660a089015260c0880193506118a0565b600283048087526118788a611913565b885b828110156118965781548b820160a0015290840190870161187a565b8a0160a001955050505b50919a9950505050505050505050565b92835260208301919091521515604082015260600190565b6000848252836020830152606060408301526118e760608301846113de565b95945050505050565b6040518181016001600160401b038111828210171561190b57fe5b604052919050565b60009081526020902090565b801515811461192d57600080fd5b5056fe5468616e6b20796f7520666f7220796f75722070757263686173652e20506c6561736520636865636b206974656d2ea264697066735822122050570f1cff3cd4a6000bdc554b722667a91a9ff8364c640a0b2d6f9881ec68b364736f6c63430007040033",
  "devdoc": {
    "kind": "dev",
    "methods": {},
    "version": 1
  },
  "userdoc": {
    "kind": "user",
    "methods": {
      "acceptPurchase(uint256,bytes)": {
        "notice": "called by seller to accept a purchase request for a registered advertisement"
      },
      "constructor": {
        "notice": "constructor(address descartesAddress) { // TODO retrieve Descartes interface from the address descartes = DescartesInterface(descartesAddress); } "
      },
      "finalizePurchase(uint256,bool)": {
        "notice": "finalizes purchase, unlocking buyer's funds and seller's deposit as appropriate"
      },
      "getAd(uint256)": {
        "notice": "retrieves an advertisement given its identifier"
      },
      "getAds(uint256[])": {
        "notice": "retrieves an array of advertisements given their identifiers"
      },
      "getNotifications(uint256[])": {
        "notice": "retrieves an array of notifications given their identifiers"
      },
      "getPurchase(uint256)": {
        "notice": "retrieves a purchase given its identifier"
      },
      "getPurchases(uint256[])": {
        "notice": "retrieves an advertisement given its identifier"
      },
      "listAdsPerSeller(address)": {
        "notice": "returns identifiers for a seller's advertisements"
      },
      "listNotificationsPerUser(address)": {
        "notice": "returns identifiers for a seller's notifications"
      },
      "requestPurchase(uint256,uint256,bytes)": {
        "notice": "requests purchase of a registered advertisement"
      }
    },
    "version": 1
  },
  "storageLayout": {
    "storage": [
      {
        "astId": 3360,
        "contract": "cache/solpp-generated-contracts/ContentMarketplace.sol:ContentMarketplace",
        "label": "SIMRACERCOIN",
        "offset": 0,
        "slot": "0",
        "type": "t_contract(ERC20)903"
      },
      {
        "astId": 3408,
        "contract": "cache/solpp-generated-contracts/ContentMarketplace.sol:ContentMarketplace",
        "label": "numAds",
        "offset": 0,
        "slot": "1",
        "type": "t_uint256"
      },
      {
        "astId": 3412,
        "contract": "cache/solpp-generated-contracts/ContentMarketplace.sol:ContentMarketplace",
        "label": "ads",
        "offset": 0,
        "slot": "2",
        "type": "t_mapping(t_uint256,t_struct(Advertisement)3373_storage)"
      },
      {
        "astId": 3417,
        "contract": "cache/solpp-generated-contracts/ContentMarketplace.sol:ContentMarketplace",
        "label": "adsPerSeller",
        "offset": 0,
        "slot": "3",
        "type": "t_mapping(t_address,t_array(t_uint256)dyn_storage)"
      },
      {
        "astId": 3420,
        "contract": "cache/solpp-generated-contracts/ContentMarketplace.sol:ContentMarketplace",
        "label": "numPurchases",
        "offset": 0,
        "slot": "4",
        "type": "t_uint256"
      },
      {
        "astId": 3424,
        "contract": "cache/solpp-generated-contracts/ContentMarketplace.sol:ContentMarketplace",
        "label": "purchases",
        "offset": 0,
        "slot": "5",
        "type": "t_mapping(t_uint256,t_struct(Purchase)3384_storage)"
      },
      {
        "astId": 3429,
        "contract": "cache/solpp-generated-contracts/ContentMarketplace.sol:ContentMarketplace",
        "label": "purchasesPerAd",
        "offset": 0,
        "slot": "6",
        "type": "t_mapping(t_uint256,t_array(t_uint256)dyn_storage)"
      },
      {
        "astId": 3432,
        "contract": "cache/solpp-generated-contracts/ContentMarketplace.sol:ContentMarketplace",
        "label": "numNotifications",
        "offset": 0,
        "slot": "7",
        "type": "t_uint256"
      },
      {
        "astId": 3436,
        "contract": "cache/solpp-generated-contracts/ContentMarketplace.sol:ContentMarketplace",
        "label": "notifications",
        "offset": 0,
        "slot": "8",
        "type": "t_mapping(t_uint256,t_struct(Notification)3405_storage)"
      },
      {
        "astId": 3441,
        "contract": "cache/solpp-generated-contracts/ContentMarketplace.sol:ContentMarketplace",
        "label": "notificationsPerUser",
        "offset": 0,
        "slot": "9",
        "type": "t_mapping(t_address,t_array(t_uint256)dyn_storage)"
      }
    ],
    "types": {
      "t_address": {
        "encoding": "inplace",
        "label": "address",
        "numberOfBytes": "20"
      },
      "t_address_payable": {
        "encoding": "inplace",
        "label": "address payable",
        "numberOfBytes": "20"
      },
      "t_array(t_uint256)dyn_storage": {
        "base": "t_uint256",
        "encoding": "dynamic_array",
        "label": "uint256[]",
        "numberOfBytes": "32"
      },
      "t_bool": {
        "encoding": "inplace",
        "label": "bool",
        "numberOfBytes": "1"
      },
      "t_bytes32": {
        "encoding": "inplace",
        "label": "bytes32",
        "numberOfBytes": "32"
      },
      "t_bytes_storage": {
        "encoding": "bytes",
        "label": "bytes",
        "numberOfBytes": "32"
      },
      "t_contract(ERC20)903": {
        "encoding": "inplace",
        "label": "contract ERC20",
        "numberOfBytes": "20"
      },
      "t_enum(NotificationType)3390": {
        "encoding": "inplace",
        "label": "enum ContentMarketplace.NotificationType",
        "numberOfBytes": "1"
      },
      "t_mapping(t_address,t_array(t_uint256)dyn_storage)": {
        "encoding": "mapping",
        "key": "t_address",
        "label": "mapping(address => uint256[])",
        "numberOfBytes": "32",
        "value": "t_array(t_uint256)dyn_storage"
      },
      "t_mapping(t_uint256,t_array(t_uint256)dyn_storage)": {
        "encoding": "mapping",
        "key": "t_uint256",
        "label": "mapping(uint256 => uint256[])",
        "numberOfBytes": "32",
        "value": "t_array(t_uint256)dyn_storage"
      },
      "t_mapping(t_uint256,t_struct(Advertisement)3373_storage)": {
        "encoding": "mapping",
        "key": "t_uint256",
        "label": "mapping(uint256 => struct ContentMarketplace.Advertisement)",
        "numberOfBytes": "32",
        "value": "t_struct(Advertisement)3373_storage"
      },
      "t_mapping(t_uint256,t_struct(Notification)3405_storage)": {
        "encoding": "mapping",
        "key": "t_uint256",
        "label": "mapping(uint256 => struct ContentMarketplace.Notification)",
        "numberOfBytes": "32",
        "value": "t_struct(Notification)3405_storage"
      },
      "t_mapping(t_uint256,t_struct(Purchase)3384_storage)": {
        "encoding": "mapping",
        "key": "t_uint256",
        "label": "mapping(uint256 => struct ContentMarketplace.Purchase)",
        "numberOfBytes": "32",
        "value": "t_struct(Purchase)3384_storage"
      },
      "t_string_storage": {
        "encoding": "bytes",
        "label": "string",
        "numberOfBytes": "32"
      },
      "t_struct(Advertisement)3373_storage": {
        "encoding": "inplace",
        "label": "struct ContentMarketplace.Advertisement",
        "members": [
          {
            "astId": 3362,
            "contract": "cache/solpp-generated-contracts/ContentMarketplace.sol:ContentMarketplace",
            "label": "seller",
            "offset": 0,
            "slot": "0",
            "type": "t_address_payable"
          },
          {
            "astId": 3364,
            "contract": "cache/solpp-generated-contracts/ContentMarketplace.sol:ContentMarketplace",
            "label": "price",
            "offset": 0,
            "slot": "1",
            "type": "t_uint256"
          },
          {
            "astId": 3366,
            "contract": "cache/solpp-generated-contracts/ContentMarketplace.sol:ContentMarketplace",
            "label": "dataHash",
            "offset": 0,
            "slot": "2",
            "type": "t_bytes32"
          },
          {
            "astId": 3368,
            "contract": "cache/solpp-generated-contracts/ContentMarketplace.sol:ContentMarketplace",
            "label": "encryptedDataHash",
            "offset": 0,
            "slot": "3",
            "type": "t_bytes32"
          },
          {
            "astId": 3370,
            "contract": "cache/solpp-generated-contracts/ContentMarketplace.sol:ContentMarketplace",
            "label": "ipfsPath",
            "offset": 0,
            "slot": "4",
            "type": "t_bytes_storage"
          },
          {
            "astId": 3372,
            "contract": "cache/solpp-generated-contracts/ContentMarketplace.sol:ContentMarketplace",
            "label": "testTemplateHash",
            "offset": 0,
            "slot": "5",
            "type": "t_bytes32"
          }
        ],
        "numberOfBytes": "192"
      },
      "t_struct(Notification)3405_storage": {
        "encoding": "inplace",
        "label": "struct ContentMarketplace.Notification",
        "members": [
          {
            "astId": 3392,
            "contract": "cache/solpp-generated-contracts/ContentMarketplace.sol:ContentMarketplace",
            "label": "purchaseId",
            "offset": 0,
            "slot": "0",
            "type": "t_uint256"
          },
          {
            "astId": 3394,
            "contract": "cache/solpp-generated-contracts/ContentMarketplace.sol:ContentMarketplace",
            "label": "message",
            "offset": 0,
            "slot": "1",
            "type": "t_string_storage"
          },
          {
            "astId": 3396,
            "contract": "cache/solpp-generated-contracts/ContentMarketplace.sol:ContentMarketplace",
            "label": "nType",
            "offset": 0,
            "slot": "2",
            "type": "t_enum(NotificationType)3390"
          },
          {
            "astId": 3398,
            "contract": "cache/solpp-generated-contracts/ContentMarketplace.sol:ContentMarketplace",
            "label": "archive",
            "offset": 1,
            "slot": "2",
            "type": "t_bool"
          },
          {
            "astId": 3400,
            "contract": "cache/solpp-generated-contracts/ContentMarketplace.sol:ContentMarketplace",
            "label": "date",
            "offset": 0,
            "slot": "3",
            "type": "t_uint256"
          },
          {
            "astId": 3402,
            "contract": "cache/solpp-generated-contracts/ContentMarketplace.sol:ContentMarketplace",
            "label": "sender",
            "offset": 0,
            "slot": "4",
            "type": "t_address"
          },
          {
            "astId": 3404,
            "contract": "cache/solpp-generated-contracts/ContentMarketplace.sol:ContentMarketplace",
            "label": "receiver",
            "offset": 0,
            "slot": "5",
            "type": "t_address"
          }
        ],
        "numberOfBytes": "192"
      },
      "t_struct(Purchase)3384_storage": {
        "encoding": "inplace",
        "label": "struct ContentMarketplace.Purchase",
        "members": [
          {
            "astId": 3375,
            "contract": "cache/solpp-generated-contracts/ContentMarketplace.sol:ContentMarketplace",
            "label": "adId",
            "offset": 0,
            "slot": "0",
            "type": "t_uint256"
          },
          {
            "astId": 3377,
            "contract": "cache/solpp-generated-contracts/ContentMarketplace.sol:ContentMarketplace",
            "label": "buyer",
            "offset": 0,
            "slot": "1",
            "type": "t_address_payable"
          },
          {
            "astId": 3379,
            "contract": "cache/solpp-generated-contracts/ContentMarketplace.sol:ContentMarketplace",
            "label": "buyerKey",
            "offset": 0,
            "slot": "2",
            "type": "t_bytes_storage"
          },
          {
            "astId": 3381,
            "contract": "cache/solpp-generated-contracts/ContentMarketplace.sol:ContentMarketplace",
            "label": "encryptedDataKey",
            "offset": 0,
            "slot": "3",
            "type": "t_bytes_storage"
          },
          {
            "astId": 3383,
            "contract": "cache/solpp-generated-contracts/ContentMarketplace.sol:ContentMarketplace",
            "label": "date",
            "offset": 0,
            "slot": "4",
            "type": "t_uint256"
          }
        ],
        "numberOfBytes": "160"
      },
      "t_uint256": {
        "encoding": "inplace",
        "label": "uint256",
        "numberOfBytes": "32"
      }
    }
  }
}