{
  "address": "0xCd323F783c82bff0B99F2f718E191fe7860cC5F7",
  "abi": [
    {
      "inputs": [
        {
          "internalType": "address",
          "name": "payable_token",
          "type": "address"
        }
      ],
      "stateMutability": "nonpayable",
      "type": "constructor"
    },
    {
      "anonymous": false,
      "inputs": [
        {
          "indexed": true,
          "internalType": "address",
          "name": "owner",
          "type": "address"
        },
        {
          "indexed": true,
          "internalType": "address",
          "name": "approved",
          "type": "address"
        },
        {
          "indexed": true,
          "internalType": "uint256",
          "name": "tokenId",
          "type": "uint256"
        }
      ],
      "name": "Approval",
      "type": "event"
    },
    {
      "anonymous": false,
      "inputs": [
        {
          "indexed": true,
          "internalType": "address",
          "name": "owner",
          "type": "address"
        },
        {
          "indexed": true,
          "internalType": "address",
          "name": "operator",
          "type": "address"
        },
        {
          "indexed": false,
          "internalType": "bool",
          "name": "approved",
          "type": "bool"
        }
      ],
      "name": "ApprovalForAll",
      "type": "event"
    },
    {
      "anonymous": false,
      "inputs": [
        {
          "indexed": true,
          "internalType": "address",
          "name": "from",
          "type": "address"
        },
        {
          "indexed": true,
          "internalType": "address",
          "name": "to",
          "type": "address"
        },
        {
          "indexed": true,
          "internalType": "uint256",
          "name": "tokenId",
          "type": "uint256"
        }
      ],
      "name": "Transfer",
      "type": "event"
    },
    {
      "inputs": [
        {
          "internalType": "address",
          "name": "to",
          "type": "address"
        },
        {
          "internalType": "uint256",
          "name": "tokenId",
          "type": "uint256"
        }
      ],
      "name": "approve",
      "outputs": [],
      "stateMutability": "nonpayable",
      "type": "function"
    },
    {
      "inputs": [
        {
          "internalType": "address",
          "name": "recipient",
          "type": "address"
        },
        {
          "internalType": "address payable",
          "name": "seriesOwner",
          "type": "address"
        },
        {
          "internalType": "uint256",
          "name": "itemPrice",
          "type": "uint256"
        },
        {
          "internalType": "string",
          "name": "metadata",
          "type": "string"
        }
      ],
      "name": "awardItem",
      "outputs": [
        {
          "internalType": "uint256",
          "name": "",
          "type": "uint256"
        }
      ],
      "stateMutability": "nonpayable",
      "type": "function"
    },
    {
      "inputs": [
        {
          "internalType": "address",
          "name": "owner",
          "type": "address"
        }
      ],
      "name": "balanceOf",
      "outputs": [
        {
          "internalType": "uint256",
          "name": "",
          "type": "uint256"
        }
      ],
      "stateMutability": "view",
      "type": "function"
    },
    {
      "inputs": [],
      "name": "baseURI",
      "outputs": [
        {
          "internalType": "string",
          "name": "",
          "type": "string"
        }
      ],
      "stateMutability": "view",
      "type": "function"
    },
    {
      "inputs": [
        {
          "internalType": "uint256",
          "name": "itemId",
          "type": "uint256"
        },
        {
          "internalType": "uint256",
          "name": "itemPrice",
          "type": "uint256"
        }
      ],
      "name": "buyItem",
      "outputs": [],
      "stateMutability": "nonpayable",
      "type": "function"
    },
    {
      "inputs": [],
      "name": "currentTokenId",
      "outputs": [
        {
          "internalType": "uint256",
          "name": "",
          "type": "uint256"
        }
      ],
      "stateMutability": "nonpayable",
      "type": "function"
    },
    {
      "inputs": [
        {
          "internalType": "uint256",
          "name": "tokenId",
          "type": "uint256"
        }
      ],
      "name": "getApproved",
      "outputs": [
        {
          "internalType": "address",
          "name": "",
          "type": "address"
        }
      ],
      "stateMutability": "view",
      "type": "function"
    },
    {
      "inputs": [
        {
          "internalType": "address",
          "name": "owner",
          "type": "address"
        },
        {
          "internalType": "address",
          "name": "operator",
          "type": "address"
        }
      ],
      "name": "isApprovedForAll",
      "outputs": [
        {
          "internalType": "bool",
          "name": "",
          "type": "bool"
        }
      ],
      "stateMutability": "view",
      "type": "function"
    },
    {
      "inputs": [],
      "name": "name",
      "outputs": [
        {
          "internalType": "string",
          "name": "",
          "type": "string"
        }
      ],
      "stateMutability": "view",
      "type": "function"
    },
    {
      "inputs": [
        {
          "internalType": "uint256",
          "name": "tokenId",
          "type": "uint256"
        }
      ],
      "name": "ownerOf",
      "outputs": [
        {
          "internalType": "address",
          "name": "",
          "type": "address"
        }
      ],
      "stateMutability": "view",
      "type": "function"
    },
    {
      "inputs": [
        {
          "internalType": "address",
          "name": "from",
          "type": "address"
        },
        {
          "internalType": "address",
          "name": "to",
          "type": "address"
        },
        {
          "internalType": "uint256",
          "name": "tokenId",
          "type": "uint256"
        }
      ],
      "name": "safeTransferFrom",
      "outputs": [],
      "stateMutability": "nonpayable",
      "type": "function"
    },
    {
      "inputs": [
        {
          "internalType": "address",
          "name": "from",
          "type": "address"
        },
        {
          "internalType": "address",
          "name": "to",
          "type": "address"
        },
        {
          "internalType": "uint256",
          "name": "tokenId",
          "type": "uint256"
        },
        {
          "internalType": "bytes",
          "name": "_data",
          "type": "bytes"
        }
      ],
      "name": "safeTransferFrom",
      "outputs": [],
      "stateMutability": "nonpayable",
      "type": "function"
    },
    {
      "inputs": [
        {
          "internalType": "address",
          "name": "operator",
          "type": "address"
        },
        {
          "internalType": "bool",
          "name": "approved",
          "type": "bool"
        }
      ],
      "name": "setApprovalForAll",
      "outputs": [],
      "stateMutability": "nonpayable",
      "type": "function"
    },
    {
      "inputs": [
        {
          "internalType": "bytes4",
          "name": "interfaceId",
          "type": "bytes4"
        }
      ],
      "name": "supportsInterface",
      "outputs": [
        {
          "internalType": "bool",
          "name": "",
          "type": "bool"
        }
      ],
      "stateMutability": "view",
      "type": "function"
    },
    {
      "inputs": [],
      "name": "symbol",
      "outputs": [
        {
          "internalType": "string",
          "name": "",
          "type": "string"
        }
      ],
      "stateMutability": "view",
      "type": "function"
    },
    {
      "inputs": [
        {
          "internalType": "uint256",
          "name": "index",
          "type": "uint256"
        }
      ],
      "name": "tokenByIndex",
      "outputs": [
        {
          "internalType": "uint256",
          "name": "",
          "type": "uint256"
        }
      ],
      "stateMutability": "view",
      "type": "function"
    },
    {
      "inputs": [
        {
          "internalType": "address",
          "name": "owner",
          "type": "address"
        },
        {
          "internalType": "uint256",
          "name": "index",
          "type": "uint256"
        }
      ],
      "name": "tokenOfOwnerByIndex",
      "outputs": [
        {
          "internalType": "uint256",
          "name": "",
          "type": "uint256"
        }
      ],
      "stateMutability": "view",
      "type": "function"
    },
    {
      "inputs": [
        {
          "internalType": "uint256",
          "name": "tokenId",
          "type": "uint256"
        }
      ],
      "name": "tokenURI",
      "outputs": [
        {
          "internalType": "string",
          "name": "",
          "type": "string"
        }
      ],
      "stateMutability": "view",
      "type": "function"
    },
    {
      "inputs": [],
      "name": "totalSupply",
      "outputs": [
        {
          "internalType": "uint256",
          "name": "",
          "type": "uint256"
        }
      ],
      "stateMutability": "view",
      "type": "function"
    },
    {
      "inputs": [
        {
          "internalType": "address",
          "name": "from",
          "type": "address"
        },
        {
          "internalType": "address",
          "name": "to",
          "type": "address"
        },
        {
          "internalType": "uint256",
          "name": "tokenId",
          "type": "uint256"
        }
      ],
      "name": "transferFrom",
      "outputs": [],
      "stateMutability": "nonpayable",
      "type": "function"
    }
  ],
  "transactionHash": "0x030f9b308e37d0afd00451ceb7a3e2ae225cbe6e69de105c0e299819fb0e6afe",
  "args": [
    "0xf0c3C4AC63Be272a94712bCcc39490A159Cd0D7C"
  ],
  "solcInputHash": "615c5a632bac9805ab8069148bdbf8c8",
  "bytecode": "0x60806040523480156200001157600080fd5b506040516200223f3803806200223f833981810160405260208110156200003757600080fd5b5051604080518082018252601081526f29b4b6ba343ab73232b91027bbb732b960811b6020828101919091528251808401909352600583526429aa21a0a960d91b90830152906200008f6301ffc9a760e01b62000119565b8151620000a49060069060208501906200019e565b508051620000ba9060079060208401906200019e565b50620000cd6380ac58cd60e01b62000119565b620000df635b5e139f60e01b62000119565b620000f163780e9d6360e01b62000119565b5050600a80546001600160a01b0319166001600160a01b03929092169190911790556200024a565b6001600160e01b0319808216141562000179576040805162461bcd60e51b815260206004820152601c60248201527f4552433136353a20696e76616c696420696e7465726661636520696400000000604482015290519081900360640190fd5b6001600160e01b0319166000908152602081905260409020805460ff19166001179055565b828054600181600116156101000203166002900490600052602060002090601f016020900481019282620001d6576000855562000221565b82601f10620001f157805160ff191683800117855562000221565b8280016001018555821562000221579182015b828111156200022157825182559160200191906001019062000204565b506200022f92915062000233565b5090565b5b808211156200022f576000815560010162000234565b611fe5806200025a6000396000f3fe608060405234801561001057600080fd5b506004361061012b5760003560e01c80636352211e116100ad578063a22cb46511610071578063a22cb4651461039c578063b88d4fde146103ca578063c87b56dd1461048e578063e985e9c5146104ab578063f6f79bde146104d95761012b565b80636352211e146103265780636c0360eb1461034357806370a082311461034b57806395d89b41146103715780639979c009146103795761012b565b806318160ddd116100f457806318160ddd1461026957806323b872dd146102715780632f745c59146102a757806342842e0e146102d35780634f6ccce7146103095761012b565b80629a9b7b1461013057806301ffc9a71461014a57806306fdde0314610185578063081812fc14610202578063095ea7b31461023b575b600080fd5b61013861059d565b60408051918252519081900360200190f35b6101716004803603602081101561016057600080fd5b50356001600160e01b0319166105ae565b604080519115158252519081900360200190f35b61018d6105d1565b6040805160208082528351818301528351919283929083019185019080838360005b838110156101c75781810151838201526020016101af565b50505050905090810190601f1680156101f45780820380516001836020036101000a031916815260200191505b509250505060405180910390f35b61021f6004803603602081101561021857600080fd5b5035610667565b604080516001600160a01b039092168252519081900360200190f35b6102676004803603604081101561025157600080fd5b506001600160a01b0381351690602001356106c9565b005b6101386107a4565b6102676004803603606081101561028757600080fd5b506001600160a01b038135811691602081013590911690604001356107b0565b610138600480360360408110156102bd57600080fd5b506001600160a01b038135169060200135610807565b610267600480360360608110156102e957600080fd5b506001600160a01b03813581169160208101359091169060400135610832565b6101386004803603602081101561031f57600080fd5b503561084d565b61021f6004803603602081101561033c57600080fd5b5035610863565b61018d61088b565b6101386004803603602081101561036157600080fd5b50356001600160a01b03166108ec565b61018d610954565b6102676004803603604081101561038f57600080fd5b50803590602001356109b5565b610267600480360360408110156103b257600080fd5b506001600160a01b0381351690602001351515610be4565b610267600480360360808110156103e057600080fd5b6001600160a01b03823581169260208101359091169160408201359190810190608081016060820135600160201b81111561041a57600080fd5b82018360208201111561042c57600080fd5b803590602001918460018302840111600160201b8311171561044d57600080fd5b91908080601f016020809104026020016040519081016040528093929190818152602001838380828437600092019190915250929550610ce5945050505050565b61018d600480360360208110156104a457600080fd5b5035610d43565b610171600480360360408110156104c157600080fd5b506001600160a01b0381358116916020013516610fea565b610138600480360360808110156104ef57600080fd5b6001600160a01b03823581169260208101359091169160408201359190810190608081016060820135600160201b81111561052957600080fd5b82018360208201111561053b57600080fd5b803590602001918460018302840111600160201b8311171561055c57600080fd5b91908080601f016020809104026020016040519081016040528093929190818152602001838380828437600092019190915250929550611018945050505050565b60006105a9600b611085565b905090565b6001600160e01b0319811660009081526020819052604090205460ff165b919050565b60068054604080516020601f600260001961010060018816150201909516949094049384018190048102820181019092528281526060939092909183018282801561065d5780601f106106325761010080835404028352916020019161065d565b820191906000526020600020905b81548152906001019060200180831161064057829003601f168201915b5050505050905090565b600061067282611089565b6106ad5760405162461bcd60e51b815260040180806020018281038252602c815260200180611eae602c913960400191505060405180910390fd5b506000908152600460205260409020546001600160a01b031690565b60006106d482610863565b9050806001600160a01b0316836001600160a01b031614156107275760405162461bcd60e51b8152600401808060200182810382526021815260200180611f5e6021913960400191505060405180910390fd5b806001600160a01b0316610739611096565b6001600160a01b0316148061075a575061075a81610755611096565b610fea565b6107955760405162461bcd60e51b8152600401808060200182810382526038815260200180611e016038913960400191505060405180910390fd5b61079f838361109a565b505050565b60006105a96002611108565b6107c16107bb611096565b82611113565b6107fc5760405162461bcd60e51b8152600401808060200182810382526031815260200180611f7f6031913960400191505060405180910390fd5b61079f8383836111af565b6001600160a01b038216600090815260016020526040812061082990836112fb565b90505b92915050565b61079f83838360405180602001604052806000815250610ce5565b60008061085b600284611307565b509392505050565b600061082c82604051806060016040528060298152602001611e636029913960029190611323565b60098054604080516020601f600260001961010060018816150201909516949094049384018190048102820181019092528281526060939092909183018282801561065d5780601f106106325761010080835404028352916020019161065d565b60006001600160a01b0382166109335760405162461bcd60e51b815260040180806020018281038252602a815260200180611e39602a913960400191505060405180910390fd5b6001600160a01b038216600090815260016020526040902061082c90611108565b60078054604080516020601f600260001961010060018816150201909516949094049384018190048102820181019092528281526060939092909183018282801561065d5780601f106106325761010080835404028352916020019161065d565b6000828152600c60205260409020548114610a0e576040805162461bcd60e51b8152602060048201526014602482015273436865636b20746865206974656d20707269636560601b604482015290519081900360640190fd5b6000828152600d6020908152604080832054600c83529281902054600a548251636eb1769f60e11b815233600482015230602482015292516001600160a01b03958616959294919092169263dd62ed3e9260448083019392829003018186803b158015610a7a57600080fd5b505afa158015610a8e573d6000803e3d6000fd5b505050506040513d6020811015610aa457600080fd5b50511015610af5576040805162461bcd60e51b8152602060048201526019602482015278436865636b2074686520746f6b656e20616c6c6f77616e636560381b604482015290519081900360640190fd5b600a546000848152600c602090815260408083205481516323b872dd60e01b81523360048201526001600160a01b038781166024830152604482019290925291519416936323b872dd93606480840194938390030190829087803b158015610b5c57600080fd5b505af1158015610b70573d6000803e3d6000fd5b505050506040513d6020811015610b8657600080fd5b5051610bd9576040805162461bcd60e51b815260206004820152601d60248201527f43616e6e6f74207472616e73666572204e4654206f776e657273686970000000604482015290519081900360640190fd5b61079f3033856111af565b610bec611096565b6001600160a01b0316826001600160a01b03161415610c4e576040805162461bcd60e51b815260206004820152601960248201527822a9219b99189d1030b8383937bb32903a379031b0b63632b960391b604482015290519081900360640190fd5b8060056000610c5b611096565b6001600160a01b03908116825260208083019390935260409182016000908120918716808252919093529120805460ff191692151592909217909155610c9f611096565b6001600160a01b03167f17307eab39ab6107e8899845ad3d59bd9653f200f220920489ca2b5937696c318360405180821515815260200191505060405180910390a35050565b610cf6610cf0611096565b83611113565b610d315760405162461bcd60e51b8152600401808060200182810382526031815260200180611f7f6031913960400191505060405180910390fd5b610d3d8484848461133a565b50505050565b6060610d4e82611089565b610d895760405162461bcd60e51b815260040180806020018281038252602f815260200180611f2f602f913960400191505060405180910390fd5b60008281526008602090815260409182902080548351601f6002600019610100600186161502019093169290920491820184900484028101840190945280845260609392830182828015610e1e5780601f10610df357610100808354040283529160200191610e1e565b820191906000526020600020905b815481529060010190602001808311610e0157829003601f168201915b505060095493945050505060026000196101006001841615020190911604610e475790506105cc565b805115610f18576009816040516020018083805460018160011615610100020316600290048015610eaf5780601f10610e8d576101008083540402835291820191610eaf565b820191906000526020600020905b815481529060010190602001808311610e9b575b5050825160208401908083835b60208310610edb5780518252601f199092019160209182019101610ebc565b6001836020036101000a038019825116818451168082178552505050505050905001925050506040516020818303038152906040529150506105cc565b6009610f238461138c565b6040516020018083805460018160011615610100020316600290048015610f815780601f10610f5f576101008083540402835291820191610f81565b820191906000526020600020905b815481529060010190602001808311610f6d575b5050825160208401908083835b60208310610fad5780518252601f199092019160209182019101610f8e565b6001836020036101000a03801982511681845116808217855250505050505090500192505050604051602081830303815290604052915050919050565b6001600160a01b03918216600090815260056020908152604080832093909416825291909152205460ff1690565b6000611024600b611467565b6000611030600b611085565b905061103c8682611470565b6000818152600c60209081526040808320879055600d909152902080546001600160a01b0319166001600160a01b03871617905561107a818461159e565b90505b949350505050565b5490565b600061082c600283611601565b3390565b600081815260046020526040902080546001600160a01b0319166001600160a01b03841690811790915581906110cf82610863565b6001600160a01b03167f8c5be1e5ebec7d5bd14f71427d1e84f3dd0314c0f7b2291e5b200ac8c7c3b92560405160405180910390a45050565b600061082c82611085565b600061111e82611089565b6111595760405162461bcd60e51b815260040180806020018281038252602c815260200180611dd5602c913960400191505060405180910390fd5b600061116483610863565b9050806001600160a01b0316846001600160a01b0316148061119f5750836001600160a01b031661119484610667565b6001600160a01b0316145b8061107d575061107d8185610fea565b826001600160a01b03166111c282610863565b6001600160a01b0316146112075760405162461bcd60e51b8152600401808060200182810382526029815260200180611f066029913960400191505060405180910390fd5b6001600160a01b03821661124c5760405162461bcd60e51b8152600401808060200182810382526024815260200180611db16024913960400191505060405180910390fd5b61125783838361079f565b61126260008261109a565b6001600160a01b0383166000908152600160205260409020611284908261160d565b506001600160a01b03821660009081526001602052604090206112a79082611619565b506112b460028284611625565b5080826001600160a01b0316846001600160a01b03167fddf252ad1be2c89b69c2b068fc378daa952ba7f163c4a11628f55a4df523b3ef60405160405180910390a4505050565b6000610829838361163b565b6000808080611316868661169f565b9097909650945050505050565b600061133084848461171a565b90505b9392505050565b6113458484846111af565b611351848484846117e4565b610d3d5760405162461bcd60e51b8152600401808060200182810382526032815260200180611d7f6032913960400191505060405180910390fd5b6060816113b157506040805180820190915260018152600360fc1b60208201526105cc565b8160005b81156113c957600101600a820491506113b5565b60608167ffffffffffffffff811180156113e257600080fd5b506040519080825280601f01601f19166020018201604052801561140d576020820181803683370190505b50859350905060001982015b831561145e57600a840660300160f81b8282806001900393508151811061143c57fe5b60200101906001600160f81b031916908160001a905350600a84049350611419565b50949350505050565b80546001019055565b6001600160a01b0382166114cb576040805162461bcd60e51b815260206004820181905260248201527f4552433732313a206d696e7420746f20746865207a65726f2061646472657373604482015290519081900360640190fd5b6114d481611089565b15611526576040805162461bcd60e51b815260206004820152601c60248201527f4552433732313a20746f6b656e20616c7265616479206d696e74656400000000604482015290519081900360640190fd5b6115326000838361079f565b6001600160a01b03821660009081526001602052604090206115549082611619565b5061156160028284611625565b5060405181906001600160a01b038416906000907fddf252ad1be2c89b69c2b068fc378daa952ba7f163c4a11628f55a4df523b3ef908290a45050565b6115a782611089565b6115e25760405162461bcd60e51b815260040180806020018281038252602c815260200180611eda602c913960400191505060405180910390fd5b6000828152600860209081526040909120825161079f92840190611cbb565b6000610829838361194c565b60006108298383611964565b60006108298383611a2a565b600061133084846001600160a01b038516611a74565b8154600090821061167d5760405162461bcd60e51b8152600401808060200182810382526022815260200180611d5d6022913960400191505060405180910390fd5b82600001828154811061168c57fe5b9060005260206000200154905092915050565b8154600090819083106116e35760405162461bcd60e51b8152600401808060200182810382526022815260200180611e8c6022913960400191505060405180910390fd5b60008460000184815481106116f457fe5b906000526020600020906002020190508060000154816001015492509250509250929050565b600082815260018401602052604081205482816117b55760405162461bcd60e51b81526004018080602001828103825283818151815260200191508051906020019080838360005b8381101561177a578181015183820152602001611762565b50505050905090810190601f1680156117a75780820380516001836020036101000a031916815260200191505b509250505060405180910390fd5b508460000160018203815481106117c857fe5b9060005260206000209060020201600101549150509392505050565b60006117f8846001600160a01b0316611b0b565b6118045750600161107d565b6060611912630a85bd0160e11b611819611096565b88878760405160240180856001600160a01b03168152602001846001600160a01b0316815260200183815260200180602001828103825283818151815260200191508051906020019080838360005b83811015611880578181015183820152602001611868565b50505050905090810190601f1680156118ad5780820380516001836020036101000a031916815260200191505b5095505050505050604051602081830303815290604052906001600160e01b0319166020820180516001600160e01b038381831617835250505050604051806060016040528060328152602001611d7f603291396001600160a01b0388169190611b44565b9050600081806020019051602081101561192b57600080fd5b50516001600160e01b031916630a85bd0160e11b1492505050949350505050565b60009081526001919091016020526040902054151590565b60008181526001830160205260408120548015611a20578354600019808301919081019060009087908390811061199757fe5b90600052602060002001549050808760000184815481106119b457fe5b6000918252602080832090910192909255828152600189810190925260409020908401905586548790806119e457fe5b6001900381819060005260206000200160009055905586600101600087815260200190815260200160002060009055600194505050505061082c565b600091505061082c565b6000611a36838361194c565b611a6c5750815460018181018455600084815260208082209093018490558454848252828601909352604090209190915561082c565b50600061082c565b600082815260018401602052604081205480611ad9575050604080518082018252838152602080820184815286546001818101895560008981528481209551600290930290950191825591519082015586548684528188019092529290912055611333565b82856000016001830381548110611aec57fe5b9060005260206000209060020201600101819055506000915050611333565b6000813f7fc5d2460186f7233c927e7db2dcc703c0e500b653ca82273b7bfad8045d85a47081811480159061107d575050151592915050565b606061133084846000856060611b5985611b0b565b611baa576040805162461bcd60e51b815260206004820152601d60248201527f416464726573733a2063616c6c20746f206e6f6e2d636f6e7472616374000000604482015290519081900360640190fd5b60006060866001600160a01b031685876040518082805190602001908083835b60208310611be95780518252601f199092019160209182019101611bca565b6001836020036101000a03801982511681845116808217855250505050505090500191505060006040518083038185875af1925050503d8060008114611c4b576040519150601f19603f3d011682016040523d82523d6000602084013e611c50565b606091505b50915091508115611c6457915061107d9050565b805115611c745780518082602001fd5b60405162461bcd60e51b815260206004820181815286516024840152865187939192839260440191908501908083836000831561177a578181015183820152602001611762565b828054600181600116156101000203166002900490600052602060002090601f016020900481019282611cf15760008555611d37565b82601f10611d0a57805160ff1916838001178555611d37565b82800160010185558215611d37579182015b82811115611d37578251825591602001919060010190611d1c565b50611d43929150611d47565b5090565b5b80821115611d435760008155600101611d4856fe456e756d657261626c655365743a20696e646578206f7574206f6620626f756e64734552433732313a207472616e7366657220746f206e6f6e20455243373231526563656976657220696d706c656d656e7465724552433732313a207472616e7366657220746f20746865207a65726f20616464726573734552433732313a206f70657261746f7220717565727920666f72206e6f6e6578697374656e7420746f6b656e4552433732313a20617070726f76652063616c6c6572206973206e6f74206f776e6572206e6f7220617070726f76656420666f7220616c6c4552433732313a2062616c616e636520717565727920666f7220746865207a65726f20616464726573734552433732313a206f776e657220717565727920666f72206e6f6e6578697374656e7420746f6b656e456e756d657261626c654d61703a20696e646578206f7574206f6620626f756e64734552433732313a20617070726f76656420717565727920666f72206e6f6e6578697374656e7420746f6b656e4552433732314d657461646174613a2055524920736574206f66206e6f6e6578697374656e7420746f6b656e4552433732313a207472616e73666572206f6620746f6b656e2074686174206973206e6f74206f776e4552433732314d657461646174613a2055524920717565727920666f72206e6f6e6578697374656e7420746f6b656e4552433732313a20617070726f76616c20746f2063757272656e74206f776e65724552433732313a207472616e736665722063616c6c6572206973206e6f74206f776e6572206e6f7220617070726f766564a264697066735822122058702a54bfe88aad710ef8dac1956daa7e2b987240f4614e8c99ac9f421a494064736f6c63430007040033",
  "devdoc": {
    "kind": "dev",
    "methods": {
      "approve(address,uint256)": {
        "details": "See {IERC721-approve}."
      },
      "balanceOf(address)": {
        "details": "See {IERC721-balanceOf}."
      },
      "baseURI()": {
        "details": "Returns the base URI set via {_setBaseURI}. This will be automatically added as a prefix in {tokenURI} to each token's URI, or to the token ID if no specific URI is set for that token ID."
      },
      "constructor": {
        "params": {
          "payable_token": "Address of SRC ERC20 contract, the contract in wich we pay the transactions"
        }
      },
      "getApproved(uint256)": {
        "details": "See {IERC721-getApproved}."
      },
      "isApprovedForAll(address,address)": {
        "details": "See {IERC721-isApprovedForAll}."
      },
      "name()": {
        "details": "See {IERC721Metadata-name}."
      },
      "ownerOf(uint256)": {
        "details": "See {IERC721-ownerOf}."
      },
      "safeTransferFrom(address,address,uint256)": {
        "details": "See {IERC721-safeTransferFrom}."
      },
      "safeTransferFrom(address,address,uint256,bytes)": {
        "details": "See {IERC721-safeTransferFrom}."
      },
      "setApprovalForAll(address,bool)": {
        "details": "See {IERC721-setApprovalForAll}."
      },
      "supportsInterface(bytes4)": {
        "details": "See {IERC165-supportsInterface}. Time complexity O(1), guaranteed to always use less than 30 000 gas."
      },
      "symbol()": {
        "details": "See {IERC721Metadata-symbol}."
      },
      "tokenByIndex(uint256)": {
        "details": "See {IERC721Enumerable-tokenByIndex}."
      },
      "tokenOfOwnerByIndex(address,uint256)": {
        "details": "See {IERC721Enumerable-tokenOfOwnerByIndex}."
      },
      "tokenURI(uint256)": {
        "details": "See {IERC721Metadata-tokenURI}."
      },
      "totalSupply()": {
        "details": "See {IERC721Enumerable-totalSupply}."
      },
      "transferFrom(address,address,uint256)": {
        "details": "See {IERC721-transferFrom}."
      }
    },
    "version": 1
  },
  "userdoc": {
    "kind": "user",
    "methods": {
      "constructor": {
        "notice": "The constructor for the Simthunder Owner NFT contract."
      }
    },
    "version": 1
  },
  "storageLayout": {
    "storage": [
      {
        "astId": 145,
        "contract": "cache/solpp-generated-contracts/SimthunderOwner.sol:SimthunderOwner",
        "label": "_supportedInterfaces",
        "offset": 0,
        "slot": "0",
        "type": "t_mapping(t_bytes4,t_bool)"
      },
      {
        "astId": 1086,
        "contract": "cache/solpp-generated-contracts/SimthunderOwner.sol:SimthunderOwner",
        "label": "_holderTokens",
        "offset": 0,
        "slot": "1",
        "type": "t_mapping(t_address,t_struct(UintSet)3172_storage)"
      },
      {
        "astId": 1088,
        "contract": "cache/solpp-generated-contracts/SimthunderOwner.sol:SimthunderOwner",
        "label": "_tokenOwners",
        "offset": 0,
        "slot": "2",
        "type": "t_struct(UintToAddressMap)2697_storage"
      },
      {
        "astId": 1092,
        "contract": "cache/solpp-generated-contracts/SimthunderOwner.sol:SimthunderOwner",
        "label": "_tokenApprovals",
        "offset": 0,
        "slot": "4",
        "type": "t_mapping(t_uint256,t_address)"
      },
      {
        "astId": 1098,
        "contract": "cache/solpp-generated-contracts/SimthunderOwner.sol:SimthunderOwner",
        "label": "_operatorApprovals",
        "offset": 0,
        "slot": "5",
        "type": "t_mapping(t_address,t_mapping(t_address,t_bool))"
      },
      {
        "astId": 1100,
        "contract": "cache/solpp-generated-contracts/SimthunderOwner.sol:SimthunderOwner",
        "label": "_name",
        "offset": 0,
        "slot": "6",
        "type": "t_string_storage"
      },
      {
        "astId": 1102,
        "contract": "cache/solpp-generated-contracts/SimthunderOwner.sol:SimthunderOwner",
        "label": "_symbol",
        "offset": 0,
        "slot": "7",
        "type": "t_string_storage"
      },
      {
        "astId": 1106,
        "contract": "cache/solpp-generated-contracts/SimthunderOwner.sol:SimthunderOwner",
        "label": "_tokenURIs",
        "offset": 0,
        "slot": "8",
        "type": "t_mapping(t_uint256,t_string_storage)"
      },
      {
        "astId": 1108,
        "contract": "cache/solpp-generated-contracts/SimthunderOwner.sol:SimthunderOwner",
        "label": "_baseURI",
        "offset": 0,
        "slot": "9",
        "type": "t_string_storage"
      },
      {
        "astId": 4988,
        "contract": "cache/solpp-generated-contracts/SimthunderOwner.sol:SimthunderOwner",
        "label": "SIMRACERCOIN",
        "offset": 0,
        "slot": "10",
        "type": "t_contract(ERC20)903"
      },
      {
        "astId": 4993,
        "contract": "cache/solpp-generated-contracts/SimthunderOwner.sol:SimthunderOwner",
        "label": "_tokenIds",
        "offset": 0,
        "slot": "11",
        "type": "t_struct(Counter)2377_storage"
      },
      {
        "astId": 4997,
        "contract": "cache/solpp-generated-contracts/SimthunderOwner.sol:SimthunderOwner",
        "label": "prices",
        "offset": 0,
        "slot": "12",
        "type": "t_mapping(t_uint256,t_uint256)"
      },
      {
        "astId": 5001,
        "contract": "cache/solpp-generated-contracts/SimthunderOwner.sol:SimthunderOwner",
        "label": "seriesOwners",
        "offset": 0,
        "slot": "13",
        "type": "t_mapping(t_uint256,t_address_payable)"
      }
    ],
    "types": {
      "t_address": {
        "encoding": "inplace",
        "label": "address",
        "numberOfBytes": "20"
      },
      "t_address_payable": {
        "encoding": "inplace",
        "label": "address payable",
        "numberOfBytes": "20"
      },
      "t_array(t_bytes32)dyn_storage": {
        "base": "t_bytes32",
        "encoding": "dynamic_array",
        "label": "bytes32[]",
        "numberOfBytes": "32"
      },
      "t_array(t_struct(MapEntry)2425_storage)dyn_storage": {
        "base": "t_struct(MapEntry)2425_storage",
        "encoding": "dynamic_array",
        "label": "struct EnumerableMap.MapEntry[]",
        "numberOfBytes": "32"
      },
      "t_bool": {
        "encoding": "inplace",
        "label": "bool",
        "numberOfBytes": "1"
      },
      "t_bytes32": {
        "encoding": "inplace",
        "label": "bytes32",
        "numberOfBytes": "32"
      },
      "t_bytes4": {
        "encoding": "inplace",
        "label": "bytes4",
        "numberOfBytes": "4"
      },
      "t_contract(ERC20)903": {
        "encoding": "inplace",
        "label": "contract ERC20",
        "numberOfBytes": "20"
      },
      "t_mapping(t_address,t_bool)": {
        "encoding": "mapping",
        "key": "t_address",
        "label": "mapping(address => bool)",
        "numberOfBytes": "32",
        "value": "t_bool"
      },
      "t_mapping(t_address,t_mapping(t_address,t_bool))": {
        "encoding": "mapping",
        "key": "t_address",
        "label": "mapping(address => mapping(address => bool))",
        "numberOfBytes": "32",
        "value": "t_mapping(t_address,t_bool)"
      },
      "t_mapping(t_address,t_struct(UintSet)3172_storage)": {
        "encoding": "mapping",
        "key": "t_address",
        "label": "mapping(address => struct EnumerableSet.UintSet)",
        "numberOfBytes": "32",
        "value": "t_struct(UintSet)3172_storage"
      },
      "t_mapping(t_bytes32,t_uint256)": {
        "encoding": "mapping",
        "key": "t_bytes32",
        "label": "mapping(bytes32 => uint256)",
        "numberOfBytes": "32",
        "value": "t_uint256"
      },
      "t_mapping(t_bytes4,t_bool)": {
        "encoding": "mapping",
        "key": "t_bytes4",
        "label": "mapping(bytes4 => bool)",
        "numberOfBytes": "32",
        "value": "t_bool"
      },
      "t_mapping(t_uint256,t_address)": {
        "encoding": "mapping",
        "key": "t_uint256",
        "label": "mapping(uint256 => address)",
        "numberOfBytes": "32",
        "value": "t_address"
      },
      "t_mapping(t_uint256,t_address_payable)": {
        "encoding": "mapping",
        "key": "t_uint256",
        "label": "mapping(uint256 => address payable)",
        "numberOfBytes": "32",
        "value": "t_address_payable"
      },
      "t_mapping(t_uint256,t_string_storage)": {
        "encoding": "mapping",
        "key": "t_uint256",
        "label": "mapping(uint256 => string)",
        "numberOfBytes": "32",
        "value": "t_string_storage"
      },
      "t_mapping(t_uint256,t_uint256)": {
        "encoding": "mapping",
        "key": "t_uint256",
        "label": "mapping(uint256 => uint256)",
        "numberOfBytes": "32",
        "value": "t_uint256"
      },
      "t_string_storage": {
        "encoding": "bytes",
        "label": "string",
        "numberOfBytes": "32"
      },
      "t_struct(Counter)2377_storage": {
        "encoding": "inplace",
        "label": "struct Counters.Counter",
        "members": [
          {
            "astId": 2376,
            "contract": "cache/solpp-generated-contracts/SimthunderOwner.sol:SimthunderOwner",
            "label": "_value",
            "offset": 0,
            "slot": "0",
            "type": "t_uint256"
          }
        ],
        "numberOfBytes": "32"
      },
      "t_struct(Map)2433_storage": {
        "encoding": "inplace",
        "label": "struct EnumerableMap.Map",
        "members": [
          {
            "astId": 2428,
            "contract": "cache/solpp-generated-contracts/SimthunderOwner.sol:SimthunderOwner",
            "label": "_entries",
            "offset": 0,
            "slot": "0",
            "type": "t_array(t_struct(MapEntry)2425_storage)dyn_storage"
          },
          {
            "astId": 2432,
            "contract": "cache/solpp-generated-contracts/SimthunderOwner.sol:SimthunderOwner",
            "label": "_indexes",
            "offset": 0,
            "slot": "1",
            "type": "t_mapping(t_bytes32,t_uint256)"
          }
        ],
        "numberOfBytes": "64"
      },
      "t_struct(MapEntry)2425_storage": {
        "encoding": "inplace",
        "label": "struct EnumerableMap.MapEntry",
        "members": [
          {
            "astId": 2422,
            "contract": "cache/solpp-generated-contracts/SimthunderOwner.sol:SimthunderOwner",
            "label": "_key",
            "offset": 0,
            "slot": "0",
            "type": "t_bytes32"
          },
          {
            "astId": 2424,
            "contract": "cache/solpp-generated-contracts/SimthunderOwner.sol:SimthunderOwner",
            "label": "_value",
            "offset": 0,
            "slot": "1",
            "type": "t_bytes32"
          }
        ],
        "numberOfBytes": "64"
      },
      "t_struct(Set)2883_storage": {
        "encoding": "inplace",
        "label": "struct EnumerableSet.Set",
        "members": [
          {
            "astId": 2878,
            "contract": "cache/solpp-generated-contracts/SimthunderOwner.sol:SimthunderOwner",
            "label": "_values",
            "offset": 0,
            "slot": "0",
            "type": "t_array(t_bytes32)dyn_storage"
          },
          {
            "astId": 2882,
            "contract": "cache/solpp-generated-contracts/SimthunderOwner.sol:SimthunderOwner",
            "label": "_indexes",
            "offset": 0,
            "slot": "1",
            "type": "t_mapping(t_bytes32,t_uint256)"
          }
        ],
        "numberOfBytes": "64"
      },
      "t_struct(UintSet)3172_storage": {
        "encoding": "inplace",
        "label": "struct EnumerableSet.UintSet",
        "members": [
          {
            "astId": 3171,
            "contract": "cache/solpp-generated-contracts/SimthunderOwner.sol:SimthunderOwner",
            "label": "_inner",
            "offset": 0,
            "slot": "0",
            "type": "t_struct(Set)2883_storage"
          }
        ],
        "numberOfBytes": "64"
      },
      "t_struct(UintToAddressMap)2697_storage": {
        "encoding": "inplace",
        "label": "struct EnumerableMap.UintToAddressMap",
        "members": [
          {
            "astId": 2696,
            "contract": "cache/solpp-generated-contracts/SimthunderOwner.sol:SimthunderOwner",
            "label": "_inner",
            "offset": 0,
            "slot": "0",
            "type": "t_struct(Map)2433_storage"
          }
        ],
        "numberOfBytes": "64"
      },
      "t_uint256": {
        "encoding": "inplace",
        "label": "uint256",
        "numberOfBytes": "32"
      }
    }
  }
}