{
  "address": "0xBA75D1F2CEc6aF4E056052eF6Cc04C0B99fF7ddf",
  "abi": [
    {
      "inputs": [
        {
          "internalType": "address",
          "name": "payable_token",
          "type": "address"
        }
      ],
      "stateMutability": "nonpayable",
      "type": "constructor"
    },
    {
      "anonymous": false,
      "inputs": [
        {
          "indexed": false,
          "internalType": "uint256",
          "name": "adId",
          "type": "uint256"
        },
        {
          "indexed": false,
          "internalType": "uint256",
          "name": "purchaseId",
          "type": "uint256"
        },
        {
          "indexed": false,
          "internalType": "bytes",
          "name": "encryptedDataKey",
          "type": "bytes"
        }
      ],
      "name": "PurchaseAccepted",
      "type": "event"
    },
    {
      "anonymous": false,
      "inputs": [
        {
          "indexed": false,
          "internalType": "uint256",
          "name": "adId",
          "type": "uint256"
        },
        {
          "indexed": false,
          "internalType": "uint256",
          "name": "purchaseId",
          "type": "uint256"
        },
        {
          "indexed": false,
          "internalType": "bool",
          "name": "isSuccess",
          "type": "bool"
        }
      ],
      "name": "PurchaseFinalized",
      "type": "event"
    },
    {
      "anonymous": false,
      "inputs": [
        {
          "indexed": false,
          "internalType": "uint256",
          "name": "adId",
          "type": "uint256"
        },
        {
          "indexed": false,
          "internalType": "uint256",
          "name": "purchaseId",
          "type": "uint256"
        },
        {
          "indexed": false,
          "internalType": "address",
          "name": "buyer",
          "type": "address"
        },
        {
          "indexed": false,
          "internalType": "bytes",
          "name": "buyerKey",
          "type": "bytes"
        }
      ],
      "name": "PurchaseRequested",
      "type": "event"
    },
    {
      "anonymous": false,
      "inputs": [
        {
          "indexed": false,
          "internalType": "address",
          "name": "_address",
          "type": "address"
        },
        {
          "indexed": false,
          "internalType": "bytes",
          "name": "_ipfsPath",
          "type": "bytes"
        },
        {
          "indexed": false,
          "internalType": "string",
          "name": "_carBrand",
          "type": "string"
        },
        {
          "indexed": false,
          "internalType": "string",
          "name": "_track",
          "type": "string"
        },
        {
          "indexed": false,
          "internalType": "string",
          "name": "_simulator",
          "type": "string"
        },
        {
          "indexed": false,
          "internalType": "string",
          "name": "_season",
          "type": "string"
        },
        {
          "indexed": false,
          "internalType": "uint256",
          "name": "_price",
          "type": "uint256"
        }
      ],
      "name": "carSetupSaved",
      "type": "event"
    },
    {
      "anonymous": false,
      "inputs": [
        {
          "indexed": false,
          "internalType": "address",
          "name": "_address",
          "type": "address"
        },
        {
          "indexed": false,
          "internalType": "bytes",
          "name": "_ipfsPath",
          "type": "bytes"
        },
        {
          "indexed": false,
          "internalType": "string",
          "name": "_carBrand",
          "type": "string"
        },
        {
          "indexed": false,
          "internalType": "string",
          "name": "_simulator",
          "type": "string"
        },
        {
          "indexed": false,
          "internalType": "uint256",
          "name": "_price",
          "type": "uint256"
        }
      ],
      "name": "skinSaved",
      "type": "event"
    },
    {
      "inputs": [
        {
          "internalType": "uint256",
          "name": "_purchaseId",
          "type": "uint256"
        },
        {
          "internalType": "bytes",
          "name": "_encryptedDataKey",
          "type": "bytes"
        }
      ],
      "name": "acceptPurchase",
      "outputs": [],
      "stateMutability": "nonpayable",
      "type": "function"
    },
    {
      "inputs": [
        {
          "internalType": "address",
          "name": "_addr",
          "type": "address"
        }
      ],
      "name": "addressToString",
      "outputs": [
        {
          "internalType": "string",
          "name": "",
          "type": "string"
        }
      ],
      "stateMutability": "pure",
      "type": "function"
    },
    {
      "inputs": [
        {
          "internalType": "uint256",
          "name": "_notificationId",
          "type": "uint256"
        }
      ],
      "name": "archiveNotification",
      "outputs": [],
      "stateMutability": "nonpayable",
      "type": "function"
    },
    {
      "inputs": [
        {
          "internalType": "uint256",
          "name": "_purchaseId",
          "type": "uint256"
        },
        {
          "internalType": "bool",
          "name": "isSuccess",
          "type": "bool"
        }
      ],
      "name": "finalizePurchase",
      "outputs": [],
      "stateMutability": "nonpayable",
      "type": "function"
    },
    {
      "inputs": [
        {
          "internalType": "uint256",
          "name": "_adId",
          "type": "uint256"
        }
      ],
      "name": "getAd",
      "outputs": [
        {
          "components": [
            {
              "internalType": "address payable",
              "name": "seller",
              "type": "address"
            },
            {
              "internalType": "uint256",
              "name": "price",
              "type": "uint256"
            },
            {
              "internalType": "bytes32",
              "name": "dataHash",
              "type": "bytes32"
            },
            {
              "internalType": "bytes32",
              "name": "encryptedDataHash",
              "type": "bytes32"
            },
            {
              "internalType": "bytes",
              "name": "ipfsPath",
              "type": "bytes"
            },
            {
              "internalType": "bytes32",
              "name": "testTemplateHash",
              "type": "bytes32"
            }
          ],
          "internalType": "struct ContentMarketplace.Advertisement",
          "name": "",
          "type": "tuple"
        }
      ],
      "stateMutability": "view",
      "type": "function"
    },
    {
      "inputs": [
        {
          "internalType": "uint256[]",
          "name": "_adIds",
          "type": "uint256[]"
        }
      ],
      "name": "getAds",
      "outputs": [
        {
          "components": [
            {
              "internalType": "address payable",
              "name": "seller",
              "type": "address"
            },
            {
              "internalType": "uint256",
              "name": "price",
              "type": "uint256"
            },
            {
              "internalType": "bytes32",
              "name": "dataHash",
              "type": "bytes32"
            },
            {
              "internalType": "bytes32",
              "name": "encryptedDataHash",
              "type": "bytes32"
            },
            {
              "internalType": "bytes",
              "name": "ipfsPath",
              "type": "bytes"
            },
            {
              "internalType": "bytes32",
              "name": "testTemplateHash",
              "type": "bytes32"
            }
          ],
          "internalType": "struct ContentMarketplace.Advertisement[]",
          "name": "",
          "type": "tuple[]"
        }
      ],
      "stateMutability": "view",
      "type": "function"
    },
    {
      "inputs": [],
      "name": "getCarSetups",
      "outputs": [
        {
          "components": [
            {
              "internalType": "uint256",
              "name": "id",
              "type": "uint256"
            },
            {
              "components": [
                {
                  "internalType": "address payable",
                  "name": "seller",
                  "type": "address"
                },
                {
                  "internalType": "uint256",
                  "name": "price",
                  "type": "uint256"
                },
                {
                  "internalType": "bytes32",
                  "name": "dataHash",
                  "type": "bytes32"
                },
                {
                  "internalType": "bytes32",
                  "name": "encryptedDataHash",
                  "type": "bytes32"
                },
                {
                  "internalType": "bytes",
                  "name": "ipfsPath",
                  "type": "bytes"
                },
                {
                  "internalType": "bytes32",
                  "name": "testTemplateHash",
                  "type": "bytes32"
                }
              ],
              "internalType": "struct ContentMarketplace.Advertisement",
              "name": "ad",
              "type": "tuple"
            },
            {
              "components": [
                {
                  "internalType": "string",
                  "name": "carBrand",
                  "type": "string"
                },
                {
                  "internalType": "string",
                  "name": "track",
                  "type": "string"
                },
                {
                  "internalType": "string",
                  "name": "simulator",
                  "type": "string"
                },
                {
                  "internalType": "string",
                  "name": "season",
                  "type": "string"
                },
                {
                  "internalType": "string",
                  "name": "description",
                  "type": "string"
                },
                {
                  "internalType": "string",
                  "name": "series",
                  "type": "string"
                }
              ],
              "internalType": "struct STMarketplace.carSetupInfo",
              "name": "info",
              "type": "tuple"
            }
          ],
          "internalType": "struct STMarketplace.carSetup[]",
          "name": "setups",
          "type": "tuple[]"
        }
      ],
      "stateMutability": "view",
      "type": "function"
    },
    {
      "inputs": [
        {
          "internalType": "uint256",
          "name": "_itemId",
          "type": "uint256"
        }
      ],
      "name": "getItemComments",
      "outputs": [
        {
          "components": [
            {
              "internalType": "uint256",
              "name": "itemId",
              "type": "uint256"
            },
            {
              "internalType": "address",
              "name": "commentator",
              "type": "address"
            },
            {
              "internalType": "string",
              "name": "description",
              "type": "string"
            },
            {
              "internalType": "uint256",
              "name": "review",
              "type": "uint256"
            },
            {
              "internalType": "string",
              "name": "date",
              "type": "string"
            }
          ],
          "internalType": "struct STMarketplace.comment[]",
          "name": "comments_to_return",
          "type": "tuple[]"
        }
      ],
      "stateMutability": "view",
      "type": "function"
    },
    {
      "inputs": [
        {
          "internalType": "address",
          "name": "_address",
          "type": "address"
        }
      ],
      "name": "getNickname",
      "outputs": [
        {
          "internalType": "string",
          "name": "",
          "type": "string"
        }
      ],
      "stateMutability": "view",
      "type": "function"
    },
    {
      "inputs": [
        {
          "internalType": "uint256[]",
          "name": "_notificationIds",
          "type": "uint256[]"
        }
      ],
      "name": "getNotifications",
      "outputs": [
        {
          "components": [
            {
              "internalType": "uint256",
              "name": "purchaseId",
              "type": "uint256"
            },
            {
              "internalType": "string",
              "name": "message",
              "type": "string"
            },
            {
              "internalType": "enum ContentMarketplace.NotificationType",
              "name": "nType",
              "type": "uint8"
            },
            {
              "internalType": "bool",
              "name": "archive",
              "type": "bool"
            },
            {
              "internalType": "uint256",
              "name": "date",
              "type": "uint256"
            },
            {
              "internalType": "address",
              "name": "sender",
              "type": "address"
            },
            {
              "internalType": "address",
              "name": "receiver",
              "type": "address"
            }
          ],
          "internalType": "struct ContentMarketplace.Notification[]",
          "name": "",
          "type": "tuple[]"
        }
      ],
      "stateMutability": "view",
      "type": "function"
    },
    {
      "inputs": [],
      "name": "getNumberCars",
      "outputs": [
        {
          "internalType": "uint256",
          "name": "",
          "type": "uint256"
        }
      ],
      "stateMutability": "view",
      "type": "function"
    },
    {
      "inputs": [],
      "name": "getNumberSellers",
      "outputs": [
        {
          "internalType": "uint256",
          "name": "",
          "type": "uint256"
        }
      ],
      "stateMutability": "view",
      "type": "function"
    },
    {
      "inputs": [],
      "name": "getNumberSkins",
      "outputs": [
        {
          "internalType": "uint256",
          "name": "",
          "type": "uint256"
        }
      ],
      "stateMutability": "view",
      "type": "function"
    },
    {
      "inputs": [
        {
          "internalType": "uint256",
          "name": "_purchaseId",
          "type": "uint256"
        }
      ],
      "name": "getPurchase",
      "outputs": [
        {
          "components": [
            {
              "internalType": "uint256",
              "name": "adId",
              "type": "uint256"
            },
            {
              "internalType": "address payable",
              "name": "buyer",
              "type": "address"
            },
            {
              "internalType": "bytes",
              "name": "buyerKey",
              "type": "bytes"
            },
            {
              "internalType": "bytes",
              "name": "encryptedDataKey",
              "type": "bytes"
            },
            {
              "internalType": "uint256",
              "name": "date",
              "type": "uint256"
            }
          ],
          "internalType": "struct ContentMarketplace.Purchase",
          "name": "",
          "type": "tuple"
        }
      ],
      "stateMutability": "view",
      "type": "function"
    },
    {
      "inputs": [
        {
          "internalType": "uint256[]",
          "name": "_purchaseIds",
          "type": "uint256[]"
        }
      ],
      "name": "getPurchases",
      "outputs": [
        {
          "components": [
            {
              "internalType": "uint256",
              "name": "adId",
              "type": "uint256"
            },
            {
              "internalType": "address payable",
              "name": "buyer",
              "type": "address"
            },
            {
              "internalType": "bytes",
              "name": "buyerKey",
              "type": "bytes"
            },
            {
              "internalType": "bytes",
              "name": "encryptedDataKey",
              "type": "bytes"
            },
            {
              "internalType": "uint256",
              "name": "date",
              "type": "uint256"
            }
          ],
          "internalType": "struct ContentMarketplace.Purchase[]",
          "name": "",
          "type": "tuple[]"
        }
      ],
      "stateMutability": "view",
      "type": "function"
    },
    {
      "inputs": [
        {
          "internalType": "string",
          "name": "_sellerNickname",
          "type": "string"
        }
      ],
      "name": "getSellerComments",
      "outputs": [
        {
          "components": [
            {
              "internalType": "uint256",
              "name": "itemId",
              "type": "uint256"
            },
            {
              "internalType": "address",
              "name": "commentator",
              "type": "address"
            },
            {
              "internalType": "string",
              "name": "description",
              "type": "string"
            },
            {
              "internalType": "uint256",
              "name": "review",
              "type": "uint256"
            },
            {
              "internalType": "string",
              "name": "date",
              "type": "string"
            }
          ],
          "internalType": "struct STMarketplace.comment[]",
          "name": "comments_to_return",
          "type": "tuple[]"
        }
      ],
      "stateMutability": "view",
      "type": "function"
    },
    {
      "inputs": [],
      "name": "getSkins",
      "outputs": [
        {
          "components": [
            {
              "internalType": "uint256",
              "name": "id",
              "type": "uint256"
            },
            {
              "components": [
                {
                  "internalType": "address payable",
                  "name": "seller",
                  "type": "address"
                },
                {
                  "internalType": "uint256",
                  "name": "price",
                  "type": "uint256"
                },
                {
                  "internalType": "bytes32",
                  "name": "dataHash",
                  "type": "bytes32"
                },
                {
                  "internalType": "bytes32",
                  "name": "encryptedDataHash",
                  "type": "bytes32"
                },
                {
                  "internalType": "bytes",
                  "name": "ipfsPath",
                  "type": "bytes"
                },
                {
                  "internalType": "bytes32",
                  "name": "testTemplateHash",
                  "type": "bytes32"
                }
              ],
              "internalType": "struct ContentMarketplace.Advertisement",
              "name": "ad",
              "type": "tuple"
            },
            {
              "components": [
                {
                  "internalType": "string",
                  "name": "carBrand",
                  "type": "string"
                },
                {
                  "internalType": "string",
                  "name": "simulator",
                  "type": "string"
                },
                {
                  "internalType": "string",
                  "name": "skinPic",
                  "type": "string"
                }
              ],
              "internalType": "struct STMarketplace.carSkinInfo",
              "name": "info",
              "type": "tuple"
            }
          ],
          "internalType": "struct STMarketplace.carSkin[]",
          "name": "skins",
          "type": "tuple[]"
        }
      ],
      "stateMutability": "view",
      "type": "function"
    },
    {
      "inputs": [
        {
          "internalType": "uint256",
          "name": "_address",
          "type": "uint256"
        }
      ],
      "name": "isCarSetup",
      "outputs": [
        {
          "internalType": "bool",
          "name": "",
          "type": "bool"
        }
      ],
      "stateMutability": "view",
      "type": "function"
    },
    {
      "inputs": [
        {
          "internalType": "address",
          "name": "_address",
          "type": "address"
        }
      ],
      "name": "isSeller",
      "outputs": [
        {
          "internalType": "bool",
          "name": "",
          "type": "bool"
        }
      ],
      "stateMutability": "view",
      "type": "function"
    },
    {
      "inputs": [
        {
          "internalType": "uint256",
          "name": "_address",
          "type": "uint256"
        }
      ],
      "name": "isSkin",
      "outputs": [
        {
          "internalType": "bool",
          "name": "",
          "type": "bool"
        }
      ],
      "stateMutability": "view",
      "type": "function"
    },
    {
      "inputs": [
        {
          "internalType": "address",
          "name": "_seller",
          "type": "address"
        }
      ],
      "name": "listAdsPerSeller",
      "outputs": [
        {
          "internalType": "uint256[]",
          "name": "",
          "type": "uint256[]"
        }
      ],
      "stateMutability": "view",
      "type": "function"
    },
    {
      "inputs": [
        {
          "internalType": "address",
          "name": "_user",
          "type": "address"
        }
      ],
      "name": "listNotificationsPerUser",
      "outputs": [
        {
          "internalType": "uint256[]",
          "name": "",
          "type": "uint256[]"
        }
      ],
      "stateMutability": "view",
      "type": "function"
    },
    {
      "inputs": [
        {
          "internalType": "bytes",
          "name": "_ipfsPath",
          "type": "bytes"
        },
        {
          "internalType": "string",
          "name": "_carBrand",
          "type": "string"
        },
        {
          "internalType": "string",
          "name": "_track",
          "type": "string"
        },
        {
          "internalType": "string",
          "name": "_simulator",
          "type": "string"
        },
        {
          "internalType": "string",
          "name": "_season",
          "type": "string"
        },
        {
          "internalType": "string",
          "name": "_series",
          "type": "string"
        },
        {
          "internalType": "string",
          "name": "_description",
          "type": "string"
        },
        {
          "internalType": "uint256",
          "name": "_price",
          "type": "uint256"
        },
        {
          "internalType": "bytes32",
          "name": "_dataHash",
          "type": "bytes32"
        },
        {
          "internalType": "bytes32",
          "name": "_encryptedDataHash",
          "type": "bytes32"
        },
        {
          "internalType": "string",
          "name": "_nickname",
          "type": "string"
        }
      ],
      "name": "newCarSetup",
      "outputs": [
        {
          "internalType": "uint256",
          "name": "id",
          "type": "uint256"
        }
      ],
      "stateMutability": "nonpayable",
      "type": "function"
    },
    {
      "inputs": [
        {
          "internalType": "uint256",
          "name": "_itemId",
          "type": "uint256"
        },
        {
          "internalType": "string",
          "name": "_description",
          "type": "string"
        },
        {
          "internalType": "uint256",
          "name": "_review",
          "type": "uint256"
        },
        {
          "internalType": "string",
          "name": "_date",
          "type": "string"
        },
        {
          "internalType": "string",
          "name": "_sellerNickname",
          "type": "string"
        }
      ],
      "name": "newComment",
      "outputs": [
        {
          "components": [
            {
              "internalType": "uint256",
              "name": "itemId",
              "type": "uint256"
            },
            {
              "internalType": "address",
              "name": "commentator",
              "type": "address"
            },
            {
              "internalType": "string",
              "name": "description",
              "type": "string"
            },
            {
              "internalType": "uint256",
              "name": "review",
              "type": "uint256"
            },
            {
              "internalType": "string",
              "name": "date",
              "type": "string"
            }
          ],
          "internalType": "struct STMarketplace.comment",
          "name": "comment_to_return",
          "type": "tuple"
        }
      ],
      "stateMutability": "nonpayable",
      "type": "function"
    },
    {
      "inputs": [
        {
          "internalType": "bytes",
          "name": "_ipfsPath",
          "type": "bytes"
        },
        {
          "internalType": "string",
          "name": "_carBrand",
          "type": "string"
        },
        {
          "internalType": "string",
          "name": "_simulator",
          "type": "string"
        },
        {
          "internalType": "uint256",
          "name": "_price",
          "type": "uint256"
        },
        {
          "internalType": "bytes32",
          "name": "_dataHash",
          "type": "bytes32"
        },
        {
          "internalType": "bytes32",
          "name": "_encryptedDataHash",
          "type": "bytes32"
        },
        {
          "internalType": "string",
          "name": "_nickname",
          "type": "string"
        },
        {
          "internalType": "string",
          "name": "_imagePath",
          "type": "string"
        }
      ],
      "name": "newSkin",
      "outputs": [
        {
          "internalType": "uint256",
          "name": "id",
          "type": "uint256"
        }
      ],
      "stateMutability": "nonpayable",
      "type": "function"
    },
    {
      "inputs": [
        {
          "internalType": "uint256",
          "name": "adPrice",
          "type": "uint256"
        },
        {
          "internalType": "uint256",
          "name": "_adId",
          "type": "uint256"
        },
        {
          "internalType": "bytes",
          "name": "_buyerKey",
          "type": "bytes"
        }
      ],
      "name": "requestPurchase",
      "outputs": [
        {
          "internalType": "uint256",
          "name": "purchaseId",
          "type": "uint256"
        }
      ],
      "stateMutability": "nonpayable",
      "type": "function"
    },
    {
      "inputs": [
        {
          "internalType": "address",
          "name": "_address",
          "type": "address"
        },
        {
          "internalType": "string",
          "name": "_nickname",
          "type": "string"
        }
      ],
      "name": "saveSeller",
      "outputs": [
        {
          "internalType": "bool",
          "name": "",
          "type": "bool"
        }
      ],
      "stateMutability": "nonpayable",
      "type": "function"
    }
  ],
  "transactionHash": "0xb6cc20432230f181a76f0169404165f9690a4a49d184981282bbf6bd3ba096d9",
  "args": [
    "0xf0c3C4AC63Be272a94712bCcc39490A159Cd0D7C"
  ],
  "solcInputHash": "615c5a632bac9805ab8069148bdbf8c8",
  "bytecode": "0x60806040526000600181905560048190556007557f565ed3f9210522787f757fd3a4d2cb1714cd46523bcef460d3d630cd5a29c3aa600a55600b805467c0000000000000006001600160401b03199091161760ff60401b19166805000000000000000017905564174876e800600c556033600d5564307831323360d81b600e5564183c1a1a9b60d91b600f553480156200009857600080fd5b50604051620038d2380380620038d2833981016040819052620000bb91620000e1565b600080546001600160a01b0319166001600160a01b039290921691909117905562000111565b600060208284031215620000f3578081fd5b81516001600160a01b03811681146200010a578182fd5b9392505050565b6137b180620001216000396000f3fe608060405234801561001057600080fd5b50600436106101795760003560e01c80637c5274ac116100d9578063b31d9aa811610087578063b31d9aa814610380578063b95f22f314610393578063ba1219fa1461039b578063c357b13c146103b0578063cc3fc936146103c3578063d75eb000146103d6578063ee95feaf146103e957610179565b80637c5274ac146102df5780637ede1c07146102f257806389da3ac21461031257806397f911b21461031a578063a401a0cf1461032d578063a7c4e0e01461034d578063adaccd741461036d57610179565b80634aa64a39116101365780634aa64a391461023c57806351c843761461025c5780635e57966d14610271578063685f5f29146102915780636a1a80d5146102a45780636e5702af146102c45780637427a049146102cc57610179565b806304681a621461017e5780633742a9f7146101a75780633aff94d6146101c75780633ed24f28146101dc57806344a9f70e146101fc578063491ea0121461021c575b600080fd5b61019161018c366004612bae565b6103fc565b60405161019e91906135f4565b60405180910390f35b6101ba6101b5366004612cd0565b6104ec565b60405161019e91906135ce565b6101cf610660565b60405161019e9190613248565b6101ef6101ea366004612d5d565b610bb6565b60405161019e91906135e1565b61020f61020a366004612c96565b610d2f565b60405161019e919061340b565b61022f61022a366004612cd0565b610ef8565b60405161019e91906134a2565b61024f61024a366004612995565b610f47565b60405161019e91906130cf565b61026f61026a366004612d2f565b6110cd565b005b61028461027f366004612929565b61116c565b60405161019e91906134ad565b61019161029f366004612df4565b6112e8565b6102b76102b2366004612995565b611582565b60405161019e919061312f565b610191611750565b61022f6102da36600461294a565b611756565b6101916102ed366004612a51565b6117fc565b610305610300366004612cd0565b611935565b60405161019e91906135bb565b610191611a27565b61026f610328366004612d00565b611a2d565b61034061033b366004612995565b611be2565b60405161019e91906131f5565b61036061035b366004612929565b611de1565b60405161019e919061345e565b61028461037b366004612929565b611e4d565b61020f61038e366004612cd0565b611eee565b6101916120a1565b6103a36120a7565b60405161019e9190613352565b6103606103be366004612929565b61243d565b61022f6103d1366004612cd0565b6124a7565b61026f6103e4366004612cd0565b6124ed565b61022f6103f7366004612929565b61250d565b600061040d8686868c600f5461252b565b60008181526013602090815260409091208a5192935091610433918391908c0190612684565b50875161044990600183019060208b0190612684565b50825161045f9060028301906020860190612684565b50601580546001810182556000919091527f55f448fdea98c4d29eb340757ef0a66cd03dbb9538908a6a81d96026b71ec4750182905561049f3385611756565b507f01811ecd1a9083bd05030544982ea358e89f3b8c65fcfd97821171b02e844956338b8b8b8b6040516104d7959493929190613072565b60405180910390a15098975050505050505050565b6104f461270c565b600082815260056020908152604091829020825160a081018452815481526001808301546001600160a01b0316828501526002808401805487516101009482161594909402600019011691909104601f810186900486028301860187528083529295939493860193919290918301828280156105b15780601f10610586576101008083540402835291602001916105b1565b820191906000526020600020905b81548152906001019060200180831161059457829003601f168201915b505050918352505060038201805460408051602060026001851615610100026000190190941693909304601f81018490048402820184019092528181529382019392918301828280156106455780601f1061061a57610100808354040283529160200191610645565b820191906000526020600020905b81548152906001019060200180831161062857829003601f168201915b5050505050815260200160048201548152505090505b919050565b6014546060906001600160401b038111801561067b57600080fd5b506040519080825280602002602001820160405280156106b557816020015b6106a2612744565b81526020019060019003908161069a5790505b50905060005b601454811015610bb2576000601482815481106106d457fe5b90600052602060002001549050808383815181106106ee57fe5b6020908102919091018101519190915260008281526002808352604091829020825160c08101845281546001600160a01b031681526001808301548287015282840154828601526003830154606083015260048301805486516101009382161593909302600019011694909404601f810187900487028201870190955284815290949193608086019391928301828280156107ca5780601f1061079f576101008083540402835291602001916107ca565b820191906000526020600020905b8154815290600101906020018083116107ad57829003601f168201915b505050505081526020016005820154815250508383815181106107e957fe5b6020908102919091018101518101919091526000828152601282526040908190208151815460026001821615610100026000190190911604601f8101859004909402810160e090810190935260c0810184815290939192849284918401828280156108955780601f1061086a57610100808354040283529160200191610895565b820191906000526020600020905b81548152906001019060200180831161087857829003601f168201915b50505050508152602001600182018054600181600116156101000203166002900480601f0160208091040260200160405190810160405280929190818152602001828054600181600116156101000203166002900480156109375780601f1061090c57610100808354040283529160200191610937565b820191906000526020600020905b81548152906001019060200180831161091a57829003601f168201915b5050509183525050600282810180546040805160206001841615610100026000190190931694909404601f810183900483028501830190915280845293810193908301828280156109c95780601f1061099e576101008083540402835291602001916109c9565b820191906000526020600020905b8154815290600101906020018083116109ac57829003601f168201915b505050918352505060038201805460408051602060026001851615610100026000190190941693909304601f8101849004840282018401909252818152938201939291830182828015610a5d5780601f10610a3257610100808354040283529160200191610a5d565b820191906000526020600020905b815481529060010190602001808311610a4057829003601f168201915b505050918352505060048201805460408051602060026001851615610100026000190190941693909304601f8101849004840282018401909252818152938201939291830182828015610af15780601f10610ac657610100808354040283529160200191610af1565b820191906000526020600020905b815481529060010190602001808311610ad457829003601f168201915b505050918352505060058201805460408051602060026001851615610100026000190190941693909304601f8101849004840282018401909252818152938201939291830182828015610b855780601f10610b5a57610100808354040283529160200191610b85565b820191906000526020600020905b815481529060010190602001808311610b6857829003601f168201915b505050505081525050838381518110610b9a57fe5b602090810291909101015160400152506001016106bb565b5090565b610bbe612770565b610bc6612770565b506040805160a081018252878152336020808301918252828401898152606084018990526080840188905260008b815260108352948520805460018082018355918752958390208551600590970201958655925192850180546001600160a01b0319166001600160a01b039094169390931790925590518051929384939092610c56926002850192910190612684565b506060820151600382015560808201518051610c7c916004840191602090910190612684565b505050601183604051610c8f9190612f91565b908152604080516020928190038301902080546001808201835560009283529184902085516005909202019081558484015191810180546001600160a01b0319166001600160a01b03909316929092179091559083015180518493610cfb926002850192910190612684565b506060820151600382015560808201518051610d21916004840191602090910190612684565b509198975050505050505050565b6060601182604051610d419190612f91565b9081526020016040518091039020805480602002602001604051908101604052809291908181526020016000905b82821015610eed5760008481526020908190206040805160a08101825260058602909201805483526001808201546001600160a01b0316848601526002808301805485516101009482161594909402600019011691909104601f8101879004870283018701855280835294959294938601939192909190830182828015610e375780601f10610e0c57610100808354040283529160200191610e37565b820191906000526020600020905b815481529060010190602001808311610e1a57829003601f168201915b5050509183525050600382015460208083019190915260048301805460408051601f60026000196101006001871615020190941693909304928301859004850281018501825282815294019392830182828015610ed55780601f10610eaa57610100808354040283529160200191610ed5565b820191906000526020600020905b815481529060010190602001808311610eb857829003601f168201915b50505050508152505081526020019060010190610d6f565b505050509050919050565b6000805b601454811015610f3e57600060148281548110610f1557fe5b9060005260206000200154905083811415610f355760019250505061065b565b50600101610efc565b50600092915050565b60608082516001600160401b0381118015610f6157600080fd5b50604051908082528060200260200182016040528015610f9b57816020015b610f886127a8565b815260200190600190039081610f805790505b50905060005b83518110156110c6576000848281518110610fb857fe5b60209081029190910181015160008181526002808452604091829020825160c08101845281546001600160a01b031681526001808301548288015282840154828601526003830154606083015260048301805486516101009382161593909302600019011694909404601f810188900488028201880190955284815294965094909360808601939092918301828280156110935780601f1061106857610100808354040283529160200191611093565b820191906000526020600020905b81548152906001019060200180831161107657829003601f168201915b505050505081526020016005820154815250508383815181106110b257fe5b602090810291909101015250600101610fa1565b5092915050565b6000828152600560209081526040909120825190916110f3916003840191850190612684565b5061112a836040518060600160405280602f815260200161374d602f913960018085015433916001600160a01b03909116906125be565b5080546040517fa2b880b5ac38ac625decca4880208262a354ea5ee5bef8b6b107380857ea97059161115f91869086906136bd565b60405180910390a1505050565b604080518082018252601081526f181899199a1a9b1b9c1cb0b131b232b360811b60208201528151603380825260608281019094526001600160a01b03851692918491602082018180368337019050509050600360fc1b816000815181106111d057fe5b60200101906001600160f81b031916908160001a905350600f60fb1b816001815181106111f957fe5b60200101906001600160f81b031916908160001a90535060005b60148110156112df578260048583600c016020811061122e57fe5b1a60f81b6001600160f81b031916901c60f81c60ff168151811061124e57fe5b602001015160f81c60f81b82826002026002018151811061126b57fe5b60200101906001600160f81b031916908160001a905350828482600c016020811061129257fe5b825191901a600f169081106112a357fe5b602001015160f81c60f81b8282600202600301815181106112c057fe5b60200101906001600160f81b031916908160001a905350600101611213565b50949350505050565b60006112f26127a8565b6112fb84611935565b9050806020015185146113295760405162461bcd60e51b815260040161132090613509565b60405180910390fd5b6020810151600054604051636eb1769f60e11b81526001600160a01b039091169063dd62ed3e906113609033903090600401612fad565b60206040518083038186803b15801561137857600080fd5b505afa15801561138c573d6000803e3d6000fd5b505050506040513d601f19601f820116820180604052508101906113b09190612ce8565b10156113ce5760405162461bcd60e51b815260040161132090613551565b60045460009081526005602090815260409091208581556001810180546001600160a01b031916331790558451909161140e916002840191870190612684565b50426004808301919091558054600180820183558354600090815260066020908152604080832080549485018155835281832090930184905590549086015191516323b872dd60e01b81529296506001600160a01b0316926323b872dd9261147a923392309201612fc7565b602060405180830381600087803b15801561149457600080fd5b505af11580156114a8573d6000803e3d6000fd5b505050506040513d601f19601f820116820180604052508101906114cc9190612a35565b6114e85760405162461bcd60e51b815260040161132090613584565b6115288360405180604001604052806016815260200175141d5c98da185cd9481dd85cc81c995c5d595cdd195960521b81525033856000015160006125be565b50805460018201546040517fb2c74dd2211a23bb10cb03155b814763ac4e02b65ee4dc22bfc9ae52ec14fb809261157192909187916001600160a01b03169060028701906135fd565b60405180910390a150509392505050565b60608082516001600160401b038111801561159c57600080fd5b506040519080825280602002602001820160405280156115d657816020015b6115c36127dc565b8152602001906001900390816115bb5790505b50905060005b83518110156110c65760008482815181106115f357fe5b60200260200101519050600860008281526020019081526020016000206040518060e001604052908160008201548152602001600182018054600181600116156101000203166002900480601f0160208091040260200160405190810160405280929190818152602001828054600181600116156101000203166002900480156116be5780601f10611693576101008083540402835291602001916116be565b820191906000526020600020905b8154815290600101906020018083116116a157829003601f168201915b5050509183525050600282015460209091019060ff1660048111156116df57fe5b60048111156116ea57fe5b81526002820154610100900460ff16151560208201526003820154604082015260048201546001600160a01b039081166060830152600590920154909116608090910152835184908490811061173c57fe5b6020908102919091010152506001016115dc565b60145490565b6001600160a01b03821660009081526016602052604081205460ff16610f3e576001600160a01b0383166000818152601660209081526040808320805460ff191660019081179091556018805491820190557fb13d2d76d1f4b7be834882e410b3e3a8afaf69f83600ae24db354391d2378d2e0180546001600160a01b031916851790559282526017815291902083516117f292850190612684565b5060019392505050565b600061180d8585858f600e5461252b565b60008181526012602090815260409091208d5192935091611833918391908f0190612684565b508a5161184990600183019060208e0190612684565b50895161185f90600283019060208d0190612684565b50885161187590600383019060208c0190612684565b50875161188b90600583019060208b0190612684565b5086516118a190600483019060208a0190612684565b50601480546001810182556000919091527fce6d7b5282bd9a3661ae061feed1dbda4e52ab073b1f9285be6e155d9c38d4ec018290556118e13384611756565b507f04118812b850fad5027a2efb4e9e53c91e978265ccc36620c8059bf1c5d0e6fa338e8e8e8e8e8c60405161191d9796959493929190612feb565b60405180910390a1509b9a5050505050505050505050565b61193d6127a8565b600082815260026020818152604092839020835160c08101855281546001600160a01b031681526001808301548285015282850154828701526003830154606083015260048301805487516101009382161593909302600019011695909504601f810185900485028201850190965285815290949193608086019391929091830182828015611a0d5780601f106119e257610100808354040283529160200191611a0d565b820191906000526020600020905b8154815290600101906020018083116119f057829003601f168201915b505050505081526020016005820154815250509050919050565b60185490565b611a3561270c565b611a3e836104ec565b9050611a486127a8565b8151611a5390611935565b9050600083611a66578260200151611a69565b81515b60005460208401516040516323b872dd60e01b81529293506001600160a01b03909116916323b872dd91611aa39130918691600401612fc7565b602060405180830381600087803b158015611abd57600080fd5b505af1158015611ad1573d6000803e3d6000fd5b505050506040513d601f19601f82011682018060405250810190611af59190612a35565b611b115760405162461bcd60e51b8152600401611320906134c0565b8315611b5d57611b578560405180604001604052806016815260200175283ab931b430b9b2903bb0b99030b1b1b2b83a32b21760511b81525033856000015160036125be565b50611b9f565b611b9d8560405180604001604052806016815260200175283ab931b430b9b2903bb0b9903932b532b1ba32b21760511b81525033856000015160046125be565b505b82516040517f90467038d2e860e2611181a29c81cfdc1de0a12763a183f96f6148d2a3bcbb4b91611bd391889088906136a5565b60405180910390a15050505050565b60608082516001600160401b0381118015611bfc57600080fd5b50604051908082528060200260200182016040528015611c3657816020015b611c2361270c565b815260200190600190039081611c1b5790505b50905060005b83518110156110c6576000848281518110611c5357fe5b602090810291909101810151600081815260058352604090819020815160a081018352815481526001808301546001600160a01b0316828701526002808401805486516101009482161594909402600019011691909104601f8101889004880283018801865280835295975091959294938601939092830182828015611d1a5780601f10611cef57610100808354040283529160200191611d1a565b820191906000526020600020905b815481529060010190602001808311611cfd57829003601f168201915b505050918352505060038201805460408051602060026001851615610100026000190190941693909304601f8101849004840282018401909252818152938201939291830182828015611dae5780601f10611d8357610100808354040283529160200191611dae565b820191906000526020600020905b815481529060010190602001808311611d9157829003601f168201915b50505050508152602001600482015481525050838381518110611dcd57fe5b602090810291909101015250600101611c3c565b6001600160a01b038116600090815260036020908152604091829020805483518184028101840190945280845260609392830182828015611e4157602002820191906000526020600020905b815481526020019060010190808311611e2d575b50505050509050919050565b6001600160a01b03811660009081526017602090815260409182902080548351601f6002600019610100600186161502019093169290920491820184900484028101840190945280845260609392830182828015611e415780601f10611ec157610100808354040283529160200191611e41565b820191906000526020600020905b815481529060010190602001808311611ecf5750939695505050505050565b606060106000838152602001908152602001600020805480602002602001604051908101604052809291908181526020016000905b82821015610eed5760008481526020908190206040805160a08101825260058602909201805483526001808201546001600160a01b0316848601526002808301805485516101009482161594909402600019011691909104601f8101879004870283018701855280835294959294938601939192909190830182828015611feb5780601f10611fc057610100808354040283529160200191611feb565b820191906000526020600020905b815481529060010190602001808311611fce57829003601f168201915b5050509183525050600382015460208083019190915260048301805460408051601f600260001961010060018716150201909416939093049283018590048502810185018252828152940193928301828280156120895780601f1061205e57610100808354040283529160200191612089565b820191906000526020600020905b81548152906001019060200180831161206c57829003601f168201915b50505050508152505081526020019060010190611f23565b60155490565b6015546060906001600160401b03811180156120c257600080fd5b506040519080825280602002602001820160405280156120fc57816020015b6120e9612819565b8152602001906001900390816120e15790505b50905060005b601554811015610bb25760006015828154811061211b57fe5b906000526020600020015490508083838151811061213557fe5b6020908102919091018101519190915260008281526002808352604091829020825160c08101845281546001600160a01b031681526001808301548287015282840154828601526003830154606083015260048301805486516101009382161593909302600019011694909404601f810187900487028201870190955284815290949193608086019391928301828280156122115780601f106121e657610100808354040283529160200191612211565b820191906000526020600020905b8154815290600101906020018083116121f457829003601f168201915b5050505050815260200160058201548152505083838151811061223057fe5b6020908102919091018101518101919091526000828152601382526040908190208151815460026001821615610100026000190190911604601f8101859004909402810160809081019093526060810184815290939192849284918401828280156122dc5780601f106122b1576101008083540402835291602001916122dc565b820191906000526020600020905b8154815290600101906020018083116122bf57829003601f168201915b50505050508152602001600182018054600181600116156101000203166002900480601f01602080910402602001604051908101604052809291908181526020018280546001816001161561010002031660029004801561237e5780601f106123535761010080835404028352916020019161237e565b820191906000526020600020905b81548152906001019060200180831161236157829003601f168201915b5050509183525050600282810180546040805160206001841615610100026000190190931694909404601f810183900483028501830190915280845293810193908301828280156124105780601f106123e557610100808354040283529160200191612410565b820191906000526020600020905b8154815290600101906020018083116123f357829003601f168201915b50505050508152505083838151811061242557fe5b60209081029190910101516040015250600101612102565b6001600160a01b038116600090815260096020908152604091829020805483518184028101840190945280845260609392830182828015611e415760200282019190600052602060002090815481526020019060010190808311611e2d5750505050509050919050565b6000805b601554811015610f3e576000601582815481106124c457fe5b90600052602060002001549050838114156124e45760019250505061065b565b506001016124ab565b6000908152600860205260409020600201805461ff001916610100179055565b6001600160a01b031660009081526016602052604090205460ff1690565b600180546000908152600260208181526040832080546001600160a01b0319163317815593840189905590830187905560038301869055845191929161257991600484019190870190612684565b5060058101929092555060018054808201825591546001600160a01b031660009081526003602090815260408220805493840181558252902001819055949350505050565b60075460009081526008602090815260408220878155865190916125e9916001840191890190612684565b5060028101805484919060ff1916600183600481111561260557fe5b021790555060028101805461ff00191690554260038201556004810180546001600160a01b039687166001600160a01b0319918216179091556005909101805494909516931683179093555060078054600181810190925560009283526009602090815260408420805493840181558452909220018190559392505050565b828054600181600116156101000203166002900490600052602060002090601f0160209004810192826126ba5760008555612700565b82601f106126d357805160ff1916838001178555612700565b82800160010185558215612700579182015b828111156127005782518255916020019190600101906126e5565b50610bb2929150612840565b6040518060a001604052806000815260200160006001600160a01b031681526020016060815260200160608152602001600081525090565b60405180606001604052806000815260200161275e6127a8565b815260200161276b612855565b905290565b6040518060a001604052806000815260200160006001600160a01b031681526020016060815260200160008152602001606081525090565b6040805160c0810182526000808252602082018190529181018290526060808201839052608082015260a081019190915290565b6040805160e08101825260008082526060602083015290918201908152600060208201819052604082018190526060820181905260809091015290565b6040518060600160405280600081526020016128336127a8565b815260200161276b61288b565b5b80821115610bb25760008155600101612841565b6040518060c001604052806060815260200160608152602001606081526020016060815260200160608152602001606081525090565b60405180606001604052806060815260200160608152602001606081525090565b80356001600160a01b038116811461065b57600080fd5b600082601f8301126128d3578081fd5b81356001600160401b038111156128e657fe5b6128f9601f8201601f19166020016136dc565b915080825283602082850101111561291057600080fd5b8060208401602084013760009082016020015292915050565b60006020828403121561293a578081fd5b612943826128ac565b9392505050565b6000806040838503121561295c578081fd5b612965836128ac565b915060208301356001600160401b0381111561297f578182fd5b61298b858286016128c3565b9150509250929050565b600060208083850312156129a7578182fd5b82356001600160401b03808211156129bd578384fd5b818501915085601f8301126129d0578384fd5b8135818111156129dc57fe5b83810291506129ec8483016136dc565b8181528481019084860184860187018a1015612a06578788fd5b8795505b83861015612a28578035835260019590950194918601918601612a0a565b5098975050505050505050565b600060208284031215612a46578081fd5b81516129438161373b565b60008060008060008060008060008060006101608c8e031215612a72578687fd5b6001600160401b03808d351115612a87578788fd5b612a948e8e358f016128c3565b9b508060208e01351115612aa6578788fd5b612ab68e60208f01358f016128c3565b9a508060408e01351115612ac8578788fd5b612ad88e60408f01358f016128c3565b99508060608e01351115612aea578788fd5b612afa8e60608f01358f016128c3565b98508060808e01351115612b0c578788fd5b612b1c8e60808f01358f016128c3565b97508060a08e01351115612b2e578687fd5b612b3e8e60a08f01358f016128c3565b96508060c08e01351115612b50578586fd5b612b608e60c08f01358f016128c3565b955060e08d013594506101008d013593506101208d01359250806101408e01351115612b8a578182fd5b50612b9c8d6101408e01358e016128c3565b90509295989b509295989b9093969950565b600080600080600080600080610100898b031215612bca578384fd5b88356001600160401b0380821115612be0578586fd5b612bec8c838d016128c3565b995060208b0135915080821115612c01578586fd5b612c0d8c838d016128c3565b985060408b0135915080821115612c22578586fd5b612c2e8c838d016128c3565b975060608b0135965060808b0135955060a08b0135945060c08b0135915080821115612c58578384fd5b612c648c838d016128c3565b935060e08b0135915080821115612c79578283fd5b50612c868b828c016128c3565b9150509295985092959890939650565b600060208284031215612ca7578081fd5b81356001600160401b03811115612cbc578182fd5b612cc8848285016128c3565b949350505050565b600060208284031215612ce1578081fd5b5035919050565b600060208284031215612cf9578081fd5b5051919050565b60008060408385031215612d12578182fd5b823591506020830135612d248161373b565b809150509250929050565b60008060408385031215612d41578182fd5b8235915060208301356001600160401b0381111561297f578182fd5b600080600080600060a08688031215612d74578283fd5b8535945060208601356001600160401b0380821115612d91578485fd5b612d9d89838a016128c3565b9550604088013594506060880135915080821115612db9578283fd5b612dc589838a016128c3565b93506080880135915080821115612dda578283fd5b50612de7888289016128c3565b9150509295509295909350565b600080600060608486031215612e08578081fd5b833592506020840135915060408401356001600160401b03811115612e2b578182fd5b612e37868287016128c3565b9150509250925092565b6001600160a01b03169052565b60008151808452612e6681602086016020860161370b565b601f01601f19169290920160200192915050565b600060018060a01b038251168352602082015160208401526040820151604084015260608201516060840152608082015160c06080850152612ebf60c0850182612e4e565b60a093840151949093019390935250919050565b60008151835260018060a01b036020830151166020840152604082015160a06040850152612f0460a0850182612e4e565b905060608301518482036060860152612f1d8282612e4e565b915050608083015160808501528091505092915050565b60008151835260018060a01b036020830151166020840152604082015160a06040850152612f6560a0850182612e4e565b90506060830151606085015260808301518482036080860152612f888282612e4e565b95945050505050565b60008251612fa381846020870161370b565b9190910192915050565b6001600160a01b0392831681529116602082015260400190565b6001600160a01b039384168152919092166020820152604081019190915260600190565b6001600160a01b038816815260e06020820181905260009061300f90830189612e4e565b82810360408401526130218189612e4e565b905082810360608401526130358188612e4e565b905082810360808401526130498187612e4e565b905082810360a084015261305d8186612e4e565b9150508260c083015298975050505050505050565b6001600160a01b038616815260a06020820181905260009061309690830187612e4e565b82810360408401526130a88187612e4e565b905082810360608401526130bc8186612e4e565b9150508260808301529695505050505050565b6000602080830181845280855180835260408601915060408482028701019250838701855b8281101561312257603f19888603018452613110858351612e7a565b945092850192908501906001016130f4565b5092979650505050505050565b60208082528251828201819052600091906040908185019080840286018301878501865b838110156131e757603f19898403018552815160e08151855288820151818a87015261318182870182612e4e565b915050878201516005811061319257fe5b858901526060828101511515908601526080808301519086015260a0808301516131be82880182612e41565b505060c091820151916131d386820184612e41565b509588019593505090860190600101613153565b509098975050505050505050565b6000602080830181845280855180835260408601915060408482028701019250838701855b8281101561312257603f19888603018452613236858351612ed3565b9450928501929085019060010161321a565b60208082528251828201819052600091906040908185019080840286018301878501865b838110156131e757603f19898403018552815160608151855288820151818a87015261329a82870182612e7a565b90508883015192508581038987015260c083518183526132bc82840182612e4e565b9150508a8401518282038c8401526132d48282612e4e565b915050898401518282038b8401526132ec8282612e4e565b91505082840151828203848401526133048282612e4e565b935050506080808401518284038284015261331f8482612e4e565b9350505060a080840151935081830381830152505061333e8183612e4e565b96890196945050509086019060010161326c565b60208082528251828201819052600091906040908185019080840286018301878501865b838110156131e757603f19898403018552815160608151855288820151818a8701526133a482870182612e7a565b90508883015192508581038987015282518282526133c483830182612e4e565b925050898301518183038b8301526133dc8382612e4e565b92505088830151925080820389820152506133f78183612e4e565b968901969450505090860190600101613376565b6000602080830181845280855180835260408601915060408482028701019250838701855b8281101561312257603f1988860301845261344c858351612f34565b94509285019290850190600101613430565b6020808252825182820181905260009190848201906040850190845b818110156134965783518352928401929184019160010161347a565b50909695505050505050565b901515815260200190565b6000602082526129436020830184612e4e565b60208082526029908201527f43616e6e6f7420756e6c6f636b2066756e647320746f207472616e736665722060408201526806f776e6572736869760bc1b606082015260800190565b60208082526028908201527f416d6f756e742073686f756c6420626520657175616c20746f20746865206974604082015267656d20707269636560c01b606082015260800190565b602080825260199082015278436865636b2074686520746f6b656e20616c6c6f77616e636560381b604082015260600190565b6020808252601e908201527f43616e6e6f74207472616e73666572204974656d206f776e6572736869700000604082015260600190565b6000602082526129436020830184612e7a565b6000602082526129436020830184612ed3565b6000602082526129436020830184612f34565b90815260200190565b6000608082018683526020868185015260018060a01b03861660408501526080606085015282855460018082166000811461363f576001811461365d57613695565b60028304607f16865260ff19831660a089015260c088019350613695565b6002830480875261366d8a6136ff565b885b8281101561368b5781548b820160a0015290840190870161366f565b8a0160a001955050505b50919a9950505050505050505050565b92835260208301919091521515604082015260600190565b600084825283602083015260606040830152612f886060830184612e4e565b6040518181016001600160401b03811182821017156136f757fe5b604052919050565b60009081526020902090565b60005b8381101561372657818101518382015260200161370e565b83811115613735576000848401525b50505050565b801515811461374957600080fd5b5056fe5468616e6b20796f7520666f7220796f75722070757263686173652e20506c6561736520636865636b206974656d2ea264697066735822122032715ff23749bc17c15e284c823506508c38cc3e9e7b2c3a0577c17c028bce8464736f6c63430007040033",
  "devdoc": {
    "kind": "dev",
    "methods": {},
    "title": "Simthunder Sim Racing Marketplace - first iteration",
    "version": 1
  },
  "userdoc": {
    "events": {
      "carSetupSaved(address,bytes,string,string,string,string,uint256)": {
        "notice": "Events"
      }
    },
    "kind": "user",
    "methods": {
      "acceptPurchase(uint256,bytes)": {
        "notice": "called by seller to accept a purchase request for a registered advertisement"
      },
      "addressToString(address)": {
        "notice": "Utility method to return string from an address"
      },
      "constructor": {
        "notice": "/// notice_ Creates an instance of the contract /// param_ descartesAddress address of the Descartes contract /// constructor(address descartesAddress) ContentMarketplace(descartesAddress) { }"
      },
      "finalizePurchase(uint256,bool)": {
        "notice": "finalizes purchase, unlocking buyer's funds and seller's deposit as appropriate"
      },
      "getAd(uint256)": {
        "notice": "retrieves an advertisement given its identifier"
      },
      "getAds(uint256[])": {
        "notice": "retrieves an array of advertisements given their identifiers"
      },
      "getCarSetups()": {
        "notice": "Gets the list of all car setup files"
      },
      "getItemComments(uint256)": {
        "notice": "Gets the list of comments from item"
      },
      "getNickname(address)": {
        "notice": "Registers seller address"
      },
      "getNotifications(uint256[])": {
        "notice": "retrieves an array of notifications given their identifiers"
      },
      "getNumberCars()": {
        "notice": "Gets number of car setup files"
      },
      "getNumberSellers()": {
        "notice": "Gets number of sellers"
      },
      "getNumberSkins()": {
        "notice": "Gets number of skin files"
      },
      "getPurchase(uint256)": {
        "notice": "retrieves a purchase given its identifier"
      },
      "getPurchases(uint256[])": {
        "notice": "retrieves an advertisement given its identifier"
      },
      "getSellerComments(string)": {
        "notice": "Gets the list of comments from item"
      },
      "getSkins()": {
        "notice": "Gets the list of all skin files"
      },
      "isCarSetup(uint256)": {
        "notice": "Tests if car setup exists"
      },
      "isSeller(address)": {
        "notice": "Tests if sellers exists"
      },
      "isSkin(uint256)": {
        "notice": "Tests if skin exists"
      },
      "listAdsPerSeller(address)": {
        "notice": "returns identifiers for a seller's advertisements"
      },
      "listNotificationsPerUser(address)": {
        "notice": "returns identifiers for a seller's notifications"
      },
      "newCarSetup(bytes,string,string,string,string,string,string,uint256,bytes32,bytes32,string)": {
        "notice": "Registers a new car setup for sale"
      },
      "newComment(uint256,string,uint256,string,string)": {
        "notice": "Registers a new comment for item"
      },
      "newSkin(bytes,string,string,uint256,bytes32,bytes32,string,string)": {
        "notice": "Registers a new car skin for sale"
      },
      "requestPurchase(uint256,uint256,bytes)": {
        "notice": "requests purchase of a registered advertisement"
      },
      "saveSeller(address,string)": {
        "notice": "Registers seller address"
      }
    },
    "notice": "Non-Cartesi blockchain code for registering sellers and sim racing assets",
    "version": 1
  },
  "storageLayout": {
    "storage": [
      {
        "astId": 3360,
        "contract": "cache/solpp-generated-contracts/STMarketplace.sol:STMarketplace",
        "label": "SIMRACERCOIN",
        "offset": 0,
        "slot": "0",
        "type": "t_contract(ERC20)903"
      },
      {
        "astId": 3408,
        "contract": "cache/solpp-generated-contracts/STMarketplace.sol:STMarketplace",
        "label": "numAds",
        "offset": 0,
        "slot": "1",
        "type": "t_uint256"
      },
      {
        "astId": 3412,
        "contract": "cache/solpp-generated-contracts/STMarketplace.sol:STMarketplace",
        "label": "ads",
        "offset": 0,
        "slot": "2",
        "type": "t_mapping(t_uint256,t_struct(Advertisement)3373_storage)"
      },
      {
        "astId": 3417,
        "contract": "cache/solpp-generated-contracts/STMarketplace.sol:STMarketplace",
        "label": "adsPerSeller",
        "offset": 0,
        "slot": "3",
        "type": "t_mapping(t_address,t_array(t_uint256)dyn_storage)"
      },
      {
        "astId": 3420,
        "contract": "cache/solpp-generated-contracts/STMarketplace.sol:STMarketplace",
        "label": "numPurchases",
        "offset": 0,
        "slot": "4",
        "type": "t_uint256"
      },
      {
        "astId": 3424,
        "contract": "cache/solpp-generated-contracts/STMarketplace.sol:STMarketplace",
        "label": "purchases",
        "offset": 0,
        "slot": "5",
        "type": "t_mapping(t_uint256,t_struct(Purchase)3384_storage)"
      },
      {
        "astId": 3429,
        "contract": "cache/solpp-generated-contracts/STMarketplace.sol:STMarketplace",
        "label": "purchasesPerAd",
        "offset": 0,
        "slot": "6",
        "type": "t_mapping(t_uint256,t_array(t_uint256)dyn_storage)"
      },
      {
        "astId": 3432,
        "contract": "cache/solpp-generated-contracts/STMarketplace.sol:STMarketplace",
        "label": "numNotifications",
        "offset": 0,
        "slot": "7",
        "type": "t_uint256"
      },
      {
        "astId": 3436,
        "contract": "cache/solpp-generated-contracts/STMarketplace.sol:STMarketplace",
        "label": "notifications",
        "offset": 0,
        "slot": "8",
        "type": "t_mapping(t_uint256,t_struct(Notification)3405_storage)"
      },
      {
        "astId": 3441,
        "contract": "cache/solpp-generated-contracts/STMarketplace.sol:STMarketplace",
        "label": "notificationsPerUser",
        "offset": 0,
        "slot": "9",
        "type": "t_mapping(t_address,t_array(t_uint256)dyn_storage)"
      },
      {
        "astId": 4109,
        "contract": "cache/solpp-generated-contracts/STMarketplace.sol:STMarketplace",
        "label": "templateHash",
        "offset": 0,
        "slot": "10",
        "type": "t_bytes32"
      },
      {
        "astId": 4112,
        "contract": "cache/solpp-generated-contracts/STMarketplace.sol:STMarketplace",
        "label": "outputPosition",
        "offset": 0,
        "slot": "11",
        "type": "t_uint64"
      },
      {
        "astId": 4115,
        "contract": "cache/solpp-generated-contracts/STMarketplace.sol:STMarketplace",
        "label": "outputLog2Size",
        "offset": 8,
        "slot": "11",
        "type": "t_uint8"
      },
      {
        "astId": 4118,
        "contract": "cache/solpp-generated-contracts/STMarketplace.sol:STMarketplace",
        "label": "finalTime",
        "offset": 0,
        "slot": "12",
        "type": "t_uint256"
      },
      {
        "astId": 4121,
        "contract": "cache/solpp-generated-contracts/STMarketplace.sol:STMarketplace",
        "label": "roundDuration",
        "offset": 0,
        "slot": "13",
        "type": "t_uint256"
      },
      {
        "astId": 4124,
        "contract": "cache/solpp-generated-contracts/STMarketplace.sol:STMarketplace",
        "label": "validateCarSetupTemplateHash",
        "offset": 0,
        "slot": "14",
        "type": "t_bytes32"
      },
      {
        "astId": 4127,
        "contract": "cache/solpp-generated-contracts/STMarketplace.sol:STMarketplace",
        "label": "validateCarSkinTemplateHash",
        "offset": 0,
        "slot": "15",
        "type": "t_bytes32"
      },
      {
        "astId": 4177,
        "contract": "cache/solpp-generated-contracts/STMarketplace.sol:STMarketplace",
        "label": "itemComments",
        "offset": 0,
        "slot": "16",
        "type": "t_mapping(t_uint256,t_array(t_struct(comment)4172_storage)dyn_storage)"
      },
      {
        "astId": 4182,
        "contract": "cache/solpp-generated-contracts/STMarketplace.sol:STMarketplace",
        "label": "sellerComments",
        "offset": 0,
        "slot": "17",
        "type": "t_mapping(t_string_memory_ptr,t_array(t_struct(comment)4172_storage)dyn_storage)"
      },
      {
        "astId": 4186,
        "contract": "cache/solpp-generated-contracts/STMarketplace.sol:STMarketplace",
        "label": "carSetupInfos",
        "offset": 0,
        "slot": "18",
        "type": "t_mapping(t_uint256,t_struct(carSetupInfo)4140_storage)"
      },
      {
        "astId": 4190,
        "contract": "cache/solpp-generated-contracts/STMarketplace.sol:STMarketplace",
        "label": "carSkinInfos",
        "offset": 0,
        "slot": "19",
        "type": "t_mapping(t_uint256,t_struct(carSkinInfo)4147_storage)"
      },
      {
        "astId": 4193,
        "contract": "cache/solpp-generated-contracts/STMarketplace.sol:STMarketplace",
        "label": "carSetupIds",
        "offset": 0,
        "slot": "20",
        "type": "t_array(t_uint256)dyn_storage"
      },
      {
        "astId": 4196,
        "contract": "cache/solpp-generated-contracts/STMarketplace.sol:STMarketplace",
        "label": "carSkinIds",
        "offset": 0,
        "slot": "21",
        "type": "t_array(t_uint256)dyn_storage"
      },
      {
        "astId": 4200,
        "contract": "cache/solpp-generated-contracts/STMarketplace.sol:STMarketplace",
        "label": "userExists",
        "offset": 0,
        "slot": "22",
        "type": "t_mapping(t_address,t_bool)"
      },
      {
        "astId": 4204,
        "contract": "cache/solpp-generated-contracts/STMarketplace.sol:STMarketplace",
        "label": "userNickname",
        "offset": 0,
        "slot": "23",
        "type": "t_mapping(t_address,t_string_storage)"
      },
      {
        "astId": 4207,
        "contract": "cache/solpp-generated-contracts/STMarketplace.sol:STMarketplace",
        "label": "userAddresses",
        "offset": 0,
        "slot": "24",
        "type": "t_array(t_address)dyn_storage"
      }
    ],
    "types": {
      "t_address": {
        "encoding": "inplace",
        "label": "address",
        "numberOfBytes": "20"
      },
      "t_address_payable": {
        "encoding": "inplace",
        "label": "address payable",
        "numberOfBytes": "20"
      },
      "t_array(t_address)dyn_storage": {
        "base": "t_address",
        "encoding": "dynamic_array",
        "label": "address[]",
        "numberOfBytes": "32"
      },
      "t_array(t_struct(comment)4172_storage)dyn_storage": {
        "base": "t_struct(comment)4172_storage",
        "encoding": "dynamic_array",
        "label": "struct STMarketplace.comment[]",
        "numberOfBytes": "32"
      },
      "t_array(t_uint256)dyn_storage": {
        "base": "t_uint256",
        "encoding": "dynamic_array",
        "label": "uint256[]",
        "numberOfBytes": "32"
      },
      "t_bool": {
        "encoding": "inplace",
        "label": "bool",
        "numberOfBytes": "1"
      },
      "t_bytes32": {
        "encoding": "inplace",
        "label": "bytes32",
        "numberOfBytes": "32"
      },
      "t_bytes_storage": {
        "encoding": "bytes",
        "label": "bytes",
        "numberOfBytes": "32"
      },
      "t_contract(ERC20)903": {
        "encoding": "inplace",
        "label": "contract ERC20",
        "numberOfBytes": "20"
      },
      "t_enum(NotificationType)3390": {
        "encoding": "inplace",
        "label": "enum ContentMarketplace.NotificationType",
        "numberOfBytes": "1"
      },
      "t_mapping(t_address,t_array(t_uint256)dyn_storage)": {
        "encoding": "mapping",
        "key": "t_address",
        "label": "mapping(address => uint256[])",
        "numberOfBytes": "32",
        "value": "t_array(t_uint256)dyn_storage"
      },
      "t_mapping(t_address,t_bool)": {
        "encoding": "mapping",
        "key": "t_address",
        "label": "mapping(address => bool)",
        "numberOfBytes": "32",
        "value": "t_bool"
      },
      "t_mapping(t_address,t_string_storage)": {
        "encoding": "mapping",
        "key": "t_address",
        "label": "mapping(address => string)",
        "numberOfBytes": "32",
        "value": "t_string_storage"
      },
      "t_mapping(t_string_memory_ptr,t_array(t_struct(comment)4172_storage)dyn_storage)": {
        "encoding": "mapping",
        "key": "t_string_memory_ptr",
        "label": "mapping(string => struct STMarketplace.comment[])",
        "numberOfBytes": "32",
        "value": "t_array(t_struct(comment)4172_storage)dyn_storage"
      },
      "t_mapping(t_uint256,t_array(t_struct(comment)4172_storage)dyn_storage)": {
        "encoding": "mapping",
        "key": "t_uint256",
        "label": "mapping(uint256 => struct STMarketplace.comment[])",
        "numberOfBytes": "32",
        "value": "t_array(t_struct(comment)4172_storage)dyn_storage"
      },
      "t_mapping(t_uint256,t_array(t_uint256)dyn_storage)": {
        "encoding": "mapping",
        "key": "t_uint256",
        "label": "mapping(uint256 => uint256[])",
        "numberOfBytes": "32",
        "value": "t_array(t_uint256)dyn_storage"
      },
      "t_mapping(t_uint256,t_struct(Advertisement)3373_storage)": {
        "encoding": "mapping",
        "key": "t_uint256",
        "label": "mapping(uint256 => struct ContentMarketplace.Advertisement)",
        "numberOfBytes": "32",
        "value": "t_struct(Advertisement)3373_storage"
      },
      "t_mapping(t_uint256,t_struct(Notification)3405_storage)": {
        "encoding": "mapping",
        "key": "t_uint256",
        "label": "mapping(uint256 => struct ContentMarketplace.Notification)",
        "numberOfBytes": "32",
        "value": "t_struct(Notification)3405_storage"
      },
      "t_mapping(t_uint256,t_struct(Purchase)3384_storage)": {
        "encoding": "mapping",
        "key": "t_uint256",
        "label": "mapping(uint256 => struct ContentMarketplace.Purchase)",
        "numberOfBytes": "32",
        "value": "t_struct(Purchase)3384_storage"
      },
      "t_mapping(t_uint256,t_struct(carSetupInfo)4140_storage)": {
        "encoding": "mapping",
        "key": "t_uint256",
        "label": "mapping(uint256 => struct STMarketplace.carSetupInfo)",
        "numberOfBytes": "32",
        "value": "t_struct(carSetupInfo)4140_storage"
      },
      "t_mapping(t_uint256,t_struct(carSkinInfo)4147_storage)": {
        "encoding": "mapping",
        "key": "t_uint256",
        "label": "mapping(uint256 => struct STMarketplace.carSkinInfo)",
        "numberOfBytes": "32",
        "value": "t_struct(carSkinInfo)4147_storage"
      },
      "t_string_memory_ptr": {
        "encoding": "bytes",
        "label": "string",
        "numberOfBytes": "32"
      },
      "t_string_storage": {
        "encoding": "bytes",
        "label": "string",
        "numberOfBytes": "32"
      },
      "t_struct(Advertisement)3373_storage": {
        "encoding": "inplace",
        "label": "struct ContentMarketplace.Advertisement",
        "members": [
          {
            "astId": 3362,
            "contract": "cache/solpp-generated-contracts/STMarketplace.sol:STMarketplace",
            "label": "seller",
            "offset": 0,
            "slot": "0",
            "type": "t_address_payable"
          },
          {
            "astId": 3364,
            "contract": "cache/solpp-generated-contracts/STMarketplace.sol:STMarketplace",
            "label": "price",
            "offset": 0,
            "slot": "1",
            "type": "t_uint256"
          },
          {
            "astId": 3366,
            "contract": "cache/solpp-generated-contracts/STMarketplace.sol:STMarketplace",
            "label": "dataHash",
            "offset": 0,
            "slot": "2",
            "type": "t_bytes32"
          },
          {
            "astId": 3368,
            "contract": "cache/solpp-generated-contracts/STMarketplace.sol:STMarketplace",
            "label": "encryptedDataHash",
            "offset": 0,
            "slot": "3",
            "type": "t_bytes32"
          },
          {
            "astId": 3370,
            "contract": "cache/solpp-generated-contracts/STMarketplace.sol:STMarketplace",
            "label": "ipfsPath",
            "offset": 0,
            "slot": "4",
            "type": "t_bytes_storage"
          },
          {
            "astId": 3372,
            "contract": "cache/solpp-generated-contracts/STMarketplace.sol:STMarketplace",
            "label": "testTemplateHash",
            "offset": 0,
            "slot": "5",
            "type": "t_bytes32"
          }
        ],
        "numberOfBytes": "192"
      },
      "t_struct(Notification)3405_storage": {
        "encoding": "inplace",
        "label": "struct ContentMarketplace.Notification",
        "members": [
          {
            "astId": 3392,
            "contract": "cache/solpp-generated-contracts/STMarketplace.sol:STMarketplace",
            "label": "purchaseId",
            "offset": 0,
            "slot": "0",
            "type": "t_uint256"
          },
          {
            "astId": 3394,
            "contract": "cache/solpp-generated-contracts/STMarketplace.sol:STMarketplace",
            "label": "message",
            "offset": 0,
            "slot": "1",
            "type": "t_string_storage"
          },
          {
            "astId": 3396,
            "contract": "cache/solpp-generated-contracts/STMarketplace.sol:STMarketplace",
            "label": "nType",
            "offset": 0,
            "slot": "2",
            "type": "t_enum(NotificationType)3390"
          },
          {
            "astId": 3398,
            "contract": "cache/solpp-generated-contracts/STMarketplace.sol:STMarketplace",
            "label": "archive",
            "offset": 1,
            "slot": "2",
            "type": "t_bool"
          },
          {
            "astId": 3400,
            "contract": "cache/solpp-generated-contracts/STMarketplace.sol:STMarketplace",
            "label": "date",
            "offset": 0,
            "slot": "3",
            "type": "t_uint256"
          },
          {
            "astId": 3402,
            "contract": "cache/solpp-generated-contracts/STMarketplace.sol:STMarketplace",
            "label": "sender",
            "offset": 0,
            "slot": "4",
            "type": "t_address"
          },
          {
            "astId": 3404,
            "contract": "cache/solpp-generated-contracts/STMarketplace.sol:STMarketplace",
            "label": "receiver",
            "offset": 0,
            "slot": "5",
            "type": "t_address"
          }
        ],
        "numberOfBytes": "192"
      },
      "t_struct(Purchase)3384_storage": {
        "encoding": "inplace",
        "label": "struct ContentMarketplace.Purchase",
        "members": [
          {
            "astId": 3375,
            "contract": "cache/solpp-generated-contracts/STMarketplace.sol:STMarketplace",
            "label": "adId",
            "offset": 0,
            "slot": "0",
            "type": "t_uint256"
          },
          {
            "astId": 3377,
            "contract": "cache/solpp-generated-contracts/STMarketplace.sol:STMarketplace",
            "label": "buyer",
            "offset": 0,
            "slot": "1",
            "type": "t_address_payable"
          },
          {
            "astId": 3379,
            "contract": "cache/solpp-generated-contracts/STMarketplace.sol:STMarketplace",
            "label": "buyerKey",
            "offset": 0,
            "slot": "2",
            "type": "t_bytes_storage"
          },
          {
            "astId": 3381,
            "contract": "cache/solpp-generated-contracts/STMarketplace.sol:STMarketplace",
            "label": "encryptedDataKey",
            "offset": 0,
            "slot": "3",
            "type": "t_bytes_storage"
          },
          {
            "astId": 3383,
            "contract": "cache/solpp-generated-contracts/STMarketplace.sol:STMarketplace",
            "label": "date",
            "offset": 0,
            "slot": "4",
            "type": "t_uint256"
          }
        ],
        "numberOfBytes": "160"
      },
      "t_struct(carSetupInfo)4140_storage": {
        "encoding": "inplace",
        "label": "struct STMarketplace.carSetupInfo",
        "members": [
          {
            "astId": 4129,
            "contract": "cache/solpp-generated-contracts/STMarketplace.sol:STMarketplace",
            "label": "carBrand",
            "offset": 0,
            "slot": "0",
            "type": "t_string_storage"
          },
          {
            "astId": 4131,
            "contract": "cache/solpp-generated-contracts/STMarketplace.sol:STMarketplace",
            "label": "track",
            "offset": 0,
            "slot": "1",
            "type": "t_string_storage"
          },
          {
            "astId": 4133,
            "contract": "cache/solpp-generated-contracts/STMarketplace.sol:STMarketplace",
            "label": "simulator",
            "offset": 0,
            "slot": "2",
            "type": "t_string_storage"
          },
          {
            "astId": 4135,
            "contract": "cache/solpp-generated-contracts/STMarketplace.sol:STMarketplace",
            "label": "season",
            "offset": 0,
            "slot": "3",
            "type": "t_string_storage"
          },
          {
            "astId": 4137,
            "contract": "cache/solpp-generated-contracts/STMarketplace.sol:STMarketplace",
            "label": "description",
            "offset": 0,
            "slot": "4",
            "type": "t_string_storage"
          },
          {
            "astId": 4139,
            "contract": "cache/solpp-generated-contracts/STMarketplace.sol:STMarketplace",
            "label": "series",
            "offset": 0,
            "slot": "5",
            "type": "t_string_storage"
          }
        ],
        "numberOfBytes": "192"
      },
      "t_struct(carSkinInfo)4147_storage": {
        "encoding": "inplace",
        "label": "struct STMarketplace.carSkinInfo",
        "members": [
          {
            "astId": 4142,
            "contract": "cache/solpp-generated-contracts/STMarketplace.sol:STMarketplace",
            "label": "carBrand",
            "offset": 0,
            "slot": "0",
            "type": "t_string_storage"
          },
          {
            "astId": 4144,
            "contract": "cache/solpp-generated-contracts/STMarketplace.sol:STMarketplace",
            "label": "simulator",
            "offset": 0,
            "slot": "1",
            "type": "t_string_storage"
          },
          {
            "astId": 4146,
            "contract": "cache/solpp-generated-contracts/STMarketplace.sol:STMarketplace",
            "label": "skinPic",
            "offset": 0,
            "slot": "2",
            "type": "t_string_storage"
          }
        ],
        "numberOfBytes": "96"
      },
      "t_struct(comment)4172_storage": {
        "encoding": "inplace",
        "label": "struct STMarketplace.comment",
        "members": [
          {
            "astId": 4163,
            "contract": "cache/solpp-generated-contracts/STMarketplace.sol:STMarketplace",
            "label": "itemId",
            "offset": 0,
            "slot": "0",
            "type": "t_uint256"
          },
          {
            "astId": 4165,
            "contract": "cache/solpp-generated-contracts/STMarketplace.sol:STMarketplace",
            "label": "commentator",
            "offset": 0,
            "slot": "1",
            "type": "t_address"
          },
          {
            "astId": 4167,
            "contract": "cache/solpp-generated-contracts/STMarketplace.sol:STMarketplace",
            "label": "description",
            "offset": 0,
            "slot": "2",
            "type": "t_string_storage"
          },
          {
            "astId": 4169,
            "contract": "cache/solpp-generated-contracts/STMarketplace.sol:STMarketplace",
            "label": "review",
            "offset": 0,
            "slot": "3",
            "type": "t_uint256"
          },
          {
            "astId": 4171,
            "contract": "cache/solpp-generated-contracts/STMarketplace.sol:STMarketplace",
            "label": "date",
            "offset": 0,
            "slot": "4",
            "type": "t_string_storage"
          }
        ],
        "numberOfBytes": "160"
      },
      "t_uint256": {
        "encoding": "inplace",
        "label": "uint256",
        "numberOfBytes": "32"
      },
      "t_uint64": {
        "encoding": "inplace",
        "label": "uint64",
        "numberOfBytes": "8"
      },
      "t_uint8": {
        "encoding": "inplace",
        "label": "uint8",
        "numberOfBytes": "1"
      }
    }
  }
}